{"abi":[{"inputs":[],"stateMutability":"nonpayable","type":"constructor"},{"inputs":[{"internalType":"uint256","name":"index","type":"uint256"}],"name":"approveClaim","outputs":[],"stateMutability":"nonpayable","type":"function"},{"inputs":[{"internalType":"string","name":"claimerName","type":"string"},{"internalType":"string","name":"dreamJob","type":"string"},{"internalType":"string","name":"materialTitle","type":"string"},{"internalType":"string","name":"urlSource","type":"string"},{"internalType":"string","name":"purpose","type":"string"},{"internalType":"uint256","name":"value","type":"uint256"},{"internalType":"address","name":"recipientAddress","type":"address"}],"name":"claim","outputs":[],"stateMutability":"nonpayable","type":"function"},{"inputs":[{"internalType":"uint256","name":"","type":"uint256"}],"name":"claims","outputs":[{"internalType":"string","name":"claimerName","type":"string"},{"internalType":"string","name":"dreamJob","type":"string"},{"internalType":"string","name":"materialTitle","type":"string"},{"internalType":"string","name":"purpose","type":"string"},{"internalType":"string","name":"urlSource","type":"string"},{"internalType":"uint256","name":"value","type":"uint256"},{"internalType":"address","name":"claimerAddress","type":"address"},{"internalType":"address","name":"recipientAddress","type":"address"},{"internalType":"bool","name":"done","type":"bool"},{"internalType":"uint256","name":"approvedCounts","type":"uint256"}],"stateMutability":"view","type":"function"},{"inputs":[{"internalType":"string","name":"contributorName","type":"string"}],"name":"contribute","outputs":[],"stateMutability":"payable","type":"function"},{"inputs":[{"internalType":"uint256","name":"","type":"uint256"}],"name":"contributors","outputs":[{"internalType":"string","name":"contributorName","type":"string"},{"internalType":"address","name":"contributorAddress","type":"address"}],"stateMutability":"view","type":"function"},{"inputs":[],"name":"getContributors","outputs":[{"components":[{"internalType":"string","name":"contributorName","type":"string"},{"internalType":"address","name":"contributorAddress","type":"address"}],"internalType":"struct Appetito.ContributorType[]","name":"","type":"tuple[]"}],"stateMutability":"view","type":"function"},{"inputs":[],"name":"getMessages","outputs":[{"components":[{"internalType":"address","name":"sender","type":"address"},{"internalType":"string","name":"description","type":"string"}],"internalType":"struct Appetito.MessageType[]","name":"","type":"tuple[]"}],"stateMutability":"view","type":"function"},{"inputs":[{"internalType":"string","name":"description","type":"string"}],"name":"makeMessage","outputs":[],"stateMutability":"nonpayable","type":"function"},{"inputs":[{"internalType":"uint256","name":"","type":"uint256"}],"name":"messages","outputs":[{"internalType":"address","name":"sender","type":"address"},{"internalType":"string","name":"description","type":"string"}],"stateMutability":"view","type":"function"},{"inputs":[],"name":"owner","outputs":[{"internalType":"address","name":"","type":"address"}],"stateMutability":"view","type":"function"},{"inputs":[],"name":"population","outputs":[{"internalType":"uint256","name":"","type":"uint256"}],"stateMutability":"view","type":"function"},{"inputs":[{"internalType":"uint256","name":"index","type":"uint256"}],"name":"startStudy","outputs":[],"stateMutability":"payable","type":"function"}],"devdoc":{"kind":"dev","methods":{},"version":1},"evm":{"assembly":"    /* \"Appetito.sol\":57:4250  contract Appetito {... */\n  mstore(0x40, 0x80)\n    /* \"Appetito.sol\":914:1017  constructor(){... */\n  callvalue\n  dup1\n  iszero\n  tag_1\n  jumpi\n  0x00\n  dup1\n  revert\ntag_1:\n  pop\n    /* \"Appetito.sol\":941:951  msg.sender */\n  caller\n    /* \"Appetito.sol\":933:938  owner */\n  0x00\n  dup1\n    /* \"Appetito.sol\":933:951  owner = msg.sender */\n  0x0100\n  exp\n  dup2\n  sload\n  dup2\n  0xffffffffffffffffffffffffffffffffffffffff\n  mul\n  not\n  and\n  swap1\n  dup4\n  0xffffffffffffffffffffffffffffffffffffffff\n  and\n  mul\n  or\n  swap1\n  sstore\n  pop\n    /* \"Appetito.sol\":990:994  true */\n  0x01\n    /* \"Appetito.sol\":957:975  mappedParticipants */\n  dup1\n    /* \"Appetito.sol\":957:987  mappedParticipants[msg.sender] */\n  0x00\n    /* \"Appetito.sol\":976:986  msg.sender */\n  caller\n    /* \"Appetito.sol\":957:987  mappedParticipants[msg.sender] */\n  0xffffffffffffffffffffffffffffffffffffffff\n  and\n  0xffffffffffffffffffffffffffffffffffffffff\n  and\n  dup2\n  mstore\n  0x20\n  add\n  swap1\n  dup2\n  mstore\n  0x20\n  add\n  0x00\n  keccak256\n  0x00\n    /* \"Appetito.sol\":957:994  mappedParticipants[msg.sender] = true */\n  0x0100\n  exp\n  dup2\n  sload\n  dup2\n  0xff\n  mul\n  not\n  and\n  swap1\n  dup4\n  iszero\n  iszero\n  mul\n  or\n  swap1\n  sstore\n  pop\n    /* \"Appetito.sol\":1000:1010  population */\n  0x02\n  0x00\n    /* \"Appetito.sol\":1000:1012  population++ */\n  dup2\n  sload\n  dup1\n  swap3\n  swap2\n  swap1\n  tag_4\n  swap1\n  tag_5\n  jump\t// in\ntag_4:\n  swap2\n  swap1\n  pop\n  sstore\n  pop\n    /* \"Appetito.sol\":57:4250  contract Appetito {... */\n  jump(tag_6)\n    /* \"#utility.yul\":7:187   */\ntag_7:\n    /* \"#utility.yul\":55:132   */\n  0x4e487b7100000000000000000000000000000000000000000000000000000000\n    /* \"#utility.yul\":52:53   */\n  0x00\n    /* \"#utility.yul\":45:133   */\n  mstore\n    /* \"#utility.yul\":152:156   */\n  0x11\n    /* \"#utility.yul\":149:150   */\n  0x04\n    /* \"#utility.yul\":142:157   */\n  mstore\n    /* \"#utility.yul\":176:180   */\n  0x24\n    /* \"#utility.yul\":173:174   */\n  0x00\n    /* \"#utility.yul\":166:181   */\n  revert\n    /* \"#utility.yul\":193:270   */\ntag_8:\n    /* \"#utility.yul\":230:237   */\n  0x00\n    /* \"#utility.yul\":259:264   */\n  dup2\n    /* \"#utility.yul\":248:264   */\n  swap1\n  pop\n    /* \"#utility.yul\":193:270   */\n  swap2\n  swap1\n  pop\n  jump\t// out\n    /* \"#utility.yul\":276:509   */\ntag_5:\n    /* \"#utility.yul\":315:318   */\n  0x00\n    /* \"#utility.yul\":338:362   */\n  tag_13\n    /* \"#utility.yul\":356:361   */\n  dup3\n    /* \"#utility.yul\":338:362   */\n  tag_8\n  jump\t// in\ntag_13:\n    /* \"#utility.yul\":329:362   */\n  swap2\n  pop\n    /* \"#utility.yul\":384:450   */\n  0xffffffffffffffffffffffffffffffffffffffffffffffffffffffffffffffff\n    /* \"#utility.yul\":377:382   */\n  dup3\n    /* \"#utility.yul\":374:451   */\n  eq\n    /* \"#utility.yul\":371:474   */\n  iszero\n  tag_14\n  jumpi\n    /* \"#utility.yul\":454:472   */\n  tag_15\n  tag_7\n  jump\t// in\ntag_15:\n    /* \"#utility.yul\":371:474   */\ntag_14:\n    /* \"#utility.yul\":501:502   */\n  0x01\n    /* \"#utility.yul\":494:499   */\n  dup3\n    /* \"#utility.yul\":490:503   */\n  add\n    /* \"#utility.yul\":483:503   */\n  swap1\n  pop\n    /* \"#utility.yul\":276:509   */\n  swap2\n  swap1\n  pop\n  jump\t// out\n    /* \"Appetito.sol\":57:4250  contract Appetito {... */\ntag_6:\n  dataSize(sub_0)\n  dup1\n  dataOffset(sub_0)\n  0x00\n  codecopy\n  0x00\n  return\nstop\n\nsub_0: assembly {\n        /* \"Appetito.sol\":57:4250  contract Appetito {... */\n      mstore(0x40, 0x80)\n      jumpi(tag_1, lt(calldatasize, 0x04))\n      shr(0xe0, calldataload(0x00))\n      dup1\n      0x78880f4a\n      gt\n      tag_14\n      jumpi\n      dup1\n      0x78880f4a\n      eq\n      tag_8\n      jumpi\n      dup1\n      0x8da5cb5b\n      eq\n      tag_9\n      jumpi\n      dup1\n      0x9efb693b\n      eq\n      tag_10\n      jumpi\n      dup1\n      0xa5f7542a\n      eq\n      tag_11\n      jumpi\n      dup1\n      0xa888c2cd\n      eq\n      tag_12\n      jumpi\n      dup1\n      0xaf157c19\n      eq\n      tag_13\n      jumpi\n      jump(tag_1)\n    tag_14:\n      dup1\n      0x0d80fefd\n      eq\n      tag_2\n      jumpi\n      dup1\n      0x14d5b247\n      eq\n      tag_3\n      jumpi\n      dup1\n      0x3cb5d100\n      eq\n      tag_4\n      jumpi\n      dup1\n      0x46e30135\n      eq\n      tag_5\n      jumpi\n      dup1\n      0x5c43217b\n      eq\n      tag_6\n      jumpi\n      dup1\n      0x5ff6cbf3\n      eq\n      tag_7\n      jumpi\n    tag_1:\n      0x00\n      dup1\n      revert\n        /* \"Appetito.sol\":880:909  MessageType[] public messages */\n    tag_2:\n      callvalue\n      dup1\n      iszero\n      tag_15\n      jumpi\n      0x00\n      dup1\n      revert\n    tag_15:\n      pop\n      tag_16\n      0x04\n      dup1\n      calldatasize\n      sub\n      dup2\n      add\n      swap1\n      tag_17\n      swap2\n      swap1\n      tag_18\n      jump\t// in\n    tag_17:\n      tag_19\n      jump\t// in\n    tag_16:\n      mload(0x40)\n      tag_20\n      swap3\n      swap2\n      swap1\n      tag_21\n      jump\t// in\n    tag_20:\n      mload(0x40)\n      dup1\n      swap2\n      sub\n      swap1\n      return\n        /* \"Appetito.sol\":3915:4154  function makeMessage(string memory description) public {... */\n    tag_3:\n      callvalue\n      dup1\n      iszero\n      tag_22\n      jumpi\n      0x00\n      dup1\n      revert\n    tag_22:\n      pop\n      tag_23\n      0x04\n      dup1\n      calldatasize\n      sub\n      dup2\n      add\n      swap1\n      tag_24\n      swap2\n      swap1\n      tag_25\n      jump\t// in\n    tag_24:\n      tag_26\n      jump\t// in\n    tag_23:\n      stop\n        /* \"Appetito.sol\":644:681  ContributorType[] public contributors */\n    tag_4:\n      callvalue\n      dup1\n      iszero\n      tag_27\n      jumpi\n      0x00\n      dup1\n      revert\n    tag_27:\n      pop\n      tag_28\n      0x04\n      dup1\n      calldatasize\n      sub\n      dup2\n      add\n      swap1\n      tag_29\n      swap2\n      swap1\n      tag_18\n      jump\t// in\n    tag_29:\n      tag_30\n      jump\t// in\n    tag_28:\n      mload(0x40)\n      tag_31\n      swap3\n      swap2\n      swap1\n      tag_32\n      jump\t// in\n    tag_31:\n      mload(0x40)\n      dup1\n      swap2\n      sub\n      swap1\n      return\n        /* \"Appetito.sol\":2995:3556  function approveClaim(uint index) public addList(){... */\n    tag_5:\n      callvalue\n      dup1\n      iszero\n      tag_33\n      jumpi\n      0x00\n      dup1\n      revert\n    tag_33:\n      pop\n      tag_34\n      0x04\n      dup1\n      calldatasize\n      sub\n      dup2\n      add\n      swap1\n      tag_35\n      swap2\n      swap1\n      tag_18\n      jump\t// in\n    tag_35:\n      tag_36\n      jump\t// in\n    tag_34:\n      stop\n        /* \"Appetito.sol\":1168:1850  function contribute(string memory contributorName) public payable addList(){... */\n    tag_6:\n      tag_37\n      0x04\n      dup1\n      calldatasize\n      sub\n      dup2\n      add\n      swap1\n      tag_38\n      swap2\n      swap1\n      tag_25\n      jump\t// in\n    tag_38:\n      tag_39\n      jump\t// in\n    tag_37:\n      stop\n        /* \"Appetito.sol\":4158:4248  function getMessages() public view returns(MessageType[] memory){... */\n    tag_7:\n      callvalue\n      dup1\n      iszero\n      tag_40\n      jumpi\n      0x00\n      dup1\n      revert\n    tag_40:\n      pop\n      tag_41\n      tag_42\n      jump\t// in\n    tag_41:\n      mload(0x40)\n      tag_43\n      swap2\n      swap1\n      tag_44\n      jump\t// in\n    tag_43:\n      mload(0x40)\n      dup1\n      swap2\n      sub\n      swap1\n      return\n        /* \"Appetito.sol\":617:639  uint public population */\n    tag_8:\n      callvalue\n      dup1\n      iszero\n      tag_45\n      jumpi\n      0x00\n      dup1\n      revert\n    tag_45:\n      pop\n      tag_46\n      tag_47\n      jump\t// in\n    tag_46:\n      mload(0x40)\n      tag_48\n      swap2\n      swap1\n      tag_49\n      jump\t// in\n    tag_48:\n      mload(0x40)\n      dup1\n      swap2\n      sub\n      swap1\n      return\n        /* \"Appetito.sol\":464:484  address public owner */\n    tag_9:\n      callvalue\n      dup1\n      iszero\n      tag_50\n      jumpi\n      0x00\n      dup1\n      revert\n    tag_50:\n      pop\n      tag_51\n      tag_52\n      jump\t// in\n    tag_51:\n      mload(0x40)\n      tag_53\n      swap2\n      swap1\n      tag_54\n      jump\t// in\n    tag_53:\n      mload(0x40)\n      dup1\n      swap2\n      sub\n      swap1\n      return\n        /* \"Appetito.sol\":1961:2991  function claim(string memory claimerName ,string memory dreamJob, string memory materialTitle, string memory urlSource, string memory purpose, uint value, address recipientAddress) public addList(){... */\n    tag_10:\n      callvalue\n      dup1\n      iszero\n      tag_55\n      jumpi\n      0x00\n      dup1\n      revert\n    tag_55:\n      pop\n      tag_56\n      0x04\n      dup1\n      calldatasize\n      sub\n      dup2\n      add\n      swap1\n      tag_57\n      swap2\n      swap1\n      tag_58\n      jump\t// in\n    tag_57:\n      tag_59\n      jump\t// in\n    tag_56:\n      stop\n        /* \"Appetito.sol\":3560:3911  function startStudy(uint index) public payable {... */\n    tag_11:\n      tag_60\n      0x04\n      dup1\n      calldatasize\n      sub\n      dup2\n      add\n      swap1\n      tag_61\n      swap2\n      swap1\n      tag_18\n      jump\t// in\n    tag_61:\n      tag_62\n      jump\t// in\n    tag_60:\n      stop\n        /* \"Appetito.sol\":744:769  ClaimType[] public claims */\n    tag_12:\n      callvalue\n      dup1\n      iszero\n      tag_63\n      jumpi\n      0x00\n      dup1\n      revert\n    tag_63:\n      pop\n      tag_64\n      0x04\n      dup1\n      calldatasize\n      sub\n      dup2\n      add\n      swap1\n      tag_65\n      swap2\n      swap1\n      tag_18\n      jump\t// in\n    tag_65:\n      tag_66\n      jump\t// in\n    tag_64:\n      mload(0x40)\n      tag_67\n      swap11\n      swap10\n      swap9\n      swap8\n      swap7\n      swap6\n      swap5\n      swap4\n      swap3\n      swap2\n      swap1\n      tag_68\n      jump\t// in\n    tag_67:\n      mload(0x40)\n      dup1\n      swap2\n      sub\n      swap1\n      return\n        /* \"Appetito.sol\":1854:1956  function getContributors() public view returns(ContributorType[] memory){... */\n    tag_13:\n      callvalue\n      dup1\n      iszero\n      tag_69\n      jumpi\n      0x00\n      dup1\n      revert\n    tag_69:\n      pop\n      tag_70\n      tag_71\n      jump\t// in\n    tag_70:\n      mload(0x40)\n      tag_72\n      swap2\n      swap1\n      tag_73\n      jump\t// in\n    tag_72:\n      mload(0x40)\n      dup1\n      swap2\n      sub\n      swap1\n      return\n        /* \"Appetito.sol\":880:909  MessageType[] public messages */\n    tag_19:\n      0x05\n      dup2\n      dup2\n      sload\n      dup2\n      lt\n      tag_74\n      jumpi\n      0x00\n      dup1\n      revert\n    tag_74:\n      swap1\n      0x00\n      mstore\n      keccak256(0x00, 0x20)\n      swap1\n      0x02\n      mul\n      add\n      0x00\n      swap2\n      pop\n      swap1\n      pop\n      dup1\n      0x00\n      add\n      0x00\n      swap1\n      sload\n      swap1\n      0x0100\n      exp\n      swap1\n      div\n      0xffffffffffffffffffffffffffffffffffffffff\n      and\n      swap1\n      dup1\n      0x01\n      add\n      dup1\n      sload\n      tag_76\n      swap1\n      tag_77\n      jump\t// in\n    tag_76:\n      dup1\n      0x1f\n      add\n      0x20\n      dup1\n      swap2\n      div\n      mul\n      0x20\n      add\n      mload(0x40)\n      swap1\n      dup2\n      add\n      0x40\n      mstore\n      dup1\n      swap3\n      swap2\n      swap1\n      dup2\n      dup2\n      mstore\n      0x20\n      add\n      dup3\n      dup1\n      sload\n      tag_78\n      swap1\n      tag_77\n      jump\t// in\n    tag_78:\n      dup1\n      iszero\n      tag_79\n      jumpi\n      dup1\n      0x1f\n      lt\n      tag_80\n      jumpi\n      0x0100\n      dup1\n      dup4\n      sload\n      div\n      mul\n      dup4\n      mstore\n      swap2\n      0x20\n      add\n      swap2\n      jump(tag_79)\n    tag_80:\n      dup3\n      add\n      swap2\n      swap1\n      0x00\n      mstore\n      keccak256(0x00, 0x20)\n      swap1\n    tag_81:\n      dup2\n      sload\n      dup2\n      mstore\n      swap1\n      0x01\n      add\n      swap1\n      0x20\n      add\n      dup1\n      dup4\n      gt\n      tag_81\n      jumpi\n      dup3\n      swap1\n      sub\n      0x1f\n      and\n      dup3\n      add\n      swap2\n    tag_79:\n      pop\n      pop\n      pop\n      pop\n      pop\n      swap1\n      pop\n      dup3\n      jump\t// out\n        /* \"Appetito.sol\":3915:4154  function makeMessage(string memory description) public {... */\n    tag_26:\n        /* \"Appetito.sol\":3976:3986  uint index */\n      0x00\n        /* \"Appetito.sol\":3989:3997  messages */\n      0x05\n        /* \"Appetito.sol\":3989:4004  messages.length */\n      dup1\n      sload\n      swap1\n      pop\n        /* \"Appetito.sol\":3976:4004  uint index = messages.length */\n      swap1\n      pop\n        /* \"Appetito.sol\":4010:4018  messages */\n      0x05\n        /* \"Appetito.sol\":4010:4025  messages.push() */\n      0x01\n      dup2\n      0x01\n      dup2\n      sload\n      add\n      dup1\n      dup3\n      sstore\n      dup1\n      swap2\n      pop\n      pop\n      sub\n      swap1\n      0x00\n      mstore\n      keccak256(0x00, 0x20)\n      swap1\n      pop\n      pop\n        /* \"Appetito.sol\":4032:4059  MessageType storage message */\n      0x00\n        /* \"Appetito.sol\":4062:4070  messages */\n      0x05\n        /* \"Appetito.sol\":4071:4076  index */\n      dup3\n        /* \"Appetito.sol\":4062:4077  messages[index] */\n      dup2\n      sload\n      dup2\n      lt\n      tag_84\n      jumpi\n      tag_85\n      tag_86\n      jump\t// in\n    tag_85:\n    tag_84:\n      swap1\n      0x00\n      mstore\n      keccak256(0x00, 0x20)\n      swap1\n      0x02\n      mul\n      add\n        /* \"Appetito.sol\":4032:4077  MessageType storage message = messages[index] */\n      swap1\n      pop\n        /* \"Appetito.sol\":4100:4110  msg.sender */\n      caller\n        /* \"Appetito.sol\":4083:4090  message */\n      dup2\n        /* \"Appetito.sol\":4083:4097  message.sender */\n      0x00\n      add\n      0x00\n        /* \"Appetito.sol\":4083:4110  message.sender = msg.sender */\n      0x0100\n      exp\n      dup2\n      sload\n      dup2\n      0xffffffffffffffffffffffffffffffffffffffff\n      mul\n      not\n      and\n      swap1\n      dup4\n      0xffffffffffffffffffffffffffffffffffffffff\n      and\n      mul\n      or\n      swap1\n      sstore\n      pop\n        /* \"Appetito.sol\":4138:4149  description */\n      dup3\n        /* \"Appetito.sol\":4116:4123  message */\n      dup2\n        /* \"Appetito.sol\":4116:4135  message.description */\n      0x01\n      add\n        /* \"Appetito.sol\":4116:4149  message.description = description */\n      swap1\n      dup1\n      mload\n      swap1\n      0x20\n      add\n      swap1\n      tag_88\n      swap3\n      swap2\n      swap1\n      tag_89\n      jump\t// in\n    tag_88:\n      pop\n        /* \"Appetito.sol\":3970:4154  {... */\n      pop\n      pop\n        /* \"Appetito.sol\":3915:4154  function makeMessage(string memory description) public {... */\n      pop\n      jump\t// out\n        /* \"Appetito.sol\":644:681  ContributorType[] public contributors */\n    tag_30:\n      0x03\n      dup2\n      dup2\n      sload\n      dup2\n      lt\n      tag_90\n      jumpi\n      0x00\n      dup1\n      revert\n    tag_90:\n      swap1\n      0x00\n      mstore\n      keccak256(0x00, 0x20)\n      swap1\n      0x02\n      mul\n      add\n      0x00\n      swap2\n      pop\n      swap1\n      pop\n      dup1\n      0x00\n      add\n      dup1\n      sload\n      tag_92\n      swap1\n      tag_77\n      jump\t// in\n    tag_92:\n      dup1\n      0x1f\n      add\n      0x20\n      dup1\n      swap2\n      div\n      mul\n      0x20\n      add\n      mload(0x40)\n      swap1\n      dup2\n      add\n      0x40\n      mstore\n      dup1\n      swap3\n      swap2\n      swap1\n      dup2\n      dup2\n      mstore\n      0x20\n      add\n      dup3\n      dup1\n      sload\n      tag_93\n      swap1\n      tag_77\n      jump\t// in\n    tag_93:\n      dup1\n      iszero\n      tag_94\n      jumpi\n      dup1\n      0x1f\n      lt\n      tag_95\n      jumpi\n      0x0100\n      dup1\n      dup4\n      sload\n      div\n      mul\n      dup4\n      mstore\n      swap2\n      0x20\n      add\n      swap2\n      jump(tag_94)\n    tag_95:\n      dup3\n      add\n      swap2\n      swap1\n      0x00\n      mstore\n      keccak256(0x00, 0x20)\n      swap1\n    tag_96:\n      dup2\n      sload\n      dup2\n      mstore\n      swap1\n      0x01\n      add\n      swap1\n      0x20\n      add\n      dup1\n      dup4\n      gt\n      tag_96\n      jumpi\n      dup3\n      swap1\n      sub\n      0x1f\n      and\n      dup3\n      add\n      swap2\n    tag_94:\n      pop\n      pop\n      pop\n      pop\n      pop\n      swap1\n      dup1\n      0x01\n      add\n      0x00\n      swap1\n      sload\n      swap1\n      0x0100\n      exp\n      swap1\n      div\n      0xffffffffffffffffffffffffffffffffffffffff\n      and\n      swap1\n      pop\n      dup3\n      jump\t// out\n        /* \"Appetito.sol\":2995:3556  function approveClaim(uint index) public addList(){... */\n    tag_36:\n        /* \"Appetito.sol\":3051:3074  ClaimType storage claim */\n      0x00\n        /* \"Appetito.sol\":3077:3083  claims */\n      0x04\n        /* \"Appetito.sol\":3084:3089  index */\n      dup3\n        /* \"Appetito.sol\":3077:3090  claims[index] */\n      dup2\n      sload\n      dup2\n      lt\n      tag_99\n      jumpi\n      tag_100\n      tag_86\n      jump\t// in\n    tag_100:\n    tag_99:\n      swap1\n      0x00\n      mstore\n      keccak256(0x00, 0x20)\n      swap1\n      0x0a\n      mul\n      add\n        /* \"Appetito.sol\":3051:3090  ClaimType storage claim = claims[index] */\n      swap1\n      pop\n        /* \"Appetito.sol\":3106:3111  claim */\n      dup1\n        /* \"Appetito.sol\":3106:3121  claim.approvers */\n      0x08\n      add\n        /* \"Appetito.sol\":3106:3133  claim.approvers[msg.sender] */\n      0x00\n        /* \"Appetito.sol\":3122:3132  msg.sender */\n      caller\n        /* \"Appetito.sol\":3106:3133  claim.approvers[msg.sender] */\n      0xffffffffffffffffffffffffffffffffffffffff\n      and\n      0xffffffffffffffffffffffffffffffffffffffff\n      and\n      dup2\n      mstore\n      0x20\n      add\n      swap1\n      dup2\n      mstore\n      0x20\n      add\n      0x00\n      keccak256\n      0x00\n      swap1\n      sload\n      swap1\n      0x0100\n      exp\n      swap1\n      div\n      0xff\n      and\n        /* \"Appetito.sol\":3105:3133  !claim.approvers[msg.sender] */\n      iszero\n        /* \"Appetito.sol\":3097:3134  require(!claim.approvers[msg.sender]) */\n      tag_102\n      jumpi\n      0x00\n      dup1\n      revert\n    tag_102:\n        /* \"Appetito.sol\":3172:3182  msg.sender */\n      caller\n        /* \"Appetito.sol\":3148:3182  claim.claimerAddress != msg.sender */\n      0xffffffffffffffffffffffffffffffffffffffff\n      and\n        /* \"Appetito.sol\":3148:3153  claim */\n      dup2\n        /* \"Appetito.sol\":3148:3168  claim.claimerAddress */\n      0x06\n      add\n      0x00\n      swap1\n      sload\n      swap1\n      0x0100\n      exp\n      swap1\n      div\n      0xffffffffffffffffffffffffffffffffffffffff\n      and\n        /* \"Appetito.sol\":3148:3182  claim.claimerAddress != msg.sender */\n      0xffffffffffffffffffffffffffffffffffffffff\n      and\n      eq\n      iszero\n        /* \"Appetito.sol\":3140:3183  require(claim.claimerAddress != msg.sender) */\n      tag_103\n      jumpi\n      0x00\n      dup1\n      revert\n    tag_103:\n        /* \"Appetito.sol\":3219:3223  true */\n      0x01\n        /* \"Appetito.sol\":3189:3194  claim */\n      dup2\n        /* \"Appetito.sol\":3189:3204  claim.approvers */\n      0x08\n      add\n        /* \"Appetito.sol\":3189:3216  claim.approvers[msg.sender] */\n      0x00\n        /* \"Appetito.sol\":3205:3215  msg.sender */\n      caller\n        /* \"Appetito.sol\":3189:3216  claim.approvers[msg.sender] */\n      0xffffffffffffffffffffffffffffffffffffffff\n      and\n      0xffffffffffffffffffffffffffffffffffffffff\n      and\n      dup2\n      mstore\n      0x20\n      add\n      swap1\n      dup2\n      mstore\n      0x20\n      add\n      0x00\n      keccak256\n      0x00\n        /* \"Appetito.sol\":3189:3223  claim.approvers[msg.sender] = true */\n      0x0100\n      exp\n      dup2\n      sload\n      dup2\n      0xff\n      mul\n      not\n      and\n      swap1\n      dup4\n      iszero\n      iszero\n      mul\n      or\n      swap1\n      sstore\n      pop\n        /* \"Appetito.sol\":3229:3234  claim */\n      dup1\n        /* \"Appetito.sol\":3229:3249  claim.approvedCounts */\n      0x09\n      add\n      0x00\n        /* \"Appetito.sol\":3229:3251  claim.approvedCounts++ */\n      dup2\n      sload\n      dup1\n      swap3\n      swap2\n      swap1\n      tag_104\n      swap1\n      tag_105\n      jump\t// in\n    tag_104:\n      swap2\n      swap1\n      pop\n      sstore\n      pop\n        /* \"Appetito.sol\":3045:3556  {... */\n      pop\n        /* \"Appetito.sol\":1057:1075  mappedParticipants */\n      0x01\n        /* \"Appetito.sol\":1057:1087  mappedParticipants[msg.sender] */\n      0x00\n        /* \"Appetito.sol\":1076:1086  msg.sender */\n      caller\n        /* \"Appetito.sol\":1057:1087  mappedParticipants[msg.sender] */\n      0xffffffffffffffffffffffffffffffffffffffff\n      and\n      0xffffffffffffffffffffffffffffffffffffffff\n      and\n      dup2\n      mstore\n      0x20\n      add\n      swap1\n      dup2\n      mstore\n      0x20\n      add\n      0x00\n      keccak256\n      0x00\n      swap1\n      sload\n      swap1\n      0x0100\n      exp\n      swap1\n      div\n      0xff\n      and\n        /* \"Appetito.sol\":1053:1160  if(!mappedParticipants[msg.sender]){... */\n      tag_106\n      jumpi\n        /* \"Appetito.sol\":1129:1133  true */\n      0x01\n        /* \"Appetito.sol\":1096:1114  mappedParticipants */\n      dup1\n        /* \"Appetito.sol\":1096:1126  mappedParticipants[msg.sender] */\n      0x00\n        /* \"Appetito.sol\":1115:1125  msg.sender */\n      caller\n        /* \"Appetito.sol\":1096:1126  mappedParticipants[msg.sender] */\n      0xffffffffffffffffffffffffffffffffffffffff\n      and\n      0xffffffffffffffffffffffffffffffffffffffff\n      and\n      dup2\n      mstore\n      0x20\n      add\n      swap1\n      dup2\n      mstore\n      0x20\n      add\n      0x00\n      keccak256\n      0x00\n        /* \"Appetito.sol\":1096:1133  mappedParticipants[msg.sender] = true */\n      0x0100\n      exp\n      dup2\n      sload\n      dup2\n      0xff\n      mul\n      not\n      and\n      swap1\n      dup4\n      iszero\n      iszero\n      mul\n      or\n      swap1\n      sstore\n      pop\n        /* \"Appetito.sol\":1141:1151  population */\n      0x02\n      0x00\n        /* \"Appetito.sol\":1141:1153  population++ */\n      dup2\n      sload\n      dup1\n      swap3\n      swap2\n      swap1\n      tag_107\n      swap1\n      tag_105\n      jump\t// in\n    tag_107:\n      swap2\n      swap1\n      pop\n      sstore\n      pop\n        /* \"Appetito.sol\":1053:1160  if(!mappedParticipants[msg.sender]){... */\n    tag_106:\n        /* \"Appetito.sol\":2995:3556  function approveClaim(uint index) public addList(){... */\n      pop\n      jump\t// out\n        /* \"Appetito.sol\":1168:1850  function contribute(string memory contributorName) public payable addList(){... */\n    tag_39:\n        /* \"Appetito.sol\":1270:1294  0.0000000000000001 ether */\n      0x64\n        /* \"Appetito.sol\":1257:1266  msg.value */\n      callvalue\n        /* \"Appetito.sol\":1257:1294  msg.value >= 0.0000000000000001 ether */\n      lt\n      iszero\n        /* \"Appetito.sol\":1249:1295  require(msg.value >= 0.0000000000000001 ether) */\n      tag_110\n      jumpi\n      0x00\n      dup1\n      revert\n    tag_110:\n        /* \"Appetito.sol\":1301:1335  ContributorType memory contributor */\n      0x00\n        /* \"Appetito.sol\":1338:1439  ContributorType({... */\n      mload(0x40)\n      dup1\n      0x40\n      add\n      0x40\n      mstore\n      dup1\n        /* \"Appetito.sol\":1379:1394  contributorName */\n      dup4\n        /* \"Appetito.sol\":1338:1439  ContributorType({... */\n      dup2\n      mstore\n      0x20\n      add\n        /* \"Appetito.sol\":1422:1432  msg.sender */\n      caller\n        /* \"Appetito.sol\":1338:1439  ContributorType({... */\n      0xffffffffffffffffffffffffffffffffffffffff\n      and\n      dup2\n      mstore\n      pop\n        /* \"Appetito.sol\":1301:1439  ContributorType memory contributor = ContributorType({... */\n      swap1\n      pop\n        /* \"Appetito.sol\":1445:1457  contributors */\n      0x03\n        /* \"Appetito.sol\":1463:1474  contributor */\n      dup2\n        /* \"Appetito.sol\":1445:1475  contributors.push(contributor) */\n      swap1\n      dup1\n      0x01\n      dup2\n      sload\n      add\n      dup1\n      dup3\n      sstore\n      dup1\n      swap2\n      pop\n      pop\n      0x01\n      swap1\n      sub\n      swap1\n      0x00\n      mstore\n      keccak256(0x00, 0x20)\n      swap1\n      0x02\n      mul\n      add\n      0x00\n      swap1\n      swap2\n      swap1\n      swap2\n      swap1\n      swap2\n      pop\n      0x00\n      dup3\n      add\n      mload\n      dup2\n      0x00\n      add\n      swap1\n      dup1\n      mload\n      swap1\n      0x20\n      add\n      swap1\n      tag_112\n      swap3\n      swap2\n      swap1\n      tag_89\n      jump\t// in\n    tag_112:\n      pop\n      0x20\n      dup3\n      add\n      mload\n      dup2\n      0x01\n      add\n      exp(0x0100, 0x00)\n      dup2\n      sload\n      dup2\n      0xffffffffffffffffffffffffffffffffffffffff\n      mul\n      not\n      and\n      swap1\n      dup4\n      0xffffffffffffffffffffffffffffffffffffffff\n      and\n      mul\n      or\n      swap1\n      sstore\n      pop\n      pop\n      pop\n        /* \"Appetito.sol\":1243:1850  {... */\n      pop\n        /* \"Appetito.sol\":1057:1075  mappedParticipants */\n      0x01\n        /* \"Appetito.sol\":1057:1087  mappedParticipants[msg.sender] */\n      0x00\n        /* \"Appetito.sol\":1076:1086  msg.sender */\n      caller\n        /* \"Appetito.sol\":1057:1087  mappedParticipants[msg.sender] */\n      0xffffffffffffffffffffffffffffffffffffffff\n      and\n      0xffffffffffffffffffffffffffffffffffffffff\n      and\n      dup2\n      mstore\n      0x20\n      add\n      swap1\n      dup2\n      mstore\n      0x20\n      add\n      0x00\n      keccak256\n      0x00\n      swap1\n      sload\n      swap1\n      0x0100\n      exp\n      swap1\n      div\n      0xff\n      and\n        /* \"Appetito.sol\":1053:1160  if(!mappedParticipants[msg.sender]){... */\n      tag_113\n      jumpi\n        /* \"Appetito.sol\":1129:1133  true */\n      0x01\n        /* \"Appetito.sol\":1096:1114  mappedParticipants */\n      dup1\n        /* \"Appetito.sol\":1096:1126  mappedParticipants[msg.sender] */\n      0x00\n        /* \"Appetito.sol\":1115:1125  msg.sender */\n      caller\n        /* \"Appetito.sol\":1096:1126  mappedParticipants[msg.sender] */\n      0xffffffffffffffffffffffffffffffffffffffff\n      and\n      0xffffffffffffffffffffffffffffffffffffffff\n      and\n      dup2\n      mstore\n      0x20\n      add\n      swap1\n      dup2\n      mstore\n      0x20\n      add\n      0x00\n      keccak256\n      0x00\n        /* \"Appetito.sol\":1096:1133  mappedParticipants[msg.sender] = true */\n      0x0100\n      exp\n      dup2\n      sload\n      dup2\n      0xff\n      mul\n      not\n      and\n      swap1\n      dup4\n      iszero\n      iszero\n      mul\n      or\n      swap1\n      sstore\n      pop\n        /* \"Appetito.sol\":1141:1151  population */\n      0x02\n      0x00\n        /* \"Appetito.sol\":1141:1153  population++ */\n      dup2\n      sload\n      dup1\n      swap3\n      swap2\n      swap1\n      tag_114\n      swap1\n      tag_105\n      jump\t// in\n    tag_114:\n      swap2\n      swap1\n      pop\n      sstore\n      pop\n        /* \"Appetito.sol\":1053:1160  if(!mappedParticipants[msg.sender]){... */\n    tag_113:\n        /* \"Appetito.sol\":1168:1850  function contribute(string memory contributorName) public payable addList(){... */\n      pop\n      jump\t// out\n        /* \"Appetito.sol\":4158:4248  function getMessages() public view returns(MessageType[] memory){... */\n    tag_42:\n        /* \"Appetito.sol\":4201:4221  MessageType[] memory */\n      0x60\n        /* \"Appetito.sol\":4235:4243  messages */\n      0x05\n        /* \"Appetito.sol\":4228:4243  return messages */\n      dup1\n      sload\n      dup1\n      0x20\n      mul\n      0x20\n      add\n      mload(0x40)\n      swap1\n      dup2\n      add\n      0x40\n      mstore\n      dup1\n      swap3\n      swap2\n      swap1\n      dup2\n      dup2\n      mstore\n      0x20\n      add\n      0x00\n      swap1\n    tag_116:\n      dup3\n      dup3\n      lt\n      iszero\n      tag_117\n      jumpi\n      dup4\n      dup3\n      swap1\n      0x00\n      mstore\n      keccak256(0x00, 0x20)\n      swap1\n      0x02\n      mul\n      add\n      mload(0x40)\n      dup1\n      0x40\n      add\n      0x40\n      mstore\n      swap1\n      dup2\n      0x00\n      dup3\n      add\n      0x00\n      swap1\n      sload\n      swap1\n      0x0100\n      exp\n      swap1\n      div\n      0xffffffffffffffffffffffffffffffffffffffff\n      and\n      0xffffffffffffffffffffffffffffffffffffffff\n      and\n      0xffffffffffffffffffffffffffffffffffffffff\n      and\n      dup2\n      mstore\n      0x20\n      add\n      0x01\n      dup3\n      add\n      dup1\n      sload\n      tag_119\n      swap1\n      tag_77\n      jump\t// in\n    tag_119:\n      dup1\n      0x1f\n      add\n      0x20\n      dup1\n      swap2\n      div\n      mul\n      0x20\n      add\n      mload(0x40)\n      swap1\n      dup2\n      add\n      0x40\n      mstore\n      dup1\n      swap3\n      swap2\n      swap1\n      dup2\n      dup2\n      mstore\n      0x20\n      add\n      dup3\n      dup1\n      sload\n      tag_120\n      swap1\n      tag_77\n      jump\t// in\n    tag_120:\n      dup1\n      iszero\n      tag_121\n      jumpi\n      dup1\n      0x1f\n      lt\n      tag_122\n      jumpi\n      0x0100\n      dup1\n      dup4\n      sload\n      div\n      mul\n      dup4\n      mstore\n      swap2\n      0x20\n      add\n      swap2\n      jump(tag_121)\n    tag_122:\n      dup3\n      add\n      swap2\n      swap1\n      0x00\n      mstore\n      keccak256(0x00, 0x20)\n      swap1\n    tag_123:\n      dup2\n      sload\n      dup2\n      mstore\n      swap1\n      0x01\n      add\n      swap1\n      0x20\n      add\n      dup1\n      dup4\n      gt\n      tag_123\n      jumpi\n      dup3\n      swap1\n      sub\n      0x1f\n      and\n      dup3\n      add\n      swap2\n    tag_121:\n      pop\n      pop\n      pop\n      pop\n      pop\n      dup2\n      mstore\n      pop\n      pop\n      dup2\n      mstore\n      0x20\n      add\n      swap1\n      0x01\n      add\n      swap1\n      jump(tag_116)\n    tag_117:\n      pop\n      pop\n      pop\n      pop\n      swap1\n      pop\n        /* \"Appetito.sol\":4158:4248  function getMessages() public view returns(MessageType[] memory){... */\n      swap1\n      jump\t// out\n        /* \"Appetito.sol\":617:639  uint public population */\n    tag_47:\n      sload(0x02)\n      dup2\n      jump\t// out\n        /* \"Appetito.sol\":464:484  address public owner */\n    tag_52:\n      0x00\n      dup1\n      sload\n      swap1\n      0x0100\n      exp\n      swap1\n      div\n      0xffffffffffffffffffffffffffffffffffffffff\n      and\n      dup2\n      jump\t// out\n        /* \"Appetito.sol\":1961:2991  function claim(string memory claimerName ,string memory dreamJob, string memory materialTitle, string memory urlSource, string memory purpose, uint value, address recipientAddress) public addList(){... */\n    tag_59:\n        /* \"Appetito.sol\":2186:2202  recipientAddress */\n      dup1\n        /* \"Appetito.sol\":2172:2202  msg.sender != recipientAddress */\n      0xffffffffffffffffffffffffffffffffffffffff\n      and\n        /* \"Appetito.sol\":2172:2182  msg.sender */\n      caller\n        /* \"Appetito.sol\":2172:2202  msg.sender != recipientAddress */\n      0xffffffffffffffffffffffffffffffffffffffff\n      and\n      eq\n      iszero\n        /* \"Appetito.sol\":2164:2203  require(msg.sender != recipientAddress) */\n      tag_126\n      jumpi\n      0x00\n      dup1\n      revert\n    tag_126:\n        /* \"Appetito.sol\":2258:2268  uint index */\n      0x00\n        /* \"Appetito.sol\":2271:2277  claims */\n      0x04\n        /* \"Appetito.sol\":2271:2284  claims.length */\n      dup1\n      sload\n      swap1\n      pop\n        /* \"Appetito.sol\":2258:2284  uint index = claims.length */\n      swap1\n      pop\n        /* \"Appetito.sol\":2290:2296  claims */\n      0x04\n        /* \"Appetito.sol\":2290:2303  claims.push() */\n      0x01\n      dup2\n      0x01\n      dup2\n      sload\n      add\n      dup1\n      dup3\n      sstore\n      dup1\n      swap2\n      pop\n      pop\n      sub\n      swap1\n      0x00\n      mstore\n      keccak256(0x00, 0x20)\n      swap1\n      pop\n      pop\n        /* \"Appetito.sol\":2310:2333  ClaimType storage claim */\n      0x00\n        /* \"Appetito.sol\":2336:2342  claims */\n      0x04\n        /* \"Appetito.sol\":2343:2348  index */\n      dup3\n        /* \"Appetito.sol\":2336:2349  claims[index] */\n      dup2\n      sload\n      dup2\n      lt\n      tag_128\n      jumpi\n      tag_129\n      tag_86\n      jump\t// in\n    tag_129:\n    tag_128:\n      swap1\n      0x00\n      mstore\n      keccak256(0x00, 0x20)\n      swap1\n      0x0a\n      mul\n      add\n        /* \"Appetito.sol\":2310:2349  ClaimType storage claim = claims[index] */\n      swap1\n      pop\n        /* \"Appetito.sol\":2375:2386  claimerName */\n      dup9\n        /* \"Appetito.sol\":2355:2360  claim */\n      dup2\n        /* \"Appetito.sol\":2355:2372  claim.claimerName */\n      0x00\n      add\n        /* \"Appetito.sol\":2355:2386  claim.claimerName = claimerName */\n      swap1\n      dup1\n      mload\n      swap1\n      0x20\n      add\n      swap1\n      tag_131\n      swap3\n      swap2\n      swap1\n      tag_89\n      jump\t// in\n    tag_131:\n      pop\n        /* \"Appetito.sol\":2409:2417  dreamJob */\n      dup8\n        /* \"Appetito.sol\":2392:2397  claim */\n      dup2\n        /* \"Appetito.sol\":2392:2406  claim.dreamJob */\n      0x01\n      add\n        /* \"Appetito.sol\":2392:2417  claim.dreamJob = dreamJob */\n      swap1\n      dup1\n      mload\n      swap1\n      0x20\n      add\n      swap1\n      tag_132\n      swap3\n      swap2\n      swap1\n      tag_89\n      jump\t// in\n    tag_132:\n      pop\n        /* \"Appetito.sol\":2445:2458  materialTitle */\n      dup7\n        /* \"Appetito.sol\":2423:2428  claim */\n      dup2\n        /* \"Appetito.sol\":2423:2442  claim.materialTitle */\n      0x02\n      add\n        /* \"Appetito.sol\":2423:2458  claim.materialTitle = materialTitle */\n      swap1\n      dup1\n      mload\n      swap1\n      0x20\n      add\n      swap1\n      tag_133\n      swap3\n      swap2\n      swap1\n      tag_89\n      jump\t// in\n    tag_133:\n      pop\n        /* \"Appetito.sol\":2482:2491  urlSource */\n      dup6\n        /* \"Appetito.sol\":2464:2469  claim */\n      dup2\n        /* \"Appetito.sol\":2464:2479  claim.urlSource */\n      0x04\n      add\n        /* \"Appetito.sol\":2464:2491  claim.urlSource = urlSource */\n      swap1\n      dup1\n      mload\n      swap1\n      0x20\n      add\n      swap1\n      tag_134\n      swap3\n      swap2\n      swap1\n      tag_89\n      jump\t// in\n    tag_134:\n      pop\n        /* \"Appetito.sol\":2513:2520  purpose */\n      dup5\n        /* \"Appetito.sol\":2497:2502  claim */\n      dup2\n        /* \"Appetito.sol\":2497:2510  claim.purpose */\n      0x03\n      add\n        /* \"Appetito.sol\":2497:2520  claim.purpose = purpose */\n      swap1\n      dup1\n      mload\n      swap1\n      0x20\n      add\n      swap1\n      tag_135\n      swap3\n      swap2\n      swap1\n      tag_89\n      jump\t// in\n    tag_135:\n      pop\n        /* \"Appetito.sol\":2540:2545  value */\n      dup4\n        /* \"Appetito.sol\":2526:2531  claim */\n      dup2\n        /* \"Appetito.sol\":2526:2537  claim.value */\n      0x05\n      add\n        /* \"Appetito.sol\":2526:2545  claim.value = value */\n      dup2\n      swap1\n      sstore\n      pop\n        /* \"Appetito.sol\":2574:2584  msg.sender */\n      caller\n        /* \"Appetito.sol\":2551:2556  claim */\n      dup2\n        /* \"Appetito.sol\":2551:2571  claim.claimerAddress */\n      0x06\n      add\n      0x00\n        /* \"Appetito.sol\":2551:2584  claim.claimerAddress = msg.sender */\n      0x0100\n      exp\n      dup2\n      sload\n      dup2\n      0xffffffffffffffffffffffffffffffffffffffff\n      mul\n      not\n      and\n      swap1\n      dup4\n      0xffffffffffffffffffffffffffffffffffffffff\n      and\n      mul\n      or\n      swap1\n      sstore\n      pop\n        /* \"Appetito.sol\":2615:2631  recipientAddress */\n      dup3\n        /* \"Appetito.sol\":2590:2595  claim */\n      dup2\n        /* \"Appetito.sol\":2590:2612  claim.recipientAddress */\n      0x07\n      add\n      0x00\n        /* \"Appetito.sol\":2590:2631  claim.recipientAddress = recipientAddress */\n      0x0100\n      exp\n      dup2\n      sload\n      dup2\n      0xffffffffffffffffffffffffffffffffffffffff\n      mul\n      not\n      and\n      swap1\n      dup4\n      0xffffffffffffffffffffffffffffffffffffffff\n      and\n      mul\n      or\n      swap1\n      sstore\n      pop\n        /* \"Appetito.sol\":2650:2655  false */\n      0x00\n        /* \"Appetito.sol\":2637:2642  claim */\n      dup2\n        /* \"Appetito.sol\":2637:2647  claim.done */\n      0x07\n      add\n      0x14\n        /* \"Appetito.sol\":2637:2655  claim.done = false */\n      0x0100\n      exp\n      dup2\n      sload\n      dup2\n      0xff\n      mul\n      not\n      and\n      swap1\n      dup4\n      iszero\n      iszero\n      mul\n      or\n      swap1\n      sstore\n      pop\n        /* \"Appetito.sol\":2684:2685  0 */\n      0x00\n        /* \"Appetito.sol\":2661:2666  claim */\n      dup2\n        /* \"Appetito.sol\":2661:2681  claim.approvedCounts */\n      0x09\n      add\n        /* \"Appetito.sol\":2661:2685  claim.approvedCounts = 0 */\n      dup2\n      swap1\n      sstore\n      pop\n        /* \"Appetito.sol\":2158:2991  {... */\n      pop\n      pop\n        /* \"Appetito.sol\":1057:1075  mappedParticipants */\n      0x01\n        /* \"Appetito.sol\":1057:1087  mappedParticipants[msg.sender] */\n      0x00\n        /* \"Appetito.sol\":1076:1086  msg.sender */\n      caller\n        /* \"Appetito.sol\":1057:1087  mappedParticipants[msg.sender] */\n      0xffffffffffffffffffffffffffffffffffffffff\n      and\n      0xffffffffffffffffffffffffffffffffffffffff\n      and\n      dup2\n      mstore\n      0x20\n      add\n      swap1\n      dup2\n      mstore\n      0x20\n      add\n      0x00\n      keccak256\n      0x00\n      swap1\n      sload\n      swap1\n      0x0100\n      exp\n      swap1\n      div\n      0xff\n      and\n        /* \"Appetito.sol\":1053:1160  if(!mappedParticipants[msg.sender]){... */\n      tag_136\n      jumpi\n        /* \"Appetito.sol\":1129:1133  true */\n      0x01\n        /* \"Appetito.sol\":1096:1114  mappedParticipants */\n      dup1\n        /* \"Appetito.sol\":1096:1126  mappedParticipants[msg.sender] */\n      0x00\n        /* \"Appetito.sol\":1115:1125  msg.sender */\n      caller\n        /* \"Appetito.sol\":1096:1126  mappedParticipants[msg.sender] */\n      0xffffffffffffffffffffffffffffffffffffffff\n      and\n      0xffffffffffffffffffffffffffffffffffffffff\n      and\n      dup2\n      mstore\n      0x20\n      add\n      swap1\n      dup2\n      mstore\n      0x20\n      add\n      0x00\n      keccak256\n      0x00\n        /* \"Appetito.sol\":1096:1133  mappedParticipants[msg.sender] = true */\n      0x0100\n      exp\n      dup2\n      sload\n      dup2\n      0xff\n      mul\n      not\n      and\n      swap1\n      dup4\n      iszero\n      iszero\n      mul\n      or\n      swap1\n      sstore\n      pop\n        /* \"Appetito.sol\":1141:1151  population */\n      0x02\n      0x00\n        /* \"Appetito.sol\":1141:1153  population++ */\n      dup2\n      sload\n      dup1\n      swap3\n      swap2\n      swap1\n      tag_137\n      swap1\n      tag_105\n      jump\t// in\n    tag_137:\n      swap2\n      swap1\n      pop\n      sstore\n      pop\n        /* \"Appetito.sol\":1053:1160  if(!mappedParticipants[msg.sender]){... */\n    tag_136:\n        /* \"Appetito.sol\":1961:2991  function claim(string memory claimerName ,string memory dreamJob, string memory materialTitle, string memory urlSource, string memory purpose, uint value, address recipientAddress) public addList(){... */\n      pop\n      pop\n      pop\n      pop\n      pop\n      pop\n      pop\n      jump\t// out\n        /* \"Appetito.sol\":3560:3911  function startStudy(uint index) public payable {... */\n    tag_62:\n        /* \"Appetito.sol\":3613:3636  ClaimType storage claim */\n      0x00\n        /* \"Appetito.sol\":3639:3645  claims */\n      0x04\n        /* \"Appetito.sol\":3646:3651  index */\n      dup3\n        /* \"Appetito.sol\":3639:3652  claims[index] */\n      dup2\n      sload\n      dup2\n      lt\n      tag_139\n      jumpi\n      tag_140\n      tag_86\n      jump\t// in\n    tag_140:\n    tag_139:\n      swap1\n      0x00\n      mstore\n      keccak256(0x00, 0x20)\n      swap1\n      0x0a\n      mul\n      add\n        /* \"Appetito.sol\":3613:3652  ClaimType storage claim = claims[index] */\n      swap1\n      pop\n        /* \"Appetito.sol\":3681:3686  claim */\n      dup1\n        /* \"Appetito.sol\":3681:3701  claim.claimerAddress */\n      0x06\n      add\n      0x00\n      swap1\n      sload\n      swap1\n      0x0100\n      exp\n      swap1\n      div\n      0xffffffffffffffffffffffffffffffffffffffff\n      and\n        /* \"Appetito.sol\":3667:3701  msg.sender == claim.claimerAddress */\n      0xffffffffffffffffffffffffffffffffffffffff\n      and\n        /* \"Appetito.sol\":3667:3677  msg.sender */\n      caller\n        /* \"Appetito.sol\":3667:3701  msg.sender == claim.claimerAddress */\n      0xffffffffffffffffffffffffffffffffffffffff\n      and\n      eq\n        /* \"Appetito.sol\":3659:3702  require(msg.sender == claim.claimerAddress) */\n      tag_142\n      jumpi\n      0x00\n      dup1\n      revert\n    tag_142:\n        /* \"Appetito.sol\":3754:3755  2 */\n      0x02\n        /* \"Appetito.sol\":3741:3751  population */\n      dup1\n      sload\n        /* \"Appetito.sol\":3741:3755  population / 2 */\n      tag_143\n      swap2\n      swap1\n      tag_144\n      jump\t// in\n    tag_143:\n        /* \"Appetito.sol\":3716:3721  claim */\n      dup2\n        /* \"Appetito.sol\":3716:3736  claim.approvedCounts */\n      0x09\n      add\n      sload\n        /* \"Appetito.sol\":3716:3756  claim.approvedCounts >= (population / 2) */\n      lt\n      iszero\n        /* \"Appetito.sol\":3708:3757  require(claim.approvedCounts >= (population / 2)) */\n      tag_145\n      jumpi\n      0x00\n      dup1\n      revert\n    tag_145:\n        /* \"Appetito.sol\":3772:3777  claim */\n      dup1\n        /* \"Appetito.sol\":3772:3782  claim.done */\n      0x07\n      add\n      0x14\n      swap1\n      sload\n      swap1\n      0x0100\n      exp\n      swap1\n      div\n      0xff\n      and\n        /* \"Appetito.sol\":3771:3782  !claim.done */\n      iszero\n        /* \"Appetito.sol\":3763:3783  require(!claim.done) */\n      tag_146\n      jumpi\n      0x00\n      dup1\n      revert\n    tag_146:\n        /* \"Appetito.sol\":3802:3806  true */\n      0x01\n        /* \"Appetito.sol\":3789:3794  claim */\n      dup2\n        /* \"Appetito.sol\":3789:3799  claim.done */\n      0x07\n      add\n      0x14\n        /* \"Appetito.sol\":3789:3806  claim.done = true */\n      0x0100\n      exp\n      dup2\n      sload\n      dup2\n      0xff\n      mul\n      not\n      and\n      swap1\n      dup4\n      iszero\n      iszero\n      mul\n      or\n      swap1\n      sstore\n      pop\n        /* \"Appetito.sol\":3822:3827  claim */\n      dup1\n        /* \"Appetito.sol\":3822:3844  claim.recipientAddress */\n      0x07\n      add\n      0x00\n      swap1\n      sload\n      swap1\n      0x0100\n      exp\n      swap1\n      div\n      0xffffffffffffffffffffffffffffffffffffffff\n      and\n        /* \"Appetito.sol\":3813:3854  payable (claim.recipientAddress).transfer */\n      0xffffffffffffffffffffffffffffffffffffffff\n      and\n        /* \"Appetito.sol\":3813:3867  payable (claim.recipientAddress).transfer(claim.value) */\n      0x08fc\n        /* \"Appetito.sol\":3855:3860  claim */\n      dup3\n        /* \"Appetito.sol\":3855:3866  claim.value */\n      0x05\n      add\n      sload\n        /* \"Appetito.sol\":3813:3867  payable (claim.recipientAddress).transfer(claim.value) */\n      swap1\n      dup2\n      iszero\n      mul\n      swap1\n      mload(0x40)\n      0x00\n      mload(0x40)\n      dup1\n      dup4\n      sub\n      dup2\n      dup6\n      dup9\n      dup9\n      call\n      swap4\n      pop\n      pop\n      pop\n      pop\n      iszero\n      dup1\n      iszero\n      tag_148\n      jumpi\n      returndatasize\n      0x00\n      dup1\n      returndatacopy\n      revert(0x00, returndatasize)\n    tag_148:\n      pop\n        /* \"Appetito.sol\":3607:3911  {... */\n      pop\n        /* \"Appetito.sol\":3560:3911  function startStudy(uint index) public payable {... */\n      pop\n      jump\t// out\n        /* \"Appetito.sol\":744:769  ClaimType[] public claims */\n    tag_66:\n      0x04\n      dup2\n      dup2\n      sload\n      dup2\n      lt\n      tag_149\n      jumpi\n      0x00\n      dup1\n      revert\n    tag_149:\n      swap1\n      0x00\n      mstore\n      keccak256(0x00, 0x20)\n      swap1\n      0x0a\n      mul\n      add\n      0x00\n      swap2\n      pop\n      swap1\n      pop\n      dup1\n      0x00\n      add\n      dup1\n      sload\n      tag_151\n      swap1\n      tag_77\n      jump\t// in\n    tag_151:\n      dup1\n      0x1f\n      add\n      0x20\n      dup1\n      swap2\n      div\n      mul\n      0x20\n      add\n      mload(0x40)\n      swap1\n      dup2\n      add\n      0x40\n      mstore\n      dup1\n      swap3\n      swap2\n      swap1\n      dup2\n      dup2\n      mstore\n      0x20\n      add\n      dup3\n      dup1\n      sload\n      tag_152\n      swap1\n      tag_77\n      jump\t// in\n    tag_152:\n      dup1\n      iszero\n      tag_153\n      jumpi\n      dup1\n      0x1f\n      lt\n      tag_154\n      jumpi\n      0x0100\n      dup1\n      dup4\n      sload\n      div\n      mul\n      dup4\n      mstore\n      swap2\n      0x20\n      add\n      swap2\n      jump(tag_153)\n    tag_154:\n      dup3\n      add\n      swap2\n      swap1\n      0x00\n      mstore\n      keccak256(0x00, 0x20)\n      swap1\n    tag_155:\n      dup2\n      sload\n      dup2\n      mstore\n      swap1\n      0x01\n      add\n      swap1\n      0x20\n      add\n      dup1\n      dup4\n      gt\n      tag_155\n      jumpi\n      dup3\n      swap1\n      sub\n      0x1f\n      and\n      dup3\n      add\n      swap2\n    tag_153:\n      pop\n      pop\n      pop\n      pop\n      pop\n      swap1\n      dup1\n      0x01\n      add\n      dup1\n      sload\n      tag_156\n      swap1\n      tag_77\n      jump\t// in\n    tag_156:\n      dup1\n      0x1f\n      add\n      0x20\n      dup1\n      swap2\n      div\n      mul\n      0x20\n      add\n      mload(0x40)\n      swap1\n      dup2\n      add\n      0x40\n      mstore\n      dup1\n      swap3\n      swap2\n      swap1\n      dup2\n      dup2\n      mstore\n      0x20\n      add\n      dup3\n      dup1\n      sload\n      tag_157\n      swap1\n      tag_77\n      jump\t// in\n    tag_157:\n      dup1\n      iszero\n      tag_158\n      jumpi\n      dup1\n      0x1f\n      lt\n      tag_159\n      jumpi\n      0x0100\n      dup1\n      dup4\n      sload\n      div\n      mul\n      dup4\n      mstore\n      swap2\n      0x20\n      add\n      swap2\n      jump(tag_158)\n    tag_159:\n      dup3\n      add\n      swap2\n      swap1\n      0x00\n      mstore\n      keccak256(0x00, 0x20)\n      swap1\n    tag_160:\n      dup2\n      sload\n      dup2\n      mstore\n      swap1\n      0x01\n      add\n      swap1\n      0x20\n      add\n      dup1\n      dup4\n      gt\n      tag_160\n      jumpi\n      dup3\n      swap1\n      sub\n      0x1f\n      and\n      dup3\n      add\n      swap2\n    tag_158:\n      pop\n      pop\n      pop\n      pop\n      pop\n      swap1\n      dup1\n      0x02\n      add\n      dup1\n      sload\n      tag_161\n      swap1\n      tag_77\n      jump\t// in\n    tag_161:\n      dup1\n      0x1f\n      add\n      0x20\n      dup1\n      swap2\n      div\n      mul\n      0x20\n      add\n      mload(0x40)\n      swap1\n      dup2\n      add\n      0x40\n      mstore\n      dup1\n      swap3\n      swap2\n      swap1\n      dup2\n      dup2\n      mstore\n      0x20\n      add\n      dup3\n      dup1\n      sload\n      tag_162\n      swap1\n      tag_77\n      jump\t// in\n    tag_162:\n      dup1\n      iszero\n      tag_163\n      jumpi\n      dup1\n      0x1f\n      lt\n      tag_164\n      jumpi\n      0x0100\n      dup1\n      dup4\n      sload\n      div\n      mul\n      dup4\n      mstore\n      swap2\n      0x20\n      add\n      swap2\n      jump(tag_163)\n    tag_164:\n      dup3\n      add\n      swap2\n      swap1\n      0x00\n      mstore\n      keccak256(0x00, 0x20)\n      swap1\n    tag_165:\n      dup2\n      sload\n      dup2\n      mstore\n      swap1\n      0x01\n      add\n      swap1\n      0x20\n      add\n      dup1\n      dup4\n      gt\n      tag_165\n      jumpi\n      dup3\n      swap1\n      sub\n      0x1f\n      and\n      dup3\n      add\n      swap2\n    tag_163:\n      pop\n      pop\n      pop\n      pop\n      pop\n      swap1\n      dup1\n      0x03\n      add\n      dup1\n      sload\n      tag_166\n      swap1\n      tag_77\n      jump\t// in\n    tag_166:\n      dup1\n      0x1f\n      add\n      0x20\n      dup1\n      swap2\n      div\n      mul\n      0x20\n      add\n      mload(0x40)\n      swap1\n      dup2\n      add\n      0x40\n      mstore\n      dup1\n      swap3\n      swap2\n      swap1\n      dup2\n      dup2\n      mstore\n      0x20\n      add\n      dup3\n      dup1\n      sload\n      tag_167\n      swap1\n      tag_77\n      jump\t// in\n    tag_167:\n      dup1\n      iszero\n      tag_168\n      jumpi\n      dup1\n      0x1f\n      lt\n      tag_169\n      jumpi\n      0x0100\n      dup1\n      dup4\n      sload\n      div\n      mul\n      dup4\n      mstore\n      swap2\n      0x20\n      add\n      swap2\n      jump(tag_168)\n    tag_169:\n      dup3\n      add\n      swap2\n      swap1\n      0x00\n      mstore\n      keccak256(0x00, 0x20)\n      swap1\n    tag_170:\n      dup2\n      sload\n      dup2\n      mstore\n      swap1\n      0x01\n      add\n      swap1\n      0x20\n      add\n      dup1\n      dup4\n      gt\n      tag_170\n      jumpi\n      dup3\n      swap1\n      sub\n      0x1f\n      and\n      dup3\n      add\n      swap2\n    tag_168:\n      pop\n      pop\n      pop\n      pop\n      pop\n      swap1\n      dup1\n      0x04\n      add\n      dup1\n      sload\n      tag_171\n      swap1\n      tag_77\n      jump\t// in\n    tag_171:\n      dup1\n      0x1f\n      add\n      0x20\n      dup1\n      swap2\n      div\n      mul\n      0x20\n      add\n      mload(0x40)\n      swap1\n      dup2\n      add\n      0x40\n      mstore\n      dup1\n      swap3\n      swap2\n      swap1\n      dup2\n      dup2\n      mstore\n      0x20\n      add\n      dup3\n      dup1\n      sload\n      tag_172\n      swap1\n      tag_77\n      jump\t// in\n    tag_172:\n      dup1\n      iszero\n      tag_173\n      jumpi\n      dup1\n      0x1f\n      lt\n      tag_174\n      jumpi\n      0x0100\n      dup1\n      dup4\n      sload\n      div\n      mul\n      dup4\n      mstore\n      swap2\n      0x20\n      add\n      swap2\n      jump(tag_173)\n    tag_174:\n      dup3\n      add\n      swap2\n      swap1\n      0x00\n      mstore\n      keccak256(0x00, 0x20)\n      swap1\n    tag_175:\n      dup2\n      sload\n      dup2\n      mstore\n      swap1\n      0x01\n      add\n      swap1\n      0x20\n      add\n      dup1\n      dup4\n      gt\n      tag_175\n      jumpi\n      dup3\n      swap1\n      sub\n      0x1f\n      and\n      dup3\n      add\n      swap2\n    tag_173:\n      pop\n      pop\n      pop\n      pop\n      pop\n      swap1\n      dup1\n      0x05\n      add\n      sload\n      swap1\n      dup1\n      0x06\n      add\n      0x00\n      swap1\n      sload\n      swap1\n      0x0100\n      exp\n      swap1\n      div\n      0xffffffffffffffffffffffffffffffffffffffff\n      and\n      swap1\n      dup1\n      0x07\n      add\n      0x00\n      swap1\n      sload\n      swap1\n      0x0100\n      exp\n      swap1\n      div\n      0xffffffffffffffffffffffffffffffffffffffff\n      and\n      swap1\n      dup1\n      0x07\n      add\n      0x14\n      swap1\n      sload\n      swap1\n      0x0100\n      exp\n      swap1\n      div\n      0xff\n      and\n      swap1\n      dup1\n      0x09\n      add\n      sload\n      swap1\n      pop\n      dup11\n      jump\t// out\n        /* \"Appetito.sol\":1854:1956  function getContributors() public view returns(ContributorType[] memory){... */\n    tag_71:\n        /* \"Appetito.sol\":1901:1925  ContributorType[] memory */\n      0x60\n        /* \"Appetito.sol\":1939:1951  contributors */\n      0x03\n        /* \"Appetito.sol\":1932:1951  return contributors */\n      dup1\n      sload\n      dup1\n      0x20\n      mul\n      0x20\n      add\n      mload(0x40)\n      swap1\n      dup2\n      add\n      0x40\n      mstore\n      dup1\n      swap3\n      swap2\n      swap1\n      dup2\n      dup2\n      mstore\n      0x20\n      add\n      0x00\n      swap1\n    tag_177:\n      dup3\n      dup3\n      lt\n      iszero\n      tag_178\n      jumpi\n      dup4\n      dup3\n      swap1\n      0x00\n      mstore\n      keccak256(0x00, 0x20)\n      swap1\n      0x02\n      mul\n      add\n      mload(0x40)\n      dup1\n      0x40\n      add\n      0x40\n      mstore\n      swap1\n      dup2\n      0x00\n      dup3\n      add\n      dup1\n      sload\n      tag_180\n      swap1\n      tag_77\n      jump\t// in\n    tag_180:\n      dup1\n      0x1f\n      add\n      0x20\n      dup1\n      swap2\n      div\n      mul\n      0x20\n      add\n      mload(0x40)\n      swap1\n      dup2\n      add\n      0x40\n      mstore\n      dup1\n      swap3\n      swap2\n      swap1\n      dup2\n      dup2\n      mstore\n      0x20\n      add\n      dup3\n      dup1\n      sload\n      tag_181\n      swap1\n      tag_77\n      jump\t// in\n    tag_181:\n      dup1\n      iszero\n      tag_182\n      jumpi\n      dup1\n      0x1f\n      lt\n      tag_183\n      jumpi\n      0x0100\n      dup1\n      dup4\n      sload\n      div\n      mul\n      dup4\n      mstore\n      swap2\n      0x20\n      add\n      swap2\n      jump(tag_182)\n    tag_183:\n      dup3\n      add\n      swap2\n      swap1\n      0x00\n      mstore\n      keccak256(0x00, 0x20)\n      swap1\n    tag_184:\n      dup2\n      sload\n      dup2\n      mstore\n      swap1\n      0x01\n      add\n      swap1\n      0x20\n      add\n      dup1\n      dup4\n      gt\n      tag_184\n      jumpi\n      dup3\n      swap1\n      sub\n      0x1f\n      and\n      dup3\n      add\n      swap2\n    tag_182:\n      pop\n      pop\n      pop\n      pop\n      pop\n      dup2\n      mstore\n      0x20\n      add\n      0x01\n      dup3\n      add\n      0x00\n      swap1\n      sload\n      swap1\n      0x0100\n      exp\n      swap1\n      div\n      0xffffffffffffffffffffffffffffffffffffffff\n      and\n      0xffffffffffffffffffffffffffffffffffffffff\n      and\n      0xffffffffffffffffffffffffffffffffffffffff\n      and\n      dup2\n      mstore\n      pop\n      pop\n      dup2\n      mstore\n      0x20\n      add\n      swap1\n      0x01\n      add\n      swap1\n      jump(tag_177)\n    tag_178:\n      pop\n      pop\n      pop\n      pop\n      swap1\n      pop\n        /* \"Appetito.sol\":1854:1956  function getContributors() public view returns(ContributorType[] memory){... */\n      swap1\n      jump\t// out\n    tag_89:\n      dup3\n      dup1\n      sload\n      tag_185\n      swap1\n      tag_77\n      jump\t// in\n    tag_185:\n      swap1\n      0x00\n      mstore\n      keccak256(0x00, 0x20)\n      swap1\n      0x1f\n      add\n      0x20\n      swap1\n      div\n      dup2\n      add\n      swap3\n      dup3\n      tag_187\n      jumpi\n      0x00\n      dup6\n      sstore\n      jump(tag_186)\n    tag_187:\n      dup3\n      0x1f\n      lt\n      tag_188\n      jumpi\n      dup1\n      mload\n      not(0xff)\n      and\n      dup4\n      dup1\n      add\n      or\n      dup6\n      sstore\n      jump(tag_186)\n    tag_188:\n      dup3\n      dup1\n      add\n      0x01\n      add\n      dup6\n      sstore\n      dup3\n      iszero\n      tag_186\n      jumpi\n      swap2\n      dup3\n      add\n    tag_189:\n      dup3\n      dup2\n      gt\n      iszero\n      tag_190\n      jumpi\n      dup3\n      mload\n      dup3\n      sstore\n      swap2\n      0x20\n      add\n      swap2\n      swap1\n      0x01\n      add\n      swap1\n      jump(tag_189)\n    tag_190:\n    tag_186:\n      pop\n      swap1\n      pop\n      tag_191\n      swap2\n      swap1\n      tag_192\n      jump\t// in\n    tag_191:\n      pop\n      swap1\n      jump\t// out\n    tag_192:\n    tag_193:\n      dup1\n      dup3\n      gt\n      iszero\n      tag_194\n      jumpi\n      0x00\n      dup2\n      0x00\n      swap1\n      sstore\n      pop\n      0x01\n      add\n      jump(tag_193)\n    tag_194:\n      pop\n      swap1\n      jump\t// out\n        /* \"#utility.yul\":7:82   */\n    tag_195:\n        /* \"#utility.yul\":40:46   */\n      0x00\n        /* \"#utility.yul\":73:75   */\n      0x40\n        /* \"#utility.yul\":67:76   */\n      mload\n        /* \"#utility.yul\":57:76   */\n      swap1\n      pop\n        /* \"#utility.yul\":7:82   */\n      swap1\n      jump\t// out\n        /* \"#utility.yul\":88:205   */\n    tag_196:\n        /* \"#utility.yul\":197:198   */\n      0x00\n        /* \"#utility.yul\":194:195   */\n      dup1\n        /* \"#utility.yul\":187:199   */\n      revert\n        /* \"#utility.yul\":211:328   */\n    tag_197:\n        /* \"#utility.yul\":320:321   */\n      0x00\n        /* \"#utility.yul\":317:318   */\n      dup1\n        /* \"#utility.yul\":310:322   */\n      revert\n        /* \"#utility.yul\":334:411   */\n    tag_198:\n        /* \"#utility.yul\":371:378   */\n      0x00\n        /* \"#utility.yul\":400:405   */\n      dup2\n        /* \"#utility.yul\":389:405   */\n      swap1\n      pop\n        /* \"#utility.yul\":334:411   */\n      swap2\n      swap1\n      pop\n      jump\t// out\n        /* \"#utility.yul\":417:539   */\n    tag_199:\n        /* \"#utility.yul\":490:514   */\n      tag_249\n        /* \"#utility.yul\":508:513   */\n      dup2\n        /* \"#utility.yul\":490:514   */\n      tag_198\n      jump\t// in\n    tag_249:\n        /* \"#utility.yul\":483:488   */\n      dup2\n        /* \"#utility.yul\":480:515   */\n      eq\n        /* \"#utility.yul\":470:533   */\n      tag_250\n      jumpi\n        /* \"#utility.yul\":529:530   */\n      0x00\n        /* \"#utility.yul\":526:527   */\n      dup1\n        /* \"#utility.yul\":519:531   */\n      revert\n        /* \"#utility.yul\":470:533   */\n    tag_250:\n        /* \"#utility.yul\":417:539   */\n      pop\n      jump\t// out\n        /* \"#utility.yul\":545:684   */\n    tag_200:\n        /* \"#utility.yul\":591:596   */\n      0x00\n        /* \"#utility.yul\":629:635   */\n      dup2\n        /* \"#utility.yul\":616:636   */\n      calldataload\n        /* \"#utility.yul\":607:636   */\n      swap1\n      pop\n        /* \"#utility.yul\":645:678   */\n      tag_252\n        /* \"#utility.yul\":672:677   */\n      dup2\n        /* \"#utility.yul\":645:678   */\n      tag_199\n      jump\t// in\n    tag_252:\n        /* \"#utility.yul\":545:684   */\n      swap3\n      swap2\n      pop\n      pop\n      jump\t// out\n        /* \"#utility.yul\":690:1019   */\n    tag_18:\n        /* \"#utility.yul\":749:755   */\n      0x00\n        /* \"#utility.yul\":798:800   */\n      0x20\n        /* \"#utility.yul\":786:795   */\n      dup3\n        /* \"#utility.yul\":777:784   */\n      dup5\n        /* \"#utility.yul\":773:796   */\n      sub\n        /* \"#utility.yul\":769:801   */\n      slt\n        /* \"#utility.yul\":766:885   */\n      iszero\n      tag_254\n      jumpi\n        /* \"#utility.yul\":804:883   */\n      tag_255\n      tag_196\n      jump\t// in\n    tag_255:\n        /* \"#utility.yul\":766:885   */\n    tag_254:\n        /* \"#utility.yul\":924:925   */\n      0x00\n        /* \"#utility.yul\":949:1002   */\n      tag_256\n        /* \"#utility.yul\":994:1001   */\n      dup5\n        /* \"#utility.yul\":985:991   */\n      dup3\n        /* \"#utility.yul\":974:983   */\n      dup6\n        /* \"#utility.yul\":970:992   */\n      add\n        /* \"#utility.yul\":949:1002   */\n      tag_200\n      jump\t// in\n    tag_256:\n        /* \"#utility.yul\":939:1002   */\n      swap2\n      pop\n        /* \"#utility.yul\":895:1012   */\n      pop\n        /* \"#utility.yul\":690:1019   */\n      swap3\n      swap2\n      pop\n      pop\n      jump\t// out\n        /* \"#utility.yul\":1025:1151   */\n    tag_201:\n        /* \"#utility.yul\":1062:1069   */\n      0x00\n        /* \"#utility.yul\":1102:1144   */\n      0xffffffffffffffffffffffffffffffffffffffff\n        /* \"#utility.yul\":1095:1100   */\n      dup3\n        /* \"#utility.yul\":1091:1145   */\n      and\n        /* \"#utility.yul\":1080:1145   */\n      swap1\n      pop\n        /* \"#utility.yul\":1025:1151   */\n      swap2\n      swap1\n      pop\n      jump\t// out\n        /* \"#utility.yul\":1157:1253   */\n    tag_202:\n        /* \"#utility.yul\":1194:1201   */\n      0x00\n        /* \"#utility.yul\":1223:1247   */\n      tag_259\n        /* \"#utility.yul\":1241:1246   */\n      dup3\n        /* \"#utility.yul\":1223:1247   */\n      tag_201\n      jump\t// in\n    tag_259:\n        /* \"#utility.yul\":1212:1247   */\n      swap1\n      pop\n        /* \"#utility.yul\":1157:1253   */\n      swap2\n      swap1\n      pop\n      jump\t// out\n        /* \"#utility.yul\":1259:1377   */\n    tag_203:\n        /* \"#utility.yul\":1346:1370   */\n      tag_261\n        /* \"#utility.yul\":1364:1369   */\n      dup2\n        /* \"#utility.yul\":1346:1370   */\n      tag_202\n      jump\t// in\n    tag_261:\n        /* \"#utility.yul\":1341:1344   */\n      dup3\n        /* \"#utility.yul\":1334:1371   */\n      mstore\n        /* \"#utility.yul\":1259:1377   */\n      pop\n      pop\n      jump\t// out\n        /* \"#utility.yul\":1383:1482   */\n    tag_204:\n        /* \"#utility.yul\":1435:1441   */\n      0x00\n        /* \"#utility.yul\":1469:1474   */\n      dup2\n        /* \"#utility.yul\":1463:1475   */\n      mload\n        /* \"#utility.yul\":1453:1475   */\n      swap1\n      pop\n        /* \"#utility.yul\":1383:1482   */\n      swap2\n      swap1\n      pop\n      jump\t// out\n        /* \"#utility.yul\":1488:1657   */\n    tag_205:\n        /* \"#utility.yul\":1572:1583   */\n      0x00\n        /* \"#utility.yul\":1606:1612   */\n      dup3\n        /* \"#utility.yul\":1601:1604   */\n      dup3\n        /* \"#utility.yul\":1594:1613   */\n      mstore\n        /* \"#utility.yul\":1646:1650   */\n      0x20\n        /* \"#utility.yul\":1641:1644   */\n      dup3\n        /* \"#utility.yul\":1637:1651   */\n      add\n        /* \"#utility.yul\":1622:1651   */\n      swap1\n      pop\n        /* \"#utility.yul\":1488:1657   */\n      swap3\n      swap2\n      pop\n      pop\n      jump\t// out\n        /* \"#utility.yul\":1663:1970   */\n    tag_206:\n        /* \"#utility.yul\":1731:1732   */\n      0x00\n        /* \"#utility.yul\":1741:1854   */\n    tag_265:\n        /* \"#utility.yul\":1755:1761   */\n      dup4\n        /* \"#utility.yul\":1752:1753   */\n      dup2\n        /* \"#utility.yul\":1749:1762   */\n      lt\n        /* \"#utility.yul\":1741:1854   */\n      iszero\n      tag_267\n      jumpi\n        /* \"#utility.yul\":1840:1841   */\n      dup1\n        /* \"#utility.yul\":1835:1838   */\n      dup3\n        /* \"#utility.yul\":1831:1842   */\n      add\n        /* \"#utility.yul\":1825:1843   */\n      mload\n        /* \"#utility.yul\":1821:1822   */\n      dup2\n        /* \"#utility.yul\":1816:1819   */\n      dup5\n        /* \"#utility.yul\":1812:1823   */\n      add\n        /* \"#utility.yul\":1805:1844   */\n      mstore\n        /* \"#utility.yul\":1777:1779   */\n      0x20\n        /* \"#utility.yul\":1774:1775   */\n      dup2\n        /* \"#utility.yul\":1770:1780   */\n      add\n        /* \"#utility.yul\":1765:1780   */\n      swap1\n      pop\n        /* \"#utility.yul\":1741:1854   */\n      jump(tag_265)\n    tag_267:\n        /* \"#utility.yul\":1872:1878   */\n      dup4\n        /* \"#utility.yul\":1869:1870   */\n      dup2\n        /* \"#utility.yul\":1866:1879   */\n      gt\n        /* \"#utility.yul\":1863:1964   */\n      iszero\n      tag_268\n      jumpi\n        /* \"#utility.yul\":1952:1953   */\n      0x00\n        /* \"#utility.yul\":1943:1949   */\n      dup5\n        /* \"#utility.yul\":1938:1941   */\n      dup5\n        /* \"#utility.yul\":1934:1950   */\n      add\n        /* \"#utility.yul\":1927:1954   */\n      mstore\n        /* \"#utility.yul\":1863:1964   */\n    tag_268:\n        /* \"#utility.yul\":1712:1970   */\n      pop\n        /* \"#utility.yul\":1663:1970   */\n      pop\n      pop\n      pop\n      jump\t// out\n        /* \"#utility.yul\":1976:2078   */\n    tag_207:\n        /* \"#utility.yul\":2017:2023   */\n      0x00\n        /* \"#utility.yul\":2068:2070   */\n      0x1f\n        /* \"#utility.yul\":2064:2071   */\n      not\n        /* \"#utility.yul\":2059:2061   */\n      0x1f\n        /* \"#utility.yul\":2052:2057   */\n      dup4\n        /* \"#utility.yul\":2048:2062   */\n      add\n        /* \"#utility.yul\":2044:2072   */\n      and\n        /* \"#utility.yul\":2034:2072   */\n      swap1\n      pop\n        /* \"#utility.yul\":1976:2078   */\n      swap2\n      swap1\n      pop\n      jump\t// out\n        /* \"#utility.yul\":2084:2448   */\n    tag_208:\n        /* \"#utility.yul\":2172:2175   */\n      0x00\n        /* \"#utility.yul\":2200:2239   */\n      tag_271\n        /* \"#utility.yul\":2233:2238   */\n      dup3\n        /* \"#utility.yul\":2200:2239   */\n      tag_204\n      jump\t// in\n    tag_271:\n        /* \"#utility.yul\":2255:2326   */\n      tag_272\n        /* \"#utility.yul\":2319:2325   */\n      dup2\n        /* \"#utility.yul\":2314:2317   */\n      dup6\n        /* \"#utility.yul\":2255:2326   */\n      tag_205\n      jump\t// in\n    tag_272:\n        /* \"#utility.yul\":2248:2326   */\n      swap4\n      pop\n        /* \"#utility.yul\":2335:2387   */\n      tag_273\n        /* \"#utility.yul\":2380:2386   */\n      dup2\n        /* \"#utility.yul\":2375:2378   */\n      dup6\n        /* \"#utility.yul\":2368:2372   */\n      0x20\n        /* \"#utility.yul\":2361:2366   */\n      dup7\n        /* \"#utility.yul\":2357:2373   */\n      add\n        /* \"#utility.yul\":2335:2387   */\n      tag_206\n      jump\t// in\n    tag_273:\n        /* \"#utility.yul\":2412:2441   */\n      tag_274\n        /* \"#utility.yul\":2434:2440   */\n      dup2\n        /* \"#utility.yul\":2412:2441   */\n      tag_207\n      jump\t// in\n    tag_274:\n        /* \"#utility.yul\":2407:2410   */\n      dup5\n        /* \"#utility.yul\":2403:2442   */\n      add\n        /* \"#utility.yul\":2396:2442   */\n      swap2\n      pop\n        /* \"#utility.yul\":2176:2448   */\n      pop\n        /* \"#utility.yul\":2084:2448   */\n      swap3\n      swap2\n      pop\n      pop\n      jump\t// out\n        /* \"#utility.yul\":2454:2877   */\n    tag_21:\n        /* \"#utility.yul\":2595:2599   */\n      0x00\n        /* \"#utility.yul\":2633:2635   */\n      0x40\n        /* \"#utility.yul\":2622:2631   */\n      dup3\n        /* \"#utility.yul\":2618:2636   */\n      add\n        /* \"#utility.yul\":2610:2636   */\n      swap1\n      pop\n        /* \"#utility.yul\":2646:2717   */\n      tag_276\n        /* \"#utility.yul\":2714:2715   */\n      0x00\n        /* \"#utility.yul\":2703:2712   */\n      dup4\n        /* \"#utility.yul\":2699:2716   */\n      add\n        /* \"#utility.yul\":2690:2696   */\n      dup6\n        /* \"#utility.yul\":2646:2717   */\n      tag_203\n      jump\t// in\n    tag_276:\n        /* \"#utility.yul\":2764:2773   */\n      dup2\n        /* \"#utility.yul\":2758:2762   */\n      dup2\n        /* \"#utility.yul\":2754:2774   */\n      sub\n        /* \"#utility.yul\":2749:2751   */\n      0x20\n        /* \"#utility.yul\":2738:2747   */\n      dup4\n        /* \"#utility.yul\":2734:2752   */\n      add\n        /* \"#utility.yul\":2727:2775   */\n      mstore\n        /* \"#utility.yul\":2792:2870   */\n      tag_277\n        /* \"#utility.yul\":2865:2869   */\n      dup2\n        /* \"#utility.yul\":2856:2862   */\n      dup5\n        /* \"#utility.yul\":2792:2870   */\n      tag_208\n      jump\t// in\n    tag_277:\n        /* \"#utility.yul\":2784:2870   */\n      swap1\n      pop\n        /* \"#utility.yul\":2454:2877   */\n      swap4\n      swap3\n      pop\n      pop\n      pop\n      jump\t// out\n        /* \"#utility.yul\":2883:3000   */\n    tag_209:\n        /* \"#utility.yul\":2992:2993   */\n      0x00\n        /* \"#utility.yul\":2989:2990   */\n      dup1\n        /* \"#utility.yul\":2982:2994   */\n      revert\n        /* \"#utility.yul\":3006:3123   */\n    tag_210:\n        /* \"#utility.yul\":3115:3116   */\n      0x00\n        /* \"#utility.yul\":3112:3113   */\n      dup1\n        /* \"#utility.yul\":3105:3117   */\n      revert\n        /* \"#utility.yul\":3129:3309   */\n    tag_211:\n        /* \"#utility.yul\":3177:3254   */\n      0x4e487b7100000000000000000000000000000000000000000000000000000000\n        /* \"#utility.yul\":3174:3175   */\n      0x00\n        /* \"#utility.yul\":3167:3255   */\n      mstore\n        /* \"#utility.yul\":3274:3278   */\n      0x41\n        /* \"#utility.yul\":3271:3272   */\n      0x04\n        /* \"#utility.yul\":3264:3279   */\n      mstore\n        /* \"#utility.yul\":3298:3302   */\n      0x24\n        /* \"#utility.yul\":3295:3296   */\n      0x00\n        /* \"#utility.yul\":3288:3303   */\n      revert\n        /* \"#utility.yul\":3315:3596   */\n    tag_212:\n        /* \"#utility.yul\":3398:3425   */\n      tag_282\n        /* \"#utility.yul\":3420:3424   */\n      dup3\n        /* \"#utility.yul\":3398:3425   */\n      tag_207\n      jump\t// in\n    tag_282:\n        /* \"#utility.yul\":3390:3396   */\n      dup2\n        /* \"#utility.yul\":3386:3426   */\n      add\n        /* \"#utility.yul\":3528:3534   */\n      dup2\n        /* \"#utility.yul\":3516:3526   */\n      dup2\n        /* \"#utility.yul\":3513:3535   */\n      lt\n        /* \"#utility.yul\":3492:3510   */\n      0xffffffffffffffff\n        /* \"#utility.yul\":3480:3490   */\n      dup3\n        /* \"#utility.yul\":3477:3511   */\n      gt\n        /* \"#utility.yul\":3474:3536   */\n      or\n        /* \"#utility.yul\":3471:3559   */\n      iszero\n      tag_283\n      jumpi\n        /* \"#utility.yul\":3539:3557   */\n      tag_284\n      tag_211\n      jump\t// in\n    tag_284:\n        /* \"#utility.yul\":3471:3559   */\n    tag_283:\n        /* \"#utility.yul\":3579:3589   */\n      dup1\n        /* \"#utility.yul\":3575:3577   */\n      0x40\n        /* \"#utility.yul\":3568:3590   */\n      mstore\n        /* \"#utility.yul\":3358:3596   */\n      pop\n        /* \"#utility.yul\":3315:3596   */\n      pop\n      pop\n      jump\t// out\n        /* \"#utility.yul\":3602:3731   */\n    tag_213:\n        /* \"#utility.yul\":3636:3642   */\n      0x00\n        /* \"#utility.yul\":3663:3683   */\n      tag_286\n      tag_195\n      jump\t// in\n    tag_286:\n        /* \"#utility.yul\":3653:3683   */\n      swap1\n      pop\n        /* \"#utility.yul\":3692:3725   */\n      tag_287\n        /* \"#utility.yul\":3720:3724   */\n      dup3\n        /* \"#utility.yul\":3712:3718   */\n      dup3\n        /* \"#utility.yul\":3692:3725   */\n      tag_212\n      jump\t// in\n    tag_287:\n        /* \"#utility.yul\":3602:3731   */\n      swap2\n      swap1\n      pop\n      jump\t// out\n        /* \"#utility.yul\":3737:4045   */\n    tag_214:\n        /* \"#utility.yul\":3799:3803   */\n      0x00\n        /* \"#utility.yul\":3889:3907   */\n      0xffffffffffffffff\n        /* \"#utility.yul\":3881:3887   */\n      dup3\n        /* \"#utility.yul\":3878:3908   */\n      gt\n        /* \"#utility.yul\":3875:3931   */\n      iszero\n      tag_289\n      jumpi\n        /* \"#utility.yul\":3911:3929   */\n      tag_290\n      tag_211\n      jump\t// in\n    tag_290:\n        /* \"#utility.yul\":3875:3931   */\n    tag_289:\n        /* \"#utility.yul\":3949:3978   */\n      tag_291\n        /* \"#utility.yul\":3971:3977   */\n      dup3\n        /* \"#utility.yul\":3949:3978   */\n      tag_207\n      jump\t// in\n    tag_291:\n        /* \"#utility.yul\":3941:3978   */\n      swap1\n      pop\n        /* \"#utility.yul\":4033:4037   */\n      0x20\n        /* \"#utility.yul\":4027:4031   */\n      dup2\n        /* \"#utility.yul\":4023:4038   */\n      add\n        /* \"#utility.yul\":4015:4038   */\n      swap1\n      pop\n        /* \"#utility.yul\":3737:4045   */\n      swap2\n      swap1\n      pop\n      jump\t// out\n        /* \"#utility.yul\":4051:4205   */\n    tag_215:\n        /* \"#utility.yul\":4135:4141   */\n      dup3\n        /* \"#utility.yul\":4130:4133   */\n      dup2\n        /* \"#utility.yul\":4125:4128   */\n      dup4\n        /* \"#utility.yul\":4112:4142   */\n      calldatacopy\n        /* \"#utility.yul\":4197:4198   */\n      0x00\n        /* \"#utility.yul\":4188:4194   */\n      dup4\n        /* \"#utility.yul\":4183:4186   */\n      dup4\n        /* \"#utility.yul\":4179:4195   */\n      add\n        /* \"#utility.yul\":4172:4199   */\n      mstore\n        /* \"#utility.yul\":4051:4205   */\n      pop\n      pop\n      pop\n      jump\t// out\n        /* \"#utility.yul\":4211:4623   */\n    tag_216:\n        /* \"#utility.yul\":4289:4294   */\n      0x00\n        /* \"#utility.yul\":4314:4380   */\n      tag_294\n        /* \"#utility.yul\":4330:4379   */\n      tag_295\n        /* \"#utility.yul\":4372:4378   */\n      dup5\n        /* \"#utility.yul\":4330:4379   */\n      tag_214\n      jump\t// in\n    tag_295:\n        /* \"#utility.yul\":4314:4380   */\n      tag_213\n      jump\t// in\n    tag_294:\n        /* \"#utility.yul\":4305:4380   */\n      swap1\n      pop\n        /* \"#utility.yul\":4403:4409   */\n      dup3\n        /* \"#utility.yul\":4396:4401   */\n      dup2\n        /* \"#utility.yul\":4389:4410   */\n      mstore\n        /* \"#utility.yul\":4441:4445   */\n      0x20\n        /* \"#utility.yul\":4434:4439   */\n      dup2\n        /* \"#utility.yul\":4430:4446   */\n      add\n        /* \"#utility.yul\":4479:4482   */\n      dup5\n        /* \"#utility.yul\":4470:4476   */\n      dup5\n        /* \"#utility.yul\":4465:4468   */\n      dup5\n        /* \"#utility.yul\":4461:4477   */\n      add\n        /* \"#utility.yul\":4458:4483   */\n      gt\n        /* \"#utility.yul\":4455:4567   */\n      iszero\n      tag_296\n      jumpi\n        /* \"#utility.yul\":4486:4565   */\n      tag_297\n      tag_210\n      jump\t// in\n    tag_297:\n        /* \"#utility.yul\":4455:4567   */\n    tag_296:\n        /* \"#utility.yul\":4576:4617   */\n      tag_298\n        /* \"#utility.yul\":4610:4616   */\n      dup5\n        /* \"#utility.yul\":4605:4608   */\n      dup3\n        /* \"#utility.yul\":4600:4603   */\n      dup6\n        /* \"#utility.yul\":4576:4617   */\n      tag_215\n      jump\t// in\n    tag_298:\n        /* \"#utility.yul\":4295:4623   */\n      pop\n        /* \"#utility.yul\":4211:4623   */\n      swap4\n      swap3\n      pop\n      pop\n      pop\n      jump\t// out\n        /* \"#utility.yul\":4643:4983   */\n    tag_217:\n        /* \"#utility.yul\":4699:4704   */\n      0x00\n        /* \"#utility.yul\":4748:4751   */\n      dup3\n        /* \"#utility.yul\":4741:4745   */\n      0x1f\n        /* \"#utility.yul\":4733:4739   */\n      dup4\n        /* \"#utility.yul\":4729:4746   */\n      add\n        /* \"#utility.yul\":4725:4752   */\n      slt\n        /* \"#utility.yul\":4715:4837   */\n      tag_300\n      jumpi\n        /* \"#utility.yul\":4756:4835   */\n      tag_301\n      tag_209\n      jump\t// in\n    tag_301:\n        /* \"#utility.yul\":4715:4837   */\n    tag_300:\n        /* \"#utility.yul\":4873:4879   */\n      dup2\n        /* \"#utility.yul\":4860:4880   */\n      calldataload\n        /* \"#utility.yul\":4898:4977   */\n      tag_302\n        /* \"#utility.yul\":4973:4976   */\n      dup5\n        /* \"#utility.yul\":4965:4971   */\n      dup3\n        /* \"#utility.yul\":4958:4962   */\n      0x20\n        /* \"#utility.yul\":4950:4956   */\n      dup7\n        /* \"#utility.yul\":4946:4963   */\n      add\n        /* \"#utility.yul\":4898:4977   */\n      tag_216\n      jump\t// in\n    tag_302:\n        /* \"#utility.yul\":4889:4977   */\n      swap2\n      pop\n        /* \"#utility.yul\":4705:4983   */\n      pop\n        /* \"#utility.yul\":4643:4983   */\n      swap3\n      swap2\n      pop\n      pop\n      jump\t// out\n        /* \"#utility.yul\":4989:5498   */\n    tag_25:\n        /* \"#utility.yul\":5058:5064   */\n      0x00\n        /* \"#utility.yul\":5107:5109   */\n      0x20\n        /* \"#utility.yul\":5095:5104   */\n      dup3\n        /* \"#utility.yul\":5086:5093   */\n      dup5\n        /* \"#utility.yul\":5082:5105   */\n      sub\n        /* \"#utility.yul\":5078:5110   */\n      slt\n        /* \"#utility.yul\":5075:5194   */\n      iszero\n      tag_304\n      jumpi\n        /* \"#utility.yul\":5113:5192   */\n      tag_305\n      tag_196\n      jump\t// in\n    tag_305:\n        /* \"#utility.yul\":5075:5194   */\n    tag_304:\n        /* \"#utility.yul\":5261:5262   */\n      0x00\n        /* \"#utility.yul\":5250:5259   */\n      dup3\n        /* \"#utility.yul\":5246:5263   */\n      add\n        /* \"#utility.yul\":5233:5264   */\n      calldataload\n        /* \"#utility.yul\":5291:5309   */\n      0xffffffffffffffff\n        /* \"#utility.yul\":5283:5289   */\n      dup2\n        /* \"#utility.yul\":5280:5310   */\n      gt\n        /* \"#utility.yul\":5277:5394   */\n      iszero\n      tag_306\n      jumpi\n        /* \"#utility.yul\":5313:5392   */\n      tag_307\n      tag_197\n      jump\t// in\n    tag_307:\n        /* \"#utility.yul\":5277:5394   */\n    tag_306:\n        /* \"#utility.yul\":5418:5481   */\n      tag_308\n        /* \"#utility.yul\":5473:5480   */\n      dup5\n        /* \"#utility.yul\":5464:5470   */\n      dup3\n        /* \"#utility.yul\":5453:5462   */\n      dup6\n        /* \"#utility.yul\":5449:5471   */\n      add\n        /* \"#utility.yul\":5418:5481   */\n      tag_217\n      jump\t// in\n    tag_308:\n        /* \"#utility.yul\":5408:5481   */\n      swap2\n      pop\n        /* \"#utility.yul\":5204:5491   */\n      pop\n        /* \"#utility.yul\":4989:5498   */\n      swap3\n      swap2\n      pop\n      pop\n      jump\t// out\n        /* \"#utility.yul\":5504:5927   */\n    tag_32:\n        /* \"#utility.yul\":5645:5649   */\n      0x00\n        /* \"#utility.yul\":5683:5685   */\n      0x40\n        /* \"#utility.yul\":5672:5681   */\n      dup3\n        /* \"#utility.yul\":5668:5686   */\n      add\n        /* \"#utility.yul\":5660:5686   */\n      swap1\n      pop\n        /* \"#utility.yul\":5732:5741   */\n      dup2\n        /* \"#utility.yul\":5726:5730   */\n      dup2\n        /* \"#utility.yul\":5722:5742   */\n      sub\n        /* \"#utility.yul\":5718:5719   */\n      0x00\n        /* \"#utility.yul\":5707:5716   */\n      dup4\n        /* \"#utility.yul\":5703:5720   */\n      add\n        /* \"#utility.yul\":5696:5743   */\n      mstore\n        /* \"#utility.yul\":5760:5838   */\n      tag_310\n        /* \"#utility.yul\":5833:5837   */\n      dup2\n        /* \"#utility.yul\":5824:5830   */\n      dup6\n        /* \"#utility.yul\":5760:5838   */\n      tag_208\n      jump\t// in\n    tag_310:\n        /* \"#utility.yul\":5752:5838   */\n      swap1\n      pop\n        /* \"#utility.yul\":5848:5920   */\n      tag_311\n        /* \"#utility.yul\":5916:5918   */\n      0x20\n        /* \"#utility.yul\":5905:5914   */\n      dup4\n        /* \"#utility.yul\":5901:5919   */\n      add\n        /* \"#utility.yul\":5892:5898   */\n      dup5\n        /* \"#utility.yul\":5848:5920   */\n      tag_203\n      jump\t// in\n    tag_311:\n        /* \"#utility.yul\":5504:5927   */\n      swap4\n      swap3\n      pop\n      pop\n      pop\n      jump\t// out\n        /* \"#utility.yul\":5933:6074   */\n    tag_218:\n        /* \"#utility.yul\":6027:6033   */\n      0x00\n        /* \"#utility.yul\":6061:6066   */\n      dup2\n        /* \"#utility.yul\":6055:6067   */\n      mload\n        /* \"#utility.yul\":6045:6067   */\n      swap1\n      pop\n        /* \"#utility.yul\":5933:6074   */\n      swap2\n      swap1\n      pop\n      jump\t// out\n        /* \"#utility.yul\":6080:6291   */\n    tag_219:\n        /* \"#utility.yul\":6206:6217   */\n      0x00\n        /* \"#utility.yul\":6240:6246   */\n      dup3\n        /* \"#utility.yul\":6235:6238   */\n      dup3\n        /* \"#utility.yul\":6228:6247   */\n      mstore\n        /* \"#utility.yul\":6280:6284   */\n      0x20\n        /* \"#utility.yul\":6275:6278   */\n      dup3\n        /* \"#utility.yul\":6271:6285   */\n      add\n        /* \"#utility.yul\":6256:6285   */\n      swap1\n      pop\n        /* \"#utility.yul\":6080:6291   */\n      swap3\n      swap2\n      pop\n      pop\n      jump\t// out\n        /* \"#utility.yul\":6297:6456   */\n    tag_220:\n        /* \"#utility.yul\":6391:6395   */\n      0x00\n        /* \"#utility.yul\":6414:6417   */\n      dup2\n        /* \"#utility.yul\":6406:6417   */\n      swap1\n      pop\n        /* \"#utility.yul\":6444:6448   */\n      0x20\n        /* \"#utility.yul\":6439:6442   */\n      dup3\n        /* \"#utility.yul\":6435:6449   */\n      add\n        /* \"#utility.yul\":6427:6449   */\n      swap1\n      pop\n        /* \"#utility.yul\":6297:6456   */\n      swap2\n      swap1\n      pop\n      jump\t// out\n        /* \"#utility.yul\":6462:6570   */\n    tag_221:\n        /* \"#utility.yul\":6539:6563   */\n      tag_316\n        /* \"#utility.yul\":6557:6562   */\n      dup2\n        /* \"#utility.yul\":6539:6563   */\n      tag_202\n      jump\t// in\n    tag_316:\n        /* \"#utility.yul\":6534:6537   */\n      dup3\n        /* \"#utility.yul\":6527:6564   */\n      mstore\n        /* \"#utility.yul\":6462:6570   */\n      pop\n      pop\n      jump\t// out\n        /* \"#utility.yul\":6576:6735   */\n    tag_222:\n        /* \"#utility.yul\":6650:6661   */\n      0x00\n        /* \"#utility.yul\":6684:6690   */\n      dup3\n        /* \"#utility.yul\":6679:6682   */\n      dup3\n        /* \"#utility.yul\":6672:6691   */\n      mstore\n        /* \"#utility.yul\":6724:6728   */\n      0x20\n        /* \"#utility.yul\":6719:6722   */\n      dup3\n        /* \"#utility.yul\":6715:6729   */\n      add\n        /* \"#utility.yul\":6700:6729   */\n      swap1\n      pop\n        /* \"#utility.yul\":6576:6735   */\n      swap3\n      swap2\n      pop\n      pop\n      jump\t// out\n        /* \"#utility.yul\":6741:7085   */\n    tag_223:\n        /* \"#utility.yul\":6819:6822   */\n      0x00\n        /* \"#utility.yul\":6847:6886   */\n      tag_319\n        /* \"#utility.yul\":6880:6885   */\n      dup3\n        /* \"#utility.yul\":6847:6886   */\n      tag_204\n      jump\t// in\n    tag_319:\n        /* \"#utility.yul\":6902:6963   */\n      tag_320\n        /* \"#utility.yul\":6956:6962   */\n      dup2\n        /* \"#utility.yul\":6951:6954   */\n      dup6\n        /* \"#utility.yul\":6902:6963   */\n      tag_222\n      jump\t// in\n    tag_320:\n        /* \"#utility.yul\":6895:6963   */\n      swap4\n      pop\n        /* \"#utility.yul\":6972:7024   */\n      tag_321\n        /* \"#utility.yul\":7017:7023   */\n      dup2\n        /* \"#utility.yul\":7012:7015   */\n      dup6\n        /* \"#utility.yul\":7005:7009   */\n      0x20\n        /* \"#utility.yul\":6998:7003   */\n      dup7\n        /* \"#utility.yul\":6994:7010   */\n      add\n        /* \"#utility.yul\":6972:7024   */\n      tag_206\n      jump\t// in\n    tag_321:\n        /* \"#utility.yul\":7049:7078   */\n      tag_322\n        /* \"#utility.yul\":7071:7077   */\n      dup2\n        /* \"#utility.yul\":7049:7078   */\n      tag_207\n      jump\t// in\n    tag_322:\n        /* \"#utility.yul\":7044:7047   */\n      dup5\n        /* \"#utility.yul\":7040:7079   */\n      add\n        /* \"#utility.yul\":7033:7079   */\n      swap2\n      pop\n        /* \"#utility.yul\":6823:7085   */\n      pop\n        /* \"#utility.yul\":6741:7085   */\n      swap3\n      swap2\n      pop\n      pop\n      jump\t// out\n        /* \"#utility.yul\":7157:7766   */\n    tag_224:\n        /* \"#utility.yul\":7270:7273   */\n      0x00\n        /* \"#utility.yul\":7306:7310   */\n      0x40\n        /* \"#utility.yul\":7301:7304   */\n      dup4\n        /* \"#utility.yul\":7297:7311   */\n      add\n        /* \"#utility.yul\":7395:7399   */\n      0x00\n        /* \"#utility.yul\":7388:7393   */\n      dup4\n        /* \"#utility.yul\":7384:7400   */\n      add\n        /* \"#utility.yul\":7378:7401   */\n      mload\n        /* \"#utility.yul\":7414:7477   */\n      tag_324\n        /* \"#utility.yul\":7471:7475   */\n      0x00\n        /* \"#utility.yul\":7466:7469   */\n      dup7\n        /* \"#utility.yul\":7462:7476   */\n      add\n        /* \"#utility.yul\":7448:7460   */\n      dup3\n        /* \"#utility.yul\":7414:7477   */\n      tag_221\n      jump\t// in\n    tag_324:\n        /* \"#utility.yul\":7321:7487   */\n      pop\n        /* \"#utility.yul\":7576:7580   */\n      0x20\n        /* \"#utility.yul\":7569:7574   */\n      dup4\n        /* \"#utility.yul\":7565:7581   */\n      add\n        /* \"#utility.yul\":7559:7582   */\n      mload\n        /* \"#utility.yul\":7629:7632   */\n      dup5\n        /* \"#utility.yul\":7623:7627   */\n      dup3\n        /* \"#utility.yul\":7619:7633   */\n      sub\n        /* \"#utility.yul\":7612:7616   */\n      0x20\n        /* \"#utility.yul\":7607:7610   */\n      dup7\n        /* \"#utility.yul\":7603:7617   */\n      add\n        /* \"#utility.yul\":7596:7634   */\n      mstore\n        /* \"#utility.yul\":7655:7728   */\n      tag_325\n        /* \"#utility.yul\":7723:7727   */\n      dup3\n        /* \"#utility.yul\":7709:7721   */\n      dup3\n        /* \"#utility.yul\":7655:7728   */\n      tag_223\n      jump\t// in\n    tag_325:\n        /* \"#utility.yul\":7647:7728   */\n      swap2\n      pop\n        /* \"#utility.yul\":7497:7739   */\n      pop\n        /* \"#utility.yul\":7756:7760   */\n      dup1\n        /* \"#utility.yul\":7749:7760   */\n      swap2\n      pop\n        /* \"#utility.yul\":7275:7766   */\n      pop\n        /* \"#utility.yul\":7157:7766   */\n      swap3\n      swap2\n      pop\n      pop\n      jump\t// out\n        /* \"#utility.yul\":7772:8036   */\n    tag_225:\n        /* \"#utility.yul\":7895:7905   */\n      0x00\n        /* \"#utility.yul\":7930:8030   */\n      tag_327\n        /* \"#utility.yul\":8026:8029   */\n      dup4\n        /* \"#utility.yul\":8018:8024   */\n      dup4\n        /* \"#utility.yul\":7930:8030   */\n      tag_224\n      jump\t// in\n    tag_327:\n        /* \"#utility.yul\":7916:8030   */\n      swap1\n      pop\n        /* \"#utility.yul\":7772:8036   */\n      swap3\n      swap2\n      pop\n      pop\n      jump\t// out\n        /* \"#utility.yul\":8042:8182   */\n    tag_226:\n        /* \"#utility.yul\":8139:8143   */\n      0x00\n        /* \"#utility.yul\":8171:8175   */\n      0x20\n        /* \"#utility.yul\":8166:8169   */\n      dup3\n        /* \"#utility.yul\":8162:8176   */\n      add\n        /* \"#utility.yul\":8154:8176   */\n      swap1\n      pop\n        /* \"#utility.yul\":8042:8182   */\n      swap2\n      swap1\n      pop\n      jump\t// out\n        /* \"#utility.yul\":8258:9385   */\n    tag_227:\n        /* \"#utility.yul\":8431:8434   */\n      0x00\n        /* \"#utility.yul\":8460:8541   */\n      tag_330\n        /* \"#utility.yul\":8535:8540   */\n      dup3\n        /* \"#utility.yul\":8460:8541   */\n      tag_218\n      jump\t// in\n    tag_330:\n        /* \"#utility.yul\":8557:8670   */\n      tag_331\n        /* \"#utility.yul\":8663:8669   */\n      dup2\n        /* \"#utility.yul\":8658:8661   */\n      dup6\n        /* \"#utility.yul\":8557:8670   */\n      tag_219\n      jump\t// in\n    tag_331:\n        /* \"#utility.yul\":8550:8670   */\n      swap4\n      pop\n        /* \"#utility.yul\":8696:8699   */\n      dup4\n        /* \"#utility.yul\":8741:8745   */\n      0x20\n        /* \"#utility.yul\":8733:8739   */\n      dup3\n        /* \"#utility.yul\":8729:8746   */\n      mul\n        /* \"#utility.yul\":8724:8727   */\n      dup6\n        /* \"#utility.yul\":8720:8747   */\n      add\n        /* \"#utility.yul\":8771:8854   */\n      tag_332\n        /* \"#utility.yul\":8848:8853   */\n      dup6\n        /* \"#utility.yul\":8771:8854   */\n      tag_220\n      jump\t// in\n    tag_332:\n        /* \"#utility.yul\":8877:8884   */\n      dup1\n        /* \"#utility.yul\":8908:8909   */\n      0x00\n        /* \"#utility.yul\":8893:9340   */\n    tag_333:\n        /* \"#utility.yul\":8918:8924   */\n      dup6\n        /* \"#utility.yul\":8915:8916   */\n      dup2\n        /* \"#utility.yul\":8912:8925   */\n      lt\n        /* \"#utility.yul\":8893:9340   */\n      iszero\n      tag_335\n      jumpi\n        /* \"#utility.yul\":8989:8998   */\n      dup5\n        /* \"#utility.yul\":8983:8987   */\n      dup5\n        /* \"#utility.yul\":8979:8999   */\n      sub\n        /* \"#utility.yul\":8974:8977   */\n      dup10\n        /* \"#utility.yul\":8967:9000   */\n      mstore\n        /* \"#utility.yul\":9040:9046   */\n      dup2\n        /* \"#utility.yul\":9034:9047   */\n      mload\n        /* \"#utility.yul\":9068:9186   */\n      tag_336\n        /* \"#utility.yul\":9181:9185   */\n      dup6\n        /* \"#utility.yul\":9166:9179   */\n      dup3\n        /* \"#utility.yul\":9068:9186   */\n      tag_225\n      jump\t// in\n    tag_336:\n        /* \"#utility.yul\":9060:9186   */\n      swap5\n      pop\n        /* \"#utility.yul\":9209:9296   */\n      tag_337\n        /* \"#utility.yul\":9289:9295   */\n      dup4\n        /* \"#utility.yul\":9209:9296   */\n      tag_226\n      jump\t// in\n    tag_337:\n        /* \"#utility.yul\":9199:9296   */\n      swap3\n      pop\n        /* \"#utility.yul\":9325:9329   */\n      0x20\n        /* \"#utility.yul\":9320:9323   */\n      dup11\n        /* \"#utility.yul\":9316:9330   */\n      add\n        /* \"#utility.yul\":9309:9330   */\n      swap10\n      pop\n        /* \"#utility.yul\":8953:9340   */\n      pop\n        /* \"#utility.yul\":8940:8941   */\n      0x01\n        /* \"#utility.yul\":8937:8938   */\n      dup2\n        /* \"#utility.yul\":8933:8942   */\n      add\n        /* \"#utility.yul\":8928:8942   */\n      swap1\n      pop\n        /* \"#utility.yul\":8893:9340   */\n      jump(tag_333)\n    tag_335:\n        /* \"#utility.yul\":8897:8911   */\n      pop\n        /* \"#utility.yul\":9356:9360   */\n      dup3\n        /* \"#utility.yul\":9349:9360   */\n      swap8\n      pop\n        /* \"#utility.yul\":9376:9379   */\n      dup8\n        /* \"#utility.yul\":9369:9379   */\n      swap6\n      pop\n        /* \"#utility.yul\":8436:9385   */\n      pop\n      pop\n      pop\n      pop\n      pop\n        /* \"#utility.yul\":8258:9385   */\n      swap3\n      swap2\n      pop\n      pop\n      jump\t// out\n        /* \"#utility.yul\":9391:9872   */\n    tag_44:\n        /* \"#utility.yul\":9588:9592   */\n      0x00\n        /* \"#utility.yul\":9626:9628   */\n      0x20\n        /* \"#utility.yul\":9615:9624   */\n      dup3\n        /* \"#utility.yul\":9611:9629   */\n      add\n        /* \"#utility.yul\":9603:9629   */\n      swap1\n      pop\n        /* \"#utility.yul\":9675:9684   */\n      dup2\n        /* \"#utility.yul\":9669:9673   */\n      dup2\n        /* \"#utility.yul\":9665:9685   */\n      sub\n        /* \"#utility.yul\":9661:9662   */\n      0x00\n        /* \"#utility.yul\":9650:9659   */\n      dup4\n        /* \"#utility.yul\":9646:9663   */\n      add\n        /* \"#utility.yul\":9639:9686   */\n      mstore\n        /* \"#utility.yul\":9703:9865   */\n      tag_339\n        /* \"#utility.yul\":9860:9864   */\n      dup2\n        /* \"#utility.yul\":9851:9857   */\n      dup5\n        /* \"#utility.yul\":9703:9865   */\n      tag_227\n      jump\t// in\n    tag_339:\n        /* \"#utility.yul\":9695:9865   */\n      swap1\n      pop\n        /* \"#utility.yul\":9391:9872   */\n      swap3\n      swap2\n      pop\n      pop\n      jump\t// out\n        /* \"#utility.yul\":9878:9996   */\n    tag_228:\n        /* \"#utility.yul\":9965:9989   */\n      tag_341\n        /* \"#utility.yul\":9983:9988   */\n      dup2\n        /* \"#utility.yul\":9965:9989   */\n      tag_198\n      jump\t// in\n    tag_341:\n        /* \"#utility.yul\":9960:9963   */\n      dup3\n        /* \"#utility.yul\":9953:9990   */\n      mstore\n        /* \"#utility.yul\":9878:9996   */\n      pop\n      pop\n      jump\t// out\n        /* \"#utility.yul\":10002:10224   */\n    tag_49:\n        /* \"#utility.yul\":10095:10099   */\n      0x00\n        /* \"#utility.yul\":10133:10135   */\n      0x20\n        /* \"#utility.yul\":10122:10131   */\n      dup3\n        /* \"#utility.yul\":10118:10136   */\n      add\n        /* \"#utility.yul\":10110:10136   */\n      swap1\n      pop\n        /* \"#utility.yul\":10146:10217   */\n      tag_343\n        /* \"#utility.yul\":10214:10215   */\n      0x00\n        /* \"#utility.yul\":10203:10212   */\n      dup4\n        /* \"#utility.yul\":10199:10216   */\n      add\n        /* \"#utility.yul\":10190:10196   */\n      dup5\n        /* \"#utility.yul\":10146:10217   */\n      tag_228\n      jump\t// in\n    tag_343:\n        /* \"#utility.yul\":10002:10224   */\n      swap3\n      swap2\n      pop\n      pop\n      jump\t// out\n        /* \"#utility.yul\":10230:10452   */\n    tag_54:\n        /* \"#utility.yul\":10323:10327   */\n      0x00\n        /* \"#utility.yul\":10361:10363   */\n      0x20\n        /* \"#utility.yul\":10350:10359   */\n      dup3\n        /* \"#utility.yul\":10346:10364   */\n      add\n        /* \"#utility.yul\":10338:10364   */\n      swap1\n      pop\n        /* \"#utility.yul\":10374:10445   */\n      tag_345\n        /* \"#utility.yul\":10442:10443   */\n      0x00\n        /* \"#utility.yul\":10431:10440   */\n      dup4\n        /* \"#utility.yul\":10427:10444   */\n      add\n        /* \"#utility.yul\":10418:10424   */\n      dup5\n        /* \"#utility.yul\":10374:10445   */\n      tag_203\n      jump\t// in\n    tag_345:\n        /* \"#utility.yul\":10230:10452   */\n      swap3\n      swap2\n      pop\n      pop\n      jump\t// out\n        /* \"#utility.yul\":10458:10580   */\n    tag_229:\n        /* \"#utility.yul\":10531:10555   */\n      tag_347\n        /* \"#utility.yul\":10549:10554   */\n      dup2\n        /* \"#utility.yul\":10531:10555   */\n      tag_202\n      jump\t// in\n    tag_347:\n        /* \"#utility.yul\":10524:10529   */\n      dup2\n        /* \"#utility.yul\":10521:10556   */\n      eq\n        /* \"#utility.yul\":10511:10574   */\n      tag_348\n      jumpi\n        /* \"#utility.yul\":10570:10571   */\n      0x00\n        /* \"#utility.yul\":10567:10568   */\n      dup1\n        /* \"#utility.yul\":10560:10572   */\n      revert\n        /* \"#utility.yul\":10511:10574   */\n    tag_348:\n        /* \"#utility.yul\":10458:10580   */\n      pop\n      jump\t// out\n        /* \"#utility.yul\":10586:10725   */\n    tag_230:\n        /* \"#utility.yul\":10632:10637   */\n      0x00\n        /* \"#utility.yul\":10670:10676   */\n      dup2\n        /* \"#utility.yul\":10657:10677   */\n      calldataload\n        /* \"#utility.yul\":10648:10677   */\n      swap1\n      pop\n        /* \"#utility.yul\":10686:10719   */\n      tag_350\n        /* \"#utility.yul\":10713:10718   */\n      dup2\n        /* \"#utility.yul\":10686:10719   */\n      tag_229\n      jump\t// in\n    tag_350:\n        /* \"#utility.yul\":10586:10725   */\n      swap3\n      swap2\n      pop\n      pop\n      jump\t// out\n        /* \"#utility.yul\":10731:12834   */\n    tag_58:\n        /* \"#utility.yul\":10894:10900   */\n      0x00\n        /* \"#utility.yul\":10902:10908   */\n      dup1\n        /* \"#utility.yul\":10910:10916   */\n      0x00\n        /* \"#utility.yul\":10918:10924   */\n      dup1\n        /* \"#utility.yul\":10926:10932   */\n      0x00\n        /* \"#utility.yul\":10934:10940   */\n      dup1\n        /* \"#utility.yul\":10942:10948   */\n      0x00\n        /* \"#utility.yul\":10991:10994   */\n      0xe0\n        /* \"#utility.yul\":10979:10988   */\n      dup9\n        /* \"#utility.yul\":10970:10977   */\n      dup11\n        /* \"#utility.yul\":10966:10989   */\n      sub\n        /* \"#utility.yul\":10962:10995   */\n      slt\n        /* \"#utility.yul\":10959:11079   */\n      iszero\n      tag_352\n      jumpi\n        /* \"#utility.yul\":10998:11077   */\n      tag_353\n      tag_196\n      jump\t// in\n    tag_353:\n        /* \"#utility.yul\":10959:11079   */\n    tag_352:\n        /* \"#utility.yul\":11146:11147   */\n      0x00\n        /* \"#utility.yul\":11135:11144   */\n      dup9\n        /* \"#utility.yul\":11131:11148   */\n      add\n        /* \"#utility.yul\":11118:11149   */\n      calldataload\n        /* \"#utility.yul\":11176:11194   */\n      0xffffffffffffffff\n        /* \"#utility.yul\":11168:11174   */\n      dup2\n        /* \"#utility.yul\":11165:11195   */\n      gt\n        /* \"#utility.yul\":11162:11279   */\n      iszero\n      tag_354\n      jumpi\n        /* \"#utility.yul\":11198:11277   */\n      tag_355\n      tag_197\n      jump\t// in\n    tag_355:\n        /* \"#utility.yul\":11162:11279   */\n    tag_354:\n        /* \"#utility.yul\":11303:11366   */\n      tag_356\n        /* \"#utility.yul\":11358:11365   */\n      dup11\n        /* \"#utility.yul\":11349:11355   */\n      dup3\n        /* \"#utility.yul\":11338:11347   */\n      dup12\n        /* \"#utility.yul\":11334:11356   */\n      add\n        /* \"#utility.yul\":11303:11366   */\n      tag_217\n      jump\t// in\n    tag_356:\n        /* \"#utility.yul\":11293:11366   */\n      swap8\n      pop\n        /* \"#utility.yul\":11089:11376   */\n      pop\n        /* \"#utility.yul\":11443:11445   */\n      0x20\n        /* \"#utility.yul\":11432:11441   */\n      dup9\n        /* \"#utility.yul\":11428:11446   */\n      add\n        /* \"#utility.yul\":11415:11447   */\n      calldataload\n        /* \"#utility.yul\":11474:11492   */\n      0xffffffffffffffff\n        /* \"#utility.yul\":11466:11472   */\n      dup2\n        /* \"#utility.yul\":11463:11493   */\n      gt\n        /* \"#utility.yul\":11460:11577   */\n      iszero\n      tag_357\n      jumpi\n        /* \"#utility.yul\":11496:11575   */\n      tag_358\n      tag_197\n      jump\t// in\n    tag_358:\n        /* \"#utility.yul\":11460:11577   */\n    tag_357:\n        /* \"#utility.yul\":11601:11664   */\n      tag_359\n        /* \"#utility.yul\":11656:11663   */\n      dup11\n        /* \"#utility.yul\":11647:11653   */\n      dup3\n        /* \"#utility.yul\":11636:11645   */\n      dup12\n        /* \"#utility.yul\":11632:11654   */\n      add\n        /* \"#utility.yul\":11601:11664   */\n      tag_217\n      jump\t// in\n    tag_359:\n        /* \"#utility.yul\":11591:11664   */\n      swap7\n      pop\n        /* \"#utility.yul\":11386:11674   */\n      pop\n        /* \"#utility.yul\":11741:11743   */\n      0x40\n        /* \"#utility.yul\":11730:11739   */\n      dup9\n        /* \"#utility.yul\":11726:11744   */\n      add\n        /* \"#utility.yul\":11713:11745   */\n      calldataload\n        /* \"#utility.yul\":11772:11790   */\n      0xffffffffffffffff\n        /* \"#utility.yul\":11764:11770   */\n      dup2\n        /* \"#utility.yul\":11761:11791   */\n      gt\n        /* \"#utility.yul\":11758:11875   */\n      iszero\n      tag_360\n      jumpi\n        /* \"#utility.yul\":11794:11873   */\n      tag_361\n      tag_197\n      jump\t// in\n    tag_361:\n        /* \"#utility.yul\":11758:11875   */\n    tag_360:\n        /* \"#utility.yul\":11899:11962   */\n      tag_362\n        /* \"#utility.yul\":11954:11961   */\n      dup11\n        /* \"#utility.yul\":11945:11951   */\n      dup3\n        /* \"#utility.yul\":11934:11943   */\n      dup12\n        /* \"#utility.yul\":11930:11952   */\n      add\n        /* \"#utility.yul\":11899:11962   */\n      tag_217\n      jump\t// in\n    tag_362:\n        /* \"#utility.yul\":11889:11962   */\n      swap6\n      pop\n        /* \"#utility.yul\":11684:11972   */\n      pop\n        /* \"#utility.yul\":12039:12041   */\n      0x60\n        /* \"#utility.yul\":12028:12037   */\n      dup9\n        /* \"#utility.yul\":12024:12042   */\n      add\n        /* \"#utility.yul\":12011:12043   */\n      calldataload\n        /* \"#utility.yul\":12070:12088   */\n      0xffffffffffffffff\n        /* \"#utility.yul\":12062:12068   */\n      dup2\n        /* \"#utility.yul\":12059:12089   */\n      gt\n        /* \"#utility.yul\":12056:12173   */\n      iszero\n      tag_363\n      jumpi\n        /* \"#utility.yul\":12092:12171   */\n      tag_364\n      tag_197\n      jump\t// in\n    tag_364:\n        /* \"#utility.yul\":12056:12173   */\n    tag_363:\n        /* \"#utility.yul\":12197:12260   */\n      tag_365\n        /* \"#utility.yul\":12252:12259   */\n      dup11\n        /* \"#utility.yul\":12243:12249   */\n      dup3\n        /* \"#utility.yul\":12232:12241   */\n      dup12\n        /* \"#utility.yul\":12228:12250   */\n      add\n        /* \"#utility.yul\":12197:12260   */\n      tag_217\n      jump\t// in\n    tag_365:\n        /* \"#utility.yul\":12187:12260   */\n      swap5\n      pop\n        /* \"#utility.yul\":11982:12270   */\n      pop\n        /* \"#utility.yul\":12337:12340   */\n      0x80\n        /* \"#utility.yul\":12326:12335   */\n      dup9\n        /* \"#utility.yul\":12322:12341   */\n      add\n        /* \"#utility.yul\":12309:12342   */\n      calldataload\n        /* \"#utility.yul\":12369:12387   */\n      0xffffffffffffffff\n        /* \"#utility.yul\":12361:12367   */\n      dup2\n        /* \"#utility.yul\":12358:12388   */\n      gt\n        /* \"#utility.yul\":12355:12472   */\n      iszero\n      tag_366\n      jumpi\n        /* \"#utility.yul\":12391:12470   */\n      tag_367\n      tag_197\n      jump\t// in\n    tag_367:\n        /* \"#utility.yul\":12355:12472   */\n    tag_366:\n        /* \"#utility.yul\":12496:12559   */\n      tag_368\n        /* \"#utility.yul\":12551:12558   */\n      dup11\n        /* \"#utility.yul\":12542:12548   */\n      dup3\n        /* \"#utility.yul\":12531:12540   */\n      dup12\n        /* \"#utility.yul\":12527:12549   */\n      add\n        /* \"#utility.yul\":12496:12559   */\n      tag_217\n      jump\t// in\n    tag_368:\n        /* \"#utility.yul\":12486:12559   */\n      swap4\n      pop\n        /* \"#utility.yul\":12280:12569   */\n      pop\n        /* \"#utility.yul\":12608:12611   */\n      0xa0\n        /* \"#utility.yul\":12635:12688   */\n      tag_369\n        /* \"#utility.yul\":12680:12687   */\n      dup11\n        /* \"#utility.yul\":12671:12677   */\n      dup3\n        /* \"#utility.yul\":12660:12669   */\n      dup12\n        /* \"#utility.yul\":12656:12678   */\n      add\n        /* \"#utility.yul\":12635:12688   */\n      tag_200\n      jump\t// in\n    tag_369:\n        /* \"#utility.yul\":12625:12688   */\n      swap3\n      pop\n        /* \"#utility.yul\":12579:12698   */\n      pop\n        /* \"#utility.yul\":12737:12740   */\n      0xc0\n        /* \"#utility.yul\":12764:12817   */\n      tag_370\n        /* \"#utility.yul\":12809:12816   */\n      dup11\n        /* \"#utility.yul\":12800:12806   */\n      dup3\n        /* \"#utility.yul\":12789:12798   */\n      dup12\n        /* \"#utility.yul\":12785:12807   */\n      add\n        /* \"#utility.yul\":12764:12817   */\n      tag_230\n      jump\t// in\n    tag_370:\n        /* \"#utility.yul\":12754:12817   */\n      swap2\n      pop\n        /* \"#utility.yul\":12708:12827   */\n      pop\n        /* \"#utility.yul\":10731:12834   */\n      swap3\n      swap6\n      swap9\n      swap2\n      swap5\n      swap8\n      pop\n      swap3\n      swap6\n      pop\n      jump\t// out\n        /* \"#utility.yul\":12840:12930   */\n    tag_231:\n        /* \"#utility.yul\":12874:12881   */\n      0x00\n        /* \"#utility.yul\":12917:12922   */\n      dup2\n        /* \"#utility.yul\":12910:12923   */\n      iszero\n        /* \"#utility.yul\":12903:12924   */\n      iszero\n        /* \"#utility.yul\":12892:12924   */\n      swap1\n      pop\n        /* \"#utility.yul\":12840:12930   */\n      swap2\n      swap1\n      pop\n      jump\t// out\n        /* \"#utility.yul\":12936:13045   */\n    tag_232:\n        /* \"#utility.yul\":13017:13038   */\n      tag_373\n        /* \"#utility.yul\":13032:13037   */\n      dup2\n        /* \"#utility.yul\":13017:13038   */\n      tag_231\n      jump\t// in\n    tag_373:\n        /* \"#utility.yul\":13012:13015   */\n      dup3\n        /* \"#utility.yul\":13005:13039   */\n      mstore\n        /* \"#utility.yul\":12936:13045   */\n      pop\n      pop\n      jump\t// out\n        /* \"#utility.yul\":13051:14713   */\n    tag_68:\n        /* \"#utility.yul\":13490:13494   */\n      0x00\n        /* \"#utility.yul\":13528:13531   */\n      0x0140\n        /* \"#utility.yul\":13517:13526   */\n      dup3\n        /* \"#utility.yul\":13513:13532   */\n      add\n        /* \"#utility.yul\":13505:13532   */\n      swap1\n      pop\n        /* \"#utility.yul\":13578:13587   */\n      dup2\n        /* \"#utility.yul\":13572:13576   */\n      dup2\n        /* \"#utility.yul\":13568:13588   */\n      sub\n        /* \"#utility.yul\":13564:13565   */\n      0x00\n        /* \"#utility.yul\":13553:13562   */\n      dup4\n        /* \"#utility.yul\":13549:13566   */\n      add\n        /* \"#utility.yul\":13542:13589   */\n      mstore\n        /* \"#utility.yul\":13606:13684   */\n      tag_375\n        /* \"#utility.yul\":13679:13683   */\n      dup2\n        /* \"#utility.yul\":13670:13676   */\n      dup14\n        /* \"#utility.yul\":13606:13684   */\n      tag_208\n      jump\t// in\n    tag_375:\n        /* \"#utility.yul\":13598:13684   */\n      swap1\n      pop\n        /* \"#utility.yul\":13731:13740   */\n      dup2\n        /* \"#utility.yul\":13725:13729   */\n      dup2\n        /* \"#utility.yul\":13721:13741   */\n      sub\n        /* \"#utility.yul\":13716:13718   */\n      0x20\n        /* \"#utility.yul\":13705:13714   */\n      dup4\n        /* \"#utility.yul\":13701:13719   */\n      add\n        /* \"#utility.yul\":13694:13742   */\n      mstore\n        /* \"#utility.yul\":13759:13837   */\n      tag_376\n        /* \"#utility.yul\":13832:13836   */\n      dup2\n        /* \"#utility.yul\":13823:13829   */\n      dup13\n        /* \"#utility.yul\":13759:13837   */\n      tag_208\n      jump\t// in\n    tag_376:\n        /* \"#utility.yul\":13751:13837   */\n      swap1\n      pop\n        /* \"#utility.yul\":13884:13893   */\n      dup2\n        /* \"#utility.yul\":13878:13882   */\n      dup2\n        /* \"#utility.yul\":13874:13894   */\n      sub\n        /* \"#utility.yul\":13869:13871   */\n      0x40\n        /* \"#utility.yul\":13858:13867   */\n      dup4\n        /* \"#utility.yul\":13854:13872   */\n      add\n        /* \"#utility.yul\":13847:13895   */\n      mstore\n        /* \"#utility.yul\":13912:13990   */\n      tag_377\n        /* \"#utility.yul\":13985:13989   */\n      dup2\n        /* \"#utility.yul\":13976:13982   */\n      dup12\n        /* \"#utility.yul\":13912:13990   */\n      tag_208\n      jump\t// in\n    tag_377:\n        /* \"#utility.yul\":13904:13990   */\n      swap1\n      pop\n        /* \"#utility.yul\":14037:14046   */\n      dup2\n        /* \"#utility.yul\":14031:14035   */\n      dup2\n        /* \"#utility.yul\":14027:14047   */\n      sub\n        /* \"#utility.yul\":14022:14024   */\n      0x60\n        /* \"#utility.yul\":14011:14020   */\n      dup4\n        /* \"#utility.yul\":14007:14025   */\n      add\n        /* \"#utility.yul\":14000:14048   */\n      mstore\n        /* \"#utility.yul\":14065:14143   */\n      tag_378\n        /* \"#utility.yul\":14138:14142   */\n      dup2\n        /* \"#utility.yul\":14129:14135   */\n      dup11\n        /* \"#utility.yul\":14065:14143   */\n      tag_208\n      jump\t// in\n    tag_378:\n        /* \"#utility.yul\":14057:14143   */\n      swap1\n      pop\n        /* \"#utility.yul\":14191:14200   */\n      dup2\n        /* \"#utility.yul\":14185:14189   */\n      dup2\n        /* \"#utility.yul\":14181:14201   */\n      sub\n        /* \"#utility.yul\":14175:14178   */\n      0x80\n        /* \"#utility.yul\":14164:14173   */\n      dup4\n        /* \"#utility.yul\":14160:14179   */\n      add\n        /* \"#utility.yul\":14153:14202   */\n      mstore\n        /* \"#utility.yul\":14219:14297   */\n      tag_379\n        /* \"#utility.yul\":14292:14296   */\n      dup2\n        /* \"#utility.yul\":14283:14289   */\n      dup10\n        /* \"#utility.yul\":14219:14297   */\n      tag_208\n      jump\t// in\n    tag_379:\n        /* \"#utility.yul\":14211:14297   */\n      swap1\n      pop\n        /* \"#utility.yul\":14307:14380   */\n      tag_380\n        /* \"#utility.yul\":14375:14378   */\n      0xa0\n        /* \"#utility.yul\":14364:14373   */\n      dup4\n        /* \"#utility.yul\":14360:14379   */\n      add\n        /* \"#utility.yul\":14351:14357   */\n      dup9\n        /* \"#utility.yul\":14307:14380   */\n      tag_228\n      jump\t// in\n    tag_380:\n        /* \"#utility.yul\":14390:14463   */\n      tag_381\n        /* \"#utility.yul\":14458:14461   */\n      0xc0\n        /* \"#utility.yul\":14447:14456   */\n      dup4\n        /* \"#utility.yul\":14443:14462   */\n      add\n        /* \"#utility.yul\":14434:14440   */\n      dup8\n        /* \"#utility.yul\":14390:14463   */\n      tag_203\n      jump\t// in\n    tag_381:\n        /* \"#utility.yul\":14473:14546   */\n      tag_382\n        /* \"#utility.yul\":14541:14544   */\n      0xe0\n        /* \"#utility.yul\":14530:14539   */\n      dup4\n        /* \"#utility.yul\":14526:14545   */\n      add\n        /* \"#utility.yul\":14517:14523   */\n      dup7\n        /* \"#utility.yul\":14473:14546   */\n      tag_203\n      jump\t// in\n    tag_382:\n        /* \"#utility.yul\":14556:14623   */\n      tag_383\n        /* \"#utility.yul\":14618:14621   */\n      0x0100\n        /* \"#utility.yul\":14607:14616   */\n      dup4\n        /* \"#utility.yul\":14603:14622   */\n      add\n        /* \"#utility.yul\":14594:14600   */\n      dup6\n        /* \"#utility.yul\":14556:14623   */\n      tag_232\n      jump\t// in\n    tag_383:\n        /* \"#utility.yul\":14633:14706   */\n      tag_384\n        /* \"#utility.yul\":14701:14704   */\n      0x0120\n        /* \"#utility.yul\":14690:14699   */\n      dup4\n        /* \"#utility.yul\":14686:14705   */\n      add\n        /* \"#utility.yul\":14677:14683   */\n      dup5\n        /* \"#utility.yul\":14633:14706   */\n      tag_228\n      jump\t// in\n    tag_384:\n        /* \"#utility.yul\":13051:14713   */\n      swap12\n      swap11\n      pop\n      pop\n      pop\n      pop\n      pop\n      pop\n      pop\n      pop\n      pop\n      pop\n      pop\n      jump\t// out\n        /* \"#utility.yul\":14719:14864   */\n    tag_233:\n        /* \"#utility.yul\":14817:14823   */\n      0x00\n        /* \"#utility.yul\":14851:14856   */\n      dup2\n        /* \"#utility.yul\":14845:14857   */\n      mload\n        /* \"#utility.yul\":14835:14857   */\n      swap1\n      pop\n        /* \"#utility.yul\":14719:14864   */\n      swap2\n      swap1\n      pop\n      jump\t// out\n        /* \"#utility.yul\":14870:15085   */\n    tag_234:\n        /* \"#utility.yul\":15000:15011   */\n      0x00\n        /* \"#utility.yul\":15034:15040   */\n      dup3\n        /* \"#utility.yul\":15029:15032   */\n      dup3\n        /* \"#utility.yul\":15022:15041   */\n      mstore\n        /* \"#utility.yul\":15074:15078   */\n      0x20\n        /* \"#utility.yul\":15069:15072   */\n      dup3\n        /* \"#utility.yul\":15065:15079   */\n      add\n        /* \"#utility.yul\":15050:15079   */\n      swap1\n      pop\n        /* \"#utility.yul\":14870:15085   */\n      swap3\n      swap2\n      pop\n      pop\n      jump\t// out\n        /* \"#utility.yul\":15091:15254   */\n    tag_235:\n        /* \"#utility.yul\":15189:15193   */\n      0x00\n        /* \"#utility.yul\":15212:15215   */\n      dup2\n        /* \"#utility.yul\":15204:15215   */\n      swap1\n      pop\n        /* \"#utility.yul\":15242:15246   */\n      0x20\n        /* \"#utility.yul\":15237:15240   */\n      dup3\n        /* \"#utility.yul\":15233:15247   */\n      add\n        /* \"#utility.yul\":15225:15247   */\n      swap1\n      pop\n        /* \"#utility.yul\":15091:15254   */\n      swap2\n      swap1\n      pop\n      jump\t// out\n        /* \"#utility.yul\":15334:15967   */\n    tag_236:\n        /* \"#utility.yul\":15455:15458   */\n      0x00\n        /* \"#utility.yul\":15491:15495   */\n      0x40\n        /* \"#utility.yul\":15486:15489   */\n      dup4\n        /* \"#utility.yul\":15482:15496   */\n      add\n        /* \"#utility.yul\":15589:15593   */\n      0x00\n        /* \"#utility.yul\":15582:15587   */\n      dup4\n        /* \"#utility.yul\":15578:15594   */\n      add\n        /* \"#utility.yul\":15572:15595   */\n      mload\n        /* \"#utility.yul\":15642:15645   */\n      dup5\n        /* \"#utility.yul\":15636:15640   */\n      dup3\n        /* \"#utility.yul\":15632:15646   */\n      sub\n        /* \"#utility.yul\":15625:15629   */\n      0x00\n        /* \"#utility.yul\":15620:15623   */\n      dup7\n        /* \"#utility.yul\":15616:15630   */\n      add\n        /* \"#utility.yul\":15609:15647   */\n      mstore\n        /* \"#utility.yul\":15668:15741   */\n      tag_389\n        /* \"#utility.yul\":15736:15740   */\n      dup3\n        /* \"#utility.yul\":15722:15734   */\n      dup3\n        /* \"#utility.yul\":15668:15741   */\n      tag_223\n      jump\t// in\n    tag_389:\n        /* \"#utility.yul\":15660:15741   */\n      swap2\n      pop\n        /* \"#utility.yul\":15506:15752   */\n      pop\n        /* \"#utility.yul\":15848:15852   */\n      0x20\n        /* \"#utility.yul\":15841:15846   */\n      dup4\n        /* \"#utility.yul\":15837:15853   */\n      add\n        /* \"#utility.yul\":15831:15854   */\n      mload\n        /* \"#utility.yul\":15867:15930   */\n      tag_390\n        /* \"#utility.yul\":15924:15928   */\n      0x20\n        /* \"#utility.yul\":15919:15922   */\n      dup7\n        /* \"#utility.yul\":15915:15929   */\n      add\n        /* \"#utility.yul\":15901:15913   */\n      dup3\n        /* \"#utility.yul\":15867:15930   */\n      tag_221\n      jump\t// in\n    tag_390:\n        /* \"#utility.yul\":15762:15940   */\n      pop\n        /* \"#utility.yul\":15957:15961   */\n      dup1\n        /* \"#utility.yul\":15950:15961   */\n      swap2\n      pop\n        /* \"#utility.yul\":15460:15967   */\n      pop\n        /* \"#utility.yul\":15334:15967   */\n      swap3\n      swap2\n      pop\n      pop\n      jump\t// out\n        /* \"#utility.yul\":15973:16253   */\n    tag_237:\n        /* \"#utility.yul\":16104:16114   */\n      0x00\n        /* \"#utility.yul\":16139:16247   */\n      tag_392\n        /* \"#utility.yul\":16243:16246   */\n      dup4\n        /* \"#utility.yul\":16235:16241   */\n      dup4\n        /* \"#utility.yul\":16139:16247   */\n      tag_236\n      jump\t// in\n    tag_392:\n        /* \"#utility.yul\":16125:16247   */\n      swap1\n      pop\n        /* \"#utility.yul\":15973:16253   */\n      swap3\n      swap2\n      pop\n      pop\n      jump\t// out\n        /* \"#utility.yul\":16259:16403   */\n    tag_238:\n        /* \"#utility.yul\":16360:16364   */\n      0x00\n        /* \"#utility.yul\":16392:16396   */\n      0x20\n        /* \"#utility.yul\":16387:16390   */\n      dup3\n        /* \"#utility.yul\":16383:16397   */\n      add\n        /* \"#utility.yul\":16375:16397   */\n      swap1\n      pop\n        /* \"#utility.yul\":16259:16403   */\n      swap2\n      swap1\n      pop\n      jump\t// out\n        /* \"#utility.yul\":16487:17646   */\n    tag_239:\n        /* \"#utility.yul\":16668:16671   */\n      0x00\n        /* \"#utility.yul\":16697:16782   */\n      tag_395\n        /* \"#utility.yul\":16776:16781   */\n      dup3\n        /* \"#utility.yul\":16697:16782   */\n      tag_233\n      jump\t// in\n    tag_395:\n        /* \"#utility.yul\":16798:16915   */\n      tag_396\n        /* \"#utility.yul\":16908:16914   */\n      dup2\n        /* \"#utility.yul\":16903:16906   */\n      dup6\n        /* \"#utility.yul\":16798:16915   */\n      tag_234\n      jump\t// in\n    tag_396:\n        /* \"#utility.yul\":16791:16915   */\n      swap4\n      pop\n        /* \"#utility.yul\":16941:16944   */\n      dup4\n        /* \"#utility.yul\":16986:16990   */\n      0x20\n        /* \"#utility.yul\":16978:16984   */\n      dup3\n        /* \"#utility.yul\":16974:16991   */\n      mul\n        /* \"#utility.yul\":16969:16972   */\n      dup6\n        /* \"#utility.yul\":16965:16992   */\n      add\n        /* \"#utility.yul\":17016:17103   */\n      tag_397\n        /* \"#utility.yul\":17097:17102   */\n      dup6\n        /* \"#utility.yul\":17016:17103   */\n      tag_235\n      jump\t// in\n    tag_397:\n        /* \"#utility.yul\":17126:17133   */\n      dup1\n        /* \"#utility.yul\":17157:17158   */\n      0x00\n        /* \"#utility.yul\":17142:17601   */\n    tag_398:\n        /* \"#utility.yul\":17167:17173   */\n      dup6\n        /* \"#utility.yul\":17164:17165   */\n      dup2\n        /* \"#utility.yul\":17161:17174   */\n      lt\n        /* \"#utility.yul\":17142:17601   */\n      iszero\n      tag_400\n      jumpi\n        /* \"#utility.yul\":17238:17247   */\n      dup5\n        /* \"#utility.yul\":17232:17236   */\n      dup5\n        /* \"#utility.yul\":17228:17248   */\n      sub\n        /* \"#utility.yul\":17223:17226   */\n      dup10\n        /* \"#utility.yul\":17216:17249   */\n      mstore\n        /* \"#utility.yul\":17289:17295   */\n      dup2\n        /* \"#utility.yul\":17283:17296   */\n      mload\n        /* \"#utility.yul\":17317:17443   */\n      tag_401\n        /* \"#utility.yul\":17438:17442   */\n      dup6\n        /* \"#utility.yul\":17423:17436   */\n      dup3\n        /* \"#utility.yul\":17317:17443   */\n      tag_237\n      jump\t// in\n    tag_401:\n        /* \"#utility.yul\":17309:17443   */\n      swap5\n      pop\n        /* \"#utility.yul\":17466:17557   */\n      tag_402\n        /* \"#utility.yul\":17550:17556   */\n      dup4\n        /* \"#utility.yul\":17466:17557   */\n      tag_238\n      jump\t// in\n    tag_402:\n        /* \"#utility.yul\":17456:17557   */\n      swap3\n      pop\n        /* \"#utility.yul\":17586:17590   */\n      0x20\n        /* \"#utility.yul\":17581:17584   */\n      dup11\n        /* \"#utility.yul\":17577:17591   */\n      add\n        /* \"#utility.yul\":17570:17591   */\n      swap10\n      pop\n        /* \"#utility.yul\":17202:17601   */\n      pop\n        /* \"#utility.yul\":17189:17190   */\n      0x01\n        /* \"#utility.yul\":17186:17187   */\n      dup2\n        /* \"#utility.yul\":17182:17191   */\n      add\n        /* \"#utility.yul\":17177:17191   */\n      swap1\n      pop\n        /* \"#utility.yul\":17142:17601   */\n      jump(tag_398)\n    tag_400:\n        /* \"#utility.yul\":17146:17160   */\n      pop\n        /* \"#utility.yul\":17617:17621   */\n      dup3\n        /* \"#utility.yul\":17610:17621   */\n      swap8\n      pop\n        /* \"#utility.yul\":17637:17640   */\n      dup8\n        /* \"#utility.yul\":17630:17640   */\n      swap6\n      pop\n        /* \"#utility.yul\":16673:17646   */\n      pop\n      pop\n      pop\n      pop\n      pop\n        /* \"#utility.yul\":16487:17646   */\n      swap3\n      swap2\n      pop\n      pop\n      jump\t// out\n        /* \"#utility.yul\":17652:18149   */\n    tag_73:\n        /* \"#utility.yul\":17857:17861   */\n      0x00\n        /* \"#utility.yul\":17895:17897   */\n      0x20\n        /* \"#utility.yul\":17884:17893   */\n      dup3\n        /* \"#utility.yul\":17880:17898   */\n      add\n        /* \"#utility.yul\":17872:17898   */\n      swap1\n      pop\n        /* \"#utility.yul\":17944:17953   */\n      dup2\n        /* \"#utility.yul\":17938:17942   */\n      dup2\n        /* \"#utility.yul\":17934:17954   */\n      sub\n        /* \"#utility.yul\":17930:17931   */\n      0x00\n        /* \"#utility.yul\":17919:17928   */\n      dup4\n        /* \"#utility.yul\":17915:17932   */\n      add\n        /* \"#utility.yul\":17908:17955   */\n      mstore\n        /* \"#utility.yul\":17972:18142   */\n      tag_404\n        /* \"#utility.yul\":18137:18141   */\n      dup2\n        /* \"#utility.yul\":18128:18134   */\n      dup5\n        /* \"#utility.yul\":17972:18142   */\n      tag_239\n      jump\t// in\n    tag_404:\n        /* \"#utility.yul\":17964:18142   */\n      swap1\n      pop\n        /* \"#utility.yul\":17652:18149   */\n      swap3\n      swap2\n      pop\n      pop\n      jump\t// out\n        /* \"#utility.yul\":18155:18335   */\n    tag_240:\n        /* \"#utility.yul\":18203:18280   */\n      0x4e487b7100000000000000000000000000000000000000000000000000000000\n        /* \"#utility.yul\":18200:18201   */\n      0x00\n        /* \"#utility.yul\":18193:18281   */\n      mstore\n        /* \"#utility.yul\":18300:18304   */\n      0x22\n        /* \"#utility.yul\":18297:18298   */\n      0x04\n        /* \"#utility.yul\":18290:18305   */\n      mstore\n        /* \"#utility.yul\":18324:18328   */\n      0x24\n        /* \"#utility.yul\":18321:18322   */\n      0x00\n        /* \"#utility.yul\":18314:18329   */\n      revert\n        /* \"#utility.yul\":18341:18661   */\n    tag_77:\n        /* \"#utility.yul\":18385:18391   */\n      0x00\n        /* \"#utility.yul\":18422:18423   */\n      0x02\n        /* \"#utility.yul\":18416:18420   */\n      dup3\n        /* \"#utility.yul\":18412:18424   */\n      div\n        /* \"#utility.yul\":18402:18424   */\n      swap1\n      pop\n        /* \"#utility.yul\":18469:18470   */\n      0x01\n        /* \"#utility.yul\":18463:18467   */\n      dup3\n        /* \"#utility.yul\":18459:18471   */\n      and\n        /* \"#utility.yul\":18490:18508   */\n      dup1\n        /* \"#utility.yul\":18480:18561   */\n      tag_407\n      jumpi\n        /* \"#utility.yul\":18546:18550   */\n      0x7f\n        /* \"#utility.yul\":18538:18544   */\n      dup3\n        /* \"#utility.yul\":18534:18551   */\n      and\n        /* \"#utility.yul\":18524:18551   */\n      swap2\n      pop\n        /* \"#utility.yul\":18480:18561   */\n    tag_407:\n        /* \"#utility.yul\":18608:18610   */\n      0x20\n        /* \"#utility.yul\":18600:18606   */\n      dup3\n        /* \"#utility.yul\":18597:18611   */\n      lt\n        /* \"#utility.yul\":18577:18595   */\n      dup2\n        /* \"#utility.yul\":18574:18612   */\n      eq\n        /* \"#utility.yul\":18571:18655   */\n      iszero\n      tag_408\n      jumpi\n        /* \"#utility.yul\":18627:18645   */\n      tag_409\n      tag_240\n      jump\t// in\n    tag_409:\n        /* \"#utility.yul\":18571:18655   */\n    tag_408:\n        /* \"#utility.yul\":18392:18661   */\n      pop\n        /* \"#utility.yul\":18341:18661   */\n      swap2\n      swap1\n      pop\n      jump\t// out\n        /* \"#utility.yul\":18667:18847   */\n    tag_86:\n        /* \"#utility.yul\":18715:18792   */\n      0x4e487b7100000000000000000000000000000000000000000000000000000000\n        /* \"#utility.yul\":18712:18713   */\n      0x00\n        /* \"#utility.yul\":18705:18793   */\n      mstore\n        /* \"#utility.yul\":18812:18816   */\n      0x32\n        /* \"#utility.yul\":18809:18810   */\n      0x04\n        /* \"#utility.yul\":18802:18817   */\n      mstore\n        /* \"#utility.yul\":18836:18840   */\n      0x24\n        /* \"#utility.yul\":18833:18834   */\n      0x00\n        /* \"#utility.yul\":18826:18841   */\n      revert\n        /* \"#utility.yul\":18853:19033   */\n    tag_241:\n        /* \"#utility.yul\":18901:18978   */\n      0x4e487b7100000000000000000000000000000000000000000000000000000000\n        /* \"#utility.yul\":18898:18899   */\n      0x00\n        /* \"#utility.yul\":18891:18979   */\n      mstore\n        /* \"#utility.yul\":18998:19002   */\n      0x11\n        /* \"#utility.yul\":18995:18996   */\n      0x04\n        /* \"#utility.yul\":18988:19003   */\n      mstore\n        /* \"#utility.yul\":19022:19026   */\n      0x24\n        /* \"#utility.yul\":19019:19020   */\n      0x00\n        /* \"#utility.yul\":19012:19027   */\n      revert\n        /* \"#utility.yul\":19039:19272   */\n    tag_105:\n        /* \"#utility.yul\":19078:19081   */\n      0x00\n        /* \"#utility.yul\":19101:19125   */\n      tag_413\n        /* \"#utility.yul\":19119:19124   */\n      dup3\n        /* \"#utility.yul\":19101:19125   */\n      tag_198\n      jump\t// in\n    tag_413:\n        /* \"#utility.yul\":19092:19125   */\n      swap2\n      pop\n        /* \"#utility.yul\":19147:19213   */\n      0xffffffffffffffffffffffffffffffffffffffffffffffffffffffffffffffff\n        /* \"#utility.yul\":19140:19145   */\n      dup3\n        /* \"#utility.yul\":19137:19214   */\n      eq\n        /* \"#utility.yul\":19134:19237   */\n      iszero\n      tag_414\n      jumpi\n        /* \"#utility.yul\":19217:19235   */\n      tag_415\n      tag_241\n      jump\t// in\n    tag_415:\n        /* \"#utility.yul\":19134:19237   */\n    tag_414:\n        /* \"#utility.yul\":19264:19265   */\n      0x01\n        /* \"#utility.yul\":19257:19262   */\n      dup3\n        /* \"#utility.yul\":19253:19266   */\n      add\n        /* \"#utility.yul\":19246:19266   */\n      swap1\n      pop\n        /* \"#utility.yul\":19039:19272   */\n      swap2\n      swap1\n      pop\n      jump\t// out\n        /* \"#utility.yul\":19278:19458   */\n    tag_242:\n        /* \"#utility.yul\":19326:19403   */\n      0x4e487b7100000000000000000000000000000000000000000000000000000000\n        /* \"#utility.yul\":19323:19324   */\n      0x00\n        /* \"#utility.yul\":19316:19404   */\n      mstore\n        /* \"#utility.yul\":19423:19427   */\n      0x12\n        /* \"#utility.yul\":19420:19421   */\n      0x04\n        /* \"#utility.yul\":19413:19428   */\n      mstore\n        /* \"#utility.yul\":19447:19451   */\n      0x24\n        /* \"#utility.yul\":19444:19445   */\n      0x00\n        /* \"#utility.yul\":19437:19452   */\n      revert\n        /* \"#utility.yul\":19464:19649   */\n    tag_144:\n        /* \"#utility.yul\":19504:19505   */\n      0x00\n        /* \"#utility.yul\":19521:19541   */\n      tag_418\n        /* \"#utility.yul\":19539:19540   */\n      dup3\n        /* \"#utility.yul\":19521:19541   */\n      tag_198\n      jump\t// in\n    tag_418:\n        /* \"#utility.yul\":19516:19541   */\n      swap2\n      pop\n        /* \"#utility.yul\":19555:19575   */\n      tag_419\n        /* \"#utility.yul\":19573:19574   */\n      dup4\n        /* \"#utility.yul\":19555:19575   */\n      tag_198\n      jump\t// in\n    tag_419:\n        /* \"#utility.yul\":19550:19575   */\n      swap3\n      pop\n        /* \"#utility.yul\":19594:19595   */\n      dup3\n        /* \"#utility.yul\":19584:19619   */\n      tag_420\n      jumpi\n        /* \"#utility.yul\":19599:19617   */\n      tag_421\n      tag_242\n      jump\t// in\n    tag_421:\n        /* \"#utility.yul\":19584:19619   */\n    tag_420:\n        /* \"#utility.yul\":19641:19642   */\n      dup3\n        /* \"#utility.yul\":19638:19639   */\n      dup3\n        /* \"#utility.yul\":19634:19643   */\n      div\n        /* \"#utility.yul\":19629:19643   */\n      swap1\n      pop\n        /* \"#utility.yul\":19464:19649   */\n      swap3\n      swap2\n      pop\n      pop\n      jump\t// out\n\n    auxdata: 0xa26469706673582212207adc20107ac0af341e204fa92af6b2f8033f0dd6bef310b1997928be4968c38264736f6c63430008090033\n}\n","bytecode":{"linkReferences":{},"object":"60806040523480156200001157600080fd5b50336000806101000a81548173ffffffffffffffffffffffffffffffffffffffff021916908373ffffffffffffffffffffffffffffffffffffffff16021790555060018060003373ffffffffffffffffffffffffffffffffffffffff1673ffffffffffffffffffffffffffffffffffffffff16815260200190815260200160002060006101000a81548160ff02191690831515021790555060026000815480929190620000be9062000102565b919050555062000150565b7f4e487b7100000000000000000000000000000000000000000000000000000000600052601160045260246000fd5b6000819050919050565b60006200010f82620000f8565b91507fffffffffffffffffffffffffffffffffffffffffffffffffffffffffffffffff821415620001455762000144620000c9565b5b600182019050919050565b611d4480620001606000396000f3fe6080604052600436106100a75760003560e01c806378880f4a1161006457806378880f4a146101c15780638da5cb5b146101ec5780639efb693b14610217578063a5f7542a14610240578063a888c2cd1461025c578063af157c19146102a2576100a7565b80630d80fefd146100ac57806314d5b247146100ea5780633cb5d1001461011357806346e30135146101515780635c43217b1461017a5780635ff6cbf314610196575b600080fd5b3480156100b857600080fd5b506100d360048036038101906100ce91906113ad565b6102cd565b6040516100e19291906114b4565b60405180910390f35b3480156100f657600080fd5b50610111600480360381019061010c9190611619565b6103a9565b005b34801561011f57600080fd5b5061013a600480360381019061013591906113ad565b610458565b604051610148929190611662565b60405180910390f35b34801561015d57600080fd5b50610178600480360381019061017391906113ad565b610534565b005b610194600480360381019061018f9190611619565b610749565b005b3480156101a257600080fd5b506101ab6108dd565b6040516101b891906117ea565b60405180910390f35b3480156101cd57600080fd5b506101d6610a24565b6040516101e3919061181b565b60405180910390f35b3480156101f857600080fd5b50610201610a2a565b60405161020e9190611836565b60405180910390f35b34801561022357600080fd5b5061023e6004803603810190610239919061187d565b610a4e565b005b61025a600480360381019061025591906113ad565b610cd4565b005b34801561026857600080fd5b50610283600480360381019061027e91906113ad565b610e20565b6040516102999a999897969594939291906119c6565b60405180910390f35b3480156102ae57600080fd5b506102b7611179565b6040516102c49190611b84565b60405180910390f35b600581815481106102dd57600080fd5b90600052602060002090600202016000915090508060000160009054906101000a900473ffffffffffffffffffffffffffffffffffffffff169080600101805461032690611bd5565b80601f016020809104026020016040519081016040528092919081815260200182805461035290611bd5565b801561039f5780601f106103745761010080835404028352916020019161039f565b820191906000526020600020905b81548152906001019060200180831161038257829003601f168201915b5050505050905082565b600060058054905090506005600181600181540180825580915050039060005260206000209050506000600582815481106103e7576103e6611c07565b5b90600052602060002090600202019050338160000160006101000a81548173ffffffffffffffffffffffffffffffffffffffff021916908373ffffffffffffffffffffffffffffffffffffffff160217905550828160010190805190602001906104529291906112c0565b50505050565b6003818154811061046857600080fd5b906000526020600020906002020160009150905080600001805461048b90611bd5565b80601f01602080910402602001604051908101604052809291908181526020018280546104b790611bd5565b80156105045780601f106104d957610100808354040283529160200191610504565b820191906000526020600020905b8154815290600101906020018083116104e757829003601f168201915b5050505050908060010160009054906101000a900473ffffffffffffffffffffffffffffffffffffffff16905082565b60006004828154811061054a57610549611c07565b5b90600052602060002090600a020190508060080160003373ffffffffffffffffffffffffffffffffffffffff1673ffffffffffffffffffffffffffffffffffffffff16815260200190815260200160002060009054906101000a900460ff16156105b357600080fd5b3373ffffffffffffffffffffffffffffffffffffffff168160060160009054906101000a900473ffffffffffffffffffffffffffffffffffffffff1673ffffffffffffffffffffffffffffffffffffffff16141561061057600080fd5b60018160080160003373ffffffffffffffffffffffffffffffffffffffff1673ffffffffffffffffffffffffffffffffffffffff16815260200190815260200160002060006101000a81548160ff02191690831515021790555080600901600081548092919061067f90611c65565b919050555050600160003373ffffffffffffffffffffffffffffffffffffffff1673ffffffffffffffffffffffffffffffffffffffff16815260200190815260200160002060009054906101000a900460ff166107465760018060003373ffffffffffffffffffffffffffffffffffffffff1673ffffffffffffffffffffffffffffffffffffffff16815260200190815260200160002060006101000a81548160ff0219169083151502179055506002600081548092919061074090611c65565b91905055505b50565b606434101561075757600080fd5b600060405180604001604052808381526020013373ffffffffffffffffffffffffffffffffffffffff168152509050600381908060018154018082558091505060019003906000526020600020906002020160009091909190915060008201518160000190805190602001906107ce9291906112c0565b5060208201518160010160006101000a81548173ffffffffffffffffffffffffffffffffffffffff021916908373ffffffffffffffffffffffffffffffffffffffff160217905550505050600160003373ffffffffffffffffffffffffffffffffffffffff1673ffffffffffffffffffffffffffffffffffffffff16815260200190815260200160002060009054906101000a900460ff166108da5760018060003373ffffffffffffffffffffffffffffffffffffffff1673ffffffffffffffffffffffffffffffffffffffff16815260200190815260200160002060006101000a81548160ff021916908315150217905550600260008154809291906108d490611c65565b91905055505b50565b60606005805480602002602001604051908101604052809291908181526020016000905b82821015610a1b57838290600052602060002090600202016040518060400160405290816000820160009054906101000a900473ffffffffffffffffffffffffffffffffffffffff1673ffffffffffffffffffffffffffffffffffffffff1673ffffffffffffffffffffffffffffffffffffffff16815260200160018201805461098a90611bd5565b80601f01602080910402602001604051908101604052809291908181526020018280546109b690611bd5565b8015610a035780601f106109d857610100808354040283529160200191610a03565b820191906000526020600020905b8154815290600101906020018083116109e657829003601f168201915b50505050508152505081526020019060010190610901565b50505050905090565b60025481565b60008054906101000a900473ffffffffffffffffffffffffffffffffffffffff1681565b8073ffffffffffffffffffffffffffffffffffffffff163373ffffffffffffffffffffffffffffffffffffffff161415610a8757600080fd5b60006004805490509050600460018160018154018082558091505003906000526020600020905050600060048281548110610ac557610ac4611c07565b5b90600052602060002090600a0201905088816000019080519060200190610aed9291906112c0565b5087816001019080519060200190610b069291906112c0565b5086816002019080519060200190610b1f9291906112c0565b5085816004019080519060200190610b389291906112c0565b5084816003019080519060200190610b519291906112c0565b50838160050181905550338160060160006101000a81548173ffffffffffffffffffffffffffffffffffffffff021916908373ffffffffffffffffffffffffffffffffffffffff160217905550828160070160006101000a81548173ffffffffffffffffffffffffffffffffffffffff021916908373ffffffffffffffffffffffffffffffffffffffff16021790555060008160070160146101000a81548160ff021916908315150217905550600081600901819055505050600160003373ffffffffffffffffffffffffffffffffffffffff1673ffffffffffffffffffffffffffffffffffffffff16815260200190815260200160002060009054906101000a900460ff16610ccb5760018060003373ffffffffffffffffffffffffffffffffffffffff1673ffffffffffffffffffffffffffffffffffffffff16815260200190815260200160002060006101000a81548160ff02191690831515021790555060026000815480929190610cc590611c65565b91905055505b50505050505050565b600060048281548110610cea57610ce9611c07565b5b90600052602060002090600a020190508060060160009054906101000a900473ffffffffffffffffffffffffffffffffffffffff1673ffffffffffffffffffffffffffffffffffffffff163373ffffffffffffffffffffffffffffffffffffffff1614610d5657600080fd5b60028054610d649190611cdd565b81600901541015610d7457600080fd5b8060070160149054906101000a900460ff1615610d9057600080fd5b60018160070160146101000a81548160ff0219169083151502179055508060070160009054906101000a900473ffffffffffffffffffffffffffffffffffffffff1673ffffffffffffffffffffffffffffffffffffffff166108fc82600501549081150290604051600060405180830381858888f19350505050158015610e1b573d6000803e3d6000fd5b505050565b60048181548110610e3057600080fd5b90600052602060002090600a0201600091509050806000018054610e5390611bd5565b80601f0160208091040260200160405190810160405280929190818152602001828054610e7f90611bd5565b8015610ecc5780601f10610ea157610100808354040283529160200191610ecc565b820191906000526020600020905b815481529060010190602001808311610eaf57829003601f168201915b505050505090806001018054610ee190611bd5565b80601f0160208091040260200160405190810160405280929190818152602001828054610f0d90611bd5565b8015610f5a5780601f10610f2f57610100808354040283529160200191610f5a565b820191906000526020600020905b815481529060010190602001808311610f3d57829003601f168201915b505050505090806002018054610f6f90611bd5565b80601f0160208091040260200160405190810160405280929190818152602001828054610f9b90611bd5565b8015610fe85780601f10610fbd57610100808354040283529160200191610fe8565b820191906000526020600020905b815481529060010190602001808311610fcb57829003601f168201915b505050505090806003018054610ffd90611bd5565b80601f016020809104026020016040519081016040528092919081815260200182805461102990611bd5565b80156110765780601f1061104b57610100808354040283529160200191611076565b820191906000526020600020905b81548152906001019060200180831161105957829003601f168201915b50505050509080600401805461108b90611bd5565b80601f01602080910402602001604051908101604052809291908181526020018280546110b790611bd5565b80156111045780601f106110d957610100808354040283529160200191611104565b820191906000526020600020905b8154815290600101906020018083116110e757829003601f168201915b5050505050908060050154908060060160009054906101000a900473ffffffffffffffffffffffffffffffffffffffff16908060070160009054906101000a900473ffffffffffffffffffffffffffffffffffffffff16908060070160149054906101000a900460ff1690806009015490508a565b60606003805480602002602001604051908101604052809291908181526020016000905b828210156112b757838290600052602060002090600202016040518060400160405290816000820180546111d090611bd5565b80601f01602080910402602001604051908101604052809291908181526020018280546111fc90611bd5565b80156112495780601f1061121e57610100808354040283529160200191611249565b820191906000526020600020905b81548152906001019060200180831161122c57829003601f168201915b505050505081526020016001820160009054906101000a900473ffffffffffffffffffffffffffffffffffffffff1673ffffffffffffffffffffffffffffffffffffffff1673ffffffffffffffffffffffffffffffffffffffff16815250508152602001906001019061119d565b50505050905090565b8280546112cc90611bd5565b90600052602060002090601f0160209004810192826112ee5760008555611335565b82601f1061130757805160ff1916838001178555611335565b82800160010185558215611335579182015b82811115611334578251825591602001919060010190611319565b5b5090506113429190611346565b5090565b5b8082111561135f576000816000905550600101611347565b5090565b6000604051905090565b600080fd5b600080fd5b6000819050919050565b61138a81611377565b811461139557600080fd5b50565b6000813590506113a781611381565b92915050565b6000602082840312156113c3576113c261136d565b5b60006113d184828501611398565b91505092915050565b600073ffffffffffffffffffffffffffffffffffffffff82169050919050565b6000611405826113da565b9050919050565b611415816113fa565b82525050565b600081519050919050565b600082825260208201905092915050565b60005b8381101561145557808201518184015260208101905061143a565b83811115611464576000848401525b50505050565b6000601f19601f8301169050919050565b60006114868261141b565b6114908185611426565b93506114a0818560208601611437565b6114a98161146a565b840191505092915050565b60006040820190506114c9600083018561140c565b81810360208301526114db818461147b565b90509392505050565b600080fd5b600080fd5b7f4e487b7100000000000000000000000000000000000000000000000000000000600052604160045260246000fd5b6115268261146a565b810181811067ffffffffffffffff82111715611545576115446114ee565b5b80604052505050565b6000611558611363565b9050611564828261151d565b919050565b600067ffffffffffffffff821115611584576115836114ee565b5b61158d8261146a565b9050602081019050919050565b82818337600083830152505050565b60006115bc6115b784611569565b61154e565b9050828152602081018484840111156115d8576115d76114e9565b5b6115e384828561159a565b509392505050565b600082601f830112611600576115ff6114e4565b5b81356116108482602086016115a9565b91505092915050565b60006020828403121561162f5761162e61136d565b5b600082013567ffffffffffffffff81111561164d5761164c611372565b5b611659848285016115eb565b91505092915050565b6000604082019050818103600083015261167c818561147b565b905061168b602083018461140c565b9392505050565b600081519050919050565b600082825260208201905092915050565b6000819050602082019050919050565b6116c7816113fa565b82525050565b600082825260208201905092915050565b60006116e98261141b565b6116f381856116cd565b9350611703818560208601611437565b61170c8161146a565b840191505092915050565b600060408301600083015161172f60008601826116be565b506020830151848203602086015261174782826116de565b9150508091505092915050565b60006117608383611717565b905092915050565b6000602082019050919050565b600061178082611692565b61178a818561169d565b93508360208202850161179c856116ae565b8060005b858110156117d857848403895281516117b98582611754565b94506117c483611768565b925060208a019950506001810190506117a0565b50829750879550505050505092915050565b600060208201905081810360008301526118048184611775565b905092915050565b61181581611377565b82525050565b6000602082019050611830600083018461180c565b92915050565b600060208201905061184b600083018461140c565b92915050565b61185a816113fa565b811461186557600080fd5b50565b60008135905061187781611851565b92915050565b600080600080600080600060e0888a03121561189c5761189b61136d565b5b600088013567ffffffffffffffff8111156118ba576118b9611372565b5b6118c68a828b016115eb565b975050602088013567ffffffffffffffff8111156118e7576118e6611372565b5b6118f38a828b016115eb565b965050604088013567ffffffffffffffff81111561191457611913611372565b5b6119208a828b016115eb565b955050606088013567ffffffffffffffff81111561194157611940611372565b5b61194d8a828b016115eb565b945050608088013567ffffffffffffffff81111561196e5761196d611372565b5b61197a8a828b016115eb565b93505060a061198b8a828b01611398565b92505060c061199c8a828b01611868565b91505092959891949750929550565b60008115159050919050565b6119c0816119ab565b82525050565b60006101408201905081810360008301526119e1818d61147b565b905081810360208301526119f5818c61147b565b90508181036040830152611a09818b61147b565b90508181036060830152611a1d818a61147b565b90508181036080830152611a31818961147b565b9050611a4060a083018861180c565b611a4d60c083018761140c565b611a5a60e083018661140c565b611a686101008301856119b7565b611a7661012083018461180c565b9b9a5050505050505050505050565b600081519050919050565b600082825260208201905092915050565b6000819050602082019050919050565b60006040830160008301518482036000860152611ace82826116de565b9150506020830151611ae360208601826116be565b508091505092915050565b6000611afa8383611ab1565b905092915050565b6000602082019050919050565b6000611b1a82611a85565b611b248185611a90565b935083602082028501611b3685611aa1565b8060005b85811015611b725784840389528151611b538582611aee565b9450611b5e83611b02565b925060208a01995050600181019050611b3a565b50829750879550505050505092915050565b60006020820190508181036000830152611b9e8184611b0f565b905092915050565b7f4e487b7100000000000000000000000000000000000000000000000000000000600052602260045260246000fd5b60006002820490506001821680611bed57607f821691505b60208210811415611c0157611c00611ba6565b5b50919050565b7f4e487b7100000000000000000000000000000000000000000000000000000000600052603260045260246000fd5b7f4e487b7100000000000000000000000000000000000000000000000000000000600052601160045260246000fd5b6000611c7082611377565b91507fffffffffffffffffffffffffffffffffffffffffffffffffffffffffffffffff821415611ca357611ca2611c36565b5b600182019050919050565b7f4e487b7100000000000000000000000000000000000000000000000000000000600052601260045260246000fd5b6000611ce882611377565b9150611cf383611377565b925082611d0357611d02611cae565b5b82820490509291505056fea26469706673582212207adc20107ac0af341e204fa92af6b2f8033f0dd6bef310b1997928be4968c38264736f6c63430008090033","opcodes":"PUSH1 0x80 PUSH1 0x40 MSTORE CALLVALUE DUP1 ISZERO PUSH3 0x11 JUMPI PUSH1 0x0 DUP1 REVERT JUMPDEST POP CALLER PUSH1 0x0 DUP1 PUSH2 0x100 EXP DUP2 SLOAD DUP2 PUSH20 0xFFFFFFFFFFFFFFFFFFFFFFFFFFFFFFFFFFFFFFFF MUL NOT AND SWAP1 DUP4 PUSH20 0xFFFFFFFFFFFFFFFFFFFFFFFFFFFFFFFFFFFFFFFF AND MUL OR SWAP1 SSTORE POP PUSH1 0x1 DUP1 PUSH1 0x0 CALLER PUSH20 0xFFFFFFFFFFFFFFFFFFFFFFFFFFFFFFFFFFFFFFFF AND PUSH20 0xFFFFFFFFFFFFFFFFFFFFFFFFFFFFFFFFFFFFFFFF AND DUP2 MSTORE PUSH1 0x20 ADD SWAP1 DUP2 MSTORE PUSH1 0x20 ADD PUSH1 0x0 KECCAK256 PUSH1 0x0 PUSH2 0x100 EXP DUP2 SLOAD DUP2 PUSH1 0xFF MUL NOT AND SWAP1 DUP4 ISZERO ISZERO MUL OR SWAP1 SSTORE POP PUSH1 0x2 PUSH1 0x0 DUP2 SLOAD DUP1 SWAP3 SWAP2 SWAP1 PUSH3 0xBE SWAP1 PUSH3 0x102 JUMP JUMPDEST SWAP2 SWAP1 POP SSTORE POP PUSH3 0x150 JUMP JUMPDEST PUSH32 0x4E487B7100000000000000000000000000000000000000000000000000000000 PUSH1 0x0 MSTORE PUSH1 0x11 PUSH1 0x4 MSTORE PUSH1 0x24 PUSH1 0x0 REVERT JUMPDEST PUSH1 0x0 DUP2 SWAP1 POP SWAP2 SWAP1 POP JUMP JUMPDEST PUSH1 0x0 PUSH3 0x10F DUP3 PUSH3 0xF8 JUMP JUMPDEST SWAP2 POP PUSH32 0xFFFFFFFFFFFFFFFFFFFFFFFFFFFFFFFFFFFFFFFFFFFFFFFFFFFFFFFFFFFFFFFF DUP3 EQ ISZERO PUSH3 0x145 JUMPI PUSH3 0x144 PUSH3 0xC9 JUMP JUMPDEST JUMPDEST PUSH1 0x1 DUP3 ADD SWAP1 POP SWAP2 SWAP1 POP JUMP JUMPDEST PUSH2 0x1D44 DUP1 PUSH3 0x160 PUSH1 0x0 CODECOPY PUSH1 0x0 RETURN INVALID PUSH1 0x80 PUSH1 0x40 MSTORE PUSH1 0x4 CALLDATASIZE LT PUSH2 0xA7 JUMPI PUSH1 0x0 CALLDATALOAD PUSH1 0xE0 SHR DUP1 PUSH4 0x78880F4A GT PUSH2 0x64 JUMPI DUP1 PUSH4 0x78880F4A EQ PUSH2 0x1C1 JUMPI DUP1 PUSH4 0x8DA5CB5B EQ PUSH2 0x1EC JUMPI DUP1 PUSH4 0x9EFB693B EQ PUSH2 0x217 JUMPI DUP1 PUSH4 0xA5F7542A EQ PUSH2 0x240 JUMPI DUP1 PUSH4 0xA888C2CD EQ PUSH2 0x25C JUMPI DUP1 PUSH4 0xAF157C19 EQ PUSH2 0x2A2 JUMPI PUSH2 0xA7 JUMP JUMPDEST DUP1 PUSH4 0xD80FEFD EQ PUSH2 0xAC JUMPI DUP1 PUSH4 0x14D5B247 EQ PUSH2 0xEA JUMPI DUP1 PUSH4 0x3CB5D100 EQ PUSH2 0x113 JUMPI DUP1 PUSH4 0x46E30135 EQ PUSH2 0x151 JUMPI DUP1 PUSH4 0x5C43217B EQ PUSH2 0x17A JUMPI DUP1 PUSH4 0x5FF6CBF3 EQ PUSH2 0x196 JUMPI JUMPDEST PUSH1 0x0 DUP1 REVERT JUMPDEST CALLVALUE DUP1 ISZERO PUSH2 0xB8 JUMPI PUSH1 0x0 DUP1 REVERT JUMPDEST POP PUSH2 0xD3 PUSH1 0x4 DUP1 CALLDATASIZE SUB DUP2 ADD SWAP1 PUSH2 0xCE SWAP2 SWAP1 PUSH2 0x13AD JUMP JUMPDEST PUSH2 0x2CD JUMP JUMPDEST PUSH1 0x40 MLOAD PUSH2 0xE1 SWAP3 SWAP2 SWAP1 PUSH2 0x14B4 JUMP JUMPDEST PUSH1 0x40 MLOAD DUP1 SWAP2 SUB SWAP1 RETURN JUMPDEST CALLVALUE DUP1 ISZERO PUSH2 0xF6 JUMPI PUSH1 0x0 DUP1 REVERT JUMPDEST POP PUSH2 0x111 PUSH1 0x4 DUP1 CALLDATASIZE SUB DUP2 ADD SWAP1 PUSH2 0x10C SWAP2 SWAP1 PUSH2 0x1619 JUMP JUMPDEST PUSH2 0x3A9 JUMP JUMPDEST STOP JUMPDEST CALLVALUE DUP1 ISZERO PUSH2 0x11F JUMPI PUSH1 0x0 DUP1 REVERT JUMPDEST POP PUSH2 0x13A PUSH1 0x4 DUP1 CALLDATASIZE SUB DUP2 ADD SWAP1 PUSH2 0x135 SWAP2 SWAP1 PUSH2 0x13AD JUMP JUMPDEST PUSH2 0x458 JUMP JUMPDEST PUSH1 0x40 MLOAD PUSH2 0x148 SWAP3 SWAP2 SWAP1 PUSH2 0x1662 JUMP JUMPDEST PUSH1 0x40 MLOAD DUP1 SWAP2 SUB SWAP1 RETURN JUMPDEST CALLVALUE DUP1 ISZERO PUSH2 0x15D JUMPI PUSH1 0x0 DUP1 REVERT JUMPDEST POP PUSH2 0x178 PUSH1 0x4 DUP1 CALLDATASIZE SUB DUP2 ADD SWAP1 PUSH2 0x173 SWAP2 SWAP1 PUSH2 0x13AD JUMP JUMPDEST PUSH2 0x534 JUMP JUMPDEST STOP JUMPDEST PUSH2 0x194 PUSH1 0x4 DUP1 CALLDATASIZE SUB DUP2 ADD SWAP1 PUSH2 0x18F SWAP2 SWAP1 PUSH2 0x1619 JUMP JUMPDEST PUSH2 0x749 JUMP JUMPDEST STOP JUMPDEST CALLVALUE DUP1 ISZERO PUSH2 0x1A2 JUMPI PUSH1 0x0 DUP1 REVERT JUMPDEST POP PUSH2 0x1AB PUSH2 0x8DD JUMP JUMPDEST PUSH1 0x40 MLOAD PUSH2 0x1B8 SWAP2 SWAP1 PUSH2 0x17EA JUMP JUMPDEST PUSH1 0x40 MLOAD DUP1 SWAP2 SUB SWAP1 RETURN JUMPDEST CALLVALUE DUP1 ISZERO PUSH2 0x1CD JUMPI PUSH1 0x0 DUP1 REVERT JUMPDEST POP PUSH2 0x1D6 PUSH2 0xA24 JUMP JUMPDEST PUSH1 0x40 MLOAD PUSH2 0x1E3 SWAP2 SWAP1 PUSH2 0x181B JUMP JUMPDEST PUSH1 0x40 MLOAD DUP1 SWAP2 SUB SWAP1 RETURN JUMPDEST CALLVALUE DUP1 ISZERO PUSH2 0x1F8 JUMPI PUSH1 0x0 DUP1 REVERT JUMPDEST POP PUSH2 0x201 PUSH2 0xA2A JUMP JUMPDEST PUSH1 0x40 MLOAD PUSH2 0x20E SWAP2 SWAP1 PUSH2 0x1836 JUMP JUMPDEST PUSH1 0x40 MLOAD DUP1 SWAP2 SUB SWAP1 RETURN JUMPDEST CALLVALUE DUP1 ISZERO PUSH2 0x223 JUMPI PUSH1 0x0 DUP1 REVERT JUMPDEST POP PUSH2 0x23E PUSH1 0x4 DUP1 CALLDATASIZE SUB DUP2 ADD SWAP1 PUSH2 0x239 SWAP2 SWAP1 PUSH2 0x187D JUMP JUMPDEST PUSH2 0xA4E JUMP JUMPDEST STOP JUMPDEST PUSH2 0x25A PUSH1 0x4 DUP1 CALLDATASIZE SUB DUP2 ADD SWAP1 PUSH2 0x255 SWAP2 SWAP1 PUSH2 0x13AD JUMP JUMPDEST PUSH2 0xCD4 JUMP JUMPDEST STOP JUMPDEST CALLVALUE DUP1 ISZERO PUSH2 0x268 JUMPI PUSH1 0x0 DUP1 REVERT JUMPDEST POP PUSH2 0x283 PUSH1 0x4 DUP1 CALLDATASIZE SUB DUP2 ADD SWAP1 PUSH2 0x27E SWAP2 SWAP1 PUSH2 0x13AD JUMP JUMPDEST PUSH2 0xE20 JUMP JUMPDEST PUSH1 0x40 MLOAD PUSH2 0x299 SWAP11 SWAP10 SWAP9 SWAP8 SWAP7 SWAP6 SWAP5 SWAP4 SWAP3 SWAP2 SWAP1 PUSH2 0x19C6 JUMP JUMPDEST PUSH1 0x40 MLOAD DUP1 SWAP2 SUB SWAP1 RETURN JUMPDEST CALLVALUE DUP1 ISZERO PUSH2 0x2AE JUMPI PUSH1 0x0 DUP1 REVERT JUMPDEST POP PUSH2 0x2B7 PUSH2 0x1179 JUMP JUMPDEST PUSH1 0x40 MLOAD PUSH2 0x2C4 SWAP2 SWAP1 PUSH2 0x1B84 JUMP JUMPDEST PUSH1 0x40 MLOAD DUP1 SWAP2 SUB SWAP1 RETURN JUMPDEST PUSH1 0x5 DUP2 DUP2 SLOAD DUP2 LT PUSH2 0x2DD JUMPI PUSH1 0x0 DUP1 REVERT JUMPDEST SWAP1 PUSH1 0x0 MSTORE PUSH1 0x20 PUSH1 0x0 KECCAK256 SWAP1 PUSH1 0x2 MUL ADD PUSH1 0x0 SWAP2 POP SWAP1 POP DUP1 PUSH1 0x0 ADD PUSH1 0x0 SWAP1 SLOAD SWAP1 PUSH2 0x100 EXP SWAP1 DIV PUSH20 0xFFFFFFFFFFFFFFFFFFFFFFFFFFFFFFFFFFFFFFFF AND SWAP1 DUP1 PUSH1 0x1 ADD DUP1 SLOAD PUSH2 0x326 SWAP1 PUSH2 0x1BD5 JUMP JUMPDEST DUP1 PUSH1 0x1F ADD PUSH1 0x20 DUP1 SWAP2 DIV MUL PUSH1 0x20 ADD PUSH1 0x40 MLOAD SWAP1 DUP2 ADD PUSH1 0x40 MSTORE DUP1 SWAP3 SWAP2 SWAP1 DUP2 DUP2 MSTORE PUSH1 0x20 ADD DUP3 DUP1 SLOAD PUSH2 0x352 SWAP1 PUSH2 0x1BD5 JUMP JUMPDEST DUP1 ISZERO PUSH2 0x39F JUMPI DUP1 PUSH1 0x1F LT PUSH2 0x374 JUMPI PUSH2 0x100 DUP1 DUP4 SLOAD DIV MUL DUP4 MSTORE SWAP2 PUSH1 0x20 ADD SWAP2 PUSH2 0x39F JUMP JUMPDEST DUP3 ADD SWAP2 SWAP1 PUSH1 0x0 MSTORE PUSH1 0x20 PUSH1 0x0 KECCAK256 SWAP1 JUMPDEST DUP2 SLOAD DUP2 MSTORE SWAP1 PUSH1 0x1 ADD SWAP1 PUSH1 0x20 ADD DUP1 DUP4 GT PUSH2 0x382 JUMPI DUP3 SWAP1 SUB PUSH1 0x1F AND DUP3 ADD SWAP2 JUMPDEST POP POP POP POP POP SWAP1 POP DUP3 JUMP JUMPDEST PUSH1 0x0 PUSH1 0x5 DUP1 SLOAD SWAP1 POP SWAP1 POP PUSH1 0x5 PUSH1 0x1 DUP2 PUSH1 0x1 DUP2 SLOAD ADD DUP1 DUP3 SSTORE DUP1 SWAP2 POP POP SUB SWAP1 PUSH1 0x0 MSTORE PUSH1 0x20 PUSH1 0x0 KECCAK256 SWAP1 POP POP PUSH1 0x0 PUSH1 0x5 DUP3 DUP2 SLOAD DUP2 LT PUSH2 0x3E7 JUMPI PUSH2 0x3E6 PUSH2 0x1C07 JUMP JUMPDEST JUMPDEST SWAP1 PUSH1 0x0 MSTORE PUSH1 0x20 PUSH1 0x0 KECCAK256 SWAP1 PUSH1 0x2 MUL ADD SWAP1 POP CALLER DUP2 PUSH1 0x0 ADD PUSH1 0x0 PUSH2 0x100 EXP DUP2 SLOAD DUP2 PUSH20 0xFFFFFFFFFFFFFFFFFFFFFFFFFFFFFFFFFFFFFFFF MUL NOT AND SWAP1 DUP4 PUSH20 0xFFFFFFFFFFFFFFFFFFFFFFFFFFFFFFFFFFFFFFFF AND MUL OR SWAP1 SSTORE POP DUP3 DUP2 PUSH1 0x1 ADD SWAP1 DUP1 MLOAD SWAP1 PUSH1 0x20 ADD SWAP1 PUSH2 0x452 SWAP3 SWAP2 SWAP1 PUSH2 0x12C0 JUMP JUMPDEST POP POP POP POP JUMP JUMPDEST PUSH1 0x3 DUP2 DUP2 SLOAD DUP2 LT PUSH2 0x468 JUMPI PUSH1 0x0 DUP1 REVERT JUMPDEST SWAP1 PUSH1 0x0 MSTORE PUSH1 0x20 PUSH1 0x0 KECCAK256 SWAP1 PUSH1 0x2 MUL ADD PUSH1 0x0 SWAP2 POP SWAP1 POP DUP1 PUSH1 0x0 ADD DUP1 SLOAD PUSH2 0x48B SWAP1 PUSH2 0x1BD5 JUMP JUMPDEST DUP1 PUSH1 0x1F ADD PUSH1 0x20 DUP1 SWAP2 DIV MUL PUSH1 0x20 ADD PUSH1 0x40 MLOAD SWAP1 DUP2 ADD PUSH1 0x40 MSTORE DUP1 SWAP3 SWAP2 SWAP1 DUP2 DUP2 MSTORE PUSH1 0x20 ADD DUP3 DUP1 SLOAD PUSH2 0x4B7 SWAP1 PUSH2 0x1BD5 JUMP JUMPDEST DUP1 ISZERO PUSH2 0x504 JUMPI DUP1 PUSH1 0x1F LT PUSH2 0x4D9 JUMPI PUSH2 0x100 DUP1 DUP4 SLOAD DIV MUL DUP4 MSTORE SWAP2 PUSH1 0x20 ADD SWAP2 PUSH2 0x504 JUMP JUMPDEST DUP3 ADD SWAP2 SWAP1 PUSH1 0x0 MSTORE PUSH1 0x20 PUSH1 0x0 KECCAK256 SWAP1 JUMPDEST DUP2 SLOAD DUP2 MSTORE SWAP1 PUSH1 0x1 ADD SWAP1 PUSH1 0x20 ADD DUP1 DUP4 GT PUSH2 0x4E7 JUMPI DUP3 SWAP1 SUB PUSH1 0x1F AND DUP3 ADD SWAP2 JUMPDEST POP POP POP POP POP SWAP1 DUP1 PUSH1 0x1 ADD PUSH1 0x0 SWAP1 SLOAD SWAP1 PUSH2 0x100 EXP SWAP1 DIV PUSH20 0xFFFFFFFFFFFFFFFFFFFFFFFFFFFFFFFFFFFFFFFF AND SWAP1 POP DUP3 JUMP JUMPDEST PUSH1 0x0 PUSH1 0x4 DUP3 DUP2 SLOAD DUP2 LT PUSH2 0x54A JUMPI PUSH2 0x549 PUSH2 0x1C07 JUMP JUMPDEST JUMPDEST SWAP1 PUSH1 0x0 MSTORE PUSH1 0x20 PUSH1 0x0 KECCAK256 SWAP1 PUSH1 0xA MUL ADD SWAP1 POP DUP1 PUSH1 0x8 ADD PUSH1 0x0 CALLER PUSH20 0xFFFFFFFFFFFFFFFFFFFFFFFFFFFFFFFFFFFFFFFF AND PUSH20 0xFFFFFFFFFFFFFFFFFFFFFFFFFFFFFFFFFFFFFFFF AND DUP2 MSTORE PUSH1 0x20 ADD SWAP1 DUP2 MSTORE PUSH1 0x20 ADD PUSH1 0x0 KECCAK256 PUSH1 0x0 SWAP1 SLOAD SWAP1 PUSH2 0x100 EXP SWAP1 DIV PUSH1 0xFF AND ISZERO PUSH2 0x5B3 JUMPI PUSH1 0x0 DUP1 REVERT JUMPDEST CALLER PUSH20 0xFFFFFFFFFFFFFFFFFFFFFFFFFFFFFFFFFFFFFFFF AND DUP2 PUSH1 0x6 ADD PUSH1 0x0 SWAP1 SLOAD SWAP1 PUSH2 0x100 EXP SWAP1 DIV PUSH20 0xFFFFFFFFFFFFFFFFFFFFFFFFFFFFFFFFFFFFFFFF AND PUSH20 0xFFFFFFFFFFFFFFFFFFFFFFFFFFFFFFFFFFFFFFFF AND EQ ISZERO PUSH2 0x610 JUMPI PUSH1 0x0 DUP1 REVERT JUMPDEST PUSH1 0x1 DUP2 PUSH1 0x8 ADD PUSH1 0x0 CALLER PUSH20 0xFFFFFFFFFFFFFFFFFFFFFFFFFFFFFFFFFFFFFFFF AND PUSH20 0xFFFFFFFFFFFFFFFFFFFFFFFFFFFFFFFFFFFFFFFF AND DUP2 MSTORE PUSH1 0x20 ADD SWAP1 DUP2 MSTORE PUSH1 0x20 ADD PUSH1 0x0 KECCAK256 PUSH1 0x0 PUSH2 0x100 EXP DUP2 SLOAD DUP2 PUSH1 0xFF MUL NOT AND SWAP1 DUP4 ISZERO ISZERO MUL OR SWAP1 SSTORE POP DUP1 PUSH1 0x9 ADD PUSH1 0x0 DUP2 SLOAD DUP1 SWAP3 SWAP2 SWAP1 PUSH2 0x67F SWAP1 PUSH2 0x1C65 JUMP JUMPDEST SWAP2 SWAP1 POP SSTORE POP POP PUSH1 0x1 PUSH1 0x0 CALLER PUSH20 0xFFFFFFFFFFFFFFFFFFFFFFFFFFFFFFFFFFFFFFFF AND PUSH20 0xFFFFFFFFFFFFFFFFFFFFFFFFFFFFFFFFFFFFFFFF AND DUP2 MSTORE PUSH1 0x20 ADD SWAP1 DUP2 MSTORE PUSH1 0x20 ADD PUSH1 0x0 KECCAK256 PUSH1 0x0 SWAP1 SLOAD SWAP1 PUSH2 0x100 EXP SWAP1 DIV PUSH1 0xFF AND PUSH2 0x746 JUMPI PUSH1 0x1 DUP1 PUSH1 0x0 CALLER PUSH20 0xFFFFFFFFFFFFFFFFFFFFFFFFFFFFFFFFFFFFFFFF AND PUSH20 0xFFFFFFFFFFFFFFFFFFFFFFFFFFFFFFFFFFFFFFFF AND DUP2 MSTORE PUSH1 0x20 ADD SWAP1 DUP2 MSTORE PUSH1 0x20 ADD PUSH1 0x0 KECCAK256 PUSH1 0x0 PUSH2 0x100 EXP DUP2 SLOAD DUP2 PUSH1 0xFF MUL NOT AND SWAP1 DUP4 ISZERO ISZERO MUL OR SWAP1 SSTORE POP PUSH1 0x2 PUSH1 0x0 DUP2 SLOAD DUP1 SWAP3 SWAP2 SWAP1 PUSH2 0x740 SWAP1 PUSH2 0x1C65 JUMP JUMPDEST SWAP2 SWAP1 POP SSTORE POP JUMPDEST POP JUMP JUMPDEST PUSH1 0x64 CALLVALUE LT ISZERO PUSH2 0x757 JUMPI PUSH1 0x0 DUP1 REVERT JUMPDEST PUSH1 0x0 PUSH1 0x40 MLOAD DUP1 PUSH1 0x40 ADD PUSH1 0x40 MSTORE DUP1 DUP4 DUP2 MSTORE PUSH1 0x20 ADD CALLER PUSH20 0xFFFFFFFFFFFFFFFFFFFFFFFFFFFFFFFFFFFFFFFF AND DUP2 MSTORE POP SWAP1 POP PUSH1 0x3 DUP2 SWAP1 DUP1 PUSH1 0x1 DUP2 SLOAD ADD DUP1 DUP3 SSTORE DUP1 SWAP2 POP POP PUSH1 0x1 SWAP1 SUB SWAP1 PUSH1 0x0 MSTORE PUSH1 0x20 PUSH1 0x0 KECCAK256 SWAP1 PUSH1 0x2 MUL ADD PUSH1 0x0 SWAP1 SWAP2 SWAP1 SWAP2 SWAP1 SWAP2 POP PUSH1 0x0 DUP3 ADD MLOAD DUP2 PUSH1 0x0 ADD SWAP1 DUP1 MLOAD SWAP1 PUSH1 0x20 ADD SWAP1 PUSH2 0x7CE SWAP3 SWAP2 SWAP1 PUSH2 0x12C0 JUMP JUMPDEST POP PUSH1 0x20 DUP3 ADD MLOAD DUP2 PUSH1 0x1 ADD PUSH1 0x0 PUSH2 0x100 EXP DUP2 SLOAD DUP2 PUSH20 0xFFFFFFFFFFFFFFFFFFFFFFFFFFFFFFFFFFFFFFFF MUL NOT AND SWAP1 DUP4 PUSH20 0xFFFFFFFFFFFFFFFFFFFFFFFFFFFFFFFFFFFFFFFF AND MUL OR SWAP1 SSTORE POP POP POP POP PUSH1 0x1 PUSH1 0x0 CALLER PUSH20 0xFFFFFFFFFFFFFFFFFFFFFFFFFFFFFFFFFFFFFFFF AND PUSH20 0xFFFFFFFFFFFFFFFFFFFFFFFFFFFFFFFFFFFFFFFF AND DUP2 MSTORE PUSH1 0x20 ADD SWAP1 DUP2 MSTORE PUSH1 0x20 ADD PUSH1 0x0 KECCAK256 PUSH1 0x0 SWAP1 SLOAD SWAP1 PUSH2 0x100 EXP SWAP1 DIV PUSH1 0xFF AND PUSH2 0x8DA JUMPI PUSH1 0x1 DUP1 PUSH1 0x0 CALLER PUSH20 0xFFFFFFFFFFFFFFFFFFFFFFFFFFFFFFFFFFFFFFFF AND PUSH20 0xFFFFFFFFFFFFFFFFFFFFFFFFFFFFFFFFFFFFFFFF AND DUP2 MSTORE PUSH1 0x20 ADD SWAP1 DUP2 MSTORE PUSH1 0x20 ADD PUSH1 0x0 KECCAK256 PUSH1 0x0 PUSH2 0x100 EXP DUP2 SLOAD DUP2 PUSH1 0xFF MUL NOT AND SWAP1 DUP4 ISZERO ISZERO MUL OR SWAP1 SSTORE POP PUSH1 0x2 PUSH1 0x0 DUP2 SLOAD DUP1 SWAP3 SWAP2 SWAP1 PUSH2 0x8D4 SWAP1 PUSH2 0x1C65 JUMP JUMPDEST SWAP2 SWAP1 POP SSTORE POP JUMPDEST POP JUMP JUMPDEST PUSH1 0x60 PUSH1 0x5 DUP1 SLOAD DUP1 PUSH1 0x20 MUL PUSH1 0x20 ADD PUSH1 0x40 MLOAD SWAP1 DUP2 ADD PUSH1 0x40 MSTORE DUP1 SWAP3 SWAP2 SWAP1 DUP2 DUP2 MSTORE PUSH1 0x20 ADD PUSH1 0x0 SWAP1 JUMPDEST DUP3 DUP3 LT ISZERO PUSH2 0xA1B JUMPI DUP4 DUP3 SWAP1 PUSH1 0x0 MSTORE PUSH1 0x20 PUSH1 0x0 KECCAK256 SWAP1 PUSH1 0x2 MUL ADD PUSH1 0x40 MLOAD DUP1 PUSH1 0x40 ADD PUSH1 0x40 MSTORE SWAP1 DUP2 PUSH1 0x0 DUP3 ADD PUSH1 0x0 SWAP1 SLOAD SWAP1 PUSH2 0x100 EXP SWAP1 DIV PUSH20 0xFFFFFFFFFFFFFFFFFFFFFFFFFFFFFFFFFFFFFFFF AND PUSH20 0xFFFFFFFFFFFFFFFFFFFFFFFFFFFFFFFFFFFFFFFF AND PUSH20 0xFFFFFFFFFFFFFFFFFFFFFFFFFFFFFFFFFFFFFFFF AND DUP2 MSTORE PUSH1 0x20 ADD PUSH1 0x1 DUP3 ADD DUP1 SLOAD PUSH2 0x98A SWAP1 PUSH2 0x1BD5 JUMP JUMPDEST DUP1 PUSH1 0x1F ADD PUSH1 0x20 DUP1 SWAP2 DIV MUL PUSH1 0x20 ADD PUSH1 0x40 MLOAD SWAP1 DUP2 ADD PUSH1 0x40 MSTORE DUP1 SWAP3 SWAP2 SWAP1 DUP2 DUP2 MSTORE PUSH1 0x20 ADD DUP3 DUP1 SLOAD PUSH2 0x9B6 SWAP1 PUSH2 0x1BD5 JUMP JUMPDEST DUP1 ISZERO PUSH2 0xA03 JUMPI DUP1 PUSH1 0x1F LT PUSH2 0x9D8 JUMPI PUSH2 0x100 DUP1 DUP4 SLOAD DIV MUL DUP4 MSTORE SWAP2 PUSH1 0x20 ADD SWAP2 PUSH2 0xA03 JUMP JUMPDEST DUP3 ADD SWAP2 SWAP1 PUSH1 0x0 MSTORE PUSH1 0x20 PUSH1 0x0 KECCAK256 SWAP1 JUMPDEST DUP2 SLOAD DUP2 MSTORE SWAP1 PUSH1 0x1 ADD SWAP1 PUSH1 0x20 ADD DUP1 DUP4 GT PUSH2 0x9E6 JUMPI DUP3 SWAP1 SUB PUSH1 0x1F AND DUP3 ADD SWAP2 JUMPDEST POP POP POP POP POP DUP2 MSTORE POP POP DUP2 MSTORE PUSH1 0x20 ADD SWAP1 PUSH1 0x1 ADD SWAP1 PUSH2 0x901 JUMP JUMPDEST POP POP POP POP SWAP1 POP SWAP1 JUMP JUMPDEST PUSH1 0x2 SLOAD DUP2 JUMP JUMPDEST PUSH1 0x0 DUP1 SLOAD SWAP1 PUSH2 0x100 EXP SWAP1 DIV PUSH20 0xFFFFFFFFFFFFFFFFFFFFFFFFFFFFFFFFFFFFFFFF AND DUP2 JUMP JUMPDEST DUP1 PUSH20 0xFFFFFFFFFFFFFFFFFFFFFFFFFFFFFFFFFFFFFFFF AND CALLER PUSH20 0xFFFFFFFFFFFFFFFFFFFFFFFFFFFFFFFFFFFFFFFF AND EQ ISZERO PUSH2 0xA87 JUMPI PUSH1 0x0 DUP1 REVERT JUMPDEST PUSH1 0x0 PUSH1 0x4 DUP1 SLOAD SWAP1 POP SWAP1 POP PUSH1 0x4 PUSH1 0x1 DUP2 PUSH1 0x1 DUP2 SLOAD ADD DUP1 DUP3 SSTORE DUP1 SWAP2 POP POP SUB SWAP1 PUSH1 0x0 MSTORE PUSH1 0x20 PUSH1 0x0 KECCAK256 SWAP1 POP POP PUSH1 0x0 PUSH1 0x4 DUP3 DUP2 SLOAD DUP2 LT PUSH2 0xAC5 JUMPI PUSH2 0xAC4 PUSH2 0x1C07 JUMP JUMPDEST JUMPDEST SWAP1 PUSH1 0x0 MSTORE PUSH1 0x20 PUSH1 0x0 KECCAK256 SWAP1 PUSH1 0xA MUL ADD SWAP1 POP DUP9 DUP2 PUSH1 0x0 ADD SWAP1 DUP1 MLOAD SWAP1 PUSH1 0x20 ADD SWAP1 PUSH2 0xAED SWAP3 SWAP2 SWAP1 PUSH2 0x12C0 JUMP JUMPDEST POP DUP8 DUP2 PUSH1 0x1 ADD SWAP1 DUP1 MLOAD SWAP1 PUSH1 0x20 ADD SWAP1 PUSH2 0xB06 SWAP3 SWAP2 SWAP1 PUSH2 0x12C0 JUMP JUMPDEST POP DUP7 DUP2 PUSH1 0x2 ADD SWAP1 DUP1 MLOAD SWAP1 PUSH1 0x20 ADD SWAP1 PUSH2 0xB1F SWAP3 SWAP2 SWAP1 PUSH2 0x12C0 JUMP JUMPDEST POP DUP6 DUP2 PUSH1 0x4 ADD SWAP1 DUP1 MLOAD SWAP1 PUSH1 0x20 ADD SWAP1 PUSH2 0xB38 SWAP3 SWAP2 SWAP1 PUSH2 0x12C0 JUMP JUMPDEST POP DUP5 DUP2 PUSH1 0x3 ADD SWAP1 DUP1 MLOAD SWAP1 PUSH1 0x20 ADD SWAP1 PUSH2 0xB51 SWAP3 SWAP2 SWAP1 PUSH2 0x12C0 JUMP JUMPDEST POP DUP4 DUP2 PUSH1 0x5 ADD DUP2 SWAP1 SSTORE POP CALLER DUP2 PUSH1 0x6 ADD PUSH1 0x0 PUSH2 0x100 EXP DUP2 SLOAD DUP2 PUSH20 0xFFFFFFFFFFFFFFFFFFFFFFFFFFFFFFFFFFFFFFFF MUL NOT AND SWAP1 DUP4 PUSH20 0xFFFFFFFFFFFFFFFFFFFFFFFFFFFFFFFFFFFFFFFF AND MUL OR SWAP1 SSTORE POP DUP3 DUP2 PUSH1 0x7 ADD PUSH1 0x0 PUSH2 0x100 EXP DUP2 SLOAD DUP2 PUSH20 0xFFFFFFFFFFFFFFFFFFFFFFFFFFFFFFFFFFFFFFFF MUL NOT AND SWAP1 DUP4 PUSH20 0xFFFFFFFFFFFFFFFFFFFFFFFFFFFFFFFFFFFFFFFF AND MUL OR SWAP1 SSTORE POP PUSH1 0x0 DUP2 PUSH1 0x7 ADD PUSH1 0x14 PUSH2 0x100 EXP DUP2 SLOAD DUP2 PUSH1 0xFF MUL NOT AND SWAP1 DUP4 ISZERO ISZERO MUL OR SWAP1 SSTORE POP PUSH1 0x0 DUP2 PUSH1 0x9 ADD DUP2 SWAP1 SSTORE POP POP POP PUSH1 0x1 PUSH1 0x0 CALLER PUSH20 0xFFFFFFFFFFFFFFFFFFFFFFFFFFFFFFFFFFFFFFFF AND PUSH20 0xFFFFFFFFFFFFFFFFFFFFFFFFFFFFFFFFFFFFFFFF AND DUP2 MSTORE PUSH1 0x20 ADD SWAP1 DUP2 MSTORE PUSH1 0x20 ADD PUSH1 0x0 KECCAK256 PUSH1 0x0 SWAP1 SLOAD SWAP1 PUSH2 0x100 EXP SWAP1 DIV PUSH1 0xFF AND PUSH2 0xCCB JUMPI PUSH1 0x1 DUP1 PUSH1 0x0 CALLER PUSH20 0xFFFFFFFFFFFFFFFFFFFFFFFFFFFFFFFFFFFFFFFF AND PUSH20 0xFFFFFFFFFFFFFFFFFFFFFFFFFFFFFFFFFFFFFFFF AND DUP2 MSTORE PUSH1 0x20 ADD SWAP1 DUP2 MSTORE PUSH1 0x20 ADD PUSH1 0x0 KECCAK256 PUSH1 0x0 PUSH2 0x100 EXP DUP2 SLOAD DUP2 PUSH1 0xFF MUL NOT AND SWAP1 DUP4 ISZERO ISZERO MUL OR SWAP1 SSTORE POP PUSH1 0x2 PUSH1 0x0 DUP2 SLOAD DUP1 SWAP3 SWAP2 SWAP1 PUSH2 0xCC5 SWAP1 PUSH2 0x1C65 JUMP JUMPDEST SWAP2 SWAP1 POP SSTORE POP JUMPDEST POP POP POP POP POP POP POP JUMP JUMPDEST PUSH1 0x0 PUSH1 0x4 DUP3 DUP2 SLOAD DUP2 LT PUSH2 0xCEA JUMPI PUSH2 0xCE9 PUSH2 0x1C07 JUMP JUMPDEST JUMPDEST SWAP1 PUSH1 0x0 MSTORE PUSH1 0x20 PUSH1 0x0 KECCAK256 SWAP1 PUSH1 0xA MUL ADD SWAP1 POP DUP1 PUSH1 0x6 ADD PUSH1 0x0 SWAP1 SLOAD SWAP1 PUSH2 0x100 EXP SWAP1 DIV PUSH20 0xFFFFFFFFFFFFFFFFFFFFFFFFFFFFFFFFFFFFFFFF AND PUSH20 0xFFFFFFFFFFFFFFFFFFFFFFFFFFFFFFFFFFFFFFFF AND CALLER PUSH20 0xFFFFFFFFFFFFFFFFFFFFFFFFFFFFFFFFFFFFFFFF AND EQ PUSH2 0xD56 JUMPI PUSH1 0x0 DUP1 REVERT JUMPDEST PUSH1 0x2 DUP1 SLOAD PUSH2 0xD64 SWAP2 SWAP1 PUSH2 0x1CDD JUMP JUMPDEST DUP2 PUSH1 0x9 ADD SLOAD LT ISZERO PUSH2 0xD74 JUMPI PUSH1 0x0 DUP1 REVERT JUMPDEST DUP1 PUSH1 0x7 ADD PUSH1 0x14 SWAP1 SLOAD SWAP1 PUSH2 0x100 EXP SWAP1 DIV PUSH1 0xFF AND ISZERO PUSH2 0xD90 JUMPI PUSH1 0x0 DUP1 REVERT JUMPDEST PUSH1 0x1 DUP2 PUSH1 0x7 ADD PUSH1 0x14 PUSH2 0x100 EXP DUP2 SLOAD DUP2 PUSH1 0xFF MUL NOT AND SWAP1 DUP4 ISZERO ISZERO MUL OR SWAP1 SSTORE POP DUP1 PUSH1 0x7 ADD PUSH1 0x0 SWAP1 SLOAD SWAP1 PUSH2 0x100 EXP SWAP1 DIV PUSH20 0xFFFFFFFFFFFFFFFFFFFFFFFFFFFFFFFFFFFFFFFF AND PUSH20 0xFFFFFFFFFFFFFFFFFFFFFFFFFFFFFFFFFFFFFFFF AND PUSH2 0x8FC DUP3 PUSH1 0x5 ADD SLOAD SWAP1 DUP2 ISZERO MUL SWAP1 PUSH1 0x40 MLOAD PUSH1 0x0 PUSH1 0x40 MLOAD DUP1 DUP4 SUB DUP2 DUP6 DUP9 DUP9 CALL SWAP4 POP POP POP POP ISZERO DUP1 ISZERO PUSH2 0xE1B JUMPI RETURNDATASIZE PUSH1 0x0 DUP1 RETURNDATACOPY RETURNDATASIZE PUSH1 0x0 REVERT JUMPDEST POP POP POP JUMP JUMPDEST PUSH1 0x4 DUP2 DUP2 SLOAD DUP2 LT PUSH2 0xE30 JUMPI PUSH1 0x0 DUP1 REVERT JUMPDEST SWAP1 PUSH1 0x0 MSTORE PUSH1 0x20 PUSH1 0x0 KECCAK256 SWAP1 PUSH1 0xA MUL ADD PUSH1 0x0 SWAP2 POP SWAP1 POP DUP1 PUSH1 0x0 ADD DUP1 SLOAD PUSH2 0xE53 SWAP1 PUSH2 0x1BD5 JUMP JUMPDEST DUP1 PUSH1 0x1F ADD PUSH1 0x20 DUP1 SWAP2 DIV MUL PUSH1 0x20 ADD PUSH1 0x40 MLOAD SWAP1 DUP2 ADD PUSH1 0x40 MSTORE DUP1 SWAP3 SWAP2 SWAP1 DUP2 DUP2 MSTORE PUSH1 0x20 ADD DUP3 DUP1 SLOAD PUSH2 0xE7F SWAP1 PUSH2 0x1BD5 JUMP JUMPDEST DUP1 ISZERO PUSH2 0xECC JUMPI DUP1 PUSH1 0x1F LT PUSH2 0xEA1 JUMPI PUSH2 0x100 DUP1 DUP4 SLOAD DIV MUL DUP4 MSTORE SWAP2 PUSH1 0x20 ADD SWAP2 PUSH2 0xECC JUMP JUMPDEST DUP3 ADD SWAP2 SWAP1 PUSH1 0x0 MSTORE PUSH1 0x20 PUSH1 0x0 KECCAK256 SWAP1 JUMPDEST DUP2 SLOAD DUP2 MSTORE SWAP1 PUSH1 0x1 ADD SWAP1 PUSH1 0x20 ADD DUP1 DUP4 GT PUSH2 0xEAF JUMPI DUP3 SWAP1 SUB PUSH1 0x1F AND DUP3 ADD SWAP2 JUMPDEST POP POP POP POP POP SWAP1 DUP1 PUSH1 0x1 ADD DUP1 SLOAD PUSH2 0xEE1 SWAP1 PUSH2 0x1BD5 JUMP JUMPDEST DUP1 PUSH1 0x1F ADD PUSH1 0x20 DUP1 SWAP2 DIV MUL PUSH1 0x20 ADD PUSH1 0x40 MLOAD SWAP1 DUP2 ADD PUSH1 0x40 MSTORE DUP1 SWAP3 SWAP2 SWAP1 DUP2 DUP2 MSTORE PUSH1 0x20 ADD DUP3 DUP1 SLOAD PUSH2 0xF0D SWAP1 PUSH2 0x1BD5 JUMP JUMPDEST DUP1 ISZERO PUSH2 0xF5A JUMPI DUP1 PUSH1 0x1F LT PUSH2 0xF2F JUMPI PUSH2 0x100 DUP1 DUP4 SLOAD DIV MUL DUP4 MSTORE SWAP2 PUSH1 0x20 ADD SWAP2 PUSH2 0xF5A JUMP JUMPDEST DUP3 ADD SWAP2 SWAP1 PUSH1 0x0 MSTORE PUSH1 0x20 PUSH1 0x0 KECCAK256 SWAP1 JUMPDEST DUP2 SLOAD DUP2 MSTORE SWAP1 PUSH1 0x1 ADD SWAP1 PUSH1 0x20 ADD DUP1 DUP4 GT PUSH2 0xF3D JUMPI DUP3 SWAP1 SUB PUSH1 0x1F AND DUP3 ADD SWAP2 JUMPDEST POP POP POP POP POP SWAP1 DUP1 PUSH1 0x2 ADD DUP1 SLOAD PUSH2 0xF6F SWAP1 PUSH2 0x1BD5 JUMP JUMPDEST DUP1 PUSH1 0x1F ADD PUSH1 0x20 DUP1 SWAP2 DIV MUL PUSH1 0x20 ADD PUSH1 0x40 MLOAD SWAP1 DUP2 ADD PUSH1 0x40 MSTORE DUP1 SWAP3 SWAP2 SWAP1 DUP2 DUP2 MSTORE PUSH1 0x20 ADD DUP3 DUP1 SLOAD PUSH2 0xF9B SWAP1 PUSH2 0x1BD5 JUMP JUMPDEST DUP1 ISZERO PUSH2 0xFE8 JUMPI DUP1 PUSH1 0x1F LT PUSH2 0xFBD JUMPI PUSH2 0x100 DUP1 DUP4 SLOAD DIV MUL DUP4 MSTORE SWAP2 PUSH1 0x20 ADD SWAP2 PUSH2 0xFE8 JUMP JUMPDEST DUP3 ADD SWAP2 SWAP1 PUSH1 0x0 MSTORE PUSH1 0x20 PUSH1 0x0 KECCAK256 SWAP1 JUMPDEST DUP2 SLOAD DUP2 MSTORE SWAP1 PUSH1 0x1 ADD SWAP1 PUSH1 0x20 ADD DUP1 DUP4 GT PUSH2 0xFCB JUMPI DUP3 SWAP1 SUB PUSH1 0x1F AND DUP3 ADD SWAP2 JUMPDEST POP POP POP POP POP SWAP1 DUP1 PUSH1 0x3 ADD DUP1 SLOAD PUSH2 0xFFD SWAP1 PUSH2 0x1BD5 JUMP JUMPDEST DUP1 PUSH1 0x1F ADD PUSH1 0x20 DUP1 SWAP2 DIV MUL PUSH1 0x20 ADD PUSH1 0x40 MLOAD SWAP1 DUP2 ADD PUSH1 0x40 MSTORE DUP1 SWAP3 SWAP2 SWAP1 DUP2 DUP2 MSTORE PUSH1 0x20 ADD DUP3 DUP1 SLOAD PUSH2 0x1029 SWAP1 PUSH2 0x1BD5 JUMP JUMPDEST DUP1 ISZERO PUSH2 0x1076 JUMPI DUP1 PUSH1 0x1F LT PUSH2 0x104B JUMPI PUSH2 0x100 DUP1 DUP4 SLOAD DIV MUL DUP4 MSTORE SWAP2 PUSH1 0x20 ADD SWAP2 PUSH2 0x1076 JUMP JUMPDEST DUP3 ADD SWAP2 SWAP1 PUSH1 0x0 MSTORE PUSH1 0x20 PUSH1 0x0 KECCAK256 SWAP1 JUMPDEST DUP2 SLOAD DUP2 MSTORE SWAP1 PUSH1 0x1 ADD SWAP1 PUSH1 0x20 ADD DUP1 DUP4 GT PUSH2 0x1059 JUMPI DUP3 SWAP1 SUB PUSH1 0x1F AND DUP3 ADD SWAP2 JUMPDEST POP POP POP POP POP SWAP1 DUP1 PUSH1 0x4 ADD DUP1 SLOAD PUSH2 0x108B SWAP1 PUSH2 0x1BD5 JUMP JUMPDEST DUP1 PUSH1 0x1F ADD PUSH1 0x20 DUP1 SWAP2 DIV MUL PUSH1 0x20 ADD PUSH1 0x40 MLOAD SWAP1 DUP2 ADD PUSH1 0x40 MSTORE DUP1 SWAP3 SWAP2 SWAP1 DUP2 DUP2 MSTORE PUSH1 0x20 ADD DUP3 DUP1 SLOAD PUSH2 0x10B7 SWAP1 PUSH2 0x1BD5 JUMP JUMPDEST DUP1 ISZERO PUSH2 0x1104 JUMPI DUP1 PUSH1 0x1F LT PUSH2 0x10D9 JUMPI PUSH2 0x100 DUP1 DUP4 SLOAD DIV MUL DUP4 MSTORE SWAP2 PUSH1 0x20 ADD SWAP2 PUSH2 0x1104 JUMP JUMPDEST DUP3 ADD SWAP2 SWAP1 PUSH1 0x0 MSTORE PUSH1 0x20 PUSH1 0x0 KECCAK256 SWAP1 JUMPDEST DUP2 SLOAD DUP2 MSTORE SWAP1 PUSH1 0x1 ADD SWAP1 PUSH1 0x20 ADD DUP1 DUP4 GT PUSH2 0x10E7 JUMPI DUP3 SWAP1 SUB PUSH1 0x1F AND DUP3 ADD SWAP2 JUMPDEST POP POP POP POP POP SWAP1 DUP1 PUSH1 0x5 ADD SLOAD SWAP1 DUP1 PUSH1 0x6 ADD PUSH1 0x0 SWAP1 SLOAD SWAP1 PUSH2 0x100 EXP SWAP1 DIV PUSH20 0xFFFFFFFFFFFFFFFFFFFFFFFFFFFFFFFFFFFFFFFF AND SWAP1 DUP1 PUSH1 0x7 ADD PUSH1 0x0 SWAP1 SLOAD SWAP1 PUSH2 0x100 EXP SWAP1 DIV PUSH20 0xFFFFFFFFFFFFFFFFFFFFFFFFFFFFFFFFFFFFFFFF AND SWAP1 DUP1 PUSH1 0x7 ADD PUSH1 0x14 SWAP1 SLOAD SWAP1 PUSH2 0x100 EXP SWAP1 DIV PUSH1 0xFF AND SWAP1 DUP1 PUSH1 0x9 ADD SLOAD SWAP1 POP DUP11 JUMP JUMPDEST PUSH1 0x60 PUSH1 0x3 DUP1 SLOAD DUP1 PUSH1 0x20 MUL PUSH1 0x20 ADD PUSH1 0x40 MLOAD SWAP1 DUP2 ADD PUSH1 0x40 MSTORE DUP1 SWAP3 SWAP2 SWAP1 DUP2 DUP2 MSTORE PUSH1 0x20 ADD PUSH1 0x0 SWAP1 JUMPDEST DUP3 DUP3 LT ISZERO PUSH2 0x12B7 JUMPI DUP4 DUP3 SWAP1 PUSH1 0x0 MSTORE PUSH1 0x20 PUSH1 0x0 KECCAK256 SWAP1 PUSH1 0x2 MUL ADD PUSH1 0x40 MLOAD DUP1 PUSH1 0x40 ADD PUSH1 0x40 MSTORE SWAP1 DUP2 PUSH1 0x0 DUP3 ADD DUP1 SLOAD PUSH2 0x11D0 SWAP1 PUSH2 0x1BD5 JUMP JUMPDEST DUP1 PUSH1 0x1F ADD PUSH1 0x20 DUP1 SWAP2 DIV MUL PUSH1 0x20 ADD PUSH1 0x40 MLOAD SWAP1 DUP2 ADD PUSH1 0x40 MSTORE DUP1 SWAP3 SWAP2 SWAP1 DUP2 DUP2 MSTORE PUSH1 0x20 ADD DUP3 DUP1 SLOAD PUSH2 0x11FC SWAP1 PUSH2 0x1BD5 JUMP JUMPDEST DUP1 ISZERO PUSH2 0x1249 JUMPI DUP1 PUSH1 0x1F LT PUSH2 0x121E JUMPI PUSH2 0x100 DUP1 DUP4 SLOAD DIV MUL DUP4 MSTORE SWAP2 PUSH1 0x20 ADD SWAP2 PUSH2 0x1249 JUMP JUMPDEST DUP3 ADD SWAP2 SWAP1 PUSH1 0x0 MSTORE PUSH1 0x20 PUSH1 0x0 KECCAK256 SWAP1 JUMPDEST DUP2 SLOAD DUP2 MSTORE SWAP1 PUSH1 0x1 ADD SWAP1 PUSH1 0x20 ADD DUP1 DUP4 GT PUSH2 0x122C JUMPI DUP3 SWAP1 SUB PUSH1 0x1F AND DUP3 ADD SWAP2 JUMPDEST POP POP POP POP POP DUP2 MSTORE PUSH1 0x20 ADD PUSH1 0x1 DUP3 ADD PUSH1 0x0 SWAP1 SLOAD SWAP1 PUSH2 0x100 EXP SWAP1 DIV PUSH20 0xFFFFFFFFFFFFFFFFFFFFFFFFFFFFFFFFFFFFFFFF AND PUSH20 0xFFFFFFFFFFFFFFFFFFFFFFFFFFFFFFFFFFFFFFFF AND PUSH20 0xFFFFFFFFFFFFFFFFFFFFFFFFFFFFFFFFFFFFFFFF AND DUP2 MSTORE POP POP DUP2 MSTORE PUSH1 0x20 ADD SWAP1 PUSH1 0x1 ADD SWAP1 PUSH2 0x119D JUMP JUMPDEST POP POP POP POP SWAP1 POP SWAP1 JUMP JUMPDEST DUP3 DUP1 SLOAD PUSH2 0x12CC SWAP1 PUSH2 0x1BD5 JUMP JUMPDEST SWAP1 PUSH1 0x0 MSTORE PUSH1 0x20 PUSH1 0x0 KECCAK256 SWAP1 PUSH1 0x1F ADD PUSH1 0x20 SWAP1 DIV DUP2 ADD SWAP3 DUP3 PUSH2 0x12EE JUMPI PUSH1 0x0 DUP6 SSTORE PUSH2 0x1335 JUMP JUMPDEST DUP3 PUSH1 0x1F LT PUSH2 0x1307 JUMPI DUP1 MLOAD PUSH1 0xFF NOT AND DUP4 DUP1 ADD OR DUP6 SSTORE PUSH2 0x1335 JUMP JUMPDEST DUP3 DUP1 ADD PUSH1 0x1 ADD DUP6 SSTORE DUP3 ISZERO PUSH2 0x1335 JUMPI SWAP2 DUP3 ADD JUMPDEST DUP3 DUP2 GT ISZERO PUSH2 0x1334 JUMPI DUP3 MLOAD DUP3 SSTORE SWAP2 PUSH1 0x20 ADD SWAP2 SWAP1 PUSH1 0x1 ADD SWAP1 PUSH2 0x1319 JUMP JUMPDEST JUMPDEST POP SWAP1 POP PUSH2 0x1342 SWAP2 SWAP1 PUSH2 0x1346 JUMP JUMPDEST POP SWAP1 JUMP JUMPDEST JUMPDEST DUP1 DUP3 GT ISZERO PUSH2 0x135F JUMPI PUSH1 0x0 DUP2 PUSH1 0x0 SWAP1 SSTORE POP PUSH1 0x1 ADD PUSH2 0x1347 JUMP JUMPDEST POP SWAP1 JUMP JUMPDEST PUSH1 0x0 PUSH1 0x40 MLOAD SWAP1 POP SWAP1 JUMP JUMPDEST PUSH1 0x0 DUP1 REVERT JUMPDEST PUSH1 0x0 DUP1 REVERT JUMPDEST PUSH1 0x0 DUP2 SWAP1 POP SWAP2 SWAP1 POP JUMP JUMPDEST PUSH2 0x138A DUP2 PUSH2 0x1377 JUMP JUMPDEST DUP2 EQ PUSH2 0x1395 JUMPI PUSH1 0x0 DUP1 REVERT JUMPDEST POP JUMP JUMPDEST PUSH1 0x0 DUP2 CALLDATALOAD SWAP1 POP PUSH2 0x13A7 DUP2 PUSH2 0x1381 JUMP JUMPDEST SWAP3 SWAP2 POP POP JUMP JUMPDEST PUSH1 0x0 PUSH1 0x20 DUP3 DUP5 SUB SLT ISZERO PUSH2 0x13C3 JUMPI PUSH2 0x13C2 PUSH2 0x136D JUMP JUMPDEST JUMPDEST PUSH1 0x0 PUSH2 0x13D1 DUP5 DUP3 DUP6 ADD PUSH2 0x1398 JUMP JUMPDEST SWAP2 POP POP SWAP3 SWAP2 POP POP JUMP JUMPDEST PUSH1 0x0 PUSH20 0xFFFFFFFFFFFFFFFFFFFFFFFFFFFFFFFFFFFFFFFF DUP3 AND SWAP1 POP SWAP2 SWAP1 POP JUMP JUMPDEST PUSH1 0x0 PUSH2 0x1405 DUP3 PUSH2 0x13DA JUMP JUMPDEST SWAP1 POP SWAP2 SWAP1 POP JUMP JUMPDEST PUSH2 0x1415 DUP2 PUSH2 0x13FA JUMP JUMPDEST DUP3 MSTORE POP POP JUMP JUMPDEST PUSH1 0x0 DUP2 MLOAD SWAP1 POP SWAP2 SWAP1 POP JUMP JUMPDEST PUSH1 0x0 DUP3 DUP3 MSTORE PUSH1 0x20 DUP3 ADD SWAP1 POP SWAP3 SWAP2 POP POP JUMP JUMPDEST PUSH1 0x0 JUMPDEST DUP4 DUP2 LT ISZERO PUSH2 0x1455 JUMPI DUP1 DUP3 ADD MLOAD DUP2 DUP5 ADD MSTORE PUSH1 0x20 DUP2 ADD SWAP1 POP PUSH2 0x143A JUMP JUMPDEST DUP4 DUP2 GT ISZERO PUSH2 0x1464 JUMPI PUSH1 0x0 DUP5 DUP5 ADD MSTORE JUMPDEST POP POP POP POP JUMP JUMPDEST PUSH1 0x0 PUSH1 0x1F NOT PUSH1 0x1F DUP4 ADD AND SWAP1 POP SWAP2 SWAP1 POP JUMP JUMPDEST PUSH1 0x0 PUSH2 0x1486 DUP3 PUSH2 0x141B JUMP JUMPDEST PUSH2 0x1490 DUP2 DUP6 PUSH2 0x1426 JUMP JUMPDEST SWAP4 POP PUSH2 0x14A0 DUP2 DUP6 PUSH1 0x20 DUP7 ADD PUSH2 0x1437 JUMP JUMPDEST PUSH2 0x14A9 DUP2 PUSH2 0x146A JUMP JUMPDEST DUP5 ADD SWAP2 POP POP SWAP3 SWAP2 POP POP JUMP JUMPDEST PUSH1 0x0 PUSH1 0x40 DUP3 ADD SWAP1 POP PUSH2 0x14C9 PUSH1 0x0 DUP4 ADD DUP6 PUSH2 0x140C JUMP JUMPDEST DUP2 DUP2 SUB PUSH1 0x20 DUP4 ADD MSTORE PUSH2 0x14DB DUP2 DUP5 PUSH2 0x147B JUMP JUMPDEST SWAP1 POP SWAP4 SWAP3 POP POP POP JUMP JUMPDEST PUSH1 0x0 DUP1 REVERT JUMPDEST PUSH1 0x0 DUP1 REVERT JUMPDEST PUSH32 0x4E487B7100000000000000000000000000000000000000000000000000000000 PUSH1 0x0 MSTORE PUSH1 0x41 PUSH1 0x4 MSTORE PUSH1 0x24 PUSH1 0x0 REVERT JUMPDEST PUSH2 0x1526 DUP3 PUSH2 0x146A JUMP JUMPDEST DUP2 ADD DUP2 DUP2 LT PUSH8 0xFFFFFFFFFFFFFFFF DUP3 GT OR ISZERO PUSH2 0x1545 JUMPI PUSH2 0x1544 PUSH2 0x14EE JUMP JUMPDEST JUMPDEST DUP1 PUSH1 0x40 MSTORE POP POP POP JUMP JUMPDEST PUSH1 0x0 PUSH2 0x1558 PUSH2 0x1363 JUMP JUMPDEST SWAP1 POP PUSH2 0x1564 DUP3 DUP3 PUSH2 0x151D JUMP JUMPDEST SWAP2 SWAP1 POP JUMP JUMPDEST PUSH1 0x0 PUSH8 0xFFFFFFFFFFFFFFFF DUP3 GT ISZERO PUSH2 0x1584 JUMPI PUSH2 0x1583 PUSH2 0x14EE JUMP JUMPDEST JUMPDEST PUSH2 0x158D DUP3 PUSH2 0x146A JUMP JUMPDEST SWAP1 POP PUSH1 0x20 DUP2 ADD SWAP1 POP SWAP2 SWAP1 POP JUMP JUMPDEST DUP3 DUP2 DUP4 CALLDATACOPY PUSH1 0x0 DUP4 DUP4 ADD MSTORE POP POP POP JUMP JUMPDEST PUSH1 0x0 PUSH2 0x15BC PUSH2 0x15B7 DUP5 PUSH2 0x1569 JUMP JUMPDEST PUSH2 0x154E JUMP JUMPDEST SWAP1 POP DUP3 DUP2 MSTORE PUSH1 0x20 DUP2 ADD DUP5 DUP5 DUP5 ADD GT ISZERO PUSH2 0x15D8 JUMPI PUSH2 0x15D7 PUSH2 0x14E9 JUMP JUMPDEST JUMPDEST PUSH2 0x15E3 DUP5 DUP3 DUP6 PUSH2 0x159A JUMP JUMPDEST POP SWAP4 SWAP3 POP POP POP JUMP JUMPDEST PUSH1 0x0 DUP3 PUSH1 0x1F DUP4 ADD SLT PUSH2 0x1600 JUMPI PUSH2 0x15FF PUSH2 0x14E4 JUMP JUMPDEST JUMPDEST DUP2 CALLDATALOAD PUSH2 0x1610 DUP5 DUP3 PUSH1 0x20 DUP7 ADD PUSH2 0x15A9 JUMP JUMPDEST SWAP2 POP POP SWAP3 SWAP2 POP POP JUMP JUMPDEST PUSH1 0x0 PUSH1 0x20 DUP3 DUP5 SUB SLT ISZERO PUSH2 0x162F JUMPI PUSH2 0x162E PUSH2 0x136D JUMP JUMPDEST JUMPDEST PUSH1 0x0 DUP3 ADD CALLDATALOAD PUSH8 0xFFFFFFFFFFFFFFFF DUP2 GT ISZERO PUSH2 0x164D JUMPI PUSH2 0x164C PUSH2 0x1372 JUMP JUMPDEST JUMPDEST PUSH2 0x1659 DUP5 DUP3 DUP6 ADD PUSH2 0x15EB JUMP JUMPDEST SWAP2 POP POP SWAP3 SWAP2 POP POP JUMP JUMPDEST PUSH1 0x0 PUSH1 0x40 DUP3 ADD SWAP1 POP DUP2 DUP2 SUB PUSH1 0x0 DUP4 ADD MSTORE PUSH2 0x167C DUP2 DUP6 PUSH2 0x147B JUMP JUMPDEST SWAP1 POP PUSH2 0x168B PUSH1 0x20 DUP4 ADD DUP5 PUSH2 0x140C JUMP JUMPDEST SWAP4 SWAP3 POP POP POP JUMP JUMPDEST PUSH1 0x0 DUP2 MLOAD SWAP1 POP SWAP2 SWAP1 POP JUMP JUMPDEST PUSH1 0x0 DUP3 DUP3 MSTORE PUSH1 0x20 DUP3 ADD SWAP1 POP SWAP3 SWAP2 POP POP JUMP JUMPDEST PUSH1 0x0 DUP2 SWAP1 POP PUSH1 0x20 DUP3 ADD SWAP1 POP SWAP2 SWAP1 POP JUMP JUMPDEST PUSH2 0x16C7 DUP2 PUSH2 0x13FA JUMP JUMPDEST DUP3 MSTORE POP POP JUMP JUMPDEST PUSH1 0x0 DUP3 DUP3 MSTORE PUSH1 0x20 DUP3 ADD SWAP1 POP SWAP3 SWAP2 POP POP JUMP JUMPDEST PUSH1 0x0 PUSH2 0x16E9 DUP3 PUSH2 0x141B JUMP JUMPDEST PUSH2 0x16F3 DUP2 DUP6 PUSH2 0x16CD JUMP JUMPDEST SWAP4 POP PUSH2 0x1703 DUP2 DUP6 PUSH1 0x20 DUP7 ADD PUSH2 0x1437 JUMP JUMPDEST PUSH2 0x170C DUP2 PUSH2 0x146A JUMP JUMPDEST DUP5 ADD SWAP2 POP POP SWAP3 SWAP2 POP POP JUMP JUMPDEST PUSH1 0x0 PUSH1 0x40 DUP4 ADD PUSH1 0x0 DUP4 ADD MLOAD PUSH2 0x172F PUSH1 0x0 DUP7 ADD DUP3 PUSH2 0x16BE JUMP JUMPDEST POP PUSH1 0x20 DUP4 ADD MLOAD DUP5 DUP3 SUB PUSH1 0x20 DUP7 ADD MSTORE PUSH2 0x1747 DUP3 DUP3 PUSH2 0x16DE JUMP JUMPDEST SWAP2 POP POP DUP1 SWAP2 POP POP SWAP3 SWAP2 POP POP JUMP JUMPDEST PUSH1 0x0 PUSH2 0x1760 DUP4 DUP4 PUSH2 0x1717 JUMP JUMPDEST SWAP1 POP SWAP3 SWAP2 POP POP JUMP JUMPDEST PUSH1 0x0 PUSH1 0x20 DUP3 ADD SWAP1 POP SWAP2 SWAP1 POP JUMP JUMPDEST PUSH1 0x0 PUSH2 0x1780 DUP3 PUSH2 0x1692 JUMP JUMPDEST PUSH2 0x178A DUP2 DUP6 PUSH2 0x169D JUMP JUMPDEST SWAP4 POP DUP4 PUSH1 0x20 DUP3 MUL DUP6 ADD PUSH2 0x179C DUP6 PUSH2 0x16AE JUMP JUMPDEST DUP1 PUSH1 0x0 JUMPDEST DUP6 DUP2 LT ISZERO PUSH2 0x17D8 JUMPI DUP5 DUP5 SUB DUP10 MSTORE DUP2 MLOAD PUSH2 0x17B9 DUP6 DUP3 PUSH2 0x1754 JUMP JUMPDEST SWAP5 POP PUSH2 0x17C4 DUP4 PUSH2 0x1768 JUMP JUMPDEST SWAP3 POP PUSH1 0x20 DUP11 ADD SWAP10 POP POP PUSH1 0x1 DUP2 ADD SWAP1 POP PUSH2 0x17A0 JUMP JUMPDEST POP DUP3 SWAP8 POP DUP8 SWAP6 POP POP POP POP POP POP SWAP3 SWAP2 POP POP JUMP JUMPDEST PUSH1 0x0 PUSH1 0x20 DUP3 ADD SWAP1 POP DUP2 DUP2 SUB PUSH1 0x0 DUP4 ADD MSTORE PUSH2 0x1804 DUP2 DUP5 PUSH2 0x1775 JUMP JUMPDEST SWAP1 POP SWAP3 SWAP2 POP POP JUMP JUMPDEST PUSH2 0x1815 DUP2 PUSH2 0x1377 JUMP JUMPDEST DUP3 MSTORE POP POP JUMP JUMPDEST PUSH1 0x0 PUSH1 0x20 DUP3 ADD SWAP1 POP PUSH2 0x1830 PUSH1 0x0 DUP4 ADD DUP5 PUSH2 0x180C JUMP JUMPDEST SWAP3 SWAP2 POP POP JUMP JUMPDEST PUSH1 0x0 PUSH1 0x20 DUP3 ADD SWAP1 POP PUSH2 0x184B PUSH1 0x0 DUP4 ADD DUP5 PUSH2 0x140C JUMP JUMPDEST SWAP3 SWAP2 POP POP JUMP JUMPDEST PUSH2 0x185A DUP2 PUSH2 0x13FA JUMP JUMPDEST DUP2 EQ PUSH2 0x1865 JUMPI PUSH1 0x0 DUP1 REVERT JUMPDEST POP JUMP JUMPDEST PUSH1 0x0 DUP2 CALLDATALOAD SWAP1 POP PUSH2 0x1877 DUP2 PUSH2 0x1851 JUMP JUMPDEST SWAP3 SWAP2 POP POP JUMP JUMPDEST PUSH1 0x0 DUP1 PUSH1 0x0 DUP1 PUSH1 0x0 DUP1 PUSH1 0x0 PUSH1 0xE0 DUP9 DUP11 SUB SLT ISZERO PUSH2 0x189C JUMPI PUSH2 0x189B PUSH2 0x136D JUMP JUMPDEST JUMPDEST PUSH1 0x0 DUP9 ADD CALLDATALOAD PUSH8 0xFFFFFFFFFFFFFFFF DUP2 GT ISZERO PUSH2 0x18BA JUMPI PUSH2 0x18B9 PUSH2 0x1372 JUMP JUMPDEST JUMPDEST PUSH2 0x18C6 DUP11 DUP3 DUP12 ADD PUSH2 0x15EB JUMP JUMPDEST SWAP8 POP POP PUSH1 0x20 DUP9 ADD CALLDATALOAD PUSH8 0xFFFFFFFFFFFFFFFF DUP2 GT ISZERO PUSH2 0x18E7 JUMPI PUSH2 0x18E6 PUSH2 0x1372 JUMP JUMPDEST JUMPDEST PUSH2 0x18F3 DUP11 DUP3 DUP12 ADD PUSH2 0x15EB JUMP JUMPDEST SWAP7 POP POP PUSH1 0x40 DUP9 ADD CALLDATALOAD PUSH8 0xFFFFFFFFFFFFFFFF DUP2 GT ISZERO PUSH2 0x1914 JUMPI PUSH2 0x1913 PUSH2 0x1372 JUMP JUMPDEST JUMPDEST PUSH2 0x1920 DUP11 DUP3 DUP12 ADD PUSH2 0x15EB JUMP JUMPDEST SWAP6 POP POP PUSH1 0x60 DUP9 ADD CALLDATALOAD PUSH8 0xFFFFFFFFFFFFFFFF DUP2 GT ISZERO PUSH2 0x1941 JUMPI PUSH2 0x1940 PUSH2 0x1372 JUMP JUMPDEST JUMPDEST PUSH2 0x194D DUP11 DUP3 DUP12 ADD PUSH2 0x15EB JUMP JUMPDEST SWAP5 POP POP PUSH1 0x80 DUP9 ADD CALLDATALOAD PUSH8 0xFFFFFFFFFFFFFFFF DUP2 GT ISZERO PUSH2 0x196E JUMPI PUSH2 0x196D PUSH2 0x1372 JUMP JUMPDEST JUMPDEST PUSH2 0x197A DUP11 DUP3 DUP12 ADD PUSH2 0x15EB JUMP JUMPDEST SWAP4 POP POP PUSH1 0xA0 PUSH2 0x198B DUP11 DUP3 DUP12 ADD PUSH2 0x1398 JUMP JUMPDEST SWAP3 POP POP PUSH1 0xC0 PUSH2 0x199C DUP11 DUP3 DUP12 ADD PUSH2 0x1868 JUMP JUMPDEST SWAP2 POP POP SWAP3 SWAP6 SWAP9 SWAP2 SWAP5 SWAP8 POP SWAP3 SWAP6 POP JUMP JUMPDEST PUSH1 0x0 DUP2 ISZERO ISZERO SWAP1 POP SWAP2 SWAP1 POP JUMP JUMPDEST PUSH2 0x19C0 DUP2 PUSH2 0x19AB JUMP JUMPDEST DUP3 MSTORE POP POP JUMP JUMPDEST PUSH1 0x0 PUSH2 0x140 DUP3 ADD SWAP1 POP DUP2 DUP2 SUB PUSH1 0x0 DUP4 ADD MSTORE PUSH2 0x19E1 DUP2 DUP14 PUSH2 0x147B JUMP JUMPDEST SWAP1 POP DUP2 DUP2 SUB PUSH1 0x20 DUP4 ADD MSTORE PUSH2 0x19F5 DUP2 DUP13 PUSH2 0x147B JUMP JUMPDEST SWAP1 POP DUP2 DUP2 SUB PUSH1 0x40 DUP4 ADD MSTORE PUSH2 0x1A09 DUP2 DUP12 PUSH2 0x147B JUMP JUMPDEST SWAP1 POP DUP2 DUP2 SUB PUSH1 0x60 DUP4 ADD MSTORE PUSH2 0x1A1D DUP2 DUP11 PUSH2 0x147B JUMP JUMPDEST SWAP1 POP DUP2 DUP2 SUB PUSH1 0x80 DUP4 ADD MSTORE PUSH2 0x1A31 DUP2 DUP10 PUSH2 0x147B JUMP JUMPDEST SWAP1 POP PUSH2 0x1A40 PUSH1 0xA0 DUP4 ADD DUP9 PUSH2 0x180C JUMP JUMPDEST PUSH2 0x1A4D PUSH1 0xC0 DUP4 ADD DUP8 PUSH2 0x140C JUMP JUMPDEST PUSH2 0x1A5A PUSH1 0xE0 DUP4 ADD DUP7 PUSH2 0x140C JUMP JUMPDEST PUSH2 0x1A68 PUSH2 0x100 DUP4 ADD DUP6 PUSH2 0x19B7 JUMP JUMPDEST PUSH2 0x1A76 PUSH2 0x120 DUP4 ADD DUP5 PUSH2 0x180C JUMP JUMPDEST SWAP12 SWAP11 POP POP POP POP POP POP POP POP POP POP POP JUMP JUMPDEST PUSH1 0x0 DUP2 MLOAD SWAP1 POP SWAP2 SWAP1 POP JUMP JUMPDEST PUSH1 0x0 DUP3 DUP3 MSTORE PUSH1 0x20 DUP3 ADD SWAP1 POP SWAP3 SWAP2 POP POP JUMP JUMPDEST PUSH1 0x0 DUP2 SWAP1 POP PUSH1 0x20 DUP3 ADD SWAP1 POP SWAP2 SWAP1 POP JUMP JUMPDEST PUSH1 0x0 PUSH1 0x40 DUP4 ADD PUSH1 0x0 DUP4 ADD MLOAD DUP5 DUP3 SUB PUSH1 0x0 DUP7 ADD MSTORE PUSH2 0x1ACE DUP3 DUP3 PUSH2 0x16DE JUMP JUMPDEST SWAP2 POP POP PUSH1 0x20 DUP4 ADD MLOAD PUSH2 0x1AE3 PUSH1 0x20 DUP7 ADD DUP3 PUSH2 0x16BE JUMP JUMPDEST POP DUP1 SWAP2 POP POP SWAP3 SWAP2 POP POP JUMP JUMPDEST PUSH1 0x0 PUSH2 0x1AFA DUP4 DUP4 PUSH2 0x1AB1 JUMP JUMPDEST SWAP1 POP SWAP3 SWAP2 POP POP JUMP JUMPDEST PUSH1 0x0 PUSH1 0x20 DUP3 ADD SWAP1 POP SWAP2 SWAP1 POP JUMP JUMPDEST PUSH1 0x0 PUSH2 0x1B1A DUP3 PUSH2 0x1A85 JUMP JUMPDEST PUSH2 0x1B24 DUP2 DUP6 PUSH2 0x1A90 JUMP JUMPDEST SWAP4 POP DUP4 PUSH1 0x20 DUP3 MUL DUP6 ADD PUSH2 0x1B36 DUP6 PUSH2 0x1AA1 JUMP JUMPDEST DUP1 PUSH1 0x0 JUMPDEST DUP6 DUP2 LT ISZERO PUSH2 0x1B72 JUMPI DUP5 DUP5 SUB DUP10 MSTORE DUP2 MLOAD PUSH2 0x1B53 DUP6 DUP3 PUSH2 0x1AEE JUMP JUMPDEST SWAP5 POP PUSH2 0x1B5E DUP4 PUSH2 0x1B02 JUMP JUMPDEST SWAP3 POP PUSH1 0x20 DUP11 ADD SWAP10 POP POP PUSH1 0x1 DUP2 ADD SWAP1 POP PUSH2 0x1B3A JUMP JUMPDEST POP DUP3 SWAP8 POP DUP8 SWAP6 POP POP POP POP POP POP SWAP3 SWAP2 POP POP JUMP JUMPDEST PUSH1 0x0 PUSH1 0x20 DUP3 ADD SWAP1 POP DUP2 DUP2 SUB PUSH1 0x0 DUP4 ADD MSTORE PUSH2 0x1B9E DUP2 DUP5 PUSH2 0x1B0F JUMP JUMPDEST SWAP1 POP SWAP3 SWAP2 POP POP JUMP JUMPDEST PUSH32 0x4E487B7100000000000000000000000000000000000000000000000000000000 PUSH1 0x0 MSTORE PUSH1 0x22 PUSH1 0x4 MSTORE PUSH1 0x24 PUSH1 0x0 REVERT JUMPDEST PUSH1 0x0 PUSH1 0x2 DUP3 DIV SWAP1 POP PUSH1 0x1 DUP3 AND DUP1 PUSH2 0x1BED JUMPI PUSH1 0x7F DUP3 AND SWAP2 POP JUMPDEST PUSH1 0x20 DUP3 LT DUP2 EQ ISZERO PUSH2 0x1C01 JUMPI PUSH2 0x1C00 PUSH2 0x1BA6 JUMP JUMPDEST JUMPDEST POP SWAP2 SWAP1 POP JUMP JUMPDEST PUSH32 0x4E487B7100000000000000000000000000000000000000000000000000000000 PUSH1 0x0 MSTORE PUSH1 0x32 PUSH1 0x4 MSTORE PUSH1 0x24 PUSH1 0x0 REVERT JUMPDEST PUSH32 0x4E487B7100000000000000000000000000000000000000000000000000000000 PUSH1 0x0 MSTORE PUSH1 0x11 PUSH1 0x4 MSTORE PUSH1 0x24 PUSH1 0x0 REVERT JUMPDEST PUSH1 0x0 PUSH2 0x1C70 DUP3 PUSH2 0x1377 JUMP JUMPDEST SWAP2 POP PUSH32 0xFFFFFFFFFFFFFFFFFFFFFFFFFFFFFFFFFFFFFFFFFFFFFFFFFFFFFFFFFFFFFFFF DUP3 EQ ISZERO PUSH2 0x1CA3 JUMPI PUSH2 0x1CA2 PUSH2 0x1C36 JUMP JUMPDEST JUMPDEST PUSH1 0x1 DUP3 ADD SWAP1 POP SWAP2 SWAP1 POP JUMP JUMPDEST PUSH32 0x4E487B7100000000000000000000000000000000000000000000000000000000 PUSH1 0x0 MSTORE PUSH1 0x12 PUSH1 0x4 MSTORE PUSH1 0x24 PUSH1 0x0 REVERT JUMPDEST PUSH1 0x0 PUSH2 0x1CE8 DUP3 PUSH2 0x1377 JUMP JUMPDEST SWAP2 POP PUSH2 0x1CF3 DUP4 PUSH2 0x1377 JUMP JUMPDEST SWAP3 POP DUP3 PUSH2 0x1D03 JUMPI PUSH2 0x1D02 PUSH2 0x1CAE JUMP JUMPDEST JUMPDEST DUP3 DUP3 DIV SWAP1 POP SWAP3 SWAP2 POP POP JUMP INVALID LOG2 PUSH5 0x6970667358 0x22 SLT KECCAK256 PUSH27 0xDC20107AC0AF341E204FA92AF6B2F8033F0DD6BEF310B1997928BE 0x49 PUSH9 0xC38264736F6C634300 ADDMOD MULMOD STOP CALLER "},"gasEstimates":{"creation":{"codeDepositCost":"1498400","executionCost":"74562","totalCost":"1572962"},"external":{"approveClaim(uint256)":"infinite","claim(string,string,string,string,string,uint256,address)":"infinite","claims(uint256)":"infinite","contribute(string)":"infinite","contributors(uint256)":"infinite","getContributors()":"infinite","getMessages()":"infinite","makeMessage(string)":"infinite","messages(uint256)":"infinite","owner()":"2533","population()":"2429","startStudy(uint256)":"infinite"}},"methodIdentifiers":{"approveClaim(uint256)":"46e30135","claim(string,string,string,string,string,uint256,address)":"9efb693b","claims(uint256)":"a888c2cd","contribute(string)":"5c43217b","contributors(uint256)":"3cb5d100","getContributors()":"af157c19","getMessages()":"5ff6cbf3","makeMessage(string)":"14d5b247","messages(uint256)":"0d80fefd","owner()":"8da5cb5b","population()":"78880f4a","startStudy(uint256)":"a5f7542a"}},"storageLayout":{"storage":[{"astId":33,"contract":"Appetito.sol:Appetito","label":"owner","offset":0,"slot":"0","type":"t_address"},{"astId":37,"contract":"Appetito.sol:Appetito","label":"mappedParticipants","offset":0,"slot":"1","type":"t_mapping(t_address,t_bool)"},{"astId":39,"contract":"Appetito.sol:Appetito","label":"population","offset":0,"slot":"2","type":"t_uint256"},{"astId":43,"contract":"Appetito.sol:Appetito","label":"contributors","offset":0,"slot":"3","type":"t_array(t_struct(ContributorType)31_storage)dyn_storage"},{"astId":47,"contract":"Appetito.sol:Appetito","label":"claims","offset":0,"slot":"4","type":"t_array(t_struct(ClaimType)26_storage)dyn_storage"},{"astId":56,"contract":"Appetito.sol:Appetito","label":"messages","offset":0,"slot":"5","type":"t_array(t_struct(MessageType)52_storage)dyn_storage"}],"types":{"t_address":{"encoding":"inplace","label":"address","numberOfBytes":"20"},"t_array(t_struct(ClaimType)26_storage)dyn_storage":{"base":"t_struct(ClaimType)26_storage","encoding":"dynamic_array","label":"struct Appetito.ClaimType[]","numberOfBytes":"32"},"t_array(t_struct(ContributorType)31_storage)dyn_storage":{"base":"t_struct(ContributorType)31_storage","encoding":"dynamic_array","label":"struct Appetito.ContributorType[]","numberOfBytes":"32"},"t_array(t_struct(MessageType)52_storage)dyn_storage":{"base":"t_struct(MessageType)52_storage","encoding":"dynamic_array","label":"struct Appetito.MessageType[]","numberOfBytes":"32"},"t_bool":{"encoding":"inplace","label":"bool","numberOfBytes":"1"},"t_mapping(t_address,t_bool)":{"encoding":"mapping","key":"t_address","label":"mapping(address => bool)","numberOfBytes":"32","value":"t_bool"},"t_string_storage":{"encoding":"bytes","label":"string","numberOfBytes":"32"},"t_struct(ClaimType)26_storage":{"encoding":"inplace","label":"struct Appetito.ClaimType","members":[{"astId":3,"contract":"Appetito.sol:Appetito","label":"claimerName","offset":0,"slot":"0","type":"t_string_storage"},{"astId":5,"contract":"Appetito.sol:Appetito","label":"dreamJob","offset":0,"slot":"1","type":"t_string_storage"},{"astId":7,"contract":"Appetito.sol:Appetito","label":"materialTitle","offset":0,"slot":"2","type":"t_string_storage"},{"astId":9,"contract":"Appetito.sol:Appetito","label":"purpose","offset":0,"slot":"3","type":"t_string_storage"},{"astId":11,"contract":"Appetito.sol:Appetito","label":"urlSource","offset":0,"slot":"4","type":"t_string_storage"},{"astId":13,"contract":"Appetito.sol:Appetito","label":"value","offset":0,"slot":"5","type":"t_uint256"},{"astId":15,"contract":"Appetito.sol:Appetito","label":"claimerAddress","offset":0,"slot":"6","type":"t_address"},{"astId":17,"contract":"Appetito.sol:Appetito","label":"recipientAddress","offset":0,"slot":"7","type":"t_address"},{"astId":19,"contract":"Appetito.sol:Appetito","label":"done","offset":20,"slot":"7","type":"t_bool"},{"astId":23,"contract":"Appetito.sol:Appetito","label":"approvers","offset":0,"slot":"8","type":"t_mapping(t_address,t_bool)"},{"astId":25,"contract":"Appetito.sol:Appetito","label":"approvedCounts","offset":0,"slot":"9","type":"t_uint256"}],"numberOfBytes":"320"},"t_struct(ContributorType)31_storage":{"encoding":"inplace","label":"struct Appetito.ContributorType","members":[{"astId":28,"contract":"Appetito.sol:Appetito","label":"contributorName","offset":0,"slot":"0","type":"t_string_storage"},{"astId":30,"contract":"Appetito.sol:Appetito","label":"contributorAddress","offset":0,"slot":"1","type":"t_address"}],"numberOfBytes":"64"},"t_struct(MessageType)52_storage":{"encoding":"inplace","label":"struct Appetito.MessageType","members":[{"astId":49,"contract":"Appetito.sol:Appetito","label":"sender","offset":0,"slot":"0","type":"t_address"},{"astId":51,"contract":"Appetito.sol:Appetito","label":"description","offset":0,"slot":"1","type":"t_string_storage"}],"numberOfBytes":"64"},"t_uint256":{"encoding":"inplace","label":"uint256","numberOfBytes":"32"}}},"userdoc":{"kind":"user","methods":{},"version":1}}