{"abi":[{"inputs":[],"stateMutability":"nonpayable","type":"constructor"},{"inputs":[{"internalType":"uint256","name":"index","type":"uint256"}],"name":"approveClaim","outputs":[],"stateMutability":"nonpayable","type":"function"},{"inputs":[{"internalType":"string","name":"claimerName","type":"string"},{"internalType":"string","name":"dreamJob","type":"string"},{"internalType":"string","name":"materialTitle","type":"string"},{"internalType":"string","name":"urlSource","type":"string"},{"internalType":"string","name":"description","type":"string"},{"internalType":"uint256","name":"amount","type":"uint256"},{"internalType":"address","name":"recipientAddress","type":"address"}],"name":"claim","outputs":[],"stateMutability":"nonpayable","type":"function"},{"inputs":[{"internalType":"uint256","name":"","type":"uint256"}],"name":"claims","outputs":[{"internalType":"string","name":"claimerName","type":"string"},{"internalType":"string","name":"dreamJob","type":"string"},{"internalType":"string","name":"materialTitle","type":"string"},{"internalType":"string","name":"description","type":"string"},{"internalType":"string","name":"urlSource","type":"string"},{"internalType":"uint256","name":"amount","type":"uint256"},{"internalType":"address","name":"claimerAddress","type":"address"},{"internalType":"address","name":"recipientAddress","type":"address"},{"internalType":"bool","name":"done","type":"bool"},{"internalType":"uint256","name":"approvedCounts","type":"uint256"}],"stateMutability":"view","type":"function"},{"inputs":[{"internalType":"string","name":"contributorName","type":"string"}],"name":"contribute","outputs":[],"stateMutability":"payable","type":"function"},{"inputs":[{"internalType":"uint256","name":"","type":"uint256"}],"name":"contributors","outputs":[{"internalType":"string","name":"contributorName","type":"string"},{"internalType":"address","name":"contributorAddress","type":"address"}],"stateMutability":"view","type":"function"},{"inputs":[],"name":"getClaimsCount","outputs":[{"internalType":"uint256","name":"","type":"uint256"}],"stateMutability":"view","type":"function"},{"inputs":[],"name":"getContributors","outputs":[{"components":[{"internalType":"string","name":"contributorName","type":"string"},{"internalType":"address","name":"contributorAddress","type":"address"}],"internalType":"struct Appetito.ContributorType[]","name":"","type":"tuple[]"}],"stateMutability":"view","type":"function"},{"inputs":[],"name":"getMessages","outputs":[{"components":[{"internalType":"address","name":"sender","type":"address"},{"internalType":"string","name":"description","type":"string"}],"internalType":"struct Appetito.MessageType[]","name":"","type":"tuple[]"}],"stateMutability":"view","type":"function"},{"inputs":[],"name":"getMessagesCount","outputs":[{"internalType":"uint256","name":"","type":"uint256"}],"stateMutability":"view","type":"function"},{"inputs":[{"internalType":"string","name":"description","type":"string"}],"name":"makeMessage","outputs":[],"stateMutability":"nonpayable","type":"function"},{"inputs":[{"internalType":"uint256","name":"","type":"uint256"}],"name":"messages","outputs":[{"internalType":"address","name":"sender","type":"address"},{"internalType":"string","name":"description","type":"string"}],"stateMutability":"view","type":"function"},{"inputs":[],"name":"owner","outputs":[{"internalType":"address","name":"","type":"address"}],"stateMutability":"view","type":"function"},{"inputs":[],"name":"population","outputs":[{"internalType":"uint256","name":"","type":"uint256"}],"stateMutability":"view","type":"function"},{"inputs":[{"internalType":"uint256","name":"index","type":"uint256"}],"name":"startStudy","outputs":[],"stateMutability":"payable","type":"function"}],"devdoc":{"kind":"dev","methods":{},"version":1},"evm":{"assembly":"    /* \"Appetito.sol\":57:4448  contract Appetito {... */\n  mstore(0x40, 0x80)\n    /* \"Appetito.sol\":919:1022  constructor(){... */\n  callvalue\n  dup1\n  iszero\n  tag_1\n  jumpi\n  0x00\n  dup1\n  revert\ntag_1:\n  pop\n    /* \"Appetito.sol\":946:956  msg.sender */\n  caller\n    /* \"Appetito.sol\":938:943  owner */\n  0x00\n  dup1\n    /* \"Appetito.sol\":938:956  owner = msg.sender */\n  0x0100\n  exp\n  dup2\n  sload\n  dup2\n  0xffffffffffffffffffffffffffffffffffffffff\n  mul\n  not\n  and\n  swap1\n  dup4\n  0xffffffffffffffffffffffffffffffffffffffff\n  and\n  mul\n  or\n  swap1\n  sstore\n  pop\n    /* \"Appetito.sol\":995:999  true */\n  0x01\n    /* \"Appetito.sol\":962:980  mappedParticipants */\n  dup1\n    /* \"Appetito.sol\":962:992  mappedParticipants[msg.sender] */\n  0x00\n    /* \"Appetito.sol\":981:991  msg.sender */\n  caller\n    /* \"Appetito.sol\":962:992  mappedParticipants[msg.sender] */\n  0xffffffffffffffffffffffffffffffffffffffff\n  and\n  0xffffffffffffffffffffffffffffffffffffffff\n  and\n  dup2\n  mstore\n  0x20\n  add\n  swap1\n  dup2\n  mstore\n  0x20\n  add\n  0x00\n  keccak256\n  0x00\n    /* \"Appetito.sol\":962:999  mappedParticipants[msg.sender] = true */\n  0x0100\n  exp\n  dup2\n  sload\n  dup2\n  0xff\n  mul\n  not\n  and\n  swap1\n  dup4\n  iszero\n  iszero\n  mul\n  or\n  swap1\n  sstore\n  pop\n    /* \"Appetito.sol\":1005:1015  population */\n  0x02\n  0x00\n    /* \"Appetito.sol\":1005:1017  population++ */\n  dup2\n  sload\n  dup1\n  swap3\n  swap2\n  swap1\n  tag_4\n  swap1\n  tag_5\n  jump\t// in\ntag_4:\n  swap2\n  swap1\n  pop\n  sstore\n  pop\n    /* \"Appetito.sol\":57:4448  contract Appetito {... */\n  jump(tag_6)\n    /* \"#utility.yul\":7:187   */\ntag_7:\n    /* \"#utility.yul\":55:132   */\n  0x4e487b7100000000000000000000000000000000000000000000000000000000\n    /* \"#utility.yul\":52:53   */\n  0x00\n    /* \"#utility.yul\":45:133   */\n  mstore\n    /* \"#utility.yul\":152:156   */\n  0x11\n    /* \"#utility.yul\":149:150   */\n  0x04\n    /* \"#utility.yul\":142:157   */\n  mstore\n    /* \"#utility.yul\":176:180   */\n  0x24\n    /* \"#utility.yul\":173:174   */\n  0x00\n    /* \"#utility.yul\":166:181   */\n  revert\n    /* \"#utility.yul\":193:270   */\ntag_8:\n    /* \"#utility.yul\":230:237   */\n  0x00\n    /* \"#utility.yul\":259:264   */\n  dup2\n    /* \"#utility.yul\":248:264   */\n  swap1\n  pop\n    /* \"#utility.yul\":193:270   */\n  swap2\n  swap1\n  pop\n  jump\t// out\n    /* \"#utility.yul\":276:509   */\ntag_5:\n    /* \"#utility.yul\":315:318   */\n  0x00\n    /* \"#utility.yul\":338:362   */\n  tag_13\n    /* \"#utility.yul\":356:361   */\n  dup3\n    /* \"#utility.yul\":338:362   */\n  tag_8\n  jump\t// in\ntag_13:\n    /* \"#utility.yul\":329:362   */\n  swap2\n  pop\n    /* \"#utility.yul\":384:450   */\n  0xffffffffffffffffffffffffffffffffffffffffffffffffffffffffffffffff\n    /* \"#utility.yul\":377:382   */\n  dup3\n    /* \"#utility.yul\":374:451   */\n  eq\n    /* \"#utility.yul\":371:474   */\n  iszero\n  tag_14\n  jumpi\n    /* \"#utility.yul\":454:472   */\n  tag_15\n  tag_7\n  jump\t// in\ntag_15:\n    /* \"#utility.yul\":371:474   */\ntag_14:\n    /* \"#utility.yul\":501:502   */\n  0x01\n    /* \"#utility.yul\":494:499   */\n  dup3\n    /* \"#utility.yul\":490:503   */\n  add\n    /* \"#utility.yul\":483:503   */\n  swap1\n  pop\n    /* \"#utility.yul\":276:509   */\n  swap2\n  swap1\n  pop\n  jump\t// out\n    /* \"Appetito.sol\":57:4448  contract Appetito {... */\ntag_6:\n  dataSize(sub_0)\n  dup1\n  dataOffset(sub_0)\n  0x00\n  codecopy\n  0x00\n  return\nstop\n\nsub_0: assembly {\n        /* \"Appetito.sol\":57:4448  contract Appetito {... */\n      mstore(0x40, 0x80)\n      jumpi(tag_1, lt(calldatasize, 0x04))\n      shr(0xe0, calldataload(0x00))\n      dup1\n      0x5ff6cbf3\n      gt\n      tag_16\n      jumpi\n      dup1\n      0x9efb693b\n      gt\n      tag_17\n      jumpi\n      dup1\n      0x9efb693b\n      eq\n      tag_12\n      jumpi\n      dup1\n      0xa5f7542a\n      eq\n      tag_13\n      jumpi\n      dup1\n      0xa888c2cd\n      eq\n      tag_14\n      jumpi\n      dup1\n      0xaf157c19\n      eq\n      tag_15\n      jumpi\n      jump(tag_1)\n    tag_17:\n      dup1\n      0x5ff6cbf3\n      eq\n      tag_9\n      jumpi\n      dup1\n      0x78880f4a\n      eq\n      tag_10\n      jumpi\n      dup1\n      0x8da5cb5b\n      eq\n      tag_11\n      jumpi\n      jump(tag_1)\n    tag_16:\n      dup1\n      0x3d0c46d0\n      gt\n      tag_18\n      jumpi\n      dup1\n      0x3d0c46d0\n      eq\n      tag_5\n      jumpi\n      dup1\n      0x3ef8f2ba\n      eq\n      tag_6\n      jumpi\n      dup1\n      0x46e30135\n      eq\n      tag_7\n      jumpi\n      dup1\n      0x5c43217b\n      eq\n      tag_8\n      jumpi\n      jump(tag_1)\n    tag_18:\n      dup1\n      0x0d80fefd\n      eq\n      tag_2\n      jumpi\n      dup1\n      0x14d5b247\n      eq\n      tag_3\n      jumpi\n      dup1\n      0x3cb5d100\n      eq\n      tag_4\n      jumpi\n    tag_1:\n      0x00\n      dup1\n      revert\n        /* \"Appetito.sol\":885:914  MessageType[] public messages */\n    tag_2:\n      callvalue\n      dup1\n      iszero\n      tag_19\n      jumpi\n      0x00\n      dup1\n      revert\n    tag_19:\n      pop\n      tag_20\n      0x04\n      dup1\n      calldatasize\n      sub\n      dup2\n      add\n      swap1\n      tag_21\n      swap2\n      swap1\n      tag_22\n      jump\t// in\n    tag_21:\n      tag_23\n      jump\t// in\n    tag_20:\n      mload(0x40)\n      tag_24\n      swap3\n      swap2\n      swap1\n      tag_25\n      jump\t// in\n    tag_24:\n      mload(0x40)\n      dup1\n      swap2\n      sub\n      swap1\n      return\n        /* \"Appetito.sol\":4022:4261  function makeMessage(string memory description) public {... */\n    tag_3:\n      callvalue\n      dup1\n      iszero\n      tag_26\n      jumpi\n      0x00\n      dup1\n      revert\n    tag_26:\n      pop\n      tag_27\n      0x04\n      dup1\n      calldatasize\n      sub\n      dup2\n      add\n      swap1\n      tag_28\n      swap2\n      swap1\n      tag_29\n      jump\t// in\n    tag_28:\n      tag_30\n      jump\t// in\n    tag_27:\n      stop\n        /* \"Appetito.sol\":649:686  ContributorType[] public contributors */\n    tag_4:\n      callvalue\n      dup1\n      iszero\n      tag_31\n      jumpi\n      0x00\n      dup1\n      revert\n    tag_31:\n      pop\n      tag_32\n      0x04\n      dup1\n      calldatasize\n      sub\n      dup2\n      add\n      swap1\n      tag_33\n      swap2\n      swap1\n      tag_22\n      jump\t// in\n    tag_33:\n      tag_34\n      jump\t// in\n    tag_32:\n      mload(0x40)\n      tag_35\n      swap3\n      swap2\n      swap1\n      tag_36\n      jump\t// in\n    tag_35:\n      mload(0x40)\n      dup1\n      swap2\n      sub\n      swap1\n      return\n        /* \"Appetito.sol\":4359:4445  function getMessagesCount() public view returns(uint){... */\n    tag_5:\n      callvalue\n      dup1\n      iszero\n      tag_37\n      jumpi\n      0x00\n      dup1\n      revert\n    tag_37:\n      pop\n      tag_38\n      tag_39\n      jump\t// in\n    tag_38:\n      mload(0x40)\n      tag_40\n      swap2\n      swap1\n      tag_41\n      jump\t// in\n    tag_40:\n      mload(0x40)\n      dup1\n      swap2\n      sub\n      swap1\n      return\n        /* \"Appetito.sol\":3580:3662  function getClaimsCount() public view returns(uint){... */\n    tag_6:\n      callvalue\n      dup1\n      iszero\n      tag_42\n      jumpi\n      0x00\n      dup1\n      revert\n    tag_42:\n      pop\n      tag_43\n      tag_44\n      jump\t// in\n    tag_43:\n      mload(0x40)\n      tag_45\n      swap2\n      swap1\n      tag_41\n      jump\t// in\n    tag_45:\n      mload(0x40)\n      dup1\n      swap2\n      sub\n      swap1\n      return\n        /* \"Appetito.sol\":3015:3576  function approveClaim(uint index) public addList(){... */\n    tag_7:\n      callvalue\n      dup1\n      iszero\n      tag_46\n      jumpi\n      0x00\n      dup1\n      revert\n    tag_46:\n      pop\n      tag_47\n      0x04\n      dup1\n      calldatasize\n      sub\n      dup2\n      add\n      swap1\n      tag_48\n      swap2\n      swap1\n      tag_22\n      jump\t// in\n    tag_48:\n      tag_49\n      jump\t// in\n    tag_47:\n      stop\n        /* \"Appetito.sol\":1173:1855  function contribute(string memory contributorName) public payable addList(){... */\n    tag_8:\n      tag_50\n      0x04\n      dup1\n      calldatasize\n      sub\n      dup2\n      add\n      swap1\n      tag_51\n      swap2\n      swap1\n      tag_29\n      jump\t// in\n    tag_51:\n      tag_52\n      jump\t// in\n    tag_50:\n      stop\n        /* \"Appetito.sol\":4265:4355  function getMessages() public view returns(MessageType[] memory){... */\n    tag_9:\n      callvalue\n      dup1\n      iszero\n      tag_53\n      jumpi\n      0x00\n      dup1\n      revert\n    tag_53:\n      pop\n      tag_54\n      tag_55\n      jump\t// in\n    tag_54:\n      mload(0x40)\n      tag_56\n      swap2\n      swap1\n      tag_57\n      jump\t// in\n    tag_56:\n      mload(0x40)\n      dup1\n      swap2\n      sub\n      swap1\n      return\n        /* \"Appetito.sol\":622:644  uint public population */\n    tag_10:\n      callvalue\n      dup1\n      iszero\n      tag_58\n      jumpi\n      0x00\n      dup1\n      revert\n    tag_58:\n      pop\n      tag_59\n      tag_60\n      jump\t// in\n    tag_59:\n      mload(0x40)\n      tag_61\n      swap2\n      swap1\n      tag_41\n      jump\t// in\n    tag_61:\n      mload(0x40)\n      dup1\n      swap2\n      sub\n      swap1\n      return\n        /* \"Appetito.sol\":469:489  address public owner */\n    tag_11:\n      callvalue\n      dup1\n      iszero\n      tag_62\n      jumpi\n      0x00\n      dup1\n      revert\n    tag_62:\n      pop\n      tag_63\n      tag_64\n      jump\t// in\n    tag_63:\n      mload(0x40)\n      tag_65\n      swap2\n      swap1\n      tag_66\n      jump\t// in\n    tag_65:\n      mload(0x40)\n      dup1\n      swap2\n      sub\n      swap1\n      return\n        /* \"Appetito.sol\":1966:3011  function claim(string memory claimerName ,string memory dreamJob, string memory materialTitle, string memory urlSource, string memory description, uint amount, address recipientAddress) public addList(){... */\n    tag_12:\n      callvalue\n      dup1\n      iszero\n      tag_67\n      jumpi\n      0x00\n      dup1\n      revert\n    tag_67:\n      pop\n      tag_68\n      0x04\n      dup1\n      calldatasize\n      sub\n      dup2\n      add\n      swap1\n      tag_69\n      swap2\n      swap1\n      tag_70\n      jump\t// in\n    tag_69:\n      tag_71\n      jump\t// in\n    tag_68:\n      stop\n        /* \"Appetito.sol\":3666:4018  function startStudy(uint index) public payable {... */\n    tag_13:\n      tag_72\n      0x04\n      dup1\n      calldatasize\n      sub\n      dup2\n      add\n      swap1\n      tag_73\n      swap2\n      swap1\n      tag_22\n      jump\t// in\n    tag_73:\n      tag_74\n      jump\t// in\n    tag_72:\n      stop\n        /* \"Appetito.sol\":749:774  ClaimType[] public claims */\n    tag_14:\n      callvalue\n      dup1\n      iszero\n      tag_75\n      jumpi\n      0x00\n      dup1\n      revert\n    tag_75:\n      pop\n      tag_76\n      0x04\n      dup1\n      calldatasize\n      sub\n      dup2\n      add\n      swap1\n      tag_77\n      swap2\n      swap1\n      tag_22\n      jump\t// in\n    tag_77:\n      tag_78\n      jump\t// in\n    tag_76:\n      mload(0x40)\n      tag_79\n      swap11\n      swap10\n      swap9\n      swap8\n      swap7\n      swap6\n      swap5\n      swap4\n      swap3\n      swap2\n      swap1\n      tag_80\n      jump\t// in\n    tag_79:\n      mload(0x40)\n      dup1\n      swap2\n      sub\n      swap1\n      return\n        /* \"Appetito.sol\":1859:1961  function getContributors() public view returns(ContributorType[] memory){... */\n    tag_15:\n      callvalue\n      dup1\n      iszero\n      tag_81\n      jumpi\n      0x00\n      dup1\n      revert\n    tag_81:\n      pop\n      tag_82\n      tag_83\n      jump\t// in\n    tag_82:\n      mload(0x40)\n      tag_84\n      swap2\n      swap1\n      tag_85\n      jump\t// in\n    tag_84:\n      mload(0x40)\n      dup1\n      swap2\n      sub\n      swap1\n      return\n        /* \"Appetito.sol\":885:914  MessageType[] public messages */\n    tag_23:\n      0x05\n      dup2\n      dup2\n      sload\n      dup2\n      lt\n      tag_86\n      jumpi\n      0x00\n      dup1\n      revert\n    tag_86:\n      swap1\n      0x00\n      mstore\n      keccak256(0x00, 0x20)\n      swap1\n      0x02\n      mul\n      add\n      0x00\n      swap2\n      pop\n      swap1\n      pop\n      dup1\n      0x00\n      add\n      0x00\n      swap1\n      sload\n      swap1\n      0x0100\n      exp\n      swap1\n      div\n      0xffffffffffffffffffffffffffffffffffffffff\n      and\n      swap1\n      dup1\n      0x01\n      add\n      dup1\n      sload\n      tag_88\n      swap1\n      tag_89\n      jump\t// in\n    tag_88:\n      dup1\n      0x1f\n      add\n      0x20\n      dup1\n      swap2\n      div\n      mul\n      0x20\n      add\n      mload(0x40)\n      swap1\n      dup2\n      add\n      0x40\n      mstore\n      dup1\n      swap3\n      swap2\n      swap1\n      dup2\n      dup2\n      mstore\n      0x20\n      add\n      dup3\n      dup1\n      sload\n      tag_90\n      swap1\n      tag_89\n      jump\t// in\n    tag_90:\n      dup1\n      iszero\n      tag_91\n      jumpi\n      dup1\n      0x1f\n      lt\n      tag_92\n      jumpi\n      0x0100\n      dup1\n      dup4\n      sload\n      div\n      mul\n      dup4\n      mstore\n      swap2\n      0x20\n      add\n      swap2\n      jump(tag_91)\n    tag_92:\n      dup3\n      add\n      swap2\n      swap1\n      0x00\n      mstore\n      keccak256(0x00, 0x20)\n      swap1\n    tag_93:\n      dup2\n      sload\n      dup2\n      mstore\n      swap1\n      0x01\n      add\n      swap1\n      0x20\n      add\n      dup1\n      dup4\n      gt\n      tag_93\n      jumpi\n      dup3\n      swap1\n      sub\n      0x1f\n      and\n      dup3\n      add\n      swap2\n    tag_91:\n      pop\n      pop\n      pop\n      pop\n      pop\n      swap1\n      pop\n      dup3\n      jump\t// out\n        /* \"Appetito.sol\":4022:4261  function makeMessage(string memory description) public {... */\n    tag_30:\n        /* \"Appetito.sol\":4083:4093  uint index */\n      0x00\n        /* \"Appetito.sol\":4096:4104  messages */\n      0x05\n        /* \"Appetito.sol\":4096:4111  messages.length */\n      dup1\n      sload\n      swap1\n      pop\n        /* \"Appetito.sol\":4083:4111  uint index = messages.length */\n      swap1\n      pop\n        /* \"Appetito.sol\":4117:4125  messages */\n      0x05\n        /* \"Appetito.sol\":4117:4132  messages.push() */\n      0x01\n      dup2\n      0x01\n      dup2\n      sload\n      add\n      dup1\n      dup3\n      sstore\n      dup1\n      swap2\n      pop\n      pop\n      sub\n      swap1\n      0x00\n      mstore\n      keccak256(0x00, 0x20)\n      swap1\n      pop\n      pop\n        /* \"Appetito.sol\":4139:4166  MessageType storage message */\n      0x00\n        /* \"Appetito.sol\":4169:4177  messages */\n      0x05\n        /* \"Appetito.sol\":4178:4183  index */\n      dup3\n        /* \"Appetito.sol\":4169:4184  messages[index] */\n      dup2\n      sload\n      dup2\n      lt\n      tag_96\n      jumpi\n      tag_97\n      tag_98\n      jump\t// in\n    tag_97:\n    tag_96:\n      swap1\n      0x00\n      mstore\n      keccak256(0x00, 0x20)\n      swap1\n      0x02\n      mul\n      add\n        /* \"Appetito.sol\":4139:4184  MessageType storage message = messages[index] */\n      swap1\n      pop\n        /* \"Appetito.sol\":4207:4217  msg.sender */\n      caller\n        /* \"Appetito.sol\":4190:4197  message */\n      dup2\n        /* \"Appetito.sol\":4190:4204  message.sender */\n      0x00\n      add\n      0x00\n        /* \"Appetito.sol\":4190:4217  message.sender = msg.sender */\n      0x0100\n      exp\n      dup2\n      sload\n      dup2\n      0xffffffffffffffffffffffffffffffffffffffff\n      mul\n      not\n      and\n      swap1\n      dup4\n      0xffffffffffffffffffffffffffffffffffffffff\n      and\n      mul\n      or\n      swap1\n      sstore\n      pop\n        /* \"Appetito.sol\":4245:4256  description */\n      dup3\n        /* \"Appetito.sol\":4223:4230  message */\n      dup2\n        /* \"Appetito.sol\":4223:4242  message.description */\n      0x01\n      add\n        /* \"Appetito.sol\":4223:4256  message.description = description */\n      swap1\n      dup1\n      mload\n      swap1\n      0x20\n      add\n      swap1\n      tag_100\n      swap3\n      swap2\n      swap1\n      tag_101\n      jump\t// in\n    tag_100:\n      pop\n        /* \"Appetito.sol\":4077:4261  {... */\n      pop\n      pop\n        /* \"Appetito.sol\":4022:4261  function makeMessage(string memory description) public {... */\n      pop\n      jump\t// out\n        /* \"Appetito.sol\":649:686  ContributorType[] public contributors */\n    tag_34:\n      0x03\n      dup2\n      dup2\n      sload\n      dup2\n      lt\n      tag_102\n      jumpi\n      0x00\n      dup1\n      revert\n    tag_102:\n      swap1\n      0x00\n      mstore\n      keccak256(0x00, 0x20)\n      swap1\n      0x02\n      mul\n      add\n      0x00\n      swap2\n      pop\n      swap1\n      pop\n      dup1\n      0x00\n      add\n      dup1\n      sload\n      tag_104\n      swap1\n      tag_89\n      jump\t// in\n    tag_104:\n      dup1\n      0x1f\n      add\n      0x20\n      dup1\n      swap2\n      div\n      mul\n      0x20\n      add\n      mload(0x40)\n      swap1\n      dup2\n      add\n      0x40\n      mstore\n      dup1\n      swap3\n      swap2\n      swap1\n      dup2\n      dup2\n      mstore\n      0x20\n      add\n      dup3\n      dup1\n      sload\n      tag_105\n      swap1\n      tag_89\n      jump\t// in\n    tag_105:\n      dup1\n      iszero\n      tag_106\n      jumpi\n      dup1\n      0x1f\n      lt\n      tag_107\n      jumpi\n      0x0100\n      dup1\n      dup4\n      sload\n      div\n      mul\n      dup4\n      mstore\n      swap2\n      0x20\n      add\n      swap2\n      jump(tag_106)\n    tag_107:\n      dup3\n      add\n      swap2\n      swap1\n      0x00\n      mstore\n      keccak256(0x00, 0x20)\n      swap1\n    tag_108:\n      dup2\n      sload\n      dup2\n      mstore\n      swap1\n      0x01\n      add\n      swap1\n      0x20\n      add\n      dup1\n      dup4\n      gt\n      tag_108\n      jumpi\n      dup3\n      swap1\n      sub\n      0x1f\n      and\n      dup3\n      add\n      swap2\n    tag_106:\n      pop\n      pop\n      pop\n      pop\n      pop\n      swap1\n      dup1\n      0x01\n      add\n      0x00\n      swap1\n      sload\n      swap1\n      0x0100\n      exp\n      swap1\n      div\n      0xffffffffffffffffffffffffffffffffffffffff\n      and\n      swap1\n      pop\n      dup3\n      jump\t// out\n        /* \"Appetito.sol\":4359:4445  function getMessagesCount() public view returns(uint){... */\n    tag_39:\n        /* \"Appetito.sol\":4407:4411  uint */\n      0x00\n        /* \"Appetito.sol\":4425:4433  messages */\n      0x05\n        /* \"Appetito.sol\":4425:4440  messages.length */\n      dup1\n      sload\n      swap1\n      pop\n        /* \"Appetito.sol\":4418:4440  return messages.length */\n      swap1\n      pop\n        /* \"Appetito.sol\":4359:4445  function getMessagesCount() public view returns(uint){... */\n      swap1\n      jump\t// out\n        /* \"Appetito.sol\":3580:3662  function getClaimsCount() public view returns(uint){... */\n    tag_44:\n        /* \"Appetito.sol\":3626:3630  uint */\n      0x00\n        /* \"Appetito.sol\":3644:3650  claims */\n      0x04\n        /* \"Appetito.sol\":3644:3657  claims.length */\n      dup1\n      sload\n      swap1\n      pop\n        /* \"Appetito.sol\":3637:3657  return claims.length */\n      swap1\n      pop\n        /* \"Appetito.sol\":3580:3662  function getClaimsCount() public view returns(uint){... */\n      swap1\n      jump\t// out\n        /* \"Appetito.sol\":3015:3576  function approveClaim(uint index) public addList(){... */\n    tag_49:\n        /* \"Appetito.sol\":3071:3094  ClaimType storage claim */\n      0x00\n        /* \"Appetito.sol\":3097:3103  claims */\n      0x04\n        /* \"Appetito.sol\":3104:3109  index */\n      dup3\n        /* \"Appetito.sol\":3097:3110  claims[index] */\n      dup2\n      sload\n      dup2\n      lt\n      tag_113\n      jumpi\n      tag_114\n      tag_98\n      jump\t// in\n    tag_114:\n    tag_113:\n      swap1\n      0x00\n      mstore\n      keccak256(0x00, 0x20)\n      swap1\n      0x0a\n      mul\n      add\n        /* \"Appetito.sol\":3071:3110  ClaimType storage claim = claims[index] */\n      swap1\n      pop\n        /* \"Appetito.sol\":3126:3131  claim */\n      dup1\n        /* \"Appetito.sol\":3126:3141  claim.approvers */\n      0x08\n      add\n        /* \"Appetito.sol\":3126:3153  claim.approvers[msg.sender] */\n      0x00\n        /* \"Appetito.sol\":3142:3152  msg.sender */\n      caller\n        /* \"Appetito.sol\":3126:3153  claim.approvers[msg.sender] */\n      0xffffffffffffffffffffffffffffffffffffffff\n      and\n      0xffffffffffffffffffffffffffffffffffffffff\n      and\n      dup2\n      mstore\n      0x20\n      add\n      swap1\n      dup2\n      mstore\n      0x20\n      add\n      0x00\n      keccak256\n      0x00\n      swap1\n      sload\n      swap1\n      0x0100\n      exp\n      swap1\n      div\n      0xff\n      and\n        /* \"Appetito.sol\":3125:3153  !claim.approvers[msg.sender] */\n      iszero\n        /* \"Appetito.sol\":3117:3154  require(!claim.approvers[msg.sender]) */\n      tag_116\n      jumpi\n      0x00\n      dup1\n      revert\n    tag_116:\n        /* \"Appetito.sol\":3192:3202  msg.sender */\n      caller\n        /* \"Appetito.sol\":3168:3202  claim.claimerAddress != msg.sender */\n      0xffffffffffffffffffffffffffffffffffffffff\n      and\n        /* \"Appetito.sol\":3168:3173  claim */\n      dup2\n        /* \"Appetito.sol\":3168:3188  claim.claimerAddress */\n      0x06\n      add\n      0x00\n      swap1\n      sload\n      swap1\n      0x0100\n      exp\n      swap1\n      div\n      0xffffffffffffffffffffffffffffffffffffffff\n      and\n        /* \"Appetito.sol\":3168:3202  claim.claimerAddress != msg.sender */\n      0xffffffffffffffffffffffffffffffffffffffff\n      and\n      eq\n      iszero\n        /* \"Appetito.sol\":3160:3203  require(claim.claimerAddress != msg.sender) */\n      tag_117\n      jumpi\n      0x00\n      dup1\n      revert\n    tag_117:\n        /* \"Appetito.sol\":3239:3243  true */\n      0x01\n        /* \"Appetito.sol\":3209:3214  claim */\n      dup2\n        /* \"Appetito.sol\":3209:3224  claim.approvers */\n      0x08\n      add\n        /* \"Appetito.sol\":3209:3236  claim.approvers[msg.sender] */\n      0x00\n        /* \"Appetito.sol\":3225:3235  msg.sender */\n      caller\n        /* \"Appetito.sol\":3209:3236  claim.approvers[msg.sender] */\n      0xffffffffffffffffffffffffffffffffffffffff\n      and\n      0xffffffffffffffffffffffffffffffffffffffff\n      and\n      dup2\n      mstore\n      0x20\n      add\n      swap1\n      dup2\n      mstore\n      0x20\n      add\n      0x00\n      keccak256\n      0x00\n        /* \"Appetito.sol\":3209:3243  claim.approvers[msg.sender] = true */\n      0x0100\n      exp\n      dup2\n      sload\n      dup2\n      0xff\n      mul\n      not\n      and\n      swap1\n      dup4\n      iszero\n      iszero\n      mul\n      or\n      swap1\n      sstore\n      pop\n        /* \"Appetito.sol\":3249:3254  claim */\n      dup1\n        /* \"Appetito.sol\":3249:3269  claim.approvedCounts */\n      0x09\n      add\n      0x00\n        /* \"Appetito.sol\":3249:3271  claim.approvedCounts++ */\n      dup2\n      sload\n      dup1\n      swap3\n      swap2\n      swap1\n      tag_118\n      swap1\n      tag_119\n      jump\t// in\n    tag_118:\n      swap2\n      swap1\n      pop\n      sstore\n      pop\n        /* \"Appetito.sol\":3065:3576  {... */\n      pop\n        /* \"Appetito.sol\":1062:1080  mappedParticipants */\n      0x01\n        /* \"Appetito.sol\":1062:1092  mappedParticipants[msg.sender] */\n      0x00\n        /* \"Appetito.sol\":1081:1091  msg.sender */\n      caller\n        /* \"Appetito.sol\":1062:1092  mappedParticipants[msg.sender] */\n      0xffffffffffffffffffffffffffffffffffffffff\n      and\n      0xffffffffffffffffffffffffffffffffffffffff\n      and\n      dup2\n      mstore\n      0x20\n      add\n      swap1\n      dup2\n      mstore\n      0x20\n      add\n      0x00\n      keccak256\n      0x00\n      swap1\n      sload\n      swap1\n      0x0100\n      exp\n      swap1\n      div\n      0xff\n      and\n        /* \"Appetito.sol\":1058:1165  if(!mappedParticipants[msg.sender]){... */\n      tag_120\n      jumpi\n        /* \"Appetito.sol\":1134:1138  true */\n      0x01\n        /* \"Appetito.sol\":1101:1119  mappedParticipants */\n      dup1\n        /* \"Appetito.sol\":1101:1131  mappedParticipants[msg.sender] */\n      0x00\n        /* \"Appetito.sol\":1120:1130  msg.sender */\n      caller\n        /* \"Appetito.sol\":1101:1131  mappedParticipants[msg.sender] */\n      0xffffffffffffffffffffffffffffffffffffffff\n      and\n      0xffffffffffffffffffffffffffffffffffffffff\n      and\n      dup2\n      mstore\n      0x20\n      add\n      swap1\n      dup2\n      mstore\n      0x20\n      add\n      0x00\n      keccak256\n      0x00\n        /* \"Appetito.sol\":1101:1138  mappedParticipants[msg.sender] = true */\n      0x0100\n      exp\n      dup2\n      sload\n      dup2\n      0xff\n      mul\n      not\n      and\n      swap1\n      dup4\n      iszero\n      iszero\n      mul\n      or\n      swap1\n      sstore\n      pop\n        /* \"Appetito.sol\":1146:1156  population */\n      0x02\n      0x00\n        /* \"Appetito.sol\":1146:1158  population++ */\n      dup2\n      sload\n      dup1\n      swap3\n      swap2\n      swap1\n      tag_121\n      swap1\n      tag_119\n      jump\t// in\n    tag_121:\n      swap2\n      swap1\n      pop\n      sstore\n      pop\n        /* \"Appetito.sol\":1058:1165  if(!mappedParticipants[msg.sender]){... */\n    tag_120:\n        /* \"Appetito.sol\":3015:3576  function approveClaim(uint index) public addList(){... */\n      pop\n      jump\t// out\n        /* \"Appetito.sol\":1173:1855  function contribute(string memory contributorName) public payable addList(){... */\n    tag_52:\n        /* \"Appetito.sol\":1275:1299  0.0000000000000001 ether */\n      0x64\n        /* \"Appetito.sol\":1262:1271  msg.value */\n      callvalue\n        /* \"Appetito.sol\":1262:1299  msg.value >= 0.0000000000000001 ether */\n      lt\n      iszero\n        /* \"Appetito.sol\":1254:1300  require(msg.value >= 0.0000000000000001 ether) */\n      tag_124\n      jumpi\n      0x00\n      dup1\n      revert\n    tag_124:\n        /* \"Appetito.sol\":1306:1340  ContributorType memory contributor */\n      0x00\n        /* \"Appetito.sol\":1343:1444  ContributorType({... */\n      mload(0x40)\n      dup1\n      0x40\n      add\n      0x40\n      mstore\n      dup1\n        /* \"Appetito.sol\":1384:1399  contributorName */\n      dup4\n        /* \"Appetito.sol\":1343:1444  ContributorType({... */\n      dup2\n      mstore\n      0x20\n      add\n        /* \"Appetito.sol\":1427:1437  msg.sender */\n      caller\n        /* \"Appetito.sol\":1343:1444  ContributorType({... */\n      0xffffffffffffffffffffffffffffffffffffffff\n      and\n      dup2\n      mstore\n      pop\n        /* \"Appetito.sol\":1306:1444  ContributorType memory contributor = ContributorType({... */\n      swap1\n      pop\n        /* \"Appetito.sol\":1450:1462  contributors */\n      0x03\n        /* \"Appetito.sol\":1468:1479  contributor */\n      dup2\n        /* \"Appetito.sol\":1450:1480  contributors.push(contributor) */\n      swap1\n      dup1\n      0x01\n      dup2\n      sload\n      add\n      dup1\n      dup3\n      sstore\n      dup1\n      swap2\n      pop\n      pop\n      0x01\n      swap1\n      sub\n      swap1\n      0x00\n      mstore\n      keccak256(0x00, 0x20)\n      swap1\n      0x02\n      mul\n      add\n      0x00\n      swap1\n      swap2\n      swap1\n      swap2\n      swap1\n      swap2\n      pop\n      0x00\n      dup3\n      add\n      mload\n      dup2\n      0x00\n      add\n      swap1\n      dup1\n      mload\n      swap1\n      0x20\n      add\n      swap1\n      tag_126\n      swap3\n      swap2\n      swap1\n      tag_101\n      jump\t// in\n    tag_126:\n      pop\n      0x20\n      dup3\n      add\n      mload\n      dup2\n      0x01\n      add\n      exp(0x0100, 0x00)\n      dup2\n      sload\n      dup2\n      0xffffffffffffffffffffffffffffffffffffffff\n      mul\n      not\n      and\n      swap1\n      dup4\n      0xffffffffffffffffffffffffffffffffffffffff\n      and\n      mul\n      or\n      swap1\n      sstore\n      pop\n      pop\n      pop\n        /* \"Appetito.sol\":1248:1855  {... */\n      pop\n        /* \"Appetito.sol\":1062:1080  mappedParticipants */\n      0x01\n        /* \"Appetito.sol\":1062:1092  mappedParticipants[msg.sender] */\n      0x00\n        /* \"Appetito.sol\":1081:1091  msg.sender */\n      caller\n        /* \"Appetito.sol\":1062:1092  mappedParticipants[msg.sender] */\n      0xffffffffffffffffffffffffffffffffffffffff\n      and\n      0xffffffffffffffffffffffffffffffffffffffff\n      and\n      dup2\n      mstore\n      0x20\n      add\n      swap1\n      dup2\n      mstore\n      0x20\n      add\n      0x00\n      keccak256\n      0x00\n      swap1\n      sload\n      swap1\n      0x0100\n      exp\n      swap1\n      div\n      0xff\n      and\n        /* \"Appetito.sol\":1058:1165  if(!mappedParticipants[msg.sender]){... */\n      tag_127\n      jumpi\n        /* \"Appetito.sol\":1134:1138  true */\n      0x01\n        /* \"Appetito.sol\":1101:1119  mappedParticipants */\n      dup1\n        /* \"Appetito.sol\":1101:1131  mappedParticipants[msg.sender] */\n      0x00\n        /* \"Appetito.sol\":1120:1130  msg.sender */\n      caller\n        /* \"Appetito.sol\":1101:1131  mappedParticipants[msg.sender] */\n      0xffffffffffffffffffffffffffffffffffffffff\n      and\n      0xffffffffffffffffffffffffffffffffffffffff\n      and\n      dup2\n      mstore\n      0x20\n      add\n      swap1\n      dup2\n      mstore\n      0x20\n      add\n      0x00\n      keccak256\n      0x00\n        /* \"Appetito.sol\":1101:1138  mappedParticipants[msg.sender] = true */\n      0x0100\n      exp\n      dup2\n      sload\n      dup2\n      0xff\n      mul\n      not\n      and\n      swap1\n      dup4\n      iszero\n      iszero\n      mul\n      or\n      swap1\n      sstore\n      pop\n        /* \"Appetito.sol\":1146:1156  population */\n      0x02\n      0x00\n        /* \"Appetito.sol\":1146:1158  population++ */\n      dup2\n      sload\n      dup1\n      swap3\n      swap2\n      swap1\n      tag_128\n      swap1\n      tag_119\n      jump\t// in\n    tag_128:\n      swap2\n      swap1\n      pop\n      sstore\n      pop\n        /* \"Appetito.sol\":1058:1165  if(!mappedParticipants[msg.sender]){... */\n    tag_127:\n        /* \"Appetito.sol\":1173:1855  function contribute(string memory contributorName) public payable addList(){... */\n      pop\n      jump\t// out\n        /* \"Appetito.sol\":4265:4355  function getMessages() public view returns(MessageType[] memory){... */\n    tag_55:\n        /* \"Appetito.sol\":4308:4328  MessageType[] memory */\n      0x60\n        /* \"Appetito.sol\":4342:4350  messages */\n      0x05\n        /* \"Appetito.sol\":4335:4350  return messages */\n      dup1\n      sload\n      dup1\n      0x20\n      mul\n      0x20\n      add\n      mload(0x40)\n      swap1\n      dup2\n      add\n      0x40\n      mstore\n      dup1\n      swap3\n      swap2\n      swap1\n      dup2\n      dup2\n      mstore\n      0x20\n      add\n      0x00\n      swap1\n    tag_130:\n      dup3\n      dup3\n      lt\n      iszero\n      tag_131\n      jumpi\n      dup4\n      dup3\n      swap1\n      0x00\n      mstore\n      keccak256(0x00, 0x20)\n      swap1\n      0x02\n      mul\n      add\n      mload(0x40)\n      dup1\n      0x40\n      add\n      0x40\n      mstore\n      swap1\n      dup2\n      0x00\n      dup3\n      add\n      0x00\n      swap1\n      sload\n      swap1\n      0x0100\n      exp\n      swap1\n      div\n      0xffffffffffffffffffffffffffffffffffffffff\n      and\n      0xffffffffffffffffffffffffffffffffffffffff\n      and\n      0xffffffffffffffffffffffffffffffffffffffff\n      and\n      dup2\n      mstore\n      0x20\n      add\n      0x01\n      dup3\n      add\n      dup1\n      sload\n      tag_133\n      swap1\n      tag_89\n      jump\t// in\n    tag_133:\n      dup1\n      0x1f\n      add\n      0x20\n      dup1\n      swap2\n      div\n      mul\n      0x20\n      add\n      mload(0x40)\n      swap1\n      dup2\n      add\n      0x40\n      mstore\n      dup1\n      swap3\n      swap2\n      swap1\n      dup2\n      dup2\n      mstore\n      0x20\n      add\n      dup3\n      dup1\n      sload\n      tag_134\n      swap1\n      tag_89\n      jump\t// in\n    tag_134:\n      dup1\n      iszero\n      tag_135\n      jumpi\n      dup1\n      0x1f\n      lt\n      tag_136\n      jumpi\n      0x0100\n      dup1\n      dup4\n      sload\n      div\n      mul\n      dup4\n      mstore\n      swap2\n      0x20\n      add\n      swap2\n      jump(tag_135)\n    tag_136:\n      dup3\n      add\n      swap2\n      swap1\n      0x00\n      mstore\n      keccak256(0x00, 0x20)\n      swap1\n    tag_137:\n      dup2\n      sload\n      dup2\n      mstore\n      swap1\n      0x01\n      add\n      swap1\n      0x20\n      add\n      dup1\n      dup4\n      gt\n      tag_137\n      jumpi\n      dup3\n      swap1\n      sub\n      0x1f\n      and\n      dup3\n      add\n      swap2\n    tag_135:\n      pop\n      pop\n      pop\n      pop\n      pop\n      dup2\n      mstore\n      pop\n      pop\n      dup2\n      mstore\n      0x20\n      add\n      swap1\n      0x01\n      add\n      swap1\n      jump(tag_130)\n    tag_131:\n      pop\n      pop\n      pop\n      pop\n      swap1\n      pop\n        /* \"Appetito.sol\":4265:4355  function getMessages() public view returns(MessageType[] memory){... */\n      swap1\n      jump\t// out\n        /* \"Appetito.sol\":622:644  uint public population */\n    tag_60:\n      sload(0x02)\n      dup2\n      jump\t// out\n        /* \"Appetito.sol\":469:489  address public owner */\n    tag_64:\n      0x00\n      dup1\n      sload\n      swap1\n      0x0100\n      exp\n      swap1\n      div\n      0xffffffffffffffffffffffffffffffffffffffff\n      and\n      dup2\n      jump\t// out\n        /* \"Appetito.sol\":1966:3011  function claim(string memory claimerName ,string memory dreamJob, string memory materialTitle, string memory urlSource, string memory description, uint amount, address recipientAddress) public addList(){... */\n    tag_71:\n        /* \"Appetito.sol\":2196:2212  recipientAddress */\n      dup1\n        /* \"Appetito.sol\":2182:2212  msg.sender != recipientAddress */\n      0xffffffffffffffffffffffffffffffffffffffff\n      and\n        /* \"Appetito.sol\":2182:2192  msg.sender */\n      caller\n        /* \"Appetito.sol\":2182:2212  msg.sender != recipientAddress */\n      0xffffffffffffffffffffffffffffffffffffffff\n      and\n      eq\n      iszero\n        /* \"Appetito.sol\":2174:2213  require(msg.sender != recipientAddress) */\n      tag_140\n      jumpi\n      0x00\n      dup1\n      revert\n    tag_140:\n        /* \"Appetito.sol\":2268:2278  uint index */\n      0x00\n        /* \"Appetito.sol\":2281:2287  claims */\n      0x04\n        /* \"Appetito.sol\":2281:2294  claims.length */\n      dup1\n      sload\n      swap1\n      pop\n        /* \"Appetito.sol\":2268:2294  uint index = claims.length */\n      swap1\n      pop\n        /* \"Appetito.sol\":2300:2306  claims */\n      0x04\n        /* \"Appetito.sol\":2300:2313  claims.push() */\n      0x01\n      dup2\n      0x01\n      dup2\n      sload\n      add\n      dup1\n      dup3\n      sstore\n      dup1\n      swap2\n      pop\n      pop\n      sub\n      swap1\n      0x00\n      mstore\n      keccak256(0x00, 0x20)\n      swap1\n      pop\n      pop\n        /* \"Appetito.sol\":2320:2343  ClaimType storage claim */\n      0x00\n        /* \"Appetito.sol\":2346:2352  claims */\n      0x04\n        /* \"Appetito.sol\":2353:2358  index */\n      dup3\n        /* \"Appetito.sol\":2346:2359  claims[index] */\n      dup2\n      sload\n      dup2\n      lt\n      tag_142\n      jumpi\n      tag_143\n      tag_98\n      jump\t// in\n    tag_143:\n    tag_142:\n      swap1\n      0x00\n      mstore\n      keccak256(0x00, 0x20)\n      swap1\n      0x0a\n      mul\n      add\n        /* \"Appetito.sol\":2320:2359  ClaimType storage claim = claims[index] */\n      swap1\n      pop\n        /* \"Appetito.sol\":2385:2396  claimerName */\n      dup9\n        /* \"Appetito.sol\":2365:2370  claim */\n      dup2\n        /* \"Appetito.sol\":2365:2382  claim.claimerName */\n      0x00\n      add\n        /* \"Appetito.sol\":2365:2396  claim.claimerName = claimerName */\n      swap1\n      dup1\n      mload\n      swap1\n      0x20\n      add\n      swap1\n      tag_145\n      swap3\n      swap2\n      swap1\n      tag_101\n      jump\t// in\n    tag_145:\n      pop\n        /* \"Appetito.sol\":2419:2427  dreamJob */\n      dup8\n        /* \"Appetito.sol\":2402:2407  claim */\n      dup2\n        /* \"Appetito.sol\":2402:2416  claim.dreamJob */\n      0x01\n      add\n        /* \"Appetito.sol\":2402:2427  claim.dreamJob = dreamJob */\n      swap1\n      dup1\n      mload\n      swap1\n      0x20\n      add\n      swap1\n      tag_146\n      swap3\n      swap2\n      swap1\n      tag_101\n      jump\t// in\n    tag_146:\n      pop\n        /* \"Appetito.sol\":2455:2468  materialTitle */\n      dup7\n        /* \"Appetito.sol\":2433:2438  claim */\n      dup2\n        /* \"Appetito.sol\":2433:2452  claim.materialTitle */\n      0x02\n      add\n        /* \"Appetito.sol\":2433:2468  claim.materialTitle = materialTitle */\n      swap1\n      dup1\n      mload\n      swap1\n      0x20\n      add\n      swap1\n      tag_147\n      swap3\n      swap2\n      swap1\n      tag_101\n      jump\t// in\n    tag_147:\n      pop\n        /* \"Appetito.sol\":2492:2501  urlSource */\n      dup6\n        /* \"Appetito.sol\":2474:2479  claim */\n      dup2\n        /* \"Appetito.sol\":2474:2489  claim.urlSource */\n      0x04\n      add\n        /* \"Appetito.sol\":2474:2501  claim.urlSource = urlSource */\n      swap1\n      dup1\n      mload\n      swap1\n      0x20\n      add\n      swap1\n      tag_148\n      swap3\n      swap2\n      swap1\n      tag_101\n      jump\t// in\n    tag_148:\n      pop\n        /* \"Appetito.sol\":2527:2538  description */\n      dup5\n        /* \"Appetito.sol\":2507:2512  claim */\n      dup2\n        /* \"Appetito.sol\":2507:2524  claim.description */\n      0x03\n      add\n        /* \"Appetito.sol\":2507:2538  claim.description = description */\n      swap1\n      dup1\n      mload\n      swap1\n      0x20\n      add\n      swap1\n      tag_149\n      swap3\n      swap2\n      swap1\n      tag_101\n      jump\t// in\n    tag_149:\n      pop\n        /* \"Appetito.sol\":2559:2565  amount */\n      dup4\n        /* \"Appetito.sol\":2544:2549  claim */\n      dup2\n        /* \"Appetito.sol\":2544:2556  claim.amount */\n      0x05\n      add\n        /* \"Appetito.sol\":2544:2565  claim.amount = amount */\n      dup2\n      swap1\n      sstore\n      pop\n        /* \"Appetito.sol\":2594:2604  msg.sender */\n      caller\n        /* \"Appetito.sol\":2571:2576  claim */\n      dup2\n        /* \"Appetito.sol\":2571:2591  claim.claimerAddress */\n      0x06\n      add\n      0x00\n        /* \"Appetito.sol\":2571:2604  claim.claimerAddress = msg.sender */\n      0x0100\n      exp\n      dup2\n      sload\n      dup2\n      0xffffffffffffffffffffffffffffffffffffffff\n      mul\n      not\n      and\n      swap1\n      dup4\n      0xffffffffffffffffffffffffffffffffffffffff\n      and\n      mul\n      or\n      swap1\n      sstore\n      pop\n        /* \"Appetito.sol\":2635:2651  recipientAddress */\n      dup3\n        /* \"Appetito.sol\":2610:2615  claim */\n      dup2\n        /* \"Appetito.sol\":2610:2632  claim.recipientAddress */\n      0x07\n      add\n      0x00\n        /* \"Appetito.sol\":2610:2651  claim.recipientAddress = recipientAddress */\n      0x0100\n      exp\n      dup2\n      sload\n      dup2\n      0xffffffffffffffffffffffffffffffffffffffff\n      mul\n      not\n      and\n      swap1\n      dup4\n      0xffffffffffffffffffffffffffffffffffffffff\n      and\n      mul\n      or\n      swap1\n      sstore\n      pop\n        /* \"Appetito.sol\":2670:2675  false */\n      0x00\n        /* \"Appetito.sol\":2657:2662  claim */\n      dup2\n        /* \"Appetito.sol\":2657:2667  claim.done */\n      0x07\n      add\n      0x14\n        /* \"Appetito.sol\":2657:2675  claim.done = false */\n      0x0100\n      exp\n      dup2\n      sload\n      dup2\n      0xff\n      mul\n      not\n      and\n      swap1\n      dup4\n      iszero\n      iszero\n      mul\n      or\n      swap1\n      sstore\n      pop\n        /* \"Appetito.sol\":2704:2705  0 */\n      0x00\n        /* \"Appetito.sol\":2681:2686  claim */\n      dup2\n        /* \"Appetito.sol\":2681:2701  claim.approvedCounts */\n      0x09\n      add\n        /* \"Appetito.sol\":2681:2705  claim.approvedCounts = 0 */\n      dup2\n      swap1\n      sstore\n      pop\n        /* \"Appetito.sol\":2168:3011  {... */\n      pop\n      pop\n        /* \"Appetito.sol\":1062:1080  mappedParticipants */\n      0x01\n        /* \"Appetito.sol\":1062:1092  mappedParticipants[msg.sender] */\n      0x00\n        /* \"Appetito.sol\":1081:1091  msg.sender */\n      caller\n        /* \"Appetito.sol\":1062:1092  mappedParticipants[msg.sender] */\n      0xffffffffffffffffffffffffffffffffffffffff\n      and\n      0xffffffffffffffffffffffffffffffffffffffff\n      and\n      dup2\n      mstore\n      0x20\n      add\n      swap1\n      dup2\n      mstore\n      0x20\n      add\n      0x00\n      keccak256\n      0x00\n      swap1\n      sload\n      swap1\n      0x0100\n      exp\n      swap1\n      div\n      0xff\n      and\n        /* \"Appetito.sol\":1058:1165  if(!mappedParticipants[msg.sender]){... */\n      tag_150\n      jumpi\n        /* \"Appetito.sol\":1134:1138  true */\n      0x01\n        /* \"Appetito.sol\":1101:1119  mappedParticipants */\n      dup1\n        /* \"Appetito.sol\":1101:1131  mappedParticipants[msg.sender] */\n      0x00\n        /* \"Appetito.sol\":1120:1130  msg.sender */\n      caller\n        /* \"Appetito.sol\":1101:1131  mappedParticipants[msg.sender] */\n      0xffffffffffffffffffffffffffffffffffffffff\n      and\n      0xffffffffffffffffffffffffffffffffffffffff\n      and\n      dup2\n      mstore\n      0x20\n      add\n      swap1\n      dup2\n      mstore\n      0x20\n      add\n      0x00\n      keccak256\n      0x00\n        /* \"Appetito.sol\":1101:1138  mappedParticipants[msg.sender] = true */\n      0x0100\n      exp\n      dup2\n      sload\n      dup2\n      0xff\n      mul\n      not\n      and\n      swap1\n      dup4\n      iszero\n      iszero\n      mul\n      or\n      swap1\n      sstore\n      pop\n        /* \"Appetito.sol\":1146:1156  population */\n      0x02\n      0x00\n        /* \"Appetito.sol\":1146:1158  population++ */\n      dup2\n      sload\n      dup1\n      swap3\n      swap2\n      swap1\n      tag_151\n      swap1\n      tag_119\n      jump\t// in\n    tag_151:\n      swap2\n      swap1\n      pop\n      sstore\n      pop\n        /* \"Appetito.sol\":1058:1165  if(!mappedParticipants[msg.sender]){... */\n    tag_150:\n        /* \"Appetito.sol\":1966:3011  function claim(string memory claimerName ,string memory dreamJob, string memory materialTitle, string memory urlSource, string memory description, uint amount, address recipientAddress) public addList(){... */\n      pop\n      pop\n      pop\n      pop\n      pop\n      pop\n      pop\n      jump\t// out\n        /* \"Appetito.sol\":3666:4018  function startStudy(uint index) public payable {... */\n    tag_74:\n        /* \"Appetito.sol\":3719:3742  ClaimType storage claim */\n      0x00\n        /* \"Appetito.sol\":3745:3751  claims */\n      0x04\n        /* \"Appetito.sol\":3752:3757  index */\n      dup3\n        /* \"Appetito.sol\":3745:3758  claims[index] */\n      dup2\n      sload\n      dup2\n      lt\n      tag_153\n      jumpi\n      tag_154\n      tag_98\n      jump\t// in\n    tag_154:\n    tag_153:\n      swap1\n      0x00\n      mstore\n      keccak256(0x00, 0x20)\n      swap1\n      0x0a\n      mul\n      add\n        /* \"Appetito.sol\":3719:3758  ClaimType storage claim = claims[index] */\n      swap1\n      pop\n        /* \"Appetito.sol\":3787:3792  claim */\n      dup1\n        /* \"Appetito.sol\":3787:3807  claim.claimerAddress */\n      0x06\n      add\n      0x00\n      swap1\n      sload\n      swap1\n      0x0100\n      exp\n      swap1\n      div\n      0xffffffffffffffffffffffffffffffffffffffff\n      and\n        /* \"Appetito.sol\":3773:3807  msg.sender == claim.claimerAddress */\n      0xffffffffffffffffffffffffffffffffffffffff\n      and\n        /* \"Appetito.sol\":3773:3783  msg.sender */\n      caller\n        /* \"Appetito.sol\":3773:3807  msg.sender == claim.claimerAddress */\n      0xffffffffffffffffffffffffffffffffffffffff\n      and\n      eq\n        /* \"Appetito.sol\":3765:3808  require(msg.sender == claim.claimerAddress) */\n      tag_156\n      jumpi\n      0x00\n      dup1\n      revert\n    tag_156:\n        /* \"Appetito.sol\":3860:3861  2 */\n      0x02\n        /* \"Appetito.sol\":3847:3857  population */\n      dup1\n      sload\n        /* \"Appetito.sol\":3847:3861  population / 2 */\n      tag_157\n      swap2\n      swap1\n      tag_158\n      jump\t// in\n    tag_157:\n        /* \"Appetito.sol\":3822:3827  claim */\n      dup2\n        /* \"Appetito.sol\":3822:3842  claim.approvedCounts */\n      0x09\n      add\n      sload\n        /* \"Appetito.sol\":3822:3862  claim.approvedCounts >= (population / 2) */\n      lt\n      iszero\n        /* \"Appetito.sol\":3814:3863  require(claim.approvedCounts >= (population / 2)) */\n      tag_159\n      jumpi\n      0x00\n      dup1\n      revert\n    tag_159:\n        /* \"Appetito.sol\":3878:3883  claim */\n      dup1\n        /* \"Appetito.sol\":3878:3888  claim.done */\n      0x07\n      add\n      0x14\n      swap1\n      sload\n      swap1\n      0x0100\n      exp\n      swap1\n      div\n      0xff\n      and\n        /* \"Appetito.sol\":3877:3888  !claim.done */\n      iszero\n        /* \"Appetito.sol\":3869:3889  require(!claim.done) */\n      tag_160\n      jumpi\n      0x00\n      dup1\n      revert\n    tag_160:\n        /* \"Appetito.sol\":3908:3912  true */\n      0x01\n        /* \"Appetito.sol\":3895:3900  claim */\n      dup2\n        /* \"Appetito.sol\":3895:3905  claim.done */\n      0x07\n      add\n      0x14\n        /* \"Appetito.sol\":3895:3912  claim.done = true */\n      0x0100\n      exp\n      dup2\n      sload\n      dup2\n      0xff\n      mul\n      not\n      and\n      swap1\n      dup4\n      iszero\n      iszero\n      mul\n      or\n      swap1\n      sstore\n      pop\n        /* \"Appetito.sol\":3928:3933  claim */\n      dup1\n        /* \"Appetito.sol\":3928:3950  claim.recipientAddress */\n      0x07\n      add\n      0x00\n      swap1\n      sload\n      swap1\n      0x0100\n      exp\n      swap1\n      div\n      0xffffffffffffffffffffffffffffffffffffffff\n      and\n        /* \"Appetito.sol\":3919:3960  payable (claim.recipientAddress).transfer */\n      0xffffffffffffffffffffffffffffffffffffffff\n      and\n        /* \"Appetito.sol\":3919:3974  payable (claim.recipientAddress).transfer(claim.amount) */\n      0x08fc\n        /* \"Appetito.sol\":3961:3966  claim */\n      dup3\n        /* \"Appetito.sol\":3961:3973  claim.amount */\n      0x05\n      add\n      sload\n        /* \"Appetito.sol\":3919:3974  payable (claim.recipientAddress).transfer(claim.amount) */\n      swap1\n      dup2\n      iszero\n      mul\n      swap1\n      mload(0x40)\n      0x00\n      mload(0x40)\n      dup1\n      dup4\n      sub\n      dup2\n      dup6\n      dup9\n      dup9\n      call\n      swap4\n      pop\n      pop\n      pop\n      pop\n      iszero\n      dup1\n      iszero\n      tag_162\n      jumpi\n      returndatasize\n      0x00\n      dup1\n      returndatacopy\n      revert(0x00, returndatasize)\n    tag_162:\n      pop\n        /* \"Appetito.sol\":3713:4018  {... */\n      pop\n        /* \"Appetito.sol\":3666:4018  function startStudy(uint index) public payable {... */\n      pop\n      jump\t// out\n        /* \"Appetito.sol\":749:774  ClaimType[] public claims */\n    tag_78:\n      0x04\n      dup2\n      dup2\n      sload\n      dup2\n      lt\n      tag_163\n      jumpi\n      0x00\n      dup1\n      revert\n    tag_163:\n      swap1\n      0x00\n      mstore\n      keccak256(0x00, 0x20)\n      swap1\n      0x0a\n      mul\n      add\n      0x00\n      swap2\n      pop\n      swap1\n      pop\n      dup1\n      0x00\n      add\n      dup1\n      sload\n      tag_165\n      swap1\n      tag_89\n      jump\t// in\n    tag_165:\n      dup1\n      0x1f\n      add\n      0x20\n      dup1\n      swap2\n      div\n      mul\n      0x20\n      add\n      mload(0x40)\n      swap1\n      dup2\n      add\n      0x40\n      mstore\n      dup1\n      swap3\n      swap2\n      swap1\n      dup2\n      dup2\n      mstore\n      0x20\n      add\n      dup3\n      dup1\n      sload\n      tag_166\n      swap1\n      tag_89\n      jump\t// in\n    tag_166:\n      dup1\n      iszero\n      tag_167\n      jumpi\n      dup1\n      0x1f\n      lt\n      tag_168\n      jumpi\n      0x0100\n      dup1\n      dup4\n      sload\n      div\n      mul\n      dup4\n      mstore\n      swap2\n      0x20\n      add\n      swap2\n      jump(tag_167)\n    tag_168:\n      dup3\n      add\n      swap2\n      swap1\n      0x00\n      mstore\n      keccak256(0x00, 0x20)\n      swap1\n    tag_169:\n      dup2\n      sload\n      dup2\n      mstore\n      swap1\n      0x01\n      add\n      swap1\n      0x20\n      add\n      dup1\n      dup4\n      gt\n      tag_169\n      jumpi\n      dup3\n      swap1\n      sub\n      0x1f\n      and\n      dup3\n      add\n      swap2\n    tag_167:\n      pop\n      pop\n      pop\n      pop\n      pop\n      swap1\n      dup1\n      0x01\n      add\n      dup1\n      sload\n      tag_170\n      swap1\n      tag_89\n      jump\t// in\n    tag_170:\n      dup1\n      0x1f\n      add\n      0x20\n      dup1\n      swap2\n      div\n      mul\n      0x20\n      add\n      mload(0x40)\n      swap1\n      dup2\n      add\n      0x40\n      mstore\n      dup1\n      swap3\n      swap2\n      swap1\n      dup2\n      dup2\n      mstore\n      0x20\n      add\n      dup3\n      dup1\n      sload\n      tag_171\n      swap1\n      tag_89\n      jump\t// in\n    tag_171:\n      dup1\n      iszero\n      tag_172\n      jumpi\n      dup1\n      0x1f\n      lt\n      tag_173\n      jumpi\n      0x0100\n      dup1\n      dup4\n      sload\n      div\n      mul\n      dup4\n      mstore\n      swap2\n      0x20\n      add\n      swap2\n      jump(tag_172)\n    tag_173:\n      dup3\n      add\n      swap2\n      swap1\n      0x00\n      mstore\n      keccak256(0x00, 0x20)\n      swap1\n    tag_174:\n      dup2\n      sload\n      dup2\n      mstore\n      swap1\n      0x01\n      add\n      swap1\n      0x20\n      add\n      dup1\n      dup4\n      gt\n      tag_174\n      jumpi\n      dup3\n      swap1\n      sub\n      0x1f\n      and\n      dup3\n      add\n      swap2\n    tag_172:\n      pop\n      pop\n      pop\n      pop\n      pop\n      swap1\n      dup1\n      0x02\n      add\n      dup1\n      sload\n      tag_175\n      swap1\n      tag_89\n      jump\t// in\n    tag_175:\n      dup1\n      0x1f\n      add\n      0x20\n      dup1\n      swap2\n      div\n      mul\n      0x20\n      add\n      mload(0x40)\n      swap1\n      dup2\n      add\n      0x40\n      mstore\n      dup1\n      swap3\n      swap2\n      swap1\n      dup2\n      dup2\n      mstore\n      0x20\n      add\n      dup3\n      dup1\n      sload\n      tag_176\n      swap1\n      tag_89\n      jump\t// in\n    tag_176:\n      dup1\n      iszero\n      tag_177\n      jumpi\n      dup1\n      0x1f\n      lt\n      tag_178\n      jumpi\n      0x0100\n      dup1\n      dup4\n      sload\n      div\n      mul\n      dup4\n      mstore\n      swap2\n      0x20\n      add\n      swap2\n      jump(tag_177)\n    tag_178:\n      dup3\n      add\n      swap2\n      swap1\n      0x00\n      mstore\n      keccak256(0x00, 0x20)\n      swap1\n    tag_179:\n      dup2\n      sload\n      dup2\n      mstore\n      swap1\n      0x01\n      add\n      swap1\n      0x20\n      add\n      dup1\n      dup4\n      gt\n      tag_179\n      jumpi\n      dup3\n      swap1\n      sub\n      0x1f\n      and\n      dup3\n      add\n      swap2\n    tag_177:\n      pop\n      pop\n      pop\n      pop\n      pop\n      swap1\n      dup1\n      0x03\n      add\n      dup1\n      sload\n      tag_180\n      swap1\n      tag_89\n      jump\t// in\n    tag_180:\n      dup1\n      0x1f\n      add\n      0x20\n      dup1\n      swap2\n      div\n      mul\n      0x20\n      add\n      mload(0x40)\n      swap1\n      dup2\n      add\n      0x40\n      mstore\n      dup1\n      swap3\n      swap2\n      swap1\n      dup2\n      dup2\n      mstore\n      0x20\n      add\n      dup3\n      dup1\n      sload\n      tag_181\n      swap1\n      tag_89\n      jump\t// in\n    tag_181:\n      dup1\n      iszero\n      tag_182\n      jumpi\n      dup1\n      0x1f\n      lt\n      tag_183\n      jumpi\n      0x0100\n      dup1\n      dup4\n      sload\n      div\n      mul\n      dup4\n      mstore\n      swap2\n      0x20\n      add\n      swap2\n      jump(tag_182)\n    tag_183:\n      dup3\n      add\n      swap2\n      swap1\n      0x00\n      mstore\n      keccak256(0x00, 0x20)\n      swap1\n    tag_184:\n      dup2\n      sload\n      dup2\n      mstore\n      swap1\n      0x01\n      add\n      swap1\n      0x20\n      add\n      dup1\n      dup4\n      gt\n      tag_184\n      jumpi\n      dup3\n      swap1\n      sub\n      0x1f\n      and\n      dup3\n      add\n      swap2\n    tag_182:\n      pop\n      pop\n      pop\n      pop\n      pop\n      swap1\n      dup1\n      0x04\n      add\n      dup1\n      sload\n      tag_185\n      swap1\n      tag_89\n      jump\t// in\n    tag_185:\n      dup1\n      0x1f\n      add\n      0x20\n      dup1\n      swap2\n      div\n      mul\n      0x20\n      add\n      mload(0x40)\n      swap1\n      dup2\n      add\n      0x40\n      mstore\n      dup1\n      swap3\n      swap2\n      swap1\n      dup2\n      dup2\n      mstore\n      0x20\n      add\n      dup3\n      dup1\n      sload\n      tag_186\n      swap1\n      tag_89\n      jump\t// in\n    tag_186:\n      dup1\n      iszero\n      tag_187\n      jumpi\n      dup1\n      0x1f\n      lt\n      tag_188\n      jumpi\n      0x0100\n      dup1\n      dup4\n      sload\n      div\n      mul\n      dup4\n      mstore\n      swap2\n      0x20\n      add\n      swap2\n      jump(tag_187)\n    tag_188:\n      dup3\n      add\n      swap2\n      swap1\n      0x00\n      mstore\n      keccak256(0x00, 0x20)\n      swap1\n    tag_189:\n      dup2\n      sload\n      dup2\n      mstore\n      swap1\n      0x01\n      add\n      swap1\n      0x20\n      add\n      dup1\n      dup4\n      gt\n      tag_189\n      jumpi\n      dup3\n      swap1\n      sub\n      0x1f\n      and\n      dup3\n      add\n      swap2\n    tag_187:\n      pop\n      pop\n      pop\n      pop\n      pop\n      swap1\n      dup1\n      0x05\n      add\n      sload\n      swap1\n      dup1\n      0x06\n      add\n      0x00\n      swap1\n      sload\n      swap1\n      0x0100\n      exp\n      swap1\n      div\n      0xffffffffffffffffffffffffffffffffffffffff\n      and\n      swap1\n      dup1\n      0x07\n      add\n      0x00\n      swap1\n      sload\n      swap1\n      0x0100\n      exp\n      swap1\n      div\n      0xffffffffffffffffffffffffffffffffffffffff\n      and\n      swap1\n      dup1\n      0x07\n      add\n      0x14\n      swap1\n      sload\n      swap1\n      0x0100\n      exp\n      swap1\n      div\n      0xff\n      and\n      swap1\n      dup1\n      0x09\n      add\n      sload\n      swap1\n      pop\n      dup11\n      jump\t// out\n        /* \"Appetito.sol\":1859:1961  function getContributors() public view returns(ContributorType[] memory){... */\n    tag_83:\n        /* \"Appetito.sol\":1906:1930  ContributorType[] memory */\n      0x60\n        /* \"Appetito.sol\":1944:1956  contributors */\n      0x03\n        /* \"Appetito.sol\":1937:1956  return contributors */\n      dup1\n      sload\n      dup1\n      0x20\n      mul\n      0x20\n      add\n      mload(0x40)\n      swap1\n      dup2\n      add\n      0x40\n      mstore\n      dup1\n      swap3\n      swap2\n      swap1\n      dup2\n      dup2\n      mstore\n      0x20\n      add\n      0x00\n      swap1\n    tag_191:\n      dup3\n      dup3\n      lt\n      iszero\n      tag_192\n      jumpi\n      dup4\n      dup3\n      swap1\n      0x00\n      mstore\n      keccak256(0x00, 0x20)\n      swap1\n      0x02\n      mul\n      add\n      mload(0x40)\n      dup1\n      0x40\n      add\n      0x40\n      mstore\n      swap1\n      dup2\n      0x00\n      dup3\n      add\n      dup1\n      sload\n      tag_194\n      swap1\n      tag_89\n      jump\t// in\n    tag_194:\n      dup1\n      0x1f\n      add\n      0x20\n      dup1\n      swap2\n      div\n      mul\n      0x20\n      add\n      mload(0x40)\n      swap1\n      dup2\n      add\n      0x40\n      mstore\n      dup1\n      swap3\n      swap2\n      swap1\n      dup2\n      dup2\n      mstore\n      0x20\n      add\n      dup3\n      dup1\n      sload\n      tag_195\n      swap1\n      tag_89\n      jump\t// in\n    tag_195:\n      dup1\n      iszero\n      tag_196\n      jumpi\n      dup1\n      0x1f\n      lt\n      tag_197\n      jumpi\n      0x0100\n      dup1\n      dup4\n      sload\n      div\n      mul\n      dup4\n      mstore\n      swap2\n      0x20\n      add\n      swap2\n      jump(tag_196)\n    tag_197:\n      dup3\n      add\n      swap2\n      swap1\n      0x00\n      mstore\n      keccak256(0x00, 0x20)\n      swap1\n    tag_198:\n      dup2\n      sload\n      dup2\n      mstore\n      swap1\n      0x01\n      add\n      swap1\n      0x20\n      add\n      dup1\n      dup4\n      gt\n      tag_198\n      jumpi\n      dup3\n      swap1\n      sub\n      0x1f\n      and\n      dup3\n      add\n      swap2\n    tag_196:\n      pop\n      pop\n      pop\n      pop\n      pop\n      dup2\n      mstore\n      0x20\n      add\n      0x01\n      dup3\n      add\n      0x00\n      swap1\n      sload\n      swap1\n      0x0100\n      exp\n      swap1\n      div\n      0xffffffffffffffffffffffffffffffffffffffff\n      and\n      0xffffffffffffffffffffffffffffffffffffffff\n      and\n      0xffffffffffffffffffffffffffffffffffffffff\n      and\n      dup2\n      mstore\n      pop\n      pop\n      dup2\n      mstore\n      0x20\n      add\n      swap1\n      0x01\n      add\n      swap1\n      jump(tag_191)\n    tag_192:\n      pop\n      pop\n      pop\n      pop\n      swap1\n      pop\n        /* \"Appetito.sol\":1859:1961  function getContributors() public view returns(ContributorType[] memory){... */\n      swap1\n      jump\t// out\n    tag_101:\n      dup3\n      dup1\n      sload\n      tag_199\n      swap1\n      tag_89\n      jump\t// in\n    tag_199:\n      swap1\n      0x00\n      mstore\n      keccak256(0x00, 0x20)\n      swap1\n      0x1f\n      add\n      0x20\n      swap1\n      div\n      dup2\n      add\n      swap3\n      dup3\n      tag_201\n      jumpi\n      0x00\n      dup6\n      sstore\n      jump(tag_200)\n    tag_201:\n      dup3\n      0x1f\n      lt\n      tag_202\n      jumpi\n      dup1\n      mload\n      not(0xff)\n      and\n      dup4\n      dup1\n      add\n      or\n      dup6\n      sstore\n      jump(tag_200)\n    tag_202:\n      dup3\n      dup1\n      add\n      0x01\n      add\n      dup6\n      sstore\n      dup3\n      iszero\n      tag_200\n      jumpi\n      swap2\n      dup3\n      add\n    tag_203:\n      dup3\n      dup2\n      gt\n      iszero\n      tag_204\n      jumpi\n      dup3\n      mload\n      dup3\n      sstore\n      swap2\n      0x20\n      add\n      swap2\n      swap1\n      0x01\n      add\n      swap1\n      jump(tag_203)\n    tag_204:\n    tag_200:\n      pop\n      swap1\n      pop\n      tag_205\n      swap2\n      swap1\n      tag_206\n      jump\t// in\n    tag_205:\n      pop\n      swap1\n      jump\t// out\n    tag_206:\n    tag_207:\n      dup1\n      dup3\n      gt\n      iszero\n      tag_208\n      jumpi\n      0x00\n      dup2\n      0x00\n      swap1\n      sstore\n      pop\n      0x01\n      add\n      jump(tag_207)\n    tag_208:\n      pop\n      swap1\n      jump\t// out\n        /* \"#utility.yul\":7:82   */\n    tag_209:\n        /* \"#utility.yul\":40:46   */\n      0x00\n        /* \"#utility.yul\":73:75   */\n      0x40\n        /* \"#utility.yul\":67:76   */\n      mload\n        /* \"#utility.yul\":57:76   */\n      swap1\n      pop\n        /* \"#utility.yul\":7:82   */\n      swap1\n      jump\t// out\n        /* \"#utility.yul\":88:205   */\n    tag_210:\n        /* \"#utility.yul\":197:198   */\n      0x00\n        /* \"#utility.yul\":194:195   */\n      dup1\n        /* \"#utility.yul\":187:199   */\n      revert\n        /* \"#utility.yul\":211:328   */\n    tag_211:\n        /* \"#utility.yul\":320:321   */\n      0x00\n        /* \"#utility.yul\":317:318   */\n      dup1\n        /* \"#utility.yul\":310:322   */\n      revert\n        /* \"#utility.yul\":334:411   */\n    tag_212:\n        /* \"#utility.yul\":371:378   */\n      0x00\n        /* \"#utility.yul\":400:405   */\n      dup2\n        /* \"#utility.yul\":389:405   */\n      swap1\n      pop\n        /* \"#utility.yul\":334:411   */\n      swap2\n      swap1\n      pop\n      jump\t// out\n        /* \"#utility.yul\":417:539   */\n    tag_213:\n        /* \"#utility.yul\":490:514   */\n      tag_263\n        /* \"#utility.yul\":508:513   */\n      dup2\n        /* \"#utility.yul\":490:514   */\n      tag_212\n      jump\t// in\n    tag_263:\n        /* \"#utility.yul\":483:488   */\n      dup2\n        /* \"#utility.yul\":480:515   */\n      eq\n        /* \"#utility.yul\":470:533   */\n      tag_264\n      jumpi\n        /* \"#utility.yul\":529:530   */\n      0x00\n        /* \"#utility.yul\":526:527   */\n      dup1\n        /* \"#utility.yul\":519:531   */\n      revert\n        /* \"#utility.yul\":470:533   */\n    tag_264:\n        /* \"#utility.yul\":417:539   */\n      pop\n      jump\t// out\n        /* \"#utility.yul\":545:684   */\n    tag_214:\n        /* \"#utility.yul\":591:596   */\n      0x00\n        /* \"#utility.yul\":629:635   */\n      dup2\n        /* \"#utility.yul\":616:636   */\n      calldataload\n        /* \"#utility.yul\":607:636   */\n      swap1\n      pop\n        /* \"#utility.yul\":645:678   */\n      tag_266\n        /* \"#utility.yul\":672:677   */\n      dup2\n        /* \"#utility.yul\":645:678   */\n      tag_213\n      jump\t// in\n    tag_266:\n        /* \"#utility.yul\":545:684   */\n      swap3\n      swap2\n      pop\n      pop\n      jump\t// out\n        /* \"#utility.yul\":690:1019   */\n    tag_22:\n        /* \"#utility.yul\":749:755   */\n      0x00\n        /* \"#utility.yul\":798:800   */\n      0x20\n        /* \"#utility.yul\":786:795   */\n      dup3\n        /* \"#utility.yul\":777:784   */\n      dup5\n        /* \"#utility.yul\":773:796   */\n      sub\n        /* \"#utility.yul\":769:801   */\n      slt\n        /* \"#utility.yul\":766:885   */\n      iszero\n      tag_268\n      jumpi\n        /* \"#utility.yul\":804:883   */\n      tag_269\n      tag_210\n      jump\t// in\n    tag_269:\n        /* \"#utility.yul\":766:885   */\n    tag_268:\n        /* \"#utility.yul\":924:925   */\n      0x00\n        /* \"#utility.yul\":949:1002   */\n      tag_270\n        /* \"#utility.yul\":994:1001   */\n      dup5\n        /* \"#utility.yul\":985:991   */\n      dup3\n        /* \"#utility.yul\":974:983   */\n      dup6\n        /* \"#utility.yul\":970:992   */\n      add\n        /* \"#utility.yul\":949:1002   */\n      tag_214\n      jump\t// in\n    tag_270:\n        /* \"#utility.yul\":939:1002   */\n      swap2\n      pop\n        /* \"#utility.yul\":895:1012   */\n      pop\n        /* \"#utility.yul\":690:1019   */\n      swap3\n      swap2\n      pop\n      pop\n      jump\t// out\n        /* \"#utility.yul\":1025:1151   */\n    tag_215:\n        /* \"#utility.yul\":1062:1069   */\n      0x00\n        /* \"#utility.yul\":1102:1144   */\n      0xffffffffffffffffffffffffffffffffffffffff\n        /* \"#utility.yul\":1095:1100   */\n      dup3\n        /* \"#utility.yul\":1091:1145   */\n      and\n        /* \"#utility.yul\":1080:1145   */\n      swap1\n      pop\n        /* \"#utility.yul\":1025:1151   */\n      swap2\n      swap1\n      pop\n      jump\t// out\n        /* \"#utility.yul\":1157:1253   */\n    tag_216:\n        /* \"#utility.yul\":1194:1201   */\n      0x00\n        /* \"#utility.yul\":1223:1247   */\n      tag_273\n        /* \"#utility.yul\":1241:1246   */\n      dup3\n        /* \"#utility.yul\":1223:1247   */\n      tag_215\n      jump\t// in\n    tag_273:\n        /* \"#utility.yul\":1212:1247   */\n      swap1\n      pop\n        /* \"#utility.yul\":1157:1253   */\n      swap2\n      swap1\n      pop\n      jump\t// out\n        /* \"#utility.yul\":1259:1377   */\n    tag_217:\n        /* \"#utility.yul\":1346:1370   */\n      tag_275\n        /* \"#utility.yul\":1364:1369   */\n      dup2\n        /* \"#utility.yul\":1346:1370   */\n      tag_216\n      jump\t// in\n    tag_275:\n        /* \"#utility.yul\":1341:1344   */\n      dup3\n        /* \"#utility.yul\":1334:1371   */\n      mstore\n        /* \"#utility.yul\":1259:1377   */\n      pop\n      pop\n      jump\t// out\n        /* \"#utility.yul\":1383:1482   */\n    tag_218:\n        /* \"#utility.yul\":1435:1441   */\n      0x00\n        /* \"#utility.yul\":1469:1474   */\n      dup2\n        /* \"#utility.yul\":1463:1475   */\n      mload\n        /* \"#utility.yul\":1453:1475   */\n      swap1\n      pop\n        /* \"#utility.yul\":1383:1482   */\n      swap2\n      swap1\n      pop\n      jump\t// out\n        /* \"#utility.yul\":1488:1657   */\n    tag_219:\n        /* \"#utility.yul\":1572:1583   */\n      0x00\n        /* \"#utility.yul\":1606:1612   */\n      dup3\n        /* \"#utility.yul\":1601:1604   */\n      dup3\n        /* \"#utility.yul\":1594:1613   */\n      mstore\n        /* \"#utility.yul\":1646:1650   */\n      0x20\n        /* \"#utility.yul\":1641:1644   */\n      dup3\n        /* \"#utility.yul\":1637:1651   */\n      add\n        /* \"#utility.yul\":1622:1651   */\n      swap1\n      pop\n        /* \"#utility.yul\":1488:1657   */\n      swap3\n      swap2\n      pop\n      pop\n      jump\t// out\n        /* \"#utility.yul\":1663:1970   */\n    tag_220:\n        /* \"#utility.yul\":1731:1732   */\n      0x00\n        /* \"#utility.yul\":1741:1854   */\n    tag_279:\n        /* \"#utility.yul\":1755:1761   */\n      dup4\n        /* \"#utility.yul\":1752:1753   */\n      dup2\n        /* \"#utility.yul\":1749:1762   */\n      lt\n        /* \"#utility.yul\":1741:1854   */\n      iszero\n      tag_281\n      jumpi\n        /* \"#utility.yul\":1840:1841   */\n      dup1\n        /* \"#utility.yul\":1835:1838   */\n      dup3\n        /* \"#utility.yul\":1831:1842   */\n      add\n        /* \"#utility.yul\":1825:1843   */\n      mload\n        /* \"#utility.yul\":1821:1822   */\n      dup2\n        /* \"#utility.yul\":1816:1819   */\n      dup5\n        /* \"#utility.yul\":1812:1823   */\n      add\n        /* \"#utility.yul\":1805:1844   */\n      mstore\n        /* \"#utility.yul\":1777:1779   */\n      0x20\n        /* \"#utility.yul\":1774:1775   */\n      dup2\n        /* \"#utility.yul\":1770:1780   */\n      add\n        /* \"#utility.yul\":1765:1780   */\n      swap1\n      pop\n        /* \"#utility.yul\":1741:1854   */\n      jump(tag_279)\n    tag_281:\n        /* \"#utility.yul\":1872:1878   */\n      dup4\n        /* \"#utility.yul\":1869:1870   */\n      dup2\n        /* \"#utility.yul\":1866:1879   */\n      gt\n        /* \"#utility.yul\":1863:1964   */\n      iszero\n      tag_282\n      jumpi\n        /* \"#utility.yul\":1952:1953   */\n      0x00\n        /* \"#utility.yul\":1943:1949   */\n      dup5\n        /* \"#utility.yul\":1938:1941   */\n      dup5\n        /* \"#utility.yul\":1934:1950   */\n      add\n        /* \"#utility.yul\":1927:1954   */\n      mstore\n        /* \"#utility.yul\":1863:1964   */\n    tag_282:\n        /* \"#utility.yul\":1712:1970   */\n      pop\n        /* \"#utility.yul\":1663:1970   */\n      pop\n      pop\n      pop\n      jump\t// out\n        /* \"#utility.yul\":1976:2078   */\n    tag_221:\n        /* \"#utility.yul\":2017:2023   */\n      0x00\n        /* \"#utility.yul\":2068:2070   */\n      0x1f\n        /* \"#utility.yul\":2064:2071   */\n      not\n        /* \"#utility.yul\":2059:2061   */\n      0x1f\n        /* \"#utility.yul\":2052:2057   */\n      dup4\n        /* \"#utility.yul\":2048:2062   */\n      add\n        /* \"#utility.yul\":2044:2072   */\n      and\n        /* \"#utility.yul\":2034:2072   */\n      swap1\n      pop\n        /* \"#utility.yul\":1976:2078   */\n      swap2\n      swap1\n      pop\n      jump\t// out\n        /* \"#utility.yul\":2084:2448   */\n    tag_222:\n        /* \"#utility.yul\":2172:2175   */\n      0x00\n        /* \"#utility.yul\":2200:2239   */\n      tag_285\n        /* \"#utility.yul\":2233:2238   */\n      dup3\n        /* \"#utility.yul\":2200:2239   */\n      tag_218\n      jump\t// in\n    tag_285:\n        /* \"#utility.yul\":2255:2326   */\n      tag_286\n        /* \"#utility.yul\":2319:2325   */\n      dup2\n        /* \"#utility.yul\":2314:2317   */\n      dup6\n        /* \"#utility.yul\":2255:2326   */\n      tag_219\n      jump\t// in\n    tag_286:\n        /* \"#utility.yul\":2248:2326   */\n      swap4\n      pop\n        /* \"#utility.yul\":2335:2387   */\n      tag_287\n        /* \"#utility.yul\":2380:2386   */\n      dup2\n        /* \"#utility.yul\":2375:2378   */\n      dup6\n        /* \"#utility.yul\":2368:2372   */\n      0x20\n        /* \"#utility.yul\":2361:2366   */\n      dup7\n        /* \"#utility.yul\":2357:2373   */\n      add\n        /* \"#utility.yul\":2335:2387   */\n      tag_220\n      jump\t// in\n    tag_287:\n        /* \"#utility.yul\":2412:2441   */\n      tag_288\n        /* \"#utility.yul\":2434:2440   */\n      dup2\n        /* \"#utility.yul\":2412:2441   */\n      tag_221\n      jump\t// in\n    tag_288:\n        /* \"#utility.yul\":2407:2410   */\n      dup5\n        /* \"#utility.yul\":2403:2442   */\n      add\n        /* \"#utility.yul\":2396:2442   */\n      swap2\n      pop\n        /* \"#utility.yul\":2176:2448   */\n      pop\n        /* \"#utility.yul\":2084:2448   */\n      swap3\n      swap2\n      pop\n      pop\n      jump\t// out\n        /* \"#utility.yul\":2454:2877   */\n    tag_25:\n        /* \"#utility.yul\":2595:2599   */\n      0x00\n        /* \"#utility.yul\":2633:2635   */\n      0x40\n        /* \"#utility.yul\":2622:2631   */\n      dup3\n        /* \"#utility.yul\":2618:2636   */\n      add\n        /* \"#utility.yul\":2610:2636   */\n      swap1\n      pop\n        /* \"#utility.yul\":2646:2717   */\n      tag_290\n        /* \"#utility.yul\":2714:2715   */\n      0x00\n        /* \"#utility.yul\":2703:2712   */\n      dup4\n        /* \"#utility.yul\":2699:2716   */\n      add\n        /* \"#utility.yul\":2690:2696   */\n      dup6\n        /* \"#utility.yul\":2646:2717   */\n      tag_217\n      jump\t// in\n    tag_290:\n        /* \"#utility.yul\":2764:2773   */\n      dup2\n        /* \"#utility.yul\":2758:2762   */\n      dup2\n        /* \"#utility.yul\":2754:2774   */\n      sub\n        /* \"#utility.yul\":2749:2751   */\n      0x20\n        /* \"#utility.yul\":2738:2747   */\n      dup4\n        /* \"#utility.yul\":2734:2752   */\n      add\n        /* \"#utility.yul\":2727:2775   */\n      mstore\n        /* \"#utility.yul\":2792:2870   */\n      tag_291\n        /* \"#utility.yul\":2865:2869   */\n      dup2\n        /* \"#utility.yul\":2856:2862   */\n      dup5\n        /* \"#utility.yul\":2792:2870   */\n      tag_222\n      jump\t// in\n    tag_291:\n        /* \"#utility.yul\":2784:2870   */\n      swap1\n      pop\n        /* \"#utility.yul\":2454:2877   */\n      swap4\n      swap3\n      pop\n      pop\n      pop\n      jump\t// out\n        /* \"#utility.yul\":2883:3000   */\n    tag_223:\n        /* \"#utility.yul\":2992:2993   */\n      0x00\n        /* \"#utility.yul\":2989:2990   */\n      dup1\n        /* \"#utility.yul\":2982:2994   */\n      revert\n        /* \"#utility.yul\":3006:3123   */\n    tag_224:\n        /* \"#utility.yul\":3115:3116   */\n      0x00\n        /* \"#utility.yul\":3112:3113   */\n      dup1\n        /* \"#utility.yul\":3105:3117   */\n      revert\n        /* \"#utility.yul\":3129:3309   */\n    tag_225:\n        /* \"#utility.yul\":3177:3254   */\n      0x4e487b7100000000000000000000000000000000000000000000000000000000\n        /* \"#utility.yul\":3174:3175   */\n      0x00\n        /* \"#utility.yul\":3167:3255   */\n      mstore\n        /* \"#utility.yul\":3274:3278   */\n      0x41\n        /* \"#utility.yul\":3271:3272   */\n      0x04\n        /* \"#utility.yul\":3264:3279   */\n      mstore\n        /* \"#utility.yul\":3298:3302   */\n      0x24\n        /* \"#utility.yul\":3295:3296   */\n      0x00\n        /* \"#utility.yul\":3288:3303   */\n      revert\n        /* \"#utility.yul\":3315:3596   */\n    tag_226:\n        /* \"#utility.yul\":3398:3425   */\n      tag_296\n        /* \"#utility.yul\":3420:3424   */\n      dup3\n        /* \"#utility.yul\":3398:3425   */\n      tag_221\n      jump\t// in\n    tag_296:\n        /* \"#utility.yul\":3390:3396   */\n      dup2\n        /* \"#utility.yul\":3386:3426   */\n      add\n        /* \"#utility.yul\":3528:3534   */\n      dup2\n        /* \"#utility.yul\":3516:3526   */\n      dup2\n        /* \"#utility.yul\":3513:3535   */\n      lt\n        /* \"#utility.yul\":3492:3510   */\n      0xffffffffffffffff\n        /* \"#utility.yul\":3480:3490   */\n      dup3\n        /* \"#utility.yul\":3477:3511   */\n      gt\n        /* \"#utility.yul\":3474:3536   */\n      or\n        /* \"#utility.yul\":3471:3559   */\n      iszero\n      tag_297\n      jumpi\n        /* \"#utility.yul\":3539:3557   */\n      tag_298\n      tag_225\n      jump\t// in\n    tag_298:\n        /* \"#utility.yul\":3471:3559   */\n    tag_297:\n        /* \"#utility.yul\":3579:3589   */\n      dup1\n        /* \"#utility.yul\":3575:3577   */\n      0x40\n        /* \"#utility.yul\":3568:3590   */\n      mstore\n        /* \"#utility.yul\":3358:3596   */\n      pop\n        /* \"#utility.yul\":3315:3596   */\n      pop\n      pop\n      jump\t// out\n        /* \"#utility.yul\":3602:3731   */\n    tag_227:\n        /* \"#utility.yul\":3636:3642   */\n      0x00\n        /* \"#utility.yul\":3663:3683   */\n      tag_300\n      tag_209\n      jump\t// in\n    tag_300:\n        /* \"#utility.yul\":3653:3683   */\n      swap1\n      pop\n        /* \"#utility.yul\":3692:3725   */\n      tag_301\n        /* \"#utility.yul\":3720:3724   */\n      dup3\n        /* \"#utility.yul\":3712:3718   */\n      dup3\n        /* \"#utility.yul\":3692:3725   */\n      tag_226\n      jump\t// in\n    tag_301:\n        /* \"#utility.yul\":3602:3731   */\n      swap2\n      swap1\n      pop\n      jump\t// out\n        /* \"#utility.yul\":3737:4045   */\n    tag_228:\n        /* \"#utility.yul\":3799:3803   */\n      0x00\n        /* \"#utility.yul\":3889:3907   */\n      0xffffffffffffffff\n        /* \"#utility.yul\":3881:3887   */\n      dup3\n        /* \"#utility.yul\":3878:3908   */\n      gt\n        /* \"#utility.yul\":3875:3931   */\n      iszero\n      tag_303\n      jumpi\n        /* \"#utility.yul\":3911:3929   */\n      tag_304\n      tag_225\n      jump\t// in\n    tag_304:\n        /* \"#utility.yul\":3875:3931   */\n    tag_303:\n        /* \"#utility.yul\":3949:3978   */\n      tag_305\n        /* \"#utility.yul\":3971:3977   */\n      dup3\n        /* \"#utility.yul\":3949:3978   */\n      tag_221\n      jump\t// in\n    tag_305:\n        /* \"#utility.yul\":3941:3978   */\n      swap1\n      pop\n        /* \"#utility.yul\":4033:4037   */\n      0x20\n        /* \"#utility.yul\":4027:4031   */\n      dup2\n        /* \"#utility.yul\":4023:4038   */\n      add\n        /* \"#utility.yul\":4015:4038   */\n      swap1\n      pop\n        /* \"#utility.yul\":3737:4045   */\n      swap2\n      swap1\n      pop\n      jump\t// out\n        /* \"#utility.yul\":4051:4205   */\n    tag_229:\n        /* \"#utility.yul\":4135:4141   */\n      dup3\n        /* \"#utility.yul\":4130:4133   */\n      dup2\n        /* \"#utility.yul\":4125:4128   */\n      dup4\n        /* \"#utility.yul\":4112:4142   */\n      calldatacopy\n        /* \"#utility.yul\":4197:4198   */\n      0x00\n        /* \"#utility.yul\":4188:4194   */\n      dup4\n        /* \"#utility.yul\":4183:4186   */\n      dup4\n        /* \"#utility.yul\":4179:4195   */\n      add\n        /* \"#utility.yul\":4172:4199   */\n      mstore\n        /* \"#utility.yul\":4051:4205   */\n      pop\n      pop\n      pop\n      jump\t// out\n        /* \"#utility.yul\":4211:4623   */\n    tag_230:\n        /* \"#utility.yul\":4289:4294   */\n      0x00\n        /* \"#utility.yul\":4314:4380   */\n      tag_308\n        /* \"#utility.yul\":4330:4379   */\n      tag_309\n        /* \"#utility.yul\":4372:4378   */\n      dup5\n        /* \"#utility.yul\":4330:4379   */\n      tag_228\n      jump\t// in\n    tag_309:\n        /* \"#utility.yul\":4314:4380   */\n      tag_227\n      jump\t// in\n    tag_308:\n        /* \"#utility.yul\":4305:4380   */\n      swap1\n      pop\n        /* \"#utility.yul\":4403:4409   */\n      dup3\n        /* \"#utility.yul\":4396:4401   */\n      dup2\n        /* \"#utility.yul\":4389:4410   */\n      mstore\n        /* \"#utility.yul\":4441:4445   */\n      0x20\n        /* \"#utility.yul\":4434:4439   */\n      dup2\n        /* \"#utility.yul\":4430:4446   */\n      add\n        /* \"#utility.yul\":4479:4482   */\n      dup5\n        /* \"#utility.yul\":4470:4476   */\n      dup5\n        /* \"#utility.yul\":4465:4468   */\n      dup5\n        /* \"#utility.yul\":4461:4477   */\n      add\n        /* \"#utility.yul\":4458:4483   */\n      gt\n        /* \"#utility.yul\":4455:4567   */\n      iszero\n      tag_310\n      jumpi\n        /* \"#utility.yul\":4486:4565   */\n      tag_311\n      tag_224\n      jump\t// in\n    tag_311:\n        /* \"#utility.yul\":4455:4567   */\n    tag_310:\n        /* \"#utility.yul\":4576:4617   */\n      tag_312\n        /* \"#utility.yul\":4610:4616   */\n      dup5\n        /* \"#utility.yul\":4605:4608   */\n      dup3\n        /* \"#utility.yul\":4600:4603   */\n      dup6\n        /* \"#utility.yul\":4576:4617   */\n      tag_229\n      jump\t// in\n    tag_312:\n        /* \"#utility.yul\":4295:4623   */\n      pop\n        /* \"#utility.yul\":4211:4623   */\n      swap4\n      swap3\n      pop\n      pop\n      pop\n      jump\t// out\n        /* \"#utility.yul\":4643:4983   */\n    tag_231:\n        /* \"#utility.yul\":4699:4704   */\n      0x00\n        /* \"#utility.yul\":4748:4751   */\n      dup3\n        /* \"#utility.yul\":4741:4745   */\n      0x1f\n        /* \"#utility.yul\":4733:4739   */\n      dup4\n        /* \"#utility.yul\":4729:4746   */\n      add\n        /* \"#utility.yul\":4725:4752   */\n      slt\n        /* \"#utility.yul\":4715:4837   */\n      tag_314\n      jumpi\n        /* \"#utility.yul\":4756:4835   */\n      tag_315\n      tag_223\n      jump\t// in\n    tag_315:\n        /* \"#utility.yul\":4715:4837   */\n    tag_314:\n        /* \"#utility.yul\":4873:4879   */\n      dup2\n        /* \"#utility.yul\":4860:4880   */\n      calldataload\n        /* \"#utility.yul\":4898:4977   */\n      tag_316\n        /* \"#utility.yul\":4973:4976   */\n      dup5\n        /* \"#utility.yul\":4965:4971   */\n      dup3\n        /* \"#utility.yul\":4958:4962   */\n      0x20\n        /* \"#utility.yul\":4950:4956   */\n      dup7\n        /* \"#utility.yul\":4946:4963   */\n      add\n        /* \"#utility.yul\":4898:4977   */\n      tag_230\n      jump\t// in\n    tag_316:\n        /* \"#utility.yul\":4889:4977   */\n      swap2\n      pop\n        /* \"#utility.yul\":4705:4983   */\n      pop\n        /* \"#utility.yul\":4643:4983   */\n      swap3\n      swap2\n      pop\n      pop\n      jump\t// out\n        /* \"#utility.yul\":4989:5498   */\n    tag_29:\n        /* \"#utility.yul\":5058:5064   */\n      0x00\n        /* \"#utility.yul\":5107:5109   */\n      0x20\n        /* \"#utility.yul\":5095:5104   */\n      dup3\n        /* \"#utility.yul\":5086:5093   */\n      dup5\n        /* \"#utility.yul\":5082:5105   */\n      sub\n        /* \"#utility.yul\":5078:5110   */\n      slt\n        /* \"#utility.yul\":5075:5194   */\n      iszero\n      tag_318\n      jumpi\n        /* \"#utility.yul\":5113:5192   */\n      tag_319\n      tag_210\n      jump\t// in\n    tag_319:\n        /* \"#utility.yul\":5075:5194   */\n    tag_318:\n        /* \"#utility.yul\":5261:5262   */\n      0x00\n        /* \"#utility.yul\":5250:5259   */\n      dup3\n        /* \"#utility.yul\":5246:5263   */\n      add\n        /* \"#utility.yul\":5233:5264   */\n      calldataload\n        /* \"#utility.yul\":5291:5309   */\n      0xffffffffffffffff\n        /* \"#utility.yul\":5283:5289   */\n      dup2\n        /* \"#utility.yul\":5280:5310   */\n      gt\n        /* \"#utility.yul\":5277:5394   */\n      iszero\n      tag_320\n      jumpi\n        /* \"#utility.yul\":5313:5392   */\n      tag_321\n      tag_211\n      jump\t// in\n    tag_321:\n        /* \"#utility.yul\":5277:5394   */\n    tag_320:\n        /* \"#utility.yul\":5418:5481   */\n      tag_322\n        /* \"#utility.yul\":5473:5480   */\n      dup5\n        /* \"#utility.yul\":5464:5470   */\n      dup3\n        /* \"#utility.yul\":5453:5462   */\n      dup6\n        /* \"#utility.yul\":5449:5471   */\n      add\n        /* \"#utility.yul\":5418:5481   */\n      tag_231\n      jump\t// in\n    tag_322:\n        /* \"#utility.yul\":5408:5481   */\n      swap2\n      pop\n        /* \"#utility.yul\":5204:5491   */\n      pop\n        /* \"#utility.yul\":4989:5498   */\n      swap3\n      swap2\n      pop\n      pop\n      jump\t// out\n        /* \"#utility.yul\":5504:5927   */\n    tag_36:\n        /* \"#utility.yul\":5645:5649   */\n      0x00\n        /* \"#utility.yul\":5683:5685   */\n      0x40\n        /* \"#utility.yul\":5672:5681   */\n      dup3\n        /* \"#utility.yul\":5668:5686   */\n      add\n        /* \"#utility.yul\":5660:5686   */\n      swap1\n      pop\n        /* \"#utility.yul\":5732:5741   */\n      dup2\n        /* \"#utility.yul\":5726:5730   */\n      dup2\n        /* \"#utility.yul\":5722:5742   */\n      sub\n        /* \"#utility.yul\":5718:5719   */\n      0x00\n        /* \"#utility.yul\":5707:5716   */\n      dup4\n        /* \"#utility.yul\":5703:5720   */\n      add\n        /* \"#utility.yul\":5696:5743   */\n      mstore\n        /* \"#utility.yul\":5760:5838   */\n      tag_324\n        /* \"#utility.yul\":5833:5837   */\n      dup2\n        /* \"#utility.yul\":5824:5830   */\n      dup6\n        /* \"#utility.yul\":5760:5838   */\n      tag_222\n      jump\t// in\n    tag_324:\n        /* \"#utility.yul\":5752:5838   */\n      swap1\n      pop\n        /* \"#utility.yul\":5848:5920   */\n      tag_325\n        /* \"#utility.yul\":5916:5918   */\n      0x20\n        /* \"#utility.yul\":5905:5914   */\n      dup4\n        /* \"#utility.yul\":5901:5919   */\n      add\n        /* \"#utility.yul\":5892:5898   */\n      dup5\n        /* \"#utility.yul\":5848:5920   */\n      tag_217\n      jump\t// in\n    tag_325:\n        /* \"#utility.yul\":5504:5927   */\n      swap4\n      swap3\n      pop\n      pop\n      pop\n      jump\t// out\n        /* \"#utility.yul\":5933:6051   */\n    tag_232:\n        /* \"#utility.yul\":6020:6044   */\n      tag_327\n        /* \"#utility.yul\":6038:6043   */\n      dup2\n        /* \"#utility.yul\":6020:6044   */\n      tag_212\n      jump\t// in\n    tag_327:\n        /* \"#utility.yul\":6015:6018   */\n      dup3\n        /* \"#utility.yul\":6008:6045   */\n      mstore\n        /* \"#utility.yul\":5933:6051   */\n      pop\n      pop\n      jump\t// out\n        /* \"#utility.yul\":6057:6279   */\n    tag_41:\n        /* \"#utility.yul\":6150:6154   */\n      0x00\n        /* \"#utility.yul\":6188:6190   */\n      0x20\n        /* \"#utility.yul\":6177:6186   */\n      dup3\n        /* \"#utility.yul\":6173:6191   */\n      add\n        /* \"#utility.yul\":6165:6191   */\n      swap1\n      pop\n        /* \"#utility.yul\":6201:6272   */\n      tag_329\n        /* \"#utility.yul\":6269:6270   */\n      0x00\n        /* \"#utility.yul\":6258:6267   */\n      dup4\n        /* \"#utility.yul\":6254:6271   */\n      add\n        /* \"#utility.yul\":6245:6251   */\n      dup5\n        /* \"#utility.yul\":6201:6272   */\n      tag_232\n      jump\t// in\n    tag_329:\n        /* \"#utility.yul\":6057:6279   */\n      swap3\n      swap2\n      pop\n      pop\n      jump\t// out\n        /* \"#utility.yul\":6285:6426   */\n    tag_233:\n        /* \"#utility.yul\":6379:6385   */\n      0x00\n        /* \"#utility.yul\":6413:6418   */\n      dup2\n        /* \"#utility.yul\":6407:6419   */\n      mload\n        /* \"#utility.yul\":6397:6419   */\n      swap1\n      pop\n        /* \"#utility.yul\":6285:6426   */\n      swap2\n      swap1\n      pop\n      jump\t// out\n        /* \"#utility.yul\":6432:6643   */\n    tag_234:\n        /* \"#utility.yul\":6558:6569   */\n      0x00\n        /* \"#utility.yul\":6592:6598   */\n      dup3\n        /* \"#utility.yul\":6587:6590   */\n      dup3\n        /* \"#utility.yul\":6580:6599   */\n      mstore\n        /* \"#utility.yul\":6632:6636   */\n      0x20\n        /* \"#utility.yul\":6627:6630   */\n      dup3\n        /* \"#utility.yul\":6623:6637   */\n      add\n        /* \"#utility.yul\":6608:6637   */\n      swap1\n      pop\n        /* \"#utility.yul\":6432:6643   */\n      swap3\n      swap2\n      pop\n      pop\n      jump\t// out\n        /* \"#utility.yul\":6649:6808   */\n    tag_235:\n        /* \"#utility.yul\":6743:6747   */\n      0x00\n        /* \"#utility.yul\":6766:6769   */\n      dup2\n        /* \"#utility.yul\":6758:6769   */\n      swap1\n      pop\n        /* \"#utility.yul\":6796:6800   */\n      0x20\n        /* \"#utility.yul\":6791:6794   */\n      dup3\n        /* \"#utility.yul\":6787:6801   */\n      add\n        /* \"#utility.yul\":6779:6801   */\n      swap1\n      pop\n        /* \"#utility.yul\":6649:6808   */\n      swap2\n      swap1\n      pop\n      jump\t// out\n        /* \"#utility.yul\":6814:6922   */\n    tag_236:\n        /* \"#utility.yul\":6891:6915   */\n      tag_334\n        /* \"#utility.yul\":6909:6914   */\n      dup2\n        /* \"#utility.yul\":6891:6915   */\n      tag_216\n      jump\t// in\n    tag_334:\n        /* \"#utility.yul\":6886:6889   */\n      dup3\n        /* \"#utility.yul\":6879:6916   */\n      mstore\n        /* \"#utility.yul\":6814:6922   */\n      pop\n      pop\n      jump\t// out\n        /* \"#utility.yul\":6928:7087   */\n    tag_237:\n        /* \"#utility.yul\":7002:7013   */\n      0x00\n        /* \"#utility.yul\":7036:7042   */\n      dup3\n        /* \"#utility.yul\":7031:7034   */\n      dup3\n        /* \"#utility.yul\":7024:7043   */\n      mstore\n        /* \"#utility.yul\":7076:7080   */\n      0x20\n        /* \"#utility.yul\":7071:7074   */\n      dup3\n        /* \"#utility.yul\":7067:7081   */\n      add\n        /* \"#utility.yul\":7052:7081   */\n      swap1\n      pop\n        /* \"#utility.yul\":6928:7087   */\n      swap3\n      swap2\n      pop\n      pop\n      jump\t// out\n        /* \"#utility.yul\":7093:7437   */\n    tag_238:\n        /* \"#utility.yul\":7171:7174   */\n      0x00\n        /* \"#utility.yul\":7199:7238   */\n      tag_337\n        /* \"#utility.yul\":7232:7237   */\n      dup3\n        /* \"#utility.yul\":7199:7238   */\n      tag_218\n      jump\t// in\n    tag_337:\n        /* \"#utility.yul\":7254:7315   */\n      tag_338\n        /* \"#utility.yul\":7308:7314   */\n      dup2\n        /* \"#utility.yul\":7303:7306   */\n      dup6\n        /* \"#utility.yul\":7254:7315   */\n      tag_237\n      jump\t// in\n    tag_338:\n        /* \"#utility.yul\":7247:7315   */\n      swap4\n      pop\n        /* \"#utility.yul\":7324:7376   */\n      tag_339\n        /* \"#utility.yul\":7369:7375   */\n      dup2\n        /* \"#utility.yul\":7364:7367   */\n      dup6\n        /* \"#utility.yul\":7357:7361   */\n      0x20\n        /* \"#utility.yul\":7350:7355   */\n      dup7\n        /* \"#utility.yul\":7346:7362   */\n      add\n        /* \"#utility.yul\":7324:7376   */\n      tag_220\n      jump\t// in\n    tag_339:\n        /* \"#utility.yul\":7401:7430   */\n      tag_340\n        /* \"#utility.yul\":7423:7429   */\n      dup2\n        /* \"#utility.yul\":7401:7430   */\n      tag_221\n      jump\t// in\n    tag_340:\n        /* \"#utility.yul\":7396:7399   */\n      dup5\n        /* \"#utility.yul\":7392:7431   */\n      add\n        /* \"#utility.yul\":7385:7431   */\n      swap2\n      pop\n        /* \"#utility.yul\":7175:7437   */\n      pop\n        /* \"#utility.yul\":7093:7437   */\n      swap3\n      swap2\n      pop\n      pop\n      jump\t// out\n        /* \"#utility.yul\":7509:8118   */\n    tag_239:\n        /* \"#utility.yul\":7622:7625   */\n      0x00\n        /* \"#utility.yul\":7658:7662   */\n      0x40\n        /* \"#utility.yul\":7653:7656   */\n      dup4\n        /* \"#utility.yul\":7649:7663   */\n      add\n        /* \"#utility.yul\":7747:7751   */\n      0x00\n        /* \"#utility.yul\":7740:7745   */\n      dup4\n        /* \"#utility.yul\":7736:7752   */\n      add\n        /* \"#utility.yul\":7730:7753   */\n      mload\n        /* \"#utility.yul\":7766:7829   */\n      tag_342\n        /* \"#utility.yul\":7823:7827   */\n      0x00\n        /* \"#utility.yul\":7818:7821   */\n      dup7\n        /* \"#utility.yul\":7814:7828   */\n      add\n        /* \"#utility.yul\":7800:7812   */\n      dup3\n        /* \"#utility.yul\":7766:7829   */\n      tag_236\n      jump\t// in\n    tag_342:\n        /* \"#utility.yul\":7673:7839   */\n      pop\n        /* \"#utility.yul\":7928:7932   */\n      0x20\n        /* \"#utility.yul\":7921:7926   */\n      dup4\n        /* \"#utility.yul\":7917:7933   */\n      add\n        /* \"#utility.yul\":7911:7934   */\n      mload\n        /* \"#utility.yul\":7981:7984   */\n      dup5\n        /* \"#utility.yul\":7975:7979   */\n      dup3\n        /* \"#utility.yul\":7971:7985   */\n      sub\n        /* \"#utility.yul\":7964:7968   */\n      0x20\n        /* \"#utility.yul\":7959:7962   */\n      dup7\n        /* \"#utility.yul\":7955:7969   */\n      add\n        /* \"#utility.yul\":7948:7986   */\n      mstore\n        /* \"#utility.yul\":8007:8080   */\n      tag_343\n        /* \"#utility.yul\":8075:8079   */\n      dup3\n        /* \"#utility.yul\":8061:8073   */\n      dup3\n        /* \"#utility.yul\":8007:8080   */\n      tag_238\n      jump\t// in\n    tag_343:\n        /* \"#utility.yul\":7999:8080   */\n      swap2\n      pop\n        /* \"#utility.yul\":7849:8091   */\n      pop\n        /* \"#utility.yul\":8108:8112   */\n      dup1\n        /* \"#utility.yul\":8101:8112   */\n      swap2\n      pop\n        /* \"#utility.yul\":7627:8118   */\n      pop\n        /* \"#utility.yul\":7509:8118   */\n      swap3\n      swap2\n      pop\n      pop\n      jump\t// out\n        /* \"#utility.yul\":8124:8388   */\n    tag_240:\n        /* \"#utility.yul\":8247:8257   */\n      0x00\n        /* \"#utility.yul\":8282:8382   */\n      tag_345\n        /* \"#utility.yul\":8378:8381   */\n      dup4\n        /* \"#utility.yul\":8370:8376   */\n      dup4\n        /* \"#utility.yul\":8282:8382   */\n      tag_239\n      jump\t// in\n    tag_345:\n        /* \"#utility.yul\":8268:8382   */\n      swap1\n      pop\n        /* \"#utility.yul\":8124:8388   */\n      swap3\n      swap2\n      pop\n      pop\n      jump\t// out\n        /* \"#utility.yul\":8394:8534   */\n    tag_241:\n        /* \"#utility.yul\":8491:8495   */\n      0x00\n        /* \"#utility.yul\":8523:8527   */\n      0x20\n        /* \"#utility.yul\":8518:8521   */\n      dup3\n        /* \"#utility.yul\":8514:8528   */\n      add\n        /* \"#utility.yul\":8506:8528   */\n      swap1\n      pop\n        /* \"#utility.yul\":8394:8534   */\n      swap2\n      swap1\n      pop\n      jump\t// out\n        /* \"#utility.yul\":8610:9737   */\n    tag_242:\n        /* \"#utility.yul\":8783:8786   */\n      0x00\n        /* \"#utility.yul\":8812:8893   */\n      tag_348\n        /* \"#utility.yul\":8887:8892   */\n      dup3\n        /* \"#utility.yul\":8812:8893   */\n      tag_233\n      jump\t// in\n    tag_348:\n        /* \"#utility.yul\":8909:9022   */\n      tag_349\n        /* \"#utility.yul\":9015:9021   */\n      dup2\n        /* \"#utility.yul\":9010:9013   */\n      dup6\n        /* \"#utility.yul\":8909:9022   */\n      tag_234\n      jump\t// in\n    tag_349:\n        /* \"#utility.yul\":8902:9022   */\n      swap4\n      pop\n        /* \"#utility.yul\":9048:9051   */\n      dup4\n        /* \"#utility.yul\":9093:9097   */\n      0x20\n        /* \"#utility.yul\":9085:9091   */\n      dup3\n        /* \"#utility.yul\":9081:9098   */\n      mul\n        /* \"#utility.yul\":9076:9079   */\n      dup6\n        /* \"#utility.yul\":9072:9099   */\n      add\n        /* \"#utility.yul\":9123:9206   */\n      tag_350\n        /* \"#utility.yul\":9200:9205   */\n      dup6\n        /* \"#utility.yul\":9123:9206   */\n      tag_235\n      jump\t// in\n    tag_350:\n        /* \"#utility.yul\":9229:9236   */\n      dup1\n        /* \"#utility.yul\":9260:9261   */\n      0x00\n        /* \"#utility.yul\":9245:9692   */\n    tag_351:\n        /* \"#utility.yul\":9270:9276   */\n      dup6\n        /* \"#utility.yul\":9267:9268   */\n      dup2\n        /* \"#utility.yul\":9264:9277   */\n      lt\n        /* \"#utility.yul\":9245:9692   */\n      iszero\n      tag_353\n      jumpi\n        /* \"#utility.yul\":9341:9350   */\n      dup5\n        /* \"#utility.yul\":9335:9339   */\n      dup5\n        /* \"#utility.yul\":9331:9351   */\n      sub\n        /* \"#utility.yul\":9326:9329   */\n      dup10\n        /* \"#utility.yul\":9319:9352   */\n      mstore\n        /* \"#utility.yul\":9392:9398   */\n      dup2\n        /* \"#utility.yul\":9386:9399   */\n      mload\n        /* \"#utility.yul\":9420:9538   */\n      tag_354\n        /* \"#utility.yul\":9533:9537   */\n      dup6\n        /* \"#utility.yul\":9518:9531   */\n      dup3\n        /* \"#utility.yul\":9420:9538   */\n      tag_240\n      jump\t// in\n    tag_354:\n        /* \"#utility.yul\":9412:9538   */\n      swap5\n      pop\n        /* \"#utility.yul\":9561:9648   */\n      tag_355\n        /* \"#utility.yul\":9641:9647   */\n      dup4\n        /* \"#utility.yul\":9561:9648   */\n      tag_241\n      jump\t// in\n    tag_355:\n        /* \"#utility.yul\":9551:9648   */\n      swap3\n      pop\n        /* \"#utility.yul\":9677:9681   */\n      0x20\n        /* \"#utility.yul\":9672:9675   */\n      dup11\n        /* \"#utility.yul\":9668:9682   */\n      add\n        /* \"#utility.yul\":9661:9682   */\n      swap10\n      pop\n        /* \"#utility.yul\":9305:9692   */\n      pop\n        /* \"#utility.yul\":9292:9293   */\n      0x01\n        /* \"#utility.yul\":9289:9290   */\n      dup2\n        /* \"#utility.yul\":9285:9294   */\n      add\n        /* \"#utility.yul\":9280:9294   */\n      swap1\n      pop\n        /* \"#utility.yul\":9245:9692   */\n      jump(tag_351)\n    tag_353:\n        /* \"#utility.yul\":9249:9263   */\n      pop\n        /* \"#utility.yul\":9708:9712   */\n      dup3\n        /* \"#utility.yul\":9701:9712   */\n      swap8\n      pop\n        /* \"#utility.yul\":9728:9731   */\n      dup8\n        /* \"#utility.yul\":9721:9731   */\n      swap6\n      pop\n        /* \"#utility.yul\":8788:9737   */\n      pop\n      pop\n      pop\n      pop\n      pop\n        /* \"#utility.yul\":8610:9737   */\n      swap3\n      swap2\n      pop\n      pop\n      jump\t// out\n        /* \"#utility.yul\":9743:10224   */\n    tag_57:\n        /* \"#utility.yul\":9940:9944   */\n      0x00\n        /* \"#utility.yul\":9978:9980   */\n      0x20\n        /* \"#utility.yul\":9967:9976   */\n      dup3\n        /* \"#utility.yul\":9963:9981   */\n      add\n        /* \"#utility.yul\":9955:9981   */\n      swap1\n      pop\n        /* \"#utility.yul\":10027:10036   */\n      dup2\n        /* \"#utility.yul\":10021:10025   */\n      dup2\n        /* \"#utility.yul\":10017:10037   */\n      sub\n        /* \"#utility.yul\":10013:10014   */\n      0x00\n        /* \"#utility.yul\":10002:10011   */\n      dup4\n        /* \"#utility.yul\":9998:10015   */\n      add\n        /* \"#utility.yul\":9991:10038   */\n      mstore\n        /* \"#utility.yul\":10055:10217   */\n      tag_357\n        /* \"#utility.yul\":10212:10216   */\n      dup2\n        /* \"#utility.yul\":10203:10209   */\n      dup5\n        /* \"#utility.yul\":10055:10217   */\n      tag_242\n      jump\t// in\n    tag_357:\n        /* \"#utility.yul\":10047:10217   */\n      swap1\n      pop\n        /* \"#utility.yul\":9743:10224   */\n      swap3\n      swap2\n      pop\n      pop\n      jump\t// out\n        /* \"#utility.yul\":10230:10452   */\n    tag_66:\n        /* \"#utility.yul\":10323:10327   */\n      0x00\n        /* \"#utility.yul\":10361:10363   */\n      0x20\n        /* \"#utility.yul\":10350:10359   */\n      dup3\n        /* \"#utility.yul\":10346:10364   */\n      add\n        /* \"#utility.yul\":10338:10364   */\n      swap1\n      pop\n        /* \"#utility.yul\":10374:10445   */\n      tag_359\n        /* \"#utility.yul\":10442:10443   */\n      0x00\n        /* \"#utility.yul\":10431:10440   */\n      dup4\n        /* \"#utility.yul\":10427:10444   */\n      add\n        /* \"#utility.yul\":10418:10424   */\n      dup5\n        /* \"#utility.yul\":10374:10445   */\n      tag_217\n      jump\t// in\n    tag_359:\n        /* \"#utility.yul\":10230:10452   */\n      swap3\n      swap2\n      pop\n      pop\n      jump\t// out\n        /* \"#utility.yul\":10458:10580   */\n    tag_243:\n        /* \"#utility.yul\":10531:10555   */\n      tag_361\n        /* \"#utility.yul\":10549:10554   */\n      dup2\n        /* \"#utility.yul\":10531:10555   */\n      tag_216\n      jump\t// in\n    tag_361:\n        /* \"#utility.yul\":10524:10529   */\n      dup2\n        /* \"#utility.yul\":10521:10556   */\n      eq\n        /* \"#utility.yul\":10511:10574   */\n      tag_362\n      jumpi\n        /* \"#utility.yul\":10570:10571   */\n      0x00\n        /* \"#utility.yul\":10567:10568   */\n      dup1\n        /* \"#utility.yul\":10560:10572   */\n      revert\n        /* \"#utility.yul\":10511:10574   */\n    tag_362:\n        /* \"#utility.yul\":10458:10580   */\n      pop\n      jump\t// out\n        /* \"#utility.yul\":10586:10725   */\n    tag_244:\n        /* \"#utility.yul\":10632:10637   */\n      0x00\n        /* \"#utility.yul\":10670:10676   */\n      dup2\n        /* \"#utility.yul\":10657:10677   */\n      calldataload\n        /* \"#utility.yul\":10648:10677   */\n      swap1\n      pop\n        /* \"#utility.yul\":10686:10719   */\n      tag_364\n        /* \"#utility.yul\":10713:10718   */\n      dup2\n        /* \"#utility.yul\":10686:10719   */\n      tag_243\n      jump\t// in\n    tag_364:\n        /* \"#utility.yul\":10586:10725   */\n      swap3\n      swap2\n      pop\n      pop\n      jump\t// out\n        /* \"#utility.yul\":10731:12834   */\n    tag_70:\n        /* \"#utility.yul\":10894:10900   */\n      0x00\n        /* \"#utility.yul\":10902:10908   */\n      dup1\n        /* \"#utility.yul\":10910:10916   */\n      0x00\n        /* \"#utility.yul\":10918:10924   */\n      dup1\n        /* \"#utility.yul\":10926:10932   */\n      0x00\n        /* \"#utility.yul\":10934:10940   */\n      dup1\n        /* \"#utility.yul\":10942:10948   */\n      0x00\n        /* \"#utility.yul\":10991:10994   */\n      0xe0\n        /* \"#utility.yul\":10979:10988   */\n      dup9\n        /* \"#utility.yul\":10970:10977   */\n      dup11\n        /* \"#utility.yul\":10966:10989   */\n      sub\n        /* \"#utility.yul\":10962:10995   */\n      slt\n        /* \"#utility.yul\":10959:11079   */\n      iszero\n      tag_366\n      jumpi\n        /* \"#utility.yul\":10998:11077   */\n      tag_367\n      tag_210\n      jump\t// in\n    tag_367:\n        /* \"#utility.yul\":10959:11079   */\n    tag_366:\n        /* \"#utility.yul\":11146:11147   */\n      0x00\n        /* \"#utility.yul\":11135:11144   */\n      dup9\n        /* \"#utility.yul\":11131:11148   */\n      add\n        /* \"#utility.yul\":11118:11149   */\n      calldataload\n        /* \"#utility.yul\":11176:11194   */\n      0xffffffffffffffff\n        /* \"#utility.yul\":11168:11174   */\n      dup2\n        /* \"#utility.yul\":11165:11195   */\n      gt\n        /* \"#utility.yul\":11162:11279   */\n      iszero\n      tag_368\n      jumpi\n        /* \"#utility.yul\":11198:11277   */\n      tag_369\n      tag_211\n      jump\t// in\n    tag_369:\n        /* \"#utility.yul\":11162:11279   */\n    tag_368:\n        /* \"#utility.yul\":11303:11366   */\n      tag_370\n        /* \"#utility.yul\":11358:11365   */\n      dup11\n        /* \"#utility.yul\":11349:11355   */\n      dup3\n        /* \"#utility.yul\":11338:11347   */\n      dup12\n        /* \"#utility.yul\":11334:11356   */\n      add\n        /* \"#utility.yul\":11303:11366   */\n      tag_231\n      jump\t// in\n    tag_370:\n        /* \"#utility.yul\":11293:11366   */\n      swap8\n      pop\n        /* \"#utility.yul\":11089:11376   */\n      pop\n        /* \"#utility.yul\":11443:11445   */\n      0x20\n        /* \"#utility.yul\":11432:11441   */\n      dup9\n        /* \"#utility.yul\":11428:11446   */\n      add\n        /* \"#utility.yul\":11415:11447   */\n      calldataload\n        /* \"#utility.yul\":11474:11492   */\n      0xffffffffffffffff\n        /* \"#utility.yul\":11466:11472   */\n      dup2\n        /* \"#utility.yul\":11463:11493   */\n      gt\n        /* \"#utility.yul\":11460:11577   */\n      iszero\n      tag_371\n      jumpi\n        /* \"#utility.yul\":11496:11575   */\n      tag_372\n      tag_211\n      jump\t// in\n    tag_372:\n        /* \"#utility.yul\":11460:11577   */\n    tag_371:\n        /* \"#utility.yul\":11601:11664   */\n      tag_373\n        /* \"#utility.yul\":11656:11663   */\n      dup11\n        /* \"#utility.yul\":11647:11653   */\n      dup3\n        /* \"#utility.yul\":11636:11645   */\n      dup12\n        /* \"#utility.yul\":11632:11654   */\n      add\n        /* \"#utility.yul\":11601:11664   */\n      tag_231\n      jump\t// in\n    tag_373:\n        /* \"#utility.yul\":11591:11664   */\n      swap7\n      pop\n        /* \"#utility.yul\":11386:11674   */\n      pop\n        /* \"#utility.yul\":11741:11743   */\n      0x40\n        /* \"#utility.yul\":11730:11739   */\n      dup9\n        /* \"#utility.yul\":11726:11744   */\n      add\n        /* \"#utility.yul\":11713:11745   */\n      calldataload\n        /* \"#utility.yul\":11772:11790   */\n      0xffffffffffffffff\n        /* \"#utility.yul\":11764:11770   */\n      dup2\n        /* \"#utility.yul\":11761:11791   */\n      gt\n        /* \"#utility.yul\":11758:11875   */\n      iszero\n      tag_374\n      jumpi\n        /* \"#utility.yul\":11794:11873   */\n      tag_375\n      tag_211\n      jump\t// in\n    tag_375:\n        /* \"#utility.yul\":11758:11875   */\n    tag_374:\n        /* \"#utility.yul\":11899:11962   */\n      tag_376\n        /* \"#utility.yul\":11954:11961   */\n      dup11\n        /* \"#utility.yul\":11945:11951   */\n      dup3\n        /* \"#utility.yul\":11934:11943   */\n      dup12\n        /* \"#utility.yul\":11930:11952   */\n      add\n        /* \"#utility.yul\":11899:11962   */\n      tag_231\n      jump\t// in\n    tag_376:\n        /* \"#utility.yul\":11889:11962   */\n      swap6\n      pop\n        /* \"#utility.yul\":11684:11972   */\n      pop\n        /* \"#utility.yul\":12039:12041   */\n      0x60\n        /* \"#utility.yul\":12028:12037   */\n      dup9\n        /* \"#utility.yul\":12024:12042   */\n      add\n        /* \"#utility.yul\":12011:12043   */\n      calldataload\n        /* \"#utility.yul\":12070:12088   */\n      0xffffffffffffffff\n        /* \"#utility.yul\":12062:12068   */\n      dup2\n        /* \"#utility.yul\":12059:12089   */\n      gt\n        /* \"#utility.yul\":12056:12173   */\n      iszero\n      tag_377\n      jumpi\n        /* \"#utility.yul\":12092:12171   */\n      tag_378\n      tag_211\n      jump\t// in\n    tag_378:\n        /* \"#utility.yul\":12056:12173   */\n    tag_377:\n        /* \"#utility.yul\":12197:12260   */\n      tag_379\n        /* \"#utility.yul\":12252:12259   */\n      dup11\n        /* \"#utility.yul\":12243:12249   */\n      dup3\n        /* \"#utility.yul\":12232:12241   */\n      dup12\n        /* \"#utility.yul\":12228:12250   */\n      add\n        /* \"#utility.yul\":12197:12260   */\n      tag_231\n      jump\t// in\n    tag_379:\n        /* \"#utility.yul\":12187:12260   */\n      swap5\n      pop\n        /* \"#utility.yul\":11982:12270   */\n      pop\n        /* \"#utility.yul\":12337:12340   */\n      0x80\n        /* \"#utility.yul\":12326:12335   */\n      dup9\n        /* \"#utility.yul\":12322:12341   */\n      add\n        /* \"#utility.yul\":12309:12342   */\n      calldataload\n        /* \"#utility.yul\":12369:12387   */\n      0xffffffffffffffff\n        /* \"#utility.yul\":12361:12367   */\n      dup2\n        /* \"#utility.yul\":12358:12388   */\n      gt\n        /* \"#utility.yul\":12355:12472   */\n      iszero\n      tag_380\n      jumpi\n        /* \"#utility.yul\":12391:12470   */\n      tag_381\n      tag_211\n      jump\t// in\n    tag_381:\n        /* \"#utility.yul\":12355:12472   */\n    tag_380:\n        /* \"#utility.yul\":12496:12559   */\n      tag_382\n        /* \"#utility.yul\":12551:12558   */\n      dup11\n        /* \"#utility.yul\":12542:12548   */\n      dup3\n        /* \"#utility.yul\":12531:12540   */\n      dup12\n        /* \"#utility.yul\":12527:12549   */\n      add\n        /* \"#utility.yul\":12496:12559   */\n      tag_231\n      jump\t// in\n    tag_382:\n        /* \"#utility.yul\":12486:12559   */\n      swap4\n      pop\n        /* \"#utility.yul\":12280:12569   */\n      pop\n        /* \"#utility.yul\":12608:12611   */\n      0xa0\n        /* \"#utility.yul\":12635:12688   */\n      tag_383\n        /* \"#utility.yul\":12680:12687   */\n      dup11\n        /* \"#utility.yul\":12671:12677   */\n      dup3\n        /* \"#utility.yul\":12660:12669   */\n      dup12\n        /* \"#utility.yul\":12656:12678   */\n      add\n        /* \"#utility.yul\":12635:12688   */\n      tag_214\n      jump\t// in\n    tag_383:\n        /* \"#utility.yul\":12625:12688   */\n      swap3\n      pop\n        /* \"#utility.yul\":12579:12698   */\n      pop\n        /* \"#utility.yul\":12737:12740   */\n      0xc0\n        /* \"#utility.yul\":12764:12817   */\n      tag_384\n        /* \"#utility.yul\":12809:12816   */\n      dup11\n        /* \"#utility.yul\":12800:12806   */\n      dup3\n        /* \"#utility.yul\":12789:12798   */\n      dup12\n        /* \"#utility.yul\":12785:12807   */\n      add\n        /* \"#utility.yul\":12764:12817   */\n      tag_244\n      jump\t// in\n    tag_384:\n        /* \"#utility.yul\":12754:12817   */\n      swap2\n      pop\n        /* \"#utility.yul\":12708:12827   */\n      pop\n        /* \"#utility.yul\":10731:12834   */\n      swap3\n      swap6\n      swap9\n      swap2\n      swap5\n      swap8\n      pop\n      swap3\n      swap6\n      pop\n      jump\t// out\n        /* \"#utility.yul\":12840:12930   */\n    tag_245:\n        /* \"#utility.yul\":12874:12881   */\n      0x00\n        /* \"#utility.yul\":12917:12922   */\n      dup2\n        /* \"#utility.yul\":12910:12923   */\n      iszero\n        /* \"#utility.yul\":12903:12924   */\n      iszero\n        /* \"#utility.yul\":12892:12924   */\n      swap1\n      pop\n        /* \"#utility.yul\":12840:12930   */\n      swap2\n      swap1\n      pop\n      jump\t// out\n        /* \"#utility.yul\":12936:13045   */\n    tag_246:\n        /* \"#utility.yul\":13017:13038   */\n      tag_387\n        /* \"#utility.yul\":13032:13037   */\n      dup2\n        /* \"#utility.yul\":13017:13038   */\n      tag_245\n      jump\t// in\n    tag_387:\n        /* \"#utility.yul\":13012:13015   */\n      dup3\n        /* \"#utility.yul\":13005:13039   */\n      mstore\n        /* \"#utility.yul\":12936:13045   */\n      pop\n      pop\n      jump\t// out\n        /* \"#utility.yul\":13051:14713   */\n    tag_80:\n        /* \"#utility.yul\":13490:13494   */\n      0x00\n        /* \"#utility.yul\":13528:13531   */\n      0x0140\n        /* \"#utility.yul\":13517:13526   */\n      dup3\n        /* \"#utility.yul\":13513:13532   */\n      add\n        /* \"#utility.yul\":13505:13532   */\n      swap1\n      pop\n        /* \"#utility.yul\":13578:13587   */\n      dup2\n        /* \"#utility.yul\":13572:13576   */\n      dup2\n        /* \"#utility.yul\":13568:13588   */\n      sub\n        /* \"#utility.yul\":13564:13565   */\n      0x00\n        /* \"#utility.yul\":13553:13562   */\n      dup4\n        /* \"#utility.yul\":13549:13566   */\n      add\n        /* \"#utility.yul\":13542:13589   */\n      mstore\n        /* \"#utility.yul\":13606:13684   */\n      tag_389\n        /* \"#utility.yul\":13679:13683   */\n      dup2\n        /* \"#utility.yul\":13670:13676   */\n      dup14\n        /* \"#utility.yul\":13606:13684   */\n      tag_222\n      jump\t// in\n    tag_389:\n        /* \"#utility.yul\":13598:13684   */\n      swap1\n      pop\n        /* \"#utility.yul\":13731:13740   */\n      dup2\n        /* \"#utility.yul\":13725:13729   */\n      dup2\n        /* \"#utility.yul\":13721:13741   */\n      sub\n        /* \"#utility.yul\":13716:13718   */\n      0x20\n        /* \"#utility.yul\":13705:13714   */\n      dup4\n        /* \"#utility.yul\":13701:13719   */\n      add\n        /* \"#utility.yul\":13694:13742   */\n      mstore\n        /* \"#utility.yul\":13759:13837   */\n      tag_390\n        /* \"#utility.yul\":13832:13836   */\n      dup2\n        /* \"#utility.yul\":13823:13829   */\n      dup13\n        /* \"#utility.yul\":13759:13837   */\n      tag_222\n      jump\t// in\n    tag_390:\n        /* \"#utility.yul\":13751:13837   */\n      swap1\n      pop\n        /* \"#utility.yul\":13884:13893   */\n      dup2\n        /* \"#utility.yul\":13878:13882   */\n      dup2\n        /* \"#utility.yul\":13874:13894   */\n      sub\n        /* \"#utility.yul\":13869:13871   */\n      0x40\n        /* \"#utility.yul\":13858:13867   */\n      dup4\n        /* \"#utility.yul\":13854:13872   */\n      add\n        /* \"#utility.yul\":13847:13895   */\n      mstore\n        /* \"#utility.yul\":13912:13990   */\n      tag_391\n        /* \"#utility.yul\":13985:13989   */\n      dup2\n        /* \"#utility.yul\":13976:13982   */\n      dup12\n        /* \"#utility.yul\":13912:13990   */\n      tag_222\n      jump\t// in\n    tag_391:\n        /* \"#utility.yul\":13904:13990   */\n      swap1\n      pop\n        /* \"#utility.yul\":14037:14046   */\n      dup2\n        /* \"#utility.yul\":14031:14035   */\n      dup2\n        /* \"#utility.yul\":14027:14047   */\n      sub\n        /* \"#utility.yul\":14022:14024   */\n      0x60\n        /* \"#utility.yul\":14011:14020   */\n      dup4\n        /* \"#utility.yul\":14007:14025   */\n      add\n        /* \"#utility.yul\":14000:14048   */\n      mstore\n        /* \"#utility.yul\":14065:14143   */\n      tag_392\n        /* \"#utility.yul\":14138:14142   */\n      dup2\n        /* \"#utility.yul\":14129:14135   */\n      dup11\n        /* \"#utility.yul\":14065:14143   */\n      tag_222\n      jump\t// in\n    tag_392:\n        /* \"#utility.yul\":14057:14143   */\n      swap1\n      pop\n        /* \"#utility.yul\":14191:14200   */\n      dup2\n        /* \"#utility.yul\":14185:14189   */\n      dup2\n        /* \"#utility.yul\":14181:14201   */\n      sub\n        /* \"#utility.yul\":14175:14178   */\n      0x80\n        /* \"#utility.yul\":14164:14173   */\n      dup4\n        /* \"#utility.yul\":14160:14179   */\n      add\n        /* \"#utility.yul\":14153:14202   */\n      mstore\n        /* \"#utility.yul\":14219:14297   */\n      tag_393\n        /* \"#utility.yul\":14292:14296   */\n      dup2\n        /* \"#utility.yul\":14283:14289   */\n      dup10\n        /* \"#utility.yul\":14219:14297   */\n      tag_222\n      jump\t// in\n    tag_393:\n        /* \"#utility.yul\":14211:14297   */\n      swap1\n      pop\n        /* \"#utility.yul\":14307:14380   */\n      tag_394\n        /* \"#utility.yul\":14375:14378   */\n      0xa0\n        /* \"#utility.yul\":14364:14373   */\n      dup4\n        /* \"#utility.yul\":14360:14379   */\n      add\n        /* \"#utility.yul\":14351:14357   */\n      dup9\n        /* \"#utility.yul\":14307:14380   */\n      tag_232\n      jump\t// in\n    tag_394:\n        /* \"#utility.yul\":14390:14463   */\n      tag_395\n        /* \"#utility.yul\":14458:14461   */\n      0xc0\n        /* \"#utility.yul\":14447:14456   */\n      dup4\n        /* \"#utility.yul\":14443:14462   */\n      add\n        /* \"#utility.yul\":14434:14440   */\n      dup8\n        /* \"#utility.yul\":14390:14463   */\n      tag_217\n      jump\t// in\n    tag_395:\n        /* \"#utility.yul\":14473:14546   */\n      tag_396\n        /* \"#utility.yul\":14541:14544   */\n      0xe0\n        /* \"#utility.yul\":14530:14539   */\n      dup4\n        /* \"#utility.yul\":14526:14545   */\n      add\n        /* \"#utility.yul\":14517:14523   */\n      dup7\n        /* \"#utility.yul\":14473:14546   */\n      tag_217\n      jump\t// in\n    tag_396:\n        /* \"#utility.yul\":14556:14623   */\n      tag_397\n        /* \"#utility.yul\":14618:14621   */\n      0x0100\n        /* \"#utility.yul\":14607:14616   */\n      dup4\n        /* \"#utility.yul\":14603:14622   */\n      add\n        /* \"#utility.yul\":14594:14600   */\n      dup6\n        /* \"#utility.yul\":14556:14623   */\n      tag_246\n      jump\t// in\n    tag_397:\n        /* \"#utility.yul\":14633:14706   */\n      tag_398\n        /* \"#utility.yul\":14701:14704   */\n      0x0120\n        /* \"#utility.yul\":14690:14699   */\n      dup4\n        /* \"#utility.yul\":14686:14705   */\n      add\n        /* \"#utility.yul\":14677:14683   */\n      dup5\n        /* \"#utility.yul\":14633:14706   */\n      tag_232\n      jump\t// in\n    tag_398:\n        /* \"#utility.yul\":13051:14713   */\n      swap12\n      swap11\n      pop\n      pop\n      pop\n      pop\n      pop\n      pop\n      pop\n      pop\n      pop\n      pop\n      pop\n      jump\t// out\n        /* \"#utility.yul\":14719:14864   */\n    tag_247:\n        /* \"#utility.yul\":14817:14823   */\n      0x00\n        /* \"#utility.yul\":14851:14856   */\n      dup2\n        /* \"#utility.yul\":14845:14857   */\n      mload\n        /* \"#utility.yul\":14835:14857   */\n      swap1\n      pop\n        /* \"#utility.yul\":14719:14864   */\n      swap2\n      swap1\n      pop\n      jump\t// out\n        /* \"#utility.yul\":14870:15085   */\n    tag_248:\n        /* \"#utility.yul\":15000:15011   */\n      0x00\n        /* \"#utility.yul\":15034:15040   */\n      dup3\n        /* \"#utility.yul\":15029:15032   */\n      dup3\n        /* \"#utility.yul\":15022:15041   */\n      mstore\n        /* \"#utility.yul\":15074:15078   */\n      0x20\n        /* \"#utility.yul\":15069:15072   */\n      dup3\n        /* \"#utility.yul\":15065:15079   */\n      add\n        /* \"#utility.yul\":15050:15079   */\n      swap1\n      pop\n        /* \"#utility.yul\":14870:15085   */\n      swap3\n      swap2\n      pop\n      pop\n      jump\t// out\n        /* \"#utility.yul\":15091:15254   */\n    tag_249:\n        /* \"#utility.yul\":15189:15193   */\n      0x00\n        /* \"#utility.yul\":15212:15215   */\n      dup2\n        /* \"#utility.yul\":15204:15215   */\n      swap1\n      pop\n        /* \"#utility.yul\":15242:15246   */\n      0x20\n        /* \"#utility.yul\":15237:15240   */\n      dup3\n        /* \"#utility.yul\":15233:15247   */\n      add\n        /* \"#utility.yul\":15225:15247   */\n      swap1\n      pop\n        /* \"#utility.yul\":15091:15254   */\n      swap2\n      swap1\n      pop\n      jump\t// out\n        /* \"#utility.yul\":15334:15967   */\n    tag_250:\n        /* \"#utility.yul\":15455:15458   */\n      0x00\n        /* \"#utility.yul\":15491:15495   */\n      0x40\n        /* \"#utility.yul\":15486:15489   */\n      dup4\n        /* \"#utility.yul\":15482:15496   */\n      add\n        /* \"#utility.yul\":15589:15593   */\n      0x00\n        /* \"#utility.yul\":15582:15587   */\n      dup4\n        /* \"#utility.yul\":15578:15594   */\n      add\n        /* \"#utility.yul\":15572:15595   */\n      mload\n        /* \"#utility.yul\":15642:15645   */\n      dup5\n        /* \"#utility.yul\":15636:15640   */\n      dup3\n        /* \"#utility.yul\":15632:15646   */\n      sub\n        /* \"#utility.yul\":15625:15629   */\n      0x00\n        /* \"#utility.yul\":15620:15623   */\n      dup7\n        /* \"#utility.yul\":15616:15630   */\n      add\n        /* \"#utility.yul\":15609:15647   */\n      mstore\n        /* \"#utility.yul\":15668:15741   */\n      tag_403\n        /* \"#utility.yul\":15736:15740   */\n      dup3\n        /* \"#utility.yul\":15722:15734   */\n      dup3\n        /* \"#utility.yul\":15668:15741   */\n      tag_238\n      jump\t// in\n    tag_403:\n        /* \"#utility.yul\":15660:15741   */\n      swap2\n      pop\n        /* \"#utility.yul\":15506:15752   */\n      pop\n        /* \"#utility.yul\":15848:15852   */\n      0x20\n        /* \"#utility.yul\":15841:15846   */\n      dup4\n        /* \"#utility.yul\":15837:15853   */\n      add\n        /* \"#utility.yul\":15831:15854   */\n      mload\n        /* \"#utility.yul\":15867:15930   */\n      tag_404\n        /* \"#utility.yul\":15924:15928   */\n      0x20\n        /* \"#utility.yul\":15919:15922   */\n      dup7\n        /* \"#utility.yul\":15915:15929   */\n      add\n        /* \"#utility.yul\":15901:15913   */\n      dup3\n        /* \"#utility.yul\":15867:15930   */\n      tag_236\n      jump\t// in\n    tag_404:\n        /* \"#utility.yul\":15762:15940   */\n      pop\n        /* \"#utility.yul\":15957:15961   */\n      dup1\n        /* \"#utility.yul\":15950:15961   */\n      swap2\n      pop\n        /* \"#utility.yul\":15460:15967   */\n      pop\n        /* \"#utility.yul\":15334:15967   */\n      swap3\n      swap2\n      pop\n      pop\n      jump\t// out\n        /* \"#utility.yul\":15973:16253   */\n    tag_251:\n        /* \"#utility.yul\":16104:16114   */\n      0x00\n        /* \"#utility.yul\":16139:16247   */\n      tag_406\n        /* \"#utility.yul\":16243:16246   */\n      dup4\n        /* \"#utility.yul\":16235:16241   */\n      dup4\n        /* \"#utility.yul\":16139:16247   */\n      tag_250\n      jump\t// in\n    tag_406:\n        /* \"#utility.yul\":16125:16247   */\n      swap1\n      pop\n        /* \"#utility.yul\":15973:16253   */\n      swap3\n      swap2\n      pop\n      pop\n      jump\t// out\n        /* \"#utility.yul\":16259:16403   */\n    tag_252:\n        /* \"#utility.yul\":16360:16364   */\n      0x00\n        /* \"#utility.yul\":16392:16396   */\n      0x20\n        /* \"#utility.yul\":16387:16390   */\n      dup3\n        /* \"#utility.yul\":16383:16397   */\n      add\n        /* \"#utility.yul\":16375:16397   */\n      swap1\n      pop\n        /* \"#utility.yul\":16259:16403   */\n      swap2\n      swap1\n      pop\n      jump\t// out\n        /* \"#utility.yul\":16487:17646   */\n    tag_253:\n        /* \"#utility.yul\":16668:16671   */\n      0x00\n        /* \"#utility.yul\":16697:16782   */\n      tag_409\n        /* \"#utility.yul\":16776:16781   */\n      dup3\n        /* \"#utility.yul\":16697:16782   */\n      tag_247\n      jump\t// in\n    tag_409:\n        /* \"#utility.yul\":16798:16915   */\n      tag_410\n        /* \"#utility.yul\":16908:16914   */\n      dup2\n        /* \"#utility.yul\":16903:16906   */\n      dup6\n        /* \"#utility.yul\":16798:16915   */\n      tag_248\n      jump\t// in\n    tag_410:\n        /* \"#utility.yul\":16791:16915   */\n      swap4\n      pop\n        /* \"#utility.yul\":16941:16944   */\n      dup4\n        /* \"#utility.yul\":16986:16990   */\n      0x20\n        /* \"#utility.yul\":16978:16984   */\n      dup3\n        /* \"#utility.yul\":16974:16991   */\n      mul\n        /* \"#utility.yul\":16969:16972   */\n      dup6\n        /* \"#utility.yul\":16965:16992   */\n      add\n        /* \"#utility.yul\":17016:17103   */\n      tag_411\n        /* \"#utility.yul\":17097:17102   */\n      dup6\n        /* \"#utility.yul\":17016:17103   */\n      tag_249\n      jump\t// in\n    tag_411:\n        /* \"#utility.yul\":17126:17133   */\n      dup1\n        /* \"#utility.yul\":17157:17158   */\n      0x00\n        /* \"#utility.yul\":17142:17601   */\n    tag_412:\n        /* \"#utility.yul\":17167:17173   */\n      dup6\n        /* \"#utility.yul\":17164:17165   */\n      dup2\n        /* \"#utility.yul\":17161:17174   */\n      lt\n        /* \"#utility.yul\":17142:17601   */\n      iszero\n      tag_414\n      jumpi\n        /* \"#utility.yul\":17238:17247   */\n      dup5\n        /* \"#utility.yul\":17232:17236   */\n      dup5\n        /* \"#utility.yul\":17228:17248   */\n      sub\n        /* \"#utility.yul\":17223:17226   */\n      dup10\n        /* \"#utility.yul\":17216:17249   */\n      mstore\n        /* \"#utility.yul\":17289:17295   */\n      dup2\n        /* \"#utility.yul\":17283:17296   */\n      mload\n        /* \"#utility.yul\":17317:17443   */\n      tag_415\n        /* \"#utility.yul\":17438:17442   */\n      dup6\n        /* \"#utility.yul\":17423:17436   */\n      dup3\n        /* \"#utility.yul\":17317:17443   */\n      tag_251\n      jump\t// in\n    tag_415:\n        /* \"#utility.yul\":17309:17443   */\n      swap5\n      pop\n        /* \"#utility.yul\":17466:17557   */\n      tag_416\n        /* \"#utility.yul\":17550:17556   */\n      dup4\n        /* \"#utility.yul\":17466:17557   */\n      tag_252\n      jump\t// in\n    tag_416:\n        /* \"#utility.yul\":17456:17557   */\n      swap3\n      pop\n        /* \"#utility.yul\":17586:17590   */\n      0x20\n        /* \"#utility.yul\":17581:17584   */\n      dup11\n        /* \"#utility.yul\":17577:17591   */\n      add\n        /* \"#utility.yul\":17570:17591   */\n      swap10\n      pop\n        /* \"#utility.yul\":17202:17601   */\n      pop\n        /* \"#utility.yul\":17189:17190   */\n      0x01\n        /* \"#utility.yul\":17186:17187   */\n      dup2\n        /* \"#utility.yul\":17182:17191   */\n      add\n        /* \"#utility.yul\":17177:17191   */\n      swap1\n      pop\n        /* \"#utility.yul\":17142:17601   */\n      jump(tag_412)\n    tag_414:\n        /* \"#utility.yul\":17146:17160   */\n      pop\n        /* \"#utility.yul\":17617:17621   */\n      dup3\n        /* \"#utility.yul\":17610:17621   */\n      swap8\n      pop\n        /* \"#utility.yul\":17637:17640   */\n      dup8\n        /* \"#utility.yul\":17630:17640   */\n      swap6\n      pop\n        /* \"#utility.yul\":16673:17646   */\n      pop\n      pop\n      pop\n      pop\n      pop\n        /* \"#utility.yul\":16487:17646   */\n      swap3\n      swap2\n      pop\n      pop\n      jump\t// out\n        /* \"#utility.yul\":17652:18149   */\n    tag_85:\n        /* \"#utility.yul\":17857:17861   */\n      0x00\n        /* \"#utility.yul\":17895:17897   */\n      0x20\n        /* \"#utility.yul\":17884:17893   */\n      dup3\n        /* \"#utility.yul\":17880:17898   */\n      add\n        /* \"#utility.yul\":17872:17898   */\n      swap1\n      pop\n        /* \"#utility.yul\":17944:17953   */\n      dup2\n        /* \"#utility.yul\":17938:17942   */\n      dup2\n        /* \"#utility.yul\":17934:17954   */\n      sub\n        /* \"#utility.yul\":17930:17931   */\n      0x00\n        /* \"#utility.yul\":17919:17928   */\n      dup4\n        /* \"#utility.yul\":17915:17932   */\n      add\n        /* \"#utility.yul\":17908:17955   */\n      mstore\n        /* \"#utility.yul\":17972:18142   */\n      tag_418\n        /* \"#utility.yul\":18137:18141   */\n      dup2\n        /* \"#utility.yul\":18128:18134   */\n      dup5\n        /* \"#utility.yul\":17972:18142   */\n      tag_253\n      jump\t// in\n    tag_418:\n        /* \"#utility.yul\":17964:18142   */\n      swap1\n      pop\n        /* \"#utility.yul\":17652:18149   */\n      swap3\n      swap2\n      pop\n      pop\n      jump\t// out\n        /* \"#utility.yul\":18155:18335   */\n    tag_254:\n        /* \"#utility.yul\":18203:18280   */\n      0x4e487b7100000000000000000000000000000000000000000000000000000000\n        /* \"#utility.yul\":18200:18201   */\n      0x00\n        /* \"#utility.yul\":18193:18281   */\n      mstore\n        /* \"#utility.yul\":18300:18304   */\n      0x22\n        /* \"#utility.yul\":18297:18298   */\n      0x04\n        /* \"#utility.yul\":18290:18305   */\n      mstore\n        /* \"#utility.yul\":18324:18328   */\n      0x24\n        /* \"#utility.yul\":18321:18322   */\n      0x00\n        /* \"#utility.yul\":18314:18329   */\n      revert\n        /* \"#utility.yul\":18341:18661   */\n    tag_89:\n        /* \"#utility.yul\":18385:18391   */\n      0x00\n        /* \"#utility.yul\":18422:18423   */\n      0x02\n        /* \"#utility.yul\":18416:18420   */\n      dup3\n        /* \"#utility.yul\":18412:18424   */\n      div\n        /* \"#utility.yul\":18402:18424   */\n      swap1\n      pop\n        /* \"#utility.yul\":18469:18470   */\n      0x01\n        /* \"#utility.yul\":18463:18467   */\n      dup3\n        /* \"#utility.yul\":18459:18471   */\n      and\n        /* \"#utility.yul\":18490:18508   */\n      dup1\n        /* \"#utility.yul\":18480:18561   */\n      tag_421\n      jumpi\n        /* \"#utility.yul\":18546:18550   */\n      0x7f\n        /* \"#utility.yul\":18538:18544   */\n      dup3\n        /* \"#utility.yul\":18534:18551   */\n      and\n        /* \"#utility.yul\":18524:18551   */\n      swap2\n      pop\n        /* \"#utility.yul\":18480:18561   */\n    tag_421:\n        /* \"#utility.yul\":18608:18610   */\n      0x20\n        /* \"#utility.yul\":18600:18606   */\n      dup3\n        /* \"#utility.yul\":18597:18611   */\n      lt\n        /* \"#utility.yul\":18577:18595   */\n      dup2\n        /* \"#utility.yul\":18574:18612   */\n      eq\n        /* \"#utility.yul\":18571:18655   */\n      iszero\n      tag_422\n      jumpi\n        /* \"#utility.yul\":18627:18645   */\n      tag_423\n      tag_254\n      jump\t// in\n    tag_423:\n        /* \"#utility.yul\":18571:18655   */\n    tag_422:\n        /* \"#utility.yul\":18392:18661   */\n      pop\n        /* \"#utility.yul\":18341:18661   */\n      swap2\n      swap1\n      pop\n      jump\t// out\n        /* \"#utility.yul\":18667:18847   */\n    tag_98:\n        /* \"#utility.yul\":18715:18792   */\n      0x4e487b7100000000000000000000000000000000000000000000000000000000\n        /* \"#utility.yul\":18712:18713   */\n      0x00\n        /* \"#utility.yul\":18705:18793   */\n      mstore\n        /* \"#utility.yul\":18812:18816   */\n      0x32\n        /* \"#utility.yul\":18809:18810   */\n      0x04\n        /* \"#utility.yul\":18802:18817   */\n      mstore\n        /* \"#utility.yul\":18836:18840   */\n      0x24\n        /* \"#utility.yul\":18833:18834   */\n      0x00\n        /* \"#utility.yul\":18826:18841   */\n      revert\n        /* \"#utility.yul\":18853:19033   */\n    tag_255:\n        /* \"#utility.yul\":18901:18978   */\n      0x4e487b7100000000000000000000000000000000000000000000000000000000\n        /* \"#utility.yul\":18898:18899   */\n      0x00\n        /* \"#utility.yul\":18891:18979   */\n      mstore\n        /* \"#utility.yul\":18998:19002   */\n      0x11\n        /* \"#utility.yul\":18995:18996   */\n      0x04\n        /* \"#utility.yul\":18988:19003   */\n      mstore\n        /* \"#utility.yul\":19022:19026   */\n      0x24\n        /* \"#utility.yul\":19019:19020   */\n      0x00\n        /* \"#utility.yul\":19012:19027   */\n      revert\n        /* \"#utility.yul\":19039:19272   */\n    tag_119:\n        /* \"#utility.yul\":19078:19081   */\n      0x00\n        /* \"#utility.yul\":19101:19125   */\n      tag_427\n        /* \"#utility.yul\":19119:19124   */\n      dup3\n        /* \"#utility.yul\":19101:19125   */\n      tag_212\n      jump\t// in\n    tag_427:\n        /* \"#utility.yul\":19092:19125   */\n      swap2\n      pop\n        /* \"#utility.yul\":19147:19213   */\n      0xffffffffffffffffffffffffffffffffffffffffffffffffffffffffffffffff\n        /* \"#utility.yul\":19140:19145   */\n      dup3\n        /* \"#utility.yul\":19137:19214   */\n      eq\n        /* \"#utility.yul\":19134:19237   */\n      iszero\n      tag_428\n      jumpi\n        /* \"#utility.yul\":19217:19235   */\n      tag_429\n      tag_255\n      jump\t// in\n    tag_429:\n        /* \"#utility.yul\":19134:19237   */\n    tag_428:\n        /* \"#utility.yul\":19264:19265   */\n      0x01\n        /* \"#utility.yul\":19257:19262   */\n      dup3\n        /* \"#utility.yul\":19253:19266   */\n      add\n        /* \"#utility.yul\":19246:19266   */\n      swap1\n      pop\n        /* \"#utility.yul\":19039:19272   */\n      swap2\n      swap1\n      pop\n      jump\t// out\n        /* \"#utility.yul\":19278:19458   */\n    tag_256:\n        /* \"#utility.yul\":19326:19403   */\n      0x4e487b7100000000000000000000000000000000000000000000000000000000\n        /* \"#utility.yul\":19323:19324   */\n      0x00\n        /* \"#utility.yul\":19316:19404   */\n      mstore\n        /* \"#utility.yul\":19423:19427   */\n      0x12\n        /* \"#utility.yul\":19420:19421   */\n      0x04\n        /* \"#utility.yul\":19413:19428   */\n      mstore\n        /* \"#utility.yul\":19447:19451   */\n      0x24\n        /* \"#utility.yul\":19444:19445   */\n      0x00\n        /* \"#utility.yul\":19437:19452   */\n      revert\n        /* \"#utility.yul\":19464:19649   */\n    tag_158:\n        /* \"#utility.yul\":19504:19505   */\n      0x00\n        /* \"#utility.yul\":19521:19541   */\n      tag_432\n        /* \"#utility.yul\":19539:19540   */\n      dup3\n        /* \"#utility.yul\":19521:19541   */\n      tag_212\n      jump\t// in\n    tag_432:\n        /* \"#utility.yul\":19516:19541   */\n      swap2\n      pop\n        /* \"#utility.yul\":19555:19575   */\n      tag_433\n        /* \"#utility.yul\":19573:19574   */\n      dup4\n        /* \"#utility.yul\":19555:19575   */\n      tag_212\n      jump\t// in\n    tag_433:\n        /* \"#utility.yul\":19550:19575   */\n      swap3\n      pop\n        /* \"#utility.yul\":19594:19595   */\n      dup3\n        /* \"#utility.yul\":19584:19619   */\n      tag_434\n      jumpi\n        /* \"#utility.yul\":19599:19617   */\n      tag_435\n      tag_256\n      jump\t// in\n    tag_435:\n        /* \"#utility.yul\":19584:19619   */\n    tag_434:\n        /* \"#utility.yul\":19641:19642   */\n      dup3\n        /* \"#utility.yul\":19638:19639   */\n      dup3\n        /* \"#utility.yul\":19634:19643   */\n      div\n        /* \"#utility.yul\":19629:19643   */\n      swap1\n      pop\n        /* \"#utility.yul\":19464:19649   */\n      swap3\n      swap2\n      pop\n      pop\n      jump\t// out\n\n    auxdata: 0xa2646970667358221220fcda0616b5987296187e89a07099960f2f7c9d4f99bee15168ca245ae41b5f5964736f6c63430008090033\n}\n","bytecode":{"linkReferences":{},"object":"60806040523480156200001157600080fd5b50336000806101000a81548173ffffffffffffffffffffffffffffffffffffffff021916908373ffffffffffffffffffffffffffffffffffffffff16021790555060018060003373ffffffffffffffffffffffffffffffffffffffff1673ffffffffffffffffffffffffffffffffffffffff16815260200190815260200160002060006101000a81548160ff02191690831515021790555060026000815480929190620000be9062000102565b919050555062000150565b7f4e487b7100000000000000000000000000000000000000000000000000000000600052601160045260246000fd5b6000819050919050565b60006200010f82620000f8565b91507fffffffffffffffffffffffffffffffffffffffffffffffffffffffffffffffff821415620001455762000144620000c9565b5b600182019050919050565b611dea80620001606000396000f3fe6080604052600436106100dd5760003560e01c80635ff6cbf31161007f5780639efb693b116100595780639efb693b146102a3578063a5f7542a146102cc578063a888c2cd146102e8578063af157c191461032e576100dd565b80635ff6cbf31461022257806378880f4a1461024d5780638da5cb5b14610278576100dd565b80633d0c46d0116100bb5780633d0c46d0146101875780633ef8f2ba146101b257806346e30135146101dd5780635c43217b14610206576100dd565b80630d80fefd146100e257806314d5b247146101205780633cb5d10014610149575b600080fd5b3480156100ee57600080fd5b5061010960048036038101906101049190611453565b610359565b60405161011792919061155a565b60405180910390f35b34801561012c57600080fd5b50610147600480360381019061014291906116bf565b610435565b005b34801561015557600080fd5b50610170600480360381019061016b9190611453565b6104e4565b60405161017e929190611708565b60405180910390f35b34801561019357600080fd5b5061019c6105c0565b6040516101a99190611747565b60405180910390f35b3480156101be57600080fd5b506101c76105cd565b6040516101d49190611747565b60405180910390f35b3480156101e957600080fd5b5061020460048036038101906101ff9190611453565b6105da565b005b610220600480360381019061021b91906116bf565b6107ef565b005b34801561022e57600080fd5b50610237610983565b60405161024491906118ba565b60405180910390f35b34801561025957600080fd5b50610262610aca565b60405161026f9190611747565b60405180910390f35b34801561028457600080fd5b5061028d610ad0565b60405161029a91906118dc565b60405180910390f35b3480156102af57600080fd5b506102ca60048036038101906102c59190611923565b610af4565b005b6102e660048036038101906102e19190611453565b610d7a565b005b3480156102f457600080fd5b5061030f600480360381019061030a9190611453565b610ec6565b6040516103259a99989796959493929190611a6c565b60405180910390f35b34801561033a57600080fd5b5061034361121f565b6040516103509190611c2a565b60405180910390f35b6005818154811061036957600080fd5b90600052602060002090600202016000915090508060000160009054906101000a900473ffffffffffffffffffffffffffffffffffffffff16908060010180546103b290611c7b565b80601f01602080910402602001604051908101604052809291908181526020018280546103de90611c7b565b801561042b5780601f106104005761010080835404028352916020019161042b565b820191906000526020600020905b81548152906001019060200180831161040e57829003601f168201915b5050505050905082565b6000600580549050905060056001816001815401808255809150500390600052602060002090505060006005828154811061047357610472611cad565b5b90600052602060002090600202019050338160000160006101000a81548173ffffffffffffffffffffffffffffffffffffffff021916908373ffffffffffffffffffffffffffffffffffffffff160217905550828160010190805190602001906104de929190611366565b50505050565b600381815481106104f457600080fd5b906000526020600020906002020160009150905080600001805461051790611c7b565b80601f016020809104026020016040519081016040528092919081815260200182805461054390611c7b565b80156105905780601f1061056557610100808354040283529160200191610590565b820191906000526020600020905b81548152906001019060200180831161057357829003601f168201915b5050505050908060010160009054906101000a900473ffffffffffffffffffffffffffffffffffffffff16905082565b6000600580549050905090565b6000600480549050905090565b6000600482815481106105f0576105ef611cad565b5b90600052602060002090600a020190508060080160003373ffffffffffffffffffffffffffffffffffffffff1673ffffffffffffffffffffffffffffffffffffffff16815260200190815260200160002060009054906101000a900460ff161561065957600080fd5b3373ffffffffffffffffffffffffffffffffffffffff168160060160009054906101000a900473ffffffffffffffffffffffffffffffffffffffff1673ffffffffffffffffffffffffffffffffffffffff1614156106b657600080fd5b60018160080160003373ffffffffffffffffffffffffffffffffffffffff1673ffffffffffffffffffffffffffffffffffffffff16815260200190815260200160002060006101000a81548160ff02191690831515021790555080600901600081548092919061072590611d0b565b919050555050600160003373ffffffffffffffffffffffffffffffffffffffff1673ffffffffffffffffffffffffffffffffffffffff16815260200190815260200160002060009054906101000a900460ff166107ec5760018060003373ffffffffffffffffffffffffffffffffffffffff1673ffffffffffffffffffffffffffffffffffffffff16815260200190815260200160002060006101000a81548160ff021916908315150217905550600260008154809291906107e690611d0b565b91905055505b50565b60643410156107fd57600080fd5b600060405180604001604052808381526020013373ffffffffffffffffffffffffffffffffffffffff16815250905060038190806001815401808255809150506001900390600052602060002090600202016000909190919091506000820151816000019080519060200190610874929190611366565b5060208201518160010160006101000a81548173ffffffffffffffffffffffffffffffffffffffff021916908373ffffffffffffffffffffffffffffffffffffffff160217905550505050600160003373ffffffffffffffffffffffffffffffffffffffff1673ffffffffffffffffffffffffffffffffffffffff16815260200190815260200160002060009054906101000a900460ff166109805760018060003373ffffffffffffffffffffffffffffffffffffffff1673ffffffffffffffffffffffffffffffffffffffff16815260200190815260200160002060006101000a81548160ff0219169083151502179055506002600081548092919061097a90611d0b565b91905055505b50565b60606005805480602002602001604051908101604052809291908181526020016000905b82821015610ac157838290600052602060002090600202016040518060400160405290816000820160009054906101000a900473ffffffffffffffffffffffffffffffffffffffff1673ffffffffffffffffffffffffffffffffffffffff1673ffffffffffffffffffffffffffffffffffffffff168152602001600182018054610a3090611c7b565b80601f0160208091040260200160405190810160405280929190818152602001828054610a5c90611c7b565b8015610aa95780601f10610a7e57610100808354040283529160200191610aa9565b820191906000526020600020905b815481529060010190602001808311610a8c57829003601f168201915b505050505081525050815260200190600101906109a7565b50505050905090565b60025481565b60008054906101000a900473ffffffffffffffffffffffffffffffffffffffff1681565b8073ffffffffffffffffffffffffffffffffffffffff163373ffffffffffffffffffffffffffffffffffffffff161415610b2d57600080fd5b60006004805490509050600460018160018154018082558091505003906000526020600020905050600060048281548110610b6b57610b6a611cad565b5b90600052602060002090600a0201905088816000019080519060200190610b93929190611366565b5087816001019080519060200190610bac929190611366565b5086816002019080519060200190610bc5929190611366565b5085816004019080519060200190610bde929190611366565b5084816003019080519060200190610bf7929190611366565b50838160050181905550338160060160006101000a81548173ffffffffffffffffffffffffffffffffffffffff021916908373ffffffffffffffffffffffffffffffffffffffff160217905550828160070160006101000a81548173ffffffffffffffffffffffffffffffffffffffff021916908373ffffffffffffffffffffffffffffffffffffffff16021790555060008160070160146101000a81548160ff021916908315150217905550600081600901819055505050600160003373ffffffffffffffffffffffffffffffffffffffff1673ffffffffffffffffffffffffffffffffffffffff16815260200190815260200160002060009054906101000a900460ff16610d715760018060003373ffffffffffffffffffffffffffffffffffffffff1673ffffffffffffffffffffffffffffffffffffffff16815260200190815260200160002060006101000a81548160ff02191690831515021790555060026000815480929190610d6b90611d0b565b91905055505b50505050505050565b600060048281548110610d9057610d8f611cad565b5b90600052602060002090600a020190508060060160009054906101000a900473ffffffffffffffffffffffffffffffffffffffff1673ffffffffffffffffffffffffffffffffffffffff163373ffffffffffffffffffffffffffffffffffffffff1614610dfc57600080fd5b60028054610e0a9190611d83565b81600901541015610e1a57600080fd5b8060070160149054906101000a900460ff1615610e3657600080fd5b60018160070160146101000a81548160ff0219169083151502179055508060070160009054906101000a900473ffffffffffffffffffffffffffffffffffffffff1673ffffffffffffffffffffffffffffffffffffffff166108fc82600501549081150290604051600060405180830381858888f19350505050158015610ec1573d6000803e3d6000fd5b505050565b60048181548110610ed657600080fd5b90600052602060002090600a0201600091509050806000018054610ef990611c7b565b80601f0160208091040260200160405190810160405280929190818152602001828054610f2590611c7b565b8015610f725780601f10610f4757610100808354040283529160200191610f72565b820191906000526020600020905b815481529060010190602001808311610f5557829003601f168201915b505050505090806001018054610f8790611c7b565b80601f0160208091040260200160405190810160405280929190818152602001828054610fb390611c7b565b80156110005780601f10610fd557610100808354040283529160200191611000565b820191906000526020600020905b815481529060010190602001808311610fe357829003601f168201915b50505050509080600201805461101590611c7b565b80601f016020809104026020016040519081016040528092919081815260200182805461104190611c7b565b801561108e5780601f106110635761010080835404028352916020019161108e565b820191906000526020600020905b81548152906001019060200180831161107157829003601f168201915b5050505050908060030180546110a390611c7b565b80601f01602080910402602001604051908101604052809291908181526020018280546110cf90611c7b565b801561111c5780601f106110f15761010080835404028352916020019161111c565b820191906000526020600020905b8154815290600101906020018083116110ff57829003601f168201915b50505050509080600401805461113190611c7b565b80601f016020809104026020016040519081016040528092919081815260200182805461115d90611c7b565b80156111aa5780601f1061117f576101008083540402835291602001916111aa565b820191906000526020600020905b81548152906001019060200180831161118d57829003601f168201915b5050505050908060050154908060060160009054906101000a900473ffffffffffffffffffffffffffffffffffffffff16908060070160009054906101000a900473ffffffffffffffffffffffffffffffffffffffff16908060070160149054906101000a900460ff1690806009015490508a565b60606003805480602002602001604051908101604052809291908181526020016000905b8282101561135d578382906000526020600020906002020160405180604001604052908160008201805461127690611c7b565b80601f01602080910402602001604051908101604052809291908181526020018280546112a290611c7b565b80156112ef5780601f106112c4576101008083540402835291602001916112ef565b820191906000526020600020905b8154815290600101906020018083116112d257829003601f168201915b505050505081526020016001820160009054906101000a900473ffffffffffffffffffffffffffffffffffffffff1673ffffffffffffffffffffffffffffffffffffffff1673ffffffffffffffffffffffffffffffffffffffff168152505081526020019060010190611243565b50505050905090565b82805461137290611c7b565b90600052602060002090601f01602090048101928261139457600085556113db565b82601f106113ad57805160ff19168380011785556113db565b828001600101855582156113db579182015b828111156113da5782518255916020019190600101906113bf565b5b5090506113e891906113ec565b5090565b5b808211156114055760008160009055506001016113ed565b5090565b6000604051905090565b600080fd5b600080fd5b6000819050919050565b6114308161141d565b811461143b57600080fd5b50565b60008135905061144d81611427565b92915050565b60006020828403121561146957611468611413565b5b60006114778482850161143e565b91505092915050565b600073ffffffffffffffffffffffffffffffffffffffff82169050919050565b60006114ab82611480565b9050919050565b6114bb816114a0565b82525050565b600081519050919050565b600082825260208201905092915050565b60005b838110156114fb5780820151818401526020810190506114e0565b8381111561150a576000848401525b50505050565b6000601f19601f8301169050919050565b600061152c826114c1565b61153681856114cc565b93506115468185602086016114dd565b61154f81611510565b840191505092915050565b600060408201905061156f60008301856114b2565b81810360208301526115818184611521565b90509392505050565b600080fd5b600080fd5b7f4e487b7100000000000000000000000000000000000000000000000000000000600052604160045260246000fd5b6115cc82611510565b810181811067ffffffffffffffff821117156115eb576115ea611594565b5b80604052505050565b60006115fe611409565b905061160a82826115c3565b919050565b600067ffffffffffffffff82111561162a57611629611594565b5b61163382611510565b9050602081019050919050565b82818337600083830152505050565b600061166261165d8461160f565b6115f4565b90508281526020810184848401111561167e5761167d61158f565b5b611689848285611640565b509392505050565b600082601f8301126116a6576116a561158a565b5b81356116b684826020860161164f565b91505092915050565b6000602082840312156116d5576116d4611413565b5b600082013567ffffffffffffffff8111156116f3576116f2611418565b5b6116ff84828501611691565b91505092915050565b600060408201905081810360008301526117228185611521565b905061173160208301846114b2565b9392505050565b6117418161141d565b82525050565b600060208201905061175c6000830184611738565b92915050565b600081519050919050565b600082825260208201905092915050565b6000819050602082019050919050565b611797816114a0565b82525050565b600082825260208201905092915050565b60006117b9826114c1565b6117c3818561179d565b93506117d38185602086016114dd565b6117dc81611510565b840191505092915050565b60006040830160008301516117ff600086018261178e565b506020830151848203602086015261181782826117ae565b9150508091505092915050565b600061183083836117e7565b905092915050565b6000602082019050919050565b600061185082611762565b61185a818561176d565b93508360208202850161186c8561177e565b8060005b858110156118a857848403895281516118898582611824565b945061189483611838565b925060208a01995050600181019050611870565b50829750879550505050505092915050565b600060208201905081810360008301526118d48184611845565b905092915050565b60006020820190506118f160008301846114b2565b92915050565b611900816114a0565b811461190b57600080fd5b50565b60008135905061191d816118f7565b92915050565b600080600080600080600060e0888a03121561194257611941611413565b5b600088013567ffffffffffffffff8111156119605761195f611418565b5b61196c8a828b01611691565b975050602088013567ffffffffffffffff81111561198d5761198c611418565b5b6119998a828b01611691565b965050604088013567ffffffffffffffff8111156119ba576119b9611418565b5b6119c68a828b01611691565b955050606088013567ffffffffffffffff8111156119e7576119e6611418565b5b6119f38a828b01611691565b945050608088013567ffffffffffffffff811115611a1457611a13611418565b5b611a208a828b01611691565b93505060a0611a318a828b0161143e565b92505060c0611a428a828b0161190e565b91505092959891949750929550565b60008115159050919050565b611a6681611a51565b82525050565b6000610140820190508181036000830152611a87818d611521565b90508181036020830152611a9b818c611521565b90508181036040830152611aaf818b611521565b90508181036060830152611ac3818a611521565b90508181036080830152611ad78189611521565b9050611ae660a0830188611738565b611af360c08301876114b2565b611b0060e08301866114b2565b611b0e610100830185611a5d565b611b1c610120830184611738565b9b9a5050505050505050505050565b600081519050919050565b600082825260208201905092915050565b6000819050602082019050919050565b60006040830160008301518482036000860152611b7482826117ae565b9150506020830151611b89602086018261178e565b508091505092915050565b6000611ba08383611b57565b905092915050565b6000602082019050919050565b6000611bc082611b2b565b611bca8185611b36565b935083602082028501611bdc85611b47565b8060005b85811015611c185784840389528151611bf98582611b94565b9450611c0483611ba8565b925060208a01995050600181019050611be0565b50829750879550505050505092915050565b60006020820190508181036000830152611c448184611bb5565b905092915050565b7f4e487b7100000000000000000000000000000000000000000000000000000000600052602260045260246000fd5b60006002820490506001821680611c9357607f821691505b60208210811415611ca757611ca6611c4c565b5b50919050565b7f4e487b7100000000000000000000000000000000000000000000000000000000600052603260045260246000fd5b7f4e487b7100000000000000000000000000000000000000000000000000000000600052601160045260246000fd5b6000611d168261141d565b91507fffffffffffffffffffffffffffffffffffffffffffffffffffffffffffffffff821415611d4957611d48611cdc565b5b600182019050919050565b7f4e487b7100000000000000000000000000000000000000000000000000000000600052601260045260246000fd5b6000611d8e8261141d565b9150611d998361141d565b925082611da957611da8611d54565b5b82820490509291505056fea2646970667358221220fcda0616b5987296187e89a07099960f2f7c9d4f99bee15168ca245ae41b5f5964736f6c63430008090033","opcodes":"PUSH1 0x80 PUSH1 0x40 MSTORE CALLVALUE DUP1 ISZERO PUSH3 0x11 JUMPI PUSH1 0x0 DUP1 REVERT JUMPDEST POP CALLER PUSH1 0x0 DUP1 PUSH2 0x100 EXP DUP2 SLOAD DUP2 PUSH20 0xFFFFFFFFFFFFFFFFFFFFFFFFFFFFFFFFFFFFFFFF MUL NOT AND SWAP1 DUP4 PUSH20 0xFFFFFFFFFFFFFFFFFFFFFFFFFFFFFFFFFFFFFFFF AND MUL OR SWAP1 SSTORE POP PUSH1 0x1 DUP1 PUSH1 0x0 CALLER PUSH20 0xFFFFFFFFFFFFFFFFFFFFFFFFFFFFFFFFFFFFFFFF AND PUSH20 0xFFFFFFFFFFFFFFFFFFFFFFFFFFFFFFFFFFFFFFFF AND DUP2 MSTORE PUSH1 0x20 ADD SWAP1 DUP2 MSTORE PUSH1 0x20 ADD PUSH1 0x0 KECCAK256 PUSH1 0x0 PUSH2 0x100 EXP DUP2 SLOAD DUP2 PUSH1 0xFF MUL NOT AND SWAP1 DUP4 ISZERO ISZERO MUL OR SWAP1 SSTORE POP PUSH1 0x2 PUSH1 0x0 DUP2 SLOAD DUP1 SWAP3 SWAP2 SWAP1 PUSH3 0xBE SWAP1 PUSH3 0x102 JUMP JUMPDEST SWAP2 SWAP1 POP SSTORE POP PUSH3 0x150 JUMP JUMPDEST PUSH32 0x4E487B7100000000000000000000000000000000000000000000000000000000 PUSH1 0x0 MSTORE PUSH1 0x11 PUSH1 0x4 MSTORE PUSH1 0x24 PUSH1 0x0 REVERT JUMPDEST PUSH1 0x0 DUP2 SWAP1 POP SWAP2 SWAP1 POP JUMP JUMPDEST PUSH1 0x0 PUSH3 0x10F DUP3 PUSH3 0xF8 JUMP JUMPDEST SWAP2 POP PUSH32 0xFFFFFFFFFFFFFFFFFFFFFFFFFFFFFFFFFFFFFFFFFFFFFFFFFFFFFFFFFFFFFFFF DUP3 EQ ISZERO PUSH3 0x145 JUMPI PUSH3 0x144 PUSH3 0xC9 JUMP JUMPDEST JUMPDEST PUSH1 0x1 DUP3 ADD SWAP1 POP SWAP2 SWAP1 POP JUMP JUMPDEST PUSH2 0x1DEA DUP1 PUSH3 0x160 PUSH1 0x0 CODECOPY PUSH1 0x0 RETURN INVALID PUSH1 0x80 PUSH1 0x40 MSTORE PUSH1 0x4 CALLDATASIZE LT PUSH2 0xDD JUMPI PUSH1 0x0 CALLDATALOAD PUSH1 0xE0 SHR DUP1 PUSH4 0x5FF6CBF3 GT PUSH2 0x7F JUMPI DUP1 PUSH4 0x9EFB693B GT PUSH2 0x59 JUMPI DUP1 PUSH4 0x9EFB693B EQ PUSH2 0x2A3 JUMPI DUP1 PUSH4 0xA5F7542A EQ PUSH2 0x2CC JUMPI DUP1 PUSH4 0xA888C2CD EQ PUSH2 0x2E8 JUMPI DUP1 PUSH4 0xAF157C19 EQ PUSH2 0x32E JUMPI PUSH2 0xDD JUMP JUMPDEST DUP1 PUSH4 0x5FF6CBF3 EQ PUSH2 0x222 JUMPI DUP1 PUSH4 0x78880F4A EQ PUSH2 0x24D JUMPI DUP1 PUSH4 0x8DA5CB5B EQ PUSH2 0x278 JUMPI PUSH2 0xDD JUMP JUMPDEST DUP1 PUSH4 0x3D0C46D0 GT PUSH2 0xBB JUMPI DUP1 PUSH4 0x3D0C46D0 EQ PUSH2 0x187 JUMPI DUP1 PUSH4 0x3EF8F2BA EQ PUSH2 0x1B2 JUMPI DUP1 PUSH4 0x46E30135 EQ PUSH2 0x1DD JUMPI DUP1 PUSH4 0x5C43217B EQ PUSH2 0x206 JUMPI PUSH2 0xDD JUMP JUMPDEST DUP1 PUSH4 0xD80FEFD EQ PUSH2 0xE2 JUMPI DUP1 PUSH4 0x14D5B247 EQ PUSH2 0x120 JUMPI DUP1 PUSH4 0x3CB5D100 EQ PUSH2 0x149 JUMPI JUMPDEST PUSH1 0x0 DUP1 REVERT JUMPDEST CALLVALUE DUP1 ISZERO PUSH2 0xEE JUMPI PUSH1 0x0 DUP1 REVERT JUMPDEST POP PUSH2 0x109 PUSH1 0x4 DUP1 CALLDATASIZE SUB DUP2 ADD SWAP1 PUSH2 0x104 SWAP2 SWAP1 PUSH2 0x1453 JUMP JUMPDEST PUSH2 0x359 JUMP JUMPDEST PUSH1 0x40 MLOAD PUSH2 0x117 SWAP3 SWAP2 SWAP1 PUSH2 0x155A JUMP JUMPDEST PUSH1 0x40 MLOAD DUP1 SWAP2 SUB SWAP1 RETURN JUMPDEST CALLVALUE DUP1 ISZERO PUSH2 0x12C JUMPI PUSH1 0x0 DUP1 REVERT JUMPDEST POP PUSH2 0x147 PUSH1 0x4 DUP1 CALLDATASIZE SUB DUP2 ADD SWAP1 PUSH2 0x142 SWAP2 SWAP1 PUSH2 0x16BF JUMP JUMPDEST PUSH2 0x435 JUMP JUMPDEST STOP JUMPDEST CALLVALUE DUP1 ISZERO PUSH2 0x155 JUMPI PUSH1 0x0 DUP1 REVERT JUMPDEST POP PUSH2 0x170 PUSH1 0x4 DUP1 CALLDATASIZE SUB DUP2 ADD SWAP1 PUSH2 0x16B SWAP2 SWAP1 PUSH2 0x1453 JUMP JUMPDEST PUSH2 0x4E4 JUMP JUMPDEST PUSH1 0x40 MLOAD PUSH2 0x17E SWAP3 SWAP2 SWAP1 PUSH2 0x1708 JUMP JUMPDEST PUSH1 0x40 MLOAD DUP1 SWAP2 SUB SWAP1 RETURN JUMPDEST CALLVALUE DUP1 ISZERO PUSH2 0x193 JUMPI PUSH1 0x0 DUP1 REVERT JUMPDEST POP PUSH2 0x19C PUSH2 0x5C0 JUMP JUMPDEST PUSH1 0x40 MLOAD PUSH2 0x1A9 SWAP2 SWAP1 PUSH2 0x1747 JUMP JUMPDEST PUSH1 0x40 MLOAD DUP1 SWAP2 SUB SWAP1 RETURN JUMPDEST CALLVALUE DUP1 ISZERO PUSH2 0x1BE JUMPI PUSH1 0x0 DUP1 REVERT JUMPDEST POP PUSH2 0x1C7 PUSH2 0x5CD JUMP JUMPDEST PUSH1 0x40 MLOAD PUSH2 0x1D4 SWAP2 SWAP1 PUSH2 0x1747 JUMP JUMPDEST PUSH1 0x40 MLOAD DUP1 SWAP2 SUB SWAP1 RETURN JUMPDEST CALLVALUE DUP1 ISZERO PUSH2 0x1E9 JUMPI PUSH1 0x0 DUP1 REVERT JUMPDEST POP PUSH2 0x204 PUSH1 0x4 DUP1 CALLDATASIZE SUB DUP2 ADD SWAP1 PUSH2 0x1FF SWAP2 SWAP1 PUSH2 0x1453 JUMP JUMPDEST PUSH2 0x5DA JUMP JUMPDEST STOP JUMPDEST PUSH2 0x220 PUSH1 0x4 DUP1 CALLDATASIZE SUB DUP2 ADD SWAP1 PUSH2 0x21B SWAP2 SWAP1 PUSH2 0x16BF JUMP JUMPDEST PUSH2 0x7EF JUMP JUMPDEST STOP JUMPDEST CALLVALUE DUP1 ISZERO PUSH2 0x22E JUMPI PUSH1 0x0 DUP1 REVERT JUMPDEST POP PUSH2 0x237 PUSH2 0x983 JUMP JUMPDEST PUSH1 0x40 MLOAD PUSH2 0x244 SWAP2 SWAP1 PUSH2 0x18BA JUMP JUMPDEST PUSH1 0x40 MLOAD DUP1 SWAP2 SUB SWAP1 RETURN JUMPDEST CALLVALUE DUP1 ISZERO PUSH2 0x259 JUMPI PUSH1 0x0 DUP1 REVERT JUMPDEST POP PUSH2 0x262 PUSH2 0xACA JUMP JUMPDEST PUSH1 0x40 MLOAD PUSH2 0x26F SWAP2 SWAP1 PUSH2 0x1747 JUMP JUMPDEST PUSH1 0x40 MLOAD DUP1 SWAP2 SUB SWAP1 RETURN JUMPDEST CALLVALUE DUP1 ISZERO PUSH2 0x284 JUMPI PUSH1 0x0 DUP1 REVERT JUMPDEST POP PUSH2 0x28D PUSH2 0xAD0 JUMP JUMPDEST PUSH1 0x40 MLOAD PUSH2 0x29A SWAP2 SWAP1 PUSH2 0x18DC JUMP JUMPDEST PUSH1 0x40 MLOAD DUP1 SWAP2 SUB SWAP1 RETURN JUMPDEST CALLVALUE DUP1 ISZERO PUSH2 0x2AF JUMPI PUSH1 0x0 DUP1 REVERT JUMPDEST POP PUSH2 0x2CA PUSH1 0x4 DUP1 CALLDATASIZE SUB DUP2 ADD SWAP1 PUSH2 0x2C5 SWAP2 SWAP1 PUSH2 0x1923 JUMP JUMPDEST PUSH2 0xAF4 JUMP JUMPDEST STOP JUMPDEST PUSH2 0x2E6 PUSH1 0x4 DUP1 CALLDATASIZE SUB DUP2 ADD SWAP1 PUSH2 0x2E1 SWAP2 SWAP1 PUSH2 0x1453 JUMP JUMPDEST PUSH2 0xD7A JUMP JUMPDEST STOP JUMPDEST CALLVALUE DUP1 ISZERO PUSH2 0x2F4 JUMPI PUSH1 0x0 DUP1 REVERT JUMPDEST POP PUSH2 0x30F PUSH1 0x4 DUP1 CALLDATASIZE SUB DUP2 ADD SWAP1 PUSH2 0x30A SWAP2 SWAP1 PUSH2 0x1453 JUMP JUMPDEST PUSH2 0xEC6 JUMP JUMPDEST PUSH1 0x40 MLOAD PUSH2 0x325 SWAP11 SWAP10 SWAP9 SWAP8 SWAP7 SWAP6 SWAP5 SWAP4 SWAP3 SWAP2 SWAP1 PUSH2 0x1A6C JUMP JUMPDEST PUSH1 0x40 MLOAD DUP1 SWAP2 SUB SWAP1 RETURN JUMPDEST CALLVALUE DUP1 ISZERO PUSH2 0x33A JUMPI PUSH1 0x0 DUP1 REVERT JUMPDEST POP PUSH2 0x343 PUSH2 0x121F JUMP JUMPDEST PUSH1 0x40 MLOAD PUSH2 0x350 SWAP2 SWAP1 PUSH2 0x1C2A JUMP JUMPDEST PUSH1 0x40 MLOAD DUP1 SWAP2 SUB SWAP1 RETURN JUMPDEST PUSH1 0x5 DUP2 DUP2 SLOAD DUP2 LT PUSH2 0x369 JUMPI PUSH1 0x0 DUP1 REVERT JUMPDEST SWAP1 PUSH1 0x0 MSTORE PUSH1 0x20 PUSH1 0x0 KECCAK256 SWAP1 PUSH1 0x2 MUL ADD PUSH1 0x0 SWAP2 POP SWAP1 POP DUP1 PUSH1 0x0 ADD PUSH1 0x0 SWAP1 SLOAD SWAP1 PUSH2 0x100 EXP SWAP1 DIV PUSH20 0xFFFFFFFFFFFFFFFFFFFFFFFFFFFFFFFFFFFFFFFF AND SWAP1 DUP1 PUSH1 0x1 ADD DUP1 SLOAD PUSH2 0x3B2 SWAP1 PUSH2 0x1C7B JUMP JUMPDEST DUP1 PUSH1 0x1F ADD PUSH1 0x20 DUP1 SWAP2 DIV MUL PUSH1 0x20 ADD PUSH1 0x40 MLOAD SWAP1 DUP2 ADD PUSH1 0x40 MSTORE DUP1 SWAP3 SWAP2 SWAP1 DUP2 DUP2 MSTORE PUSH1 0x20 ADD DUP3 DUP1 SLOAD PUSH2 0x3DE SWAP1 PUSH2 0x1C7B JUMP JUMPDEST DUP1 ISZERO PUSH2 0x42B JUMPI DUP1 PUSH1 0x1F LT PUSH2 0x400 JUMPI PUSH2 0x100 DUP1 DUP4 SLOAD DIV MUL DUP4 MSTORE SWAP2 PUSH1 0x20 ADD SWAP2 PUSH2 0x42B JUMP JUMPDEST DUP3 ADD SWAP2 SWAP1 PUSH1 0x0 MSTORE PUSH1 0x20 PUSH1 0x0 KECCAK256 SWAP1 JUMPDEST DUP2 SLOAD DUP2 MSTORE SWAP1 PUSH1 0x1 ADD SWAP1 PUSH1 0x20 ADD DUP1 DUP4 GT PUSH2 0x40E JUMPI DUP3 SWAP1 SUB PUSH1 0x1F AND DUP3 ADD SWAP2 JUMPDEST POP POP POP POP POP SWAP1 POP DUP3 JUMP JUMPDEST PUSH1 0x0 PUSH1 0x5 DUP1 SLOAD SWAP1 POP SWAP1 POP PUSH1 0x5 PUSH1 0x1 DUP2 PUSH1 0x1 DUP2 SLOAD ADD DUP1 DUP3 SSTORE DUP1 SWAP2 POP POP SUB SWAP1 PUSH1 0x0 MSTORE PUSH1 0x20 PUSH1 0x0 KECCAK256 SWAP1 POP POP PUSH1 0x0 PUSH1 0x5 DUP3 DUP2 SLOAD DUP2 LT PUSH2 0x473 JUMPI PUSH2 0x472 PUSH2 0x1CAD JUMP JUMPDEST JUMPDEST SWAP1 PUSH1 0x0 MSTORE PUSH1 0x20 PUSH1 0x0 KECCAK256 SWAP1 PUSH1 0x2 MUL ADD SWAP1 POP CALLER DUP2 PUSH1 0x0 ADD PUSH1 0x0 PUSH2 0x100 EXP DUP2 SLOAD DUP2 PUSH20 0xFFFFFFFFFFFFFFFFFFFFFFFFFFFFFFFFFFFFFFFF MUL NOT AND SWAP1 DUP4 PUSH20 0xFFFFFFFFFFFFFFFFFFFFFFFFFFFFFFFFFFFFFFFF AND MUL OR SWAP1 SSTORE POP DUP3 DUP2 PUSH1 0x1 ADD SWAP1 DUP1 MLOAD SWAP1 PUSH1 0x20 ADD SWAP1 PUSH2 0x4DE SWAP3 SWAP2 SWAP1 PUSH2 0x1366 JUMP JUMPDEST POP POP POP POP JUMP JUMPDEST PUSH1 0x3 DUP2 DUP2 SLOAD DUP2 LT PUSH2 0x4F4 JUMPI PUSH1 0x0 DUP1 REVERT JUMPDEST SWAP1 PUSH1 0x0 MSTORE PUSH1 0x20 PUSH1 0x0 KECCAK256 SWAP1 PUSH1 0x2 MUL ADD PUSH1 0x0 SWAP2 POP SWAP1 POP DUP1 PUSH1 0x0 ADD DUP1 SLOAD PUSH2 0x517 SWAP1 PUSH2 0x1C7B JUMP JUMPDEST DUP1 PUSH1 0x1F ADD PUSH1 0x20 DUP1 SWAP2 DIV MUL PUSH1 0x20 ADD PUSH1 0x40 MLOAD SWAP1 DUP2 ADD PUSH1 0x40 MSTORE DUP1 SWAP3 SWAP2 SWAP1 DUP2 DUP2 MSTORE PUSH1 0x20 ADD DUP3 DUP1 SLOAD PUSH2 0x543 SWAP1 PUSH2 0x1C7B JUMP JUMPDEST DUP1 ISZERO PUSH2 0x590 JUMPI DUP1 PUSH1 0x1F LT PUSH2 0x565 JUMPI PUSH2 0x100 DUP1 DUP4 SLOAD DIV MUL DUP4 MSTORE SWAP2 PUSH1 0x20 ADD SWAP2 PUSH2 0x590 JUMP JUMPDEST DUP3 ADD SWAP2 SWAP1 PUSH1 0x0 MSTORE PUSH1 0x20 PUSH1 0x0 KECCAK256 SWAP1 JUMPDEST DUP2 SLOAD DUP2 MSTORE SWAP1 PUSH1 0x1 ADD SWAP1 PUSH1 0x20 ADD DUP1 DUP4 GT PUSH2 0x573 JUMPI DUP3 SWAP1 SUB PUSH1 0x1F AND DUP3 ADD SWAP2 JUMPDEST POP POP POP POP POP SWAP1 DUP1 PUSH1 0x1 ADD PUSH1 0x0 SWAP1 SLOAD SWAP1 PUSH2 0x100 EXP SWAP1 DIV PUSH20 0xFFFFFFFFFFFFFFFFFFFFFFFFFFFFFFFFFFFFFFFF AND SWAP1 POP DUP3 JUMP JUMPDEST PUSH1 0x0 PUSH1 0x5 DUP1 SLOAD SWAP1 POP SWAP1 POP SWAP1 JUMP JUMPDEST PUSH1 0x0 PUSH1 0x4 DUP1 SLOAD SWAP1 POP SWAP1 POP SWAP1 JUMP JUMPDEST PUSH1 0x0 PUSH1 0x4 DUP3 DUP2 SLOAD DUP2 LT PUSH2 0x5F0 JUMPI PUSH2 0x5EF PUSH2 0x1CAD JUMP JUMPDEST JUMPDEST SWAP1 PUSH1 0x0 MSTORE PUSH1 0x20 PUSH1 0x0 KECCAK256 SWAP1 PUSH1 0xA MUL ADD SWAP1 POP DUP1 PUSH1 0x8 ADD PUSH1 0x0 CALLER PUSH20 0xFFFFFFFFFFFFFFFFFFFFFFFFFFFFFFFFFFFFFFFF AND PUSH20 0xFFFFFFFFFFFFFFFFFFFFFFFFFFFFFFFFFFFFFFFF AND DUP2 MSTORE PUSH1 0x20 ADD SWAP1 DUP2 MSTORE PUSH1 0x20 ADD PUSH1 0x0 KECCAK256 PUSH1 0x0 SWAP1 SLOAD SWAP1 PUSH2 0x100 EXP SWAP1 DIV PUSH1 0xFF AND ISZERO PUSH2 0x659 JUMPI PUSH1 0x0 DUP1 REVERT JUMPDEST CALLER PUSH20 0xFFFFFFFFFFFFFFFFFFFFFFFFFFFFFFFFFFFFFFFF AND DUP2 PUSH1 0x6 ADD PUSH1 0x0 SWAP1 SLOAD SWAP1 PUSH2 0x100 EXP SWAP1 DIV PUSH20 0xFFFFFFFFFFFFFFFFFFFFFFFFFFFFFFFFFFFFFFFF AND PUSH20 0xFFFFFFFFFFFFFFFFFFFFFFFFFFFFFFFFFFFFFFFF AND EQ ISZERO PUSH2 0x6B6 JUMPI PUSH1 0x0 DUP1 REVERT JUMPDEST PUSH1 0x1 DUP2 PUSH1 0x8 ADD PUSH1 0x0 CALLER PUSH20 0xFFFFFFFFFFFFFFFFFFFFFFFFFFFFFFFFFFFFFFFF AND PUSH20 0xFFFFFFFFFFFFFFFFFFFFFFFFFFFFFFFFFFFFFFFF AND DUP2 MSTORE PUSH1 0x20 ADD SWAP1 DUP2 MSTORE PUSH1 0x20 ADD PUSH1 0x0 KECCAK256 PUSH1 0x0 PUSH2 0x100 EXP DUP2 SLOAD DUP2 PUSH1 0xFF MUL NOT AND SWAP1 DUP4 ISZERO ISZERO MUL OR SWAP1 SSTORE POP DUP1 PUSH1 0x9 ADD PUSH1 0x0 DUP2 SLOAD DUP1 SWAP3 SWAP2 SWAP1 PUSH2 0x725 SWAP1 PUSH2 0x1D0B JUMP JUMPDEST SWAP2 SWAP1 POP SSTORE POP POP PUSH1 0x1 PUSH1 0x0 CALLER PUSH20 0xFFFFFFFFFFFFFFFFFFFFFFFFFFFFFFFFFFFFFFFF AND PUSH20 0xFFFFFFFFFFFFFFFFFFFFFFFFFFFFFFFFFFFFFFFF AND DUP2 MSTORE PUSH1 0x20 ADD SWAP1 DUP2 MSTORE PUSH1 0x20 ADD PUSH1 0x0 KECCAK256 PUSH1 0x0 SWAP1 SLOAD SWAP1 PUSH2 0x100 EXP SWAP1 DIV PUSH1 0xFF AND PUSH2 0x7EC JUMPI PUSH1 0x1 DUP1 PUSH1 0x0 CALLER PUSH20 0xFFFFFFFFFFFFFFFFFFFFFFFFFFFFFFFFFFFFFFFF AND PUSH20 0xFFFFFFFFFFFFFFFFFFFFFFFFFFFFFFFFFFFFFFFF AND DUP2 MSTORE PUSH1 0x20 ADD SWAP1 DUP2 MSTORE PUSH1 0x20 ADD PUSH1 0x0 KECCAK256 PUSH1 0x0 PUSH2 0x100 EXP DUP2 SLOAD DUP2 PUSH1 0xFF MUL NOT AND SWAP1 DUP4 ISZERO ISZERO MUL OR SWAP1 SSTORE POP PUSH1 0x2 PUSH1 0x0 DUP2 SLOAD DUP1 SWAP3 SWAP2 SWAP1 PUSH2 0x7E6 SWAP1 PUSH2 0x1D0B JUMP JUMPDEST SWAP2 SWAP1 POP SSTORE POP JUMPDEST POP JUMP JUMPDEST PUSH1 0x64 CALLVALUE LT ISZERO PUSH2 0x7FD JUMPI PUSH1 0x0 DUP1 REVERT JUMPDEST PUSH1 0x0 PUSH1 0x40 MLOAD DUP1 PUSH1 0x40 ADD PUSH1 0x40 MSTORE DUP1 DUP4 DUP2 MSTORE PUSH1 0x20 ADD CALLER PUSH20 0xFFFFFFFFFFFFFFFFFFFFFFFFFFFFFFFFFFFFFFFF AND DUP2 MSTORE POP SWAP1 POP PUSH1 0x3 DUP2 SWAP1 DUP1 PUSH1 0x1 DUP2 SLOAD ADD DUP1 DUP3 SSTORE DUP1 SWAP2 POP POP PUSH1 0x1 SWAP1 SUB SWAP1 PUSH1 0x0 MSTORE PUSH1 0x20 PUSH1 0x0 KECCAK256 SWAP1 PUSH1 0x2 MUL ADD PUSH1 0x0 SWAP1 SWAP2 SWAP1 SWAP2 SWAP1 SWAP2 POP PUSH1 0x0 DUP3 ADD MLOAD DUP2 PUSH1 0x0 ADD SWAP1 DUP1 MLOAD SWAP1 PUSH1 0x20 ADD SWAP1 PUSH2 0x874 SWAP3 SWAP2 SWAP1 PUSH2 0x1366 JUMP JUMPDEST POP PUSH1 0x20 DUP3 ADD MLOAD DUP2 PUSH1 0x1 ADD PUSH1 0x0 PUSH2 0x100 EXP DUP2 SLOAD DUP2 PUSH20 0xFFFFFFFFFFFFFFFFFFFFFFFFFFFFFFFFFFFFFFFF MUL NOT AND SWAP1 DUP4 PUSH20 0xFFFFFFFFFFFFFFFFFFFFFFFFFFFFFFFFFFFFFFFF AND MUL OR SWAP1 SSTORE POP POP POP POP PUSH1 0x1 PUSH1 0x0 CALLER PUSH20 0xFFFFFFFFFFFFFFFFFFFFFFFFFFFFFFFFFFFFFFFF AND PUSH20 0xFFFFFFFFFFFFFFFFFFFFFFFFFFFFFFFFFFFFFFFF AND DUP2 MSTORE PUSH1 0x20 ADD SWAP1 DUP2 MSTORE PUSH1 0x20 ADD PUSH1 0x0 KECCAK256 PUSH1 0x0 SWAP1 SLOAD SWAP1 PUSH2 0x100 EXP SWAP1 DIV PUSH1 0xFF AND PUSH2 0x980 JUMPI PUSH1 0x1 DUP1 PUSH1 0x0 CALLER PUSH20 0xFFFFFFFFFFFFFFFFFFFFFFFFFFFFFFFFFFFFFFFF AND PUSH20 0xFFFFFFFFFFFFFFFFFFFFFFFFFFFFFFFFFFFFFFFF AND DUP2 MSTORE PUSH1 0x20 ADD SWAP1 DUP2 MSTORE PUSH1 0x20 ADD PUSH1 0x0 KECCAK256 PUSH1 0x0 PUSH2 0x100 EXP DUP2 SLOAD DUP2 PUSH1 0xFF MUL NOT AND SWAP1 DUP4 ISZERO ISZERO MUL OR SWAP1 SSTORE POP PUSH1 0x2 PUSH1 0x0 DUP2 SLOAD DUP1 SWAP3 SWAP2 SWAP1 PUSH2 0x97A SWAP1 PUSH2 0x1D0B JUMP JUMPDEST SWAP2 SWAP1 POP SSTORE POP JUMPDEST POP JUMP JUMPDEST PUSH1 0x60 PUSH1 0x5 DUP1 SLOAD DUP1 PUSH1 0x20 MUL PUSH1 0x20 ADD PUSH1 0x40 MLOAD SWAP1 DUP2 ADD PUSH1 0x40 MSTORE DUP1 SWAP3 SWAP2 SWAP1 DUP2 DUP2 MSTORE PUSH1 0x20 ADD PUSH1 0x0 SWAP1 JUMPDEST DUP3 DUP3 LT ISZERO PUSH2 0xAC1 JUMPI DUP4 DUP3 SWAP1 PUSH1 0x0 MSTORE PUSH1 0x20 PUSH1 0x0 KECCAK256 SWAP1 PUSH1 0x2 MUL ADD PUSH1 0x40 MLOAD DUP1 PUSH1 0x40 ADD PUSH1 0x40 MSTORE SWAP1 DUP2 PUSH1 0x0 DUP3 ADD PUSH1 0x0 SWAP1 SLOAD SWAP1 PUSH2 0x100 EXP SWAP1 DIV PUSH20 0xFFFFFFFFFFFFFFFFFFFFFFFFFFFFFFFFFFFFFFFF AND PUSH20 0xFFFFFFFFFFFFFFFFFFFFFFFFFFFFFFFFFFFFFFFF AND PUSH20 0xFFFFFFFFFFFFFFFFFFFFFFFFFFFFFFFFFFFFFFFF AND DUP2 MSTORE PUSH1 0x20 ADD PUSH1 0x1 DUP3 ADD DUP1 SLOAD PUSH2 0xA30 SWAP1 PUSH2 0x1C7B JUMP JUMPDEST DUP1 PUSH1 0x1F ADD PUSH1 0x20 DUP1 SWAP2 DIV MUL PUSH1 0x20 ADD PUSH1 0x40 MLOAD SWAP1 DUP2 ADD PUSH1 0x40 MSTORE DUP1 SWAP3 SWAP2 SWAP1 DUP2 DUP2 MSTORE PUSH1 0x20 ADD DUP3 DUP1 SLOAD PUSH2 0xA5C SWAP1 PUSH2 0x1C7B JUMP JUMPDEST DUP1 ISZERO PUSH2 0xAA9 JUMPI DUP1 PUSH1 0x1F LT PUSH2 0xA7E JUMPI PUSH2 0x100 DUP1 DUP4 SLOAD DIV MUL DUP4 MSTORE SWAP2 PUSH1 0x20 ADD SWAP2 PUSH2 0xAA9 JUMP JUMPDEST DUP3 ADD SWAP2 SWAP1 PUSH1 0x0 MSTORE PUSH1 0x20 PUSH1 0x0 KECCAK256 SWAP1 JUMPDEST DUP2 SLOAD DUP2 MSTORE SWAP1 PUSH1 0x1 ADD SWAP1 PUSH1 0x20 ADD DUP1 DUP4 GT PUSH2 0xA8C JUMPI DUP3 SWAP1 SUB PUSH1 0x1F AND DUP3 ADD SWAP2 JUMPDEST POP POP POP POP POP DUP2 MSTORE POP POP DUP2 MSTORE PUSH1 0x20 ADD SWAP1 PUSH1 0x1 ADD SWAP1 PUSH2 0x9A7 JUMP JUMPDEST POP POP POP POP SWAP1 POP SWAP1 JUMP JUMPDEST PUSH1 0x2 SLOAD DUP2 JUMP JUMPDEST PUSH1 0x0 DUP1 SLOAD SWAP1 PUSH2 0x100 EXP SWAP1 DIV PUSH20 0xFFFFFFFFFFFFFFFFFFFFFFFFFFFFFFFFFFFFFFFF AND DUP2 JUMP JUMPDEST DUP1 PUSH20 0xFFFFFFFFFFFFFFFFFFFFFFFFFFFFFFFFFFFFFFFF AND CALLER PUSH20 0xFFFFFFFFFFFFFFFFFFFFFFFFFFFFFFFFFFFFFFFF AND EQ ISZERO PUSH2 0xB2D JUMPI PUSH1 0x0 DUP1 REVERT JUMPDEST PUSH1 0x0 PUSH1 0x4 DUP1 SLOAD SWAP1 POP SWAP1 POP PUSH1 0x4 PUSH1 0x1 DUP2 PUSH1 0x1 DUP2 SLOAD ADD DUP1 DUP3 SSTORE DUP1 SWAP2 POP POP SUB SWAP1 PUSH1 0x0 MSTORE PUSH1 0x20 PUSH1 0x0 KECCAK256 SWAP1 POP POP PUSH1 0x0 PUSH1 0x4 DUP3 DUP2 SLOAD DUP2 LT PUSH2 0xB6B JUMPI PUSH2 0xB6A PUSH2 0x1CAD JUMP JUMPDEST JUMPDEST SWAP1 PUSH1 0x0 MSTORE PUSH1 0x20 PUSH1 0x0 KECCAK256 SWAP1 PUSH1 0xA MUL ADD SWAP1 POP DUP9 DUP2 PUSH1 0x0 ADD SWAP1 DUP1 MLOAD SWAP1 PUSH1 0x20 ADD SWAP1 PUSH2 0xB93 SWAP3 SWAP2 SWAP1 PUSH2 0x1366 JUMP JUMPDEST POP DUP8 DUP2 PUSH1 0x1 ADD SWAP1 DUP1 MLOAD SWAP1 PUSH1 0x20 ADD SWAP1 PUSH2 0xBAC SWAP3 SWAP2 SWAP1 PUSH2 0x1366 JUMP JUMPDEST POP DUP7 DUP2 PUSH1 0x2 ADD SWAP1 DUP1 MLOAD SWAP1 PUSH1 0x20 ADD SWAP1 PUSH2 0xBC5 SWAP3 SWAP2 SWAP1 PUSH2 0x1366 JUMP JUMPDEST POP DUP6 DUP2 PUSH1 0x4 ADD SWAP1 DUP1 MLOAD SWAP1 PUSH1 0x20 ADD SWAP1 PUSH2 0xBDE SWAP3 SWAP2 SWAP1 PUSH2 0x1366 JUMP JUMPDEST POP DUP5 DUP2 PUSH1 0x3 ADD SWAP1 DUP1 MLOAD SWAP1 PUSH1 0x20 ADD SWAP1 PUSH2 0xBF7 SWAP3 SWAP2 SWAP1 PUSH2 0x1366 JUMP JUMPDEST POP DUP4 DUP2 PUSH1 0x5 ADD DUP2 SWAP1 SSTORE POP CALLER DUP2 PUSH1 0x6 ADD PUSH1 0x0 PUSH2 0x100 EXP DUP2 SLOAD DUP2 PUSH20 0xFFFFFFFFFFFFFFFFFFFFFFFFFFFFFFFFFFFFFFFF MUL NOT AND SWAP1 DUP4 PUSH20 0xFFFFFFFFFFFFFFFFFFFFFFFFFFFFFFFFFFFFFFFF AND MUL OR SWAP1 SSTORE POP DUP3 DUP2 PUSH1 0x7 ADD PUSH1 0x0 PUSH2 0x100 EXP DUP2 SLOAD DUP2 PUSH20 0xFFFFFFFFFFFFFFFFFFFFFFFFFFFFFFFFFFFFFFFF MUL NOT AND SWAP1 DUP4 PUSH20 0xFFFFFFFFFFFFFFFFFFFFFFFFFFFFFFFFFFFFFFFF AND MUL OR SWAP1 SSTORE POP PUSH1 0x0 DUP2 PUSH1 0x7 ADD PUSH1 0x14 PUSH2 0x100 EXP DUP2 SLOAD DUP2 PUSH1 0xFF MUL NOT AND SWAP1 DUP4 ISZERO ISZERO MUL OR SWAP1 SSTORE POP PUSH1 0x0 DUP2 PUSH1 0x9 ADD DUP2 SWAP1 SSTORE POP POP POP PUSH1 0x1 PUSH1 0x0 CALLER PUSH20 0xFFFFFFFFFFFFFFFFFFFFFFFFFFFFFFFFFFFFFFFF AND PUSH20 0xFFFFFFFFFFFFFFFFFFFFFFFFFFFFFFFFFFFFFFFF AND DUP2 MSTORE PUSH1 0x20 ADD SWAP1 DUP2 MSTORE PUSH1 0x20 ADD PUSH1 0x0 KECCAK256 PUSH1 0x0 SWAP1 SLOAD SWAP1 PUSH2 0x100 EXP SWAP1 DIV PUSH1 0xFF AND PUSH2 0xD71 JUMPI PUSH1 0x1 DUP1 PUSH1 0x0 CALLER PUSH20 0xFFFFFFFFFFFFFFFFFFFFFFFFFFFFFFFFFFFFFFFF AND PUSH20 0xFFFFFFFFFFFFFFFFFFFFFFFFFFFFFFFFFFFFFFFF AND DUP2 MSTORE PUSH1 0x20 ADD SWAP1 DUP2 MSTORE PUSH1 0x20 ADD PUSH1 0x0 KECCAK256 PUSH1 0x0 PUSH2 0x100 EXP DUP2 SLOAD DUP2 PUSH1 0xFF MUL NOT AND SWAP1 DUP4 ISZERO ISZERO MUL OR SWAP1 SSTORE POP PUSH1 0x2 PUSH1 0x0 DUP2 SLOAD DUP1 SWAP3 SWAP2 SWAP1 PUSH2 0xD6B SWAP1 PUSH2 0x1D0B JUMP JUMPDEST SWAP2 SWAP1 POP SSTORE POP JUMPDEST POP POP POP POP POP POP POP JUMP JUMPDEST PUSH1 0x0 PUSH1 0x4 DUP3 DUP2 SLOAD DUP2 LT PUSH2 0xD90 JUMPI PUSH2 0xD8F PUSH2 0x1CAD JUMP JUMPDEST JUMPDEST SWAP1 PUSH1 0x0 MSTORE PUSH1 0x20 PUSH1 0x0 KECCAK256 SWAP1 PUSH1 0xA MUL ADD SWAP1 POP DUP1 PUSH1 0x6 ADD PUSH1 0x0 SWAP1 SLOAD SWAP1 PUSH2 0x100 EXP SWAP1 DIV PUSH20 0xFFFFFFFFFFFFFFFFFFFFFFFFFFFFFFFFFFFFFFFF AND PUSH20 0xFFFFFFFFFFFFFFFFFFFFFFFFFFFFFFFFFFFFFFFF AND CALLER PUSH20 0xFFFFFFFFFFFFFFFFFFFFFFFFFFFFFFFFFFFFFFFF AND EQ PUSH2 0xDFC JUMPI PUSH1 0x0 DUP1 REVERT JUMPDEST PUSH1 0x2 DUP1 SLOAD PUSH2 0xE0A SWAP2 SWAP1 PUSH2 0x1D83 JUMP JUMPDEST DUP2 PUSH1 0x9 ADD SLOAD LT ISZERO PUSH2 0xE1A JUMPI PUSH1 0x0 DUP1 REVERT JUMPDEST DUP1 PUSH1 0x7 ADD PUSH1 0x14 SWAP1 SLOAD SWAP1 PUSH2 0x100 EXP SWAP1 DIV PUSH1 0xFF AND ISZERO PUSH2 0xE36 JUMPI PUSH1 0x0 DUP1 REVERT JUMPDEST PUSH1 0x1 DUP2 PUSH1 0x7 ADD PUSH1 0x14 PUSH2 0x100 EXP DUP2 SLOAD DUP2 PUSH1 0xFF MUL NOT AND SWAP1 DUP4 ISZERO ISZERO MUL OR SWAP1 SSTORE POP DUP1 PUSH1 0x7 ADD PUSH1 0x0 SWAP1 SLOAD SWAP1 PUSH2 0x100 EXP SWAP1 DIV PUSH20 0xFFFFFFFFFFFFFFFFFFFFFFFFFFFFFFFFFFFFFFFF AND PUSH20 0xFFFFFFFFFFFFFFFFFFFFFFFFFFFFFFFFFFFFFFFF AND PUSH2 0x8FC DUP3 PUSH1 0x5 ADD SLOAD SWAP1 DUP2 ISZERO MUL SWAP1 PUSH1 0x40 MLOAD PUSH1 0x0 PUSH1 0x40 MLOAD DUP1 DUP4 SUB DUP2 DUP6 DUP9 DUP9 CALL SWAP4 POP POP POP POP ISZERO DUP1 ISZERO PUSH2 0xEC1 JUMPI RETURNDATASIZE PUSH1 0x0 DUP1 RETURNDATACOPY RETURNDATASIZE PUSH1 0x0 REVERT JUMPDEST POP POP POP JUMP JUMPDEST PUSH1 0x4 DUP2 DUP2 SLOAD DUP2 LT PUSH2 0xED6 JUMPI PUSH1 0x0 DUP1 REVERT JUMPDEST SWAP1 PUSH1 0x0 MSTORE PUSH1 0x20 PUSH1 0x0 KECCAK256 SWAP1 PUSH1 0xA MUL ADD PUSH1 0x0 SWAP2 POP SWAP1 POP DUP1 PUSH1 0x0 ADD DUP1 SLOAD PUSH2 0xEF9 SWAP1 PUSH2 0x1C7B JUMP JUMPDEST DUP1 PUSH1 0x1F ADD PUSH1 0x20 DUP1 SWAP2 DIV MUL PUSH1 0x20 ADD PUSH1 0x40 MLOAD SWAP1 DUP2 ADD PUSH1 0x40 MSTORE DUP1 SWAP3 SWAP2 SWAP1 DUP2 DUP2 MSTORE PUSH1 0x20 ADD DUP3 DUP1 SLOAD PUSH2 0xF25 SWAP1 PUSH2 0x1C7B JUMP JUMPDEST DUP1 ISZERO PUSH2 0xF72 JUMPI DUP1 PUSH1 0x1F LT PUSH2 0xF47 JUMPI PUSH2 0x100 DUP1 DUP4 SLOAD DIV MUL DUP4 MSTORE SWAP2 PUSH1 0x20 ADD SWAP2 PUSH2 0xF72 JUMP JUMPDEST DUP3 ADD SWAP2 SWAP1 PUSH1 0x0 MSTORE PUSH1 0x20 PUSH1 0x0 KECCAK256 SWAP1 JUMPDEST DUP2 SLOAD DUP2 MSTORE SWAP1 PUSH1 0x1 ADD SWAP1 PUSH1 0x20 ADD DUP1 DUP4 GT PUSH2 0xF55 JUMPI DUP3 SWAP1 SUB PUSH1 0x1F AND DUP3 ADD SWAP2 JUMPDEST POP POP POP POP POP SWAP1 DUP1 PUSH1 0x1 ADD DUP1 SLOAD PUSH2 0xF87 SWAP1 PUSH2 0x1C7B JUMP JUMPDEST DUP1 PUSH1 0x1F ADD PUSH1 0x20 DUP1 SWAP2 DIV MUL PUSH1 0x20 ADD PUSH1 0x40 MLOAD SWAP1 DUP2 ADD PUSH1 0x40 MSTORE DUP1 SWAP3 SWAP2 SWAP1 DUP2 DUP2 MSTORE PUSH1 0x20 ADD DUP3 DUP1 SLOAD PUSH2 0xFB3 SWAP1 PUSH2 0x1C7B JUMP JUMPDEST DUP1 ISZERO PUSH2 0x1000 JUMPI DUP1 PUSH1 0x1F LT PUSH2 0xFD5 JUMPI PUSH2 0x100 DUP1 DUP4 SLOAD DIV MUL DUP4 MSTORE SWAP2 PUSH1 0x20 ADD SWAP2 PUSH2 0x1000 JUMP JUMPDEST DUP3 ADD SWAP2 SWAP1 PUSH1 0x0 MSTORE PUSH1 0x20 PUSH1 0x0 KECCAK256 SWAP1 JUMPDEST DUP2 SLOAD DUP2 MSTORE SWAP1 PUSH1 0x1 ADD SWAP1 PUSH1 0x20 ADD DUP1 DUP4 GT PUSH2 0xFE3 JUMPI DUP3 SWAP1 SUB PUSH1 0x1F AND DUP3 ADD SWAP2 JUMPDEST POP POP POP POP POP SWAP1 DUP1 PUSH1 0x2 ADD DUP1 SLOAD PUSH2 0x1015 SWAP1 PUSH2 0x1C7B JUMP JUMPDEST DUP1 PUSH1 0x1F ADD PUSH1 0x20 DUP1 SWAP2 DIV MUL PUSH1 0x20 ADD PUSH1 0x40 MLOAD SWAP1 DUP2 ADD PUSH1 0x40 MSTORE DUP1 SWAP3 SWAP2 SWAP1 DUP2 DUP2 MSTORE PUSH1 0x20 ADD DUP3 DUP1 SLOAD PUSH2 0x1041 SWAP1 PUSH2 0x1C7B JUMP JUMPDEST DUP1 ISZERO PUSH2 0x108E JUMPI DUP1 PUSH1 0x1F LT PUSH2 0x1063 JUMPI PUSH2 0x100 DUP1 DUP4 SLOAD DIV MUL DUP4 MSTORE SWAP2 PUSH1 0x20 ADD SWAP2 PUSH2 0x108E JUMP JUMPDEST DUP3 ADD SWAP2 SWAP1 PUSH1 0x0 MSTORE PUSH1 0x20 PUSH1 0x0 KECCAK256 SWAP1 JUMPDEST DUP2 SLOAD DUP2 MSTORE SWAP1 PUSH1 0x1 ADD SWAP1 PUSH1 0x20 ADD DUP1 DUP4 GT PUSH2 0x1071 JUMPI DUP3 SWAP1 SUB PUSH1 0x1F AND DUP3 ADD SWAP2 JUMPDEST POP POP POP POP POP SWAP1 DUP1 PUSH1 0x3 ADD DUP1 SLOAD PUSH2 0x10A3 SWAP1 PUSH2 0x1C7B JUMP JUMPDEST DUP1 PUSH1 0x1F ADD PUSH1 0x20 DUP1 SWAP2 DIV MUL PUSH1 0x20 ADD PUSH1 0x40 MLOAD SWAP1 DUP2 ADD PUSH1 0x40 MSTORE DUP1 SWAP3 SWAP2 SWAP1 DUP2 DUP2 MSTORE PUSH1 0x20 ADD DUP3 DUP1 SLOAD PUSH2 0x10CF SWAP1 PUSH2 0x1C7B JUMP JUMPDEST DUP1 ISZERO PUSH2 0x111C JUMPI DUP1 PUSH1 0x1F LT PUSH2 0x10F1 JUMPI PUSH2 0x100 DUP1 DUP4 SLOAD DIV MUL DUP4 MSTORE SWAP2 PUSH1 0x20 ADD SWAP2 PUSH2 0x111C JUMP JUMPDEST DUP3 ADD SWAP2 SWAP1 PUSH1 0x0 MSTORE PUSH1 0x20 PUSH1 0x0 KECCAK256 SWAP1 JUMPDEST DUP2 SLOAD DUP2 MSTORE SWAP1 PUSH1 0x1 ADD SWAP1 PUSH1 0x20 ADD DUP1 DUP4 GT PUSH2 0x10FF JUMPI DUP3 SWAP1 SUB PUSH1 0x1F AND DUP3 ADD SWAP2 JUMPDEST POP POP POP POP POP SWAP1 DUP1 PUSH1 0x4 ADD DUP1 SLOAD PUSH2 0x1131 SWAP1 PUSH2 0x1C7B JUMP JUMPDEST DUP1 PUSH1 0x1F ADD PUSH1 0x20 DUP1 SWAP2 DIV MUL PUSH1 0x20 ADD PUSH1 0x40 MLOAD SWAP1 DUP2 ADD PUSH1 0x40 MSTORE DUP1 SWAP3 SWAP2 SWAP1 DUP2 DUP2 MSTORE PUSH1 0x20 ADD DUP3 DUP1 SLOAD PUSH2 0x115D SWAP1 PUSH2 0x1C7B JUMP JUMPDEST DUP1 ISZERO PUSH2 0x11AA JUMPI DUP1 PUSH1 0x1F LT PUSH2 0x117F JUMPI PUSH2 0x100 DUP1 DUP4 SLOAD DIV MUL DUP4 MSTORE SWAP2 PUSH1 0x20 ADD SWAP2 PUSH2 0x11AA JUMP JUMPDEST DUP3 ADD SWAP2 SWAP1 PUSH1 0x0 MSTORE PUSH1 0x20 PUSH1 0x0 KECCAK256 SWAP1 JUMPDEST DUP2 SLOAD DUP2 MSTORE SWAP1 PUSH1 0x1 ADD SWAP1 PUSH1 0x20 ADD DUP1 DUP4 GT PUSH2 0x118D JUMPI DUP3 SWAP1 SUB PUSH1 0x1F AND DUP3 ADD SWAP2 JUMPDEST POP POP POP POP POP SWAP1 DUP1 PUSH1 0x5 ADD SLOAD SWAP1 DUP1 PUSH1 0x6 ADD PUSH1 0x0 SWAP1 SLOAD SWAP1 PUSH2 0x100 EXP SWAP1 DIV PUSH20 0xFFFFFFFFFFFFFFFFFFFFFFFFFFFFFFFFFFFFFFFF AND SWAP1 DUP1 PUSH1 0x7 ADD PUSH1 0x0 SWAP1 SLOAD SWAP1 PUSH2 0x100 EXP SWAP1 DIV PUSH20 0xFFFFFFFFFFFFFFFFFFFFFFFFFFFFFFFFFFFFFFFF AND SWAP1 DUP1 PUSH1 0x7 ADD PUSH1 0x14 SWAP1 SLOAD SWAP1 PUSH2 0x100 EXP SWAP1 DIV PUSH1 0xFF AND SWAP1 DUP1 PUSH1 0x9 ADD SLOAD SWAP1 POP DUP11 JUMP JUMPDEST PUSH1 0x60 PUSH1 0x3 DUP1 SLOAD DUP1 PUSH1 0x20 MUL PUSH1 0x20 ADD PUSH1 0x40 MLOAD SWAP1 DUP2 ADD PUSH1 0x40 MSTORE DUP1 SWAP3 SWAP2 SWAP1 DUP2 DUP2 MSTORE PUSH1 0x20 ADD PUSH1 0x0 SWAP1 JUMPDEST DUP3 DUP3 LT ISZERO PUSH2 0x135D JUMPI DUP4 DUP3 SWAP1 PUSH1 0x0 MSTORE PUSH1 0x20 PUSH1 0x0 KECCAK256 SWAP1 PUSH1 0x2 MUL ADD PUSH1 0x40 MLOAD DUP1 PUSH1 0x40 ADD PUSH1 0x40 MSTORE SWAP1 DUP2 PUSH1 0x0 DUP3 ADD DUP1 SLOAD PUSH2 0x1276 SWAP1 PUSH2 0x1C7B JUMP JUMPDEST DUP1 PUSH1 0x1F ADD PUSH1 0x20 DUP1 SWAP2 DIV MUL PUSH1 0x20 ADD PUSH1 0x40 MLOAD SWAP1 DUP2 ADD PUSH1 0x40 MSTORE DUP1 SWAP3 SWAP2 SWAP1 DUP2 DUP2 MSTORE PUSH1 0x20 ADD DUP3 DUP1 SLOAD PUSH2 0x12A2 SWAP1 PUSH2 0x1C7B JUMP JUMPDEST DUP1 ISZERO PUSH2 0x12EF JUMPI DUP1 PUSH1 0x1F LT PUSH2 0x12C4 JUMPI PUSH2 0x100 DUP1 DUP4 SLOAD DIV MUL DUP4 MSTORE SWAP2 PUSH1 0x20 ADD SWAP2 PUSH2 0x12EF JUMP JUMPDEST DUP3 ADD SWAP2 SWAP1 PUSH1 0x0 MSTORE PUSH1 0x20 PUSH1 0x0 KECCAK256 SWAP1 JUMPDEST DUP2 SLOAD DUP2 MSTORE SWAP1 PUSH1 0x1 ADD SWAP1 PUSH1 0x20 ADD DUP1 DUP4 GT PUSH2 0x12D2 JUMPI DUP3 SWAP1 SUB PUSH1 0x1F AND DUP3 ADD SWAP2 JUMPDEST POP POP POP POP POP DUP2 MSTORE PUSH1 0x20 ADD PUSH1 0x1 DUP3 ADD PUSH1 0x0 SWAP1 SLOAD SWAP1 PUSH2 0x100 EXP SWAP1 DIV PUSH20 0xFFFFFFFFFFFFFFFFFFFFFFFFFFFFFFFFFFFFFFFF AND PUSH20 0xFFFFFFFFFFFFFFFFFFFFFFFFFFFFFFFFFFFFFFFF AND PUSH20 0xFFFFFFFFFFFFFFFFFFFFFFFFFFFFFFFFFFFFFFFF AND DUP2 MSTORE POP POP DUP2 MSTORE PUSH1 0x20 ADD SWAP1 PUSH1 0x1 ADD SWAP1 PUSH2 0x1243 JUMP JUMPDEST POP POP POP POP SWAP1 POP SWAP1 JUMP JUMPDEST DUP3 DUP1 SLOAD PUSH2 0x1372 SWAP1 PUSH2 0x1C7B JUMP JUMPDEST SWAP1 PUSH1 0x0 MSTORE PUSH1 0x20 PUSH1 0x0 KECCAK256 SWAP1 PUSH1 0x1F ADD PUSH1 0x20 SWAP1 DIV DUP2 ADD SWAP3 DUP3 PUSH2 0x1394 JUMPI PUSH1 0x0 DUP6 SSTORE PUSH2 0x13DB JUMP JUMPDEST DUP3 PUSH1 0x1F LT PUSH2 0x13AD JUMPI DUP1 MLOAD PUSH1 0xFF NOT AND DUP4 DUP1 ADD OR DUP6 SSTORE PUSH2 0x13DB JUMP JUMPDEST DUP3 DUP1 ADD PUSH1 0x1 ADD DUP6 SSTORE DUP3 ISZERO PUSH2 0x13DB JUMPI SWAP2 DUP3 ADD JUMPDEST DUP3 DUP2 GT ISZERO PUSH2 0x13DA JUMPI DUP3 MLOAD DUP3 SSTORE SWAP2 PUSH1 0x20 ADD SWAP2 SWAP1 PUSH1 0x1 ADD SWAP1 PUSH2 0x13BF JUMP JUMPDEST JUMPDEST POP SWAP1 POP PUSH2 0x13E8 SWAP2 SWAP1 PUSH2 0x13EC JUMP JUMPDEST POP SWAP1 JUMP JUMPDEST JUMPDEST DUP1 DUP3 GT ISZERO PUSH2 0x1405 JUMPI PUSH1 0x0 DUP2 PUSH1 0x0 SWAP1 SSTORE POP PUSH1 0x1 ADD PUSH2 0x13ED JUMP JUMPDEST POP SWAP1 JUMP JUMPDEST PUSH1 0x0 PUSH1 0x40 MLOAD SWAP1 POP SWAP1 JUMP JUMPDEST PUSH1 0x0 DUP1 REVERT JUMPDEST PUSH1 0x0 DUP1 REVERT JUMPDEST PUSH1 0x0 DUP2 SWAP1 POP SWAP2 SWAP1 POP JUMP JUMPDEST PUSH2 0x1430 DUP2 PUSH2 0x141D JUMP JUMPDEST DUP2 EQ PUSH2 0x143B JUMPI PUSH1 0x0 DUP1 REVERT JUMPDEST POP JUMP JUMPDEST PUSH1 0x0 DUP2 CALLDATALOAD SWAP1 POP PUSH2 0x144D DUP2 PUSH2 0x1427 JUMP JUMPDEST SWAP3 SWAP2 POP POP JUMP JUMPDEST PUSH1 0x0 PUSH1 0x20 DUP3 DUP5 SUB SLT ISZERO PUSH2 0x1469 JUMPI PUSH2 0x1468 PUSH2 0x1413 JUMP JUMPDEST JUMPDEST PUSH1 0x0 PUSH2 0x1477 DUP5 DUP3 DUP6 ADD PUSH2 0x143E JUMP JUMPDEST SWAP2 POP POP SWAP3 SWAP2 POP POP JUMP JUMPDEST PUSH1 0x0 PUSH20 0xFFFFFFFFFFFFFFFFFFFFFFFFFFFFFFFFFFFFFFFF DUP3 AND SWAP1 POP SWAP2 SWAP1 POP JUMP JUMPDEST PUSH1 0x0 PUSH2 0x14AB DUP3 PUSH2 0x1480 JUMP JUMPDEST SWAP1 POP SWAP2 SWAP1 POP JUMP JUMPDEST PUSH2 0x14BB DUP2 PUSH2 0x14A0 JUMP JUMPDEST DUP3 MSTORE POP POP JUMP JUMPDEST PUSH1 0x0 DUP2 MLOAD SWAP1 POP SWAP2 SWAP1 POP JUMP JUMPDEST PUSH1 0x0 DUP3 DUP3 MSTORE PUSH1 0x20 DUP3 ADD SWAP1 POP SWAP3 SWAP2 POP POP JUMP JUMPDEST PUSH1 0x0 JUMPDEST DUP4 DUP2 LT ISZERO PUSH2 0x14FB JUMPI DUP1 DUP3 ADD MLOAD DUP2 DUP5 ADD MSTORE PUSH1 0x20 DUP2 ADD SWAP1 POP PUSH2 0x14E0 JUMP JUMPDEST DUP4 DUP2 GT ISZERO PUSH2 0x150A JUMPI PUSH1 0x0 DUP5 DUP5 ADD MSTORE JUMPDEST POP POP POP POP JUMP JUMPDEST PUSH1 0x0 PUSH1 0x1F NOT PUSH1 0x1F DUP4 ADD AND SWAP1 POP SWAP2 SWAP1 POP JUMP JUMPDEST PUSH1 0x0 PUSH2 0x152C DUP3 PUSH2 0x14C1 JUMP JUMPDEST PUSH2 0x1536 DUP2 DUP6 PUSH2 0x14CC JUMP JUMPDEST SWAP4 POP PUSH2 0x1546 DUP2 DUP6 PUSH1 0x20 DUP7 ADD PUSH2 0x14DD JUMP JUMPDEST PUSH2 0x154F DUP2 PUSH2 0x1510 JUMP JUMPDEST DUP5 ADD SWAP2 POP POP SWAP3 SWAP2 POP POP JUMP JUMPDEST PUSH1 0x0 PUSH1 0x40 DUP3 ADD SWAP1 POP PUSH2 0x156F PUSH1 0x0 DUP4 ADD DUP6 PUSH2 0x14B2 JUMP JUMPDEST DUP2 DUP2 SUB PUSH1 0x20 DUP4 ADD MSTORE PUSH2 0x1581 DUP2 DUP5 PUSH2 0x1521 JUMP JUMPDEST SWAP1 POP SWAP4 SWAP3 POP POP POP JUMP JUMPDEST PUSH1 0x0 DUP1 REVERT JUMPDEST PUSH1 0x0 DUP1 REVERT JUMPDEST PUSH32 0x4E487B7100000000000000000000000000000000000000000000000000000000 PUSH1 0x0 MSTORE PUSH1 0x41 PUSH1 0x4 MSTORE PUSH1 0x24 PUSH1 0x0 REVERT JUMPDEST PUSH2 0x15CC DUP3 PUSH2 0x1510 JUMP JUMPDEST DUP2 ADD DUP2 DUP2 LT PUSH8 0xFFFFFFFFFFFFFFFF DUP3 GT OR ISZERO PUSH2 0x15EB JUMPI PUSH2 0x15EA PUSH2 0x1594 JUMP JUMPDEST JUMPDEST DUP1 PUSH1 0x40 MSTORE POP POP POP JUMP JUMPDEST PUSH1 0x0 PUSH2 0x15FE PUSH2 0x1409 JUMP JUMPDEST SWAP1 POP PUSH2 0x160A DUP3 DUP3 PUSH2 0x15C3 JUMP JUMPDEST SWAP2 SWAP1 POP JUMP JUMPDEST PUSH1 0x0 PUSH8 0xFFFFFFFFFFFFFFFF DUP3 GT ISZERO PUSH2 0x162A JUMPI PUSH2 0x1629 PUSH2 0x1594 JUMP JUMPDEST JUMPDEST PUSH2 0x1633 DUP3 PUSH2 0x1510 JUMP JUMPDEST SWAP1 POP PUSH1 0x20 DUP2 ADD SWAP1 POP SWAP2 SWAP1 POP JUMP JUMPDEST DUP3 DUP2 DUP4 CALLDATACOPY PUSH1 0x0 DUP4 DUP4 ADD MSTORE POP POP POP JUMP JUMPDEST PUSH1 0x0 PUSH2 0x1662 PUSH2 0x165D DUP5 PUSH2 0x160F JUMP JUMPDEST PUSH2 0x15F4 JUMP JUMPDEST SWAP1 POP DUP3 DUP2 MSTORE PUSH1 0x20 DUP2 ADD DUP5 DUP5 DUP5 ADD GT ISZERO PUSH2 0x167E JUMPI PUSH2 0x167D PUSH2 0x158F JUMP JUMPDEST JUMPDEST PUSH2 0x1689 DUP5 DUP3 DUP6 PUSH2 0x1640 JUMP JUMPDEST POP SWAP4 SWAP3 POP POP POP JUMP JUMPDEST PUSH1 0x0 DUP3 PUSH1 0x1F DUP4 ADD SLT PUSH2 0x16A6 JUMPI PUSH2 0x16A5 PUSH2 0x158A JUMP JUMPDEST JUMPDEST DUP2 CALLDATALOAD PUSH2 0x16B6 DUP5 DUP3 PUSH1 0x20 DUP7 ADD PUSH2 0x164F JUMP JUMPDEST SWAP2 POP POP SWAP3 SWAP2 POP POP JUMP JUMPDEST PUSH1 0x0 PUSH1 0x20 DUP3 DUP5 SUB SLT ISZERO PUSH2 0x16D5 JUMPI PUSH2 0x16D4 PUSH2 0x1413 JUMP JUMPDEST JUMPDEST PUSH1 0x0 DUP3 ADD CALLDATALOAD PUSH8 0xFFFFFFFFFFFFFFFF DUP2 GT ISZERO PUSH2 0x16F3 JUMPI PUSH2 0x16F2 PUSH2 0x1418 JUMP JUMPDEST JUMPDEST PUSH2 0x16FF DUP5 DUP3 DUP6 ADD PUSH2 0x1691 JUMP JUMPDEST SWAP2 POP POP SWAP3 SWAP2 POP POP JUMP JUMPDEST PUSH1 0x0 PUSH1 0x40 DUP3 ADD SWAP1 POP DUP2 DUP2 SUB PUSH1 0x0 DUP4 ADD MSTORE PUSH2 0x1722 DUP2 DUP6 PUSH2 0x1521 JUMP JUMPDEST SWAP1 POP PUSH2 0x1731 PUSH1 0x20 DUP4 ADD DUP5 PUSH2 0x14B2 JUMP JUMPDEST SWAP4 SWAP3 POP POP POP JUMP JUMPDEST PUSH2 0x1741 DUP2 PUSH2 0x141D JUMP JUMPDEST DUP3 MSTORE POP POP JUMP JUMPDEST PUSH1 0x0 PUSH1 0x20 DUP3 ADD SWAP1 POP PUSH2 0x175C PUSH1 0x0 DUP4 ADD DUP5 PUSH2 0x1738 JUMP JUMPDEST SWAP3 SWAP2 POP POP JUMP JUMPDEST PUSH1 0x0 DUP2 MLOAD SWAP1 POP SWAP2 SWAP1 POP JUMP JUMPDEST PUSH1 0x0 DUP3 DUP3 MSTORE PUSH1 0x20 DUP3 ADD SWAP1 POP SWAP3 SWAP2 POP POP JUMP JUMPDEST PUSH1 0x0 DUP2 SWAP1 POP PUSH1 0x20 DUP3 ADD SWAP1 POP SWAP2 SWAP1 POP JUMP JUMPDEST PUSH2 0x1797 DUP2 PUSH2 0x14A0 JUMP JUMPDEST DUP3 MSTORE POP POP JUMP JUMPDEST PUSH1 0x0 DUP3 DUP3 MSTORE PUSH1 0x20 DUP3 ADD SWAP1 POP SWAP3 SWAP2 POP POP JUMP JUMPDEST PUSH1 0x0 PUSH2 0x17B9 DUP3 PUSH2 0x14C1 JUMP JUMPDEST PUSH2 0x17C3 DUP2 DUP6 PUSH2 0x179D JUMP JUMPDEST SWAP4 POP PUSH2 0x17D3 DUP2 DUP6 PUSH1 0x20 DUP7 ADD PUSH2 0x14DD JUMP JUMPDEST PUSH2 0x17DC DUP2 PUSH2 0x1510 JUMP JUMPDEST DUP5 ADD SWAP2 POP POP SWAP3 SWAP2 POP POP JUMP JUMPDEST PUSH1 0x0 PUSH1 0x40 DUP4 ADD PUSH1 0x0 DUP4 ADD MLOAD PUSH2 0x17FF PUSH1 0x0 DUP7 ADD DUP3 PUSH2 0x178E JUMP JUMPDEST POP PUSH1 0x20 DUP4 ADD MLOAD DUP5 DUP3 SUB PUSH1 0x20 DUP7 ADD MSTORE PUSH2 0x1817 DUP3 DUP3 PUSH2 0x17AE JUMP JUMPDEST SWAP2 POP POP DUP1 SWAP2 POP POP SWAP3 SWAP2 POP POP JUMP JUMPDEST PUSH1 0x0 PUSH2 0x1830 DUP4 DUP4 PUSH2 0x17E7 JUMP JUMPDEST SWAP1 POP SWAP3 SWAP2 POP POP JUMP JUMPDEST PUSH1 0x0 PUSH1 0x20 DUP3 ADD SWAP1 POP SWAP2 SWAP1 POP JUMP JUMPDEST PUSH1 0x0 PUSH2 0x1850 DUP3 PUSH2 0x1762 JUMP JUMPDEST PUSH2 0x185A DUP2 DUP6 PUSH2 0x176D JUMP JUMPDEST SWAP4 POP DUP4 PUSH1 0x20 DUP3 MUL DUP6 ADD PUSH2 0x186C DUP6 PUSH2 0x177E JUMP JUMPDEST DUP1 PUSH1 0x0 JUMPDEST DUP6 DUP2 LT ISZERO PUSH2 0x18A8 JUMPI DUP5 DUP5 SUB DUP10 MSTORE DUP2 MLOAD PUSH2 0x1889 DUP6 DUP3 PUSH2 0x1824 JUMP JUMPDEST SWAP5 POP PUSH2 0x1894 DUP4 PUSH2 0x1838 JUMP JUMPDEST SWAP3 POP PUSH1 0x20 DUP11 ADD SWAP10 POP POP PUSH1 0x1 DUP2 ADD SWAP1 POP PUSH2 0x1870 JUMP JUMPDEST POP DUP3 SWAP8 POP DUP8 SWAP6 POP POP POP POP POP POP SWAP3 SWAP2 POP POP JUMP JUMPDEST PUSH1 0x0 PUSH1 0x20 DUP3 ADD SWAP1 POP DUP2 DUP2 SUB PUSH1 0x0 DUP4 ADD MSTORE PUSH2 0x18D4 DUP2 DUP5 PUSH2 0x1845 JUMP JUMPDEST SWAP1 POP SWAP3 SWAP2 POP POP JUMP JUMPDEST PUSH1 0x0 PUSH1 0x20 DUP3 ADD SWAP1 POP PUSH2 0x18F1 PUSH1 0x0 DUP4 ADD DUP5 PUSH2 0x14B2 JUMP JUMPDEST SWAP3 SWAP2 POP POP JUMP JUMPDEST PUSH2 0x1900 DUP2 PUSH2 0x14A0 JUMP JUMPDEST DUP2 EQ PUSH2 0x190B JUMPI PUSH1 0x0 DUP1 REVERT JUMPDEST POP JUMP JUMPDEST PUSH1 0x0 DUP2 CALLDATALOAD SWAP1 POP PUSH2 0x191D DUP2 PUSH2 0x18F7 JUMP JUMPDEST SWAP3 SWAP2 POP POP JUMP JUMPDEST PUSH1 0x0 DUP1 PUSH1 0x0 DUP1 PUSH1 0x0 DUP1 PUSH1 0x0 PUSH1 0xE0 DUP9 DUP11 SUB SLT ISZERO PUSH2 0x1942 JUMPI PUSH2 0x1941 PUSH2 0x1413 JUMP JUMPDEST JUMPDEST PUSH1 0x0 DUP9 ADD CALLDATALOAD PUSH8 0xFFFFFFFFFFFFFFFF DUP2 GT ISZERO PUSH2 0x1960 JUMPI PUSH2 0x195F PUSH2 0x1418 JUMP JUMPDEST JUMPDEST PUSH2 0x196C DUP11 DUP3 DUP12 ADD PUSH2 0x1691 JUMP JUMPDEST SWAP8 POP POP PUSH1 0x20 DUP9 ADD CALLDATALOAD PUSH8 0xFFFFFFFFFFFFFFFF DUP2 GT ISZERO PUSH2 0x198D JUMPI PUSH2 0x198C PUSH2 0x1418 JUMP JUMPDEST JUMPDEST PUSH2 0x1999 DUP11 DUP3 DUP12 ADD PUSH2 0x1691 JUMP JUMPDEST SWAP7 POP POP PUSH1 0x40 DUP9 ADD CALLDATALOAD PUSH8 0xFFFFFFFFFFFFFFFF DUP2 GT ISZERO PUSH2 0x19BA JUMPI PUSH2 0x19B9 PUSH2 0x1418 JUMP JUMPDEST JUMPDEST PUSH2 0x19C6 DUP11 DUP3 DUP12 ADD PUSH2 0x1691 JUMP JUMPDEST SWAP6 POP POP PUSH1 0x60 DUP9 ADD CALLDATALOAD PUSH8 0xFFFFFFFFFFFFFFFF DUP2 GT ISZERO PUSH2 0x19E7 JUMPI PUSH2 0x19E6 PUSH2 0x1418 JUMP JUMPDEST JUMPDEST PUSH2 0x19F3 DUP11 DUP3 DUP12 ADD PUSH2 0x1691 JUMP JUMPDEST SWAP5 POP POP PUSH1 0x80 DUP9 ADD CALLDATALOAD PUSH8 0xFFFFFFFFFFFFFFFF DUP2 GT ISZERO PUSH2 0x1A14 JUMPI PUSH2 0x1A13 PUSH2 0x1418 JUMP JUMPDEST JUMPDEST PUSH2 0x1A20 DUP11 DUP3 DUP12 ADD PUSH2 0x1691 JUMP JUMPDEST SWAP4 POP POP PUSH1 0xA0 PUSH2 0x1A31 DUP11 DUP3 DUP12 ADD PUSH2 0x143E JUMP JUMPDEST SWAP3 POP POP PUSH1 0xC0 PUSH2 0x1A42 DUP11 DUP3 DUP12 ADD PUSH2 0x190E JUMP JUMPDEST SWAP2 POP POP SWAP3 SWAP6 SWAP9 SWAP2 SWAP5 SWAP8 POP SWAP3 SWAP6 POP JUMP JUMPDEST PUSH1 0x0 DUP2 ISZERO ISZERO SWAP1 POP SWAP2 SWAP1 POP JUMP JUMPDEST PUSH2 0x1A66 DUP2 PUSH2 0x1A51 JUMP JUMPDEST DUP3 MSTORE POP POP JUMP JUMPDEST PUSH1 0x0 PUSH2 0x140 DUP3 ADD SWAP1 POP DUP2 DUP2 SUB PUSH1 0x0 DUP4 ADD MSTORE PUSH2 0x1A87 DUP2 DUP14 PUSH2 0x1521 JUMP JUMPDEST SWAP1 POP DUP2 DUP2 SUB PUSH1 0x20 DUP4 ADD MSTORE PUSH2 0x1A9B DUP2 DUP13 PUSH2 0x1521 JUMP JUMPDEST SWAP1 POP DUP2 DUP2 SUB PUSH1 0x40 DUP4 ADD MSTORE PUSH2 0x1AAF DUP2 DUP12 PUSH2 0x1521 JUMP JUMPDEST SWAP1 POP DUP2 DUP2 SUB PUSH1 0x60 DUP4 ADD MSTORE PUSH2 0x1AC3 DUP2 DUP11 PUSH2 0x1521 JUMP JUMPDEST SWAP1 POP DUP2 DUP2 SUB PUSH1 0x80 DUP4 ADD MSTORE PUSH2 0x1AD7 DUP2 DUP10 PUSH2 0x1521 JUMP JUMPDEST SWAP1 POP PUSH2 0x1AE6 PUSH1 0xA0 DUP4 ADD DUP9 PUSH2 0x1738 JUMP JUMPDEST PUSH2 0x1AF3 PUSH1 0xC0 DUP4 ADD DUP8 PUSH2 0x14B2 JUMP JUMPDEST PUSH2 0x1B00 PUSH1 0xE0 DUP4 ADD DUP7 PUSH2 0x14B2 JUMP JUMPDEST PUSH2 0x1B0E PUSH2 0x100 DUP4 ADD DUP6 PUSH2 0x1A5D JUMP JUMPDEST PUSH2 0x1B1C PUSH2 0x120 DUP4 ADD DUP5 PUSH2 0x1738 JUMP JUMPDEST SWAP12 SWAP11 POP POP POP POP POP POP POP POP POP POP POP JUMP JUMPDEST PUSH1 0x0 DUP2 MLOAD SWAP1 POP SWAP2 SWAP1 POP JUMP JUMPDEST PUSH1 0x0 DUP3 DUP3 MSTORE PUSH1 0x20 DUP3 ADD SWAP1 POP SWAP3 SWAP2 POP POP JUMP JUMPDEST PUSH1 0x0 DUP2 SWAP1 POP PUSH1 0x20 DUP3 ADD SWAP1 POP SWAP2 SWAP1 POP JUMP JUMPDEST PUSH1 0x0 PUSH1 0x40 DUP4 ADD PUSH1 0x0 DUP4 ADD MLOAD DUP5 DUP3 SUB PUSH1 0x0 DUP7 ADD MSTORE PUSH2 0x1B74 DUP3 DUP3 PUSH2 0x17AE JUMP JUMPDEST SWAP2 POP POP PUSH1 0x20 DUP4 ADD MLOAD PUSH2 0x1B89 PUSH1 0x20 DUP7 ADD DUP3 PUSH2 0x178E JUMP JUMPDEST POP DUP1 SWAP2 POP POP SWAP3 SWAP2 POP POP JUMP JUMPDEST PUSH1 0x0 PUSH2 0x1BA0 DUP4 DUP4 PUSH2 0x1B57 JUMP JUMPDEST SWAP1 POP SWAP3 SWAP2 POP POP JUMP JUMPDEST PUSH1 0x0 PUSH1 0x20 DUP3 ADD SWAP1 POP SWAP2 SWAP1 POP JUMP JUMPDEST PUSH1 0x0 PUSH2 0x1BC0 DUP3 PUSH2 0x1B2B JUMP JUMPDEST PUSH2 0x1BCA DUP2 DUP6 PUSH2 0x1B36 JUMP JUMPDEST SWAP4 POP DUP4 PUSH1 0x20 DUP3 MUL DUP6 ADD PUSH2 0x1BDC DUP6 PUSH2 0x1B47 JUMP JUMPDEST DUP1 PUSH1 0x0 JUMPDEST DUP6 DUP2 LT ISZERO PUSH2 0x1C18 JUMPI DUP5 DUP5 SUB DUP10 MSTORE DUP2 MLOAD PUSH2 0x1BF9 DUP6 DUP3 PUSH2 0x1B94 JUMP JUMPDEST SWAP5 POP PUSH2 0x1C04 DUP4 PUSH2 0x1BA8 JUMP JUMPDEST SWAP3 POP PUSH1 0x20 DUP11 ADD SWAP10 POP POP PUSH1 0x1 DUP2 ADD SWAP1 POP PUSH2 0x1BE0 JUMP JUMPDEST POP DUP3 SWAP8 POP DUP8 SWAP6 POP POP POP POP POP POP SWAP3 SWAP2 POP POP JUMP JUMPDEST PUSH1 0x0 PUSH1 0x20 DUP3 ADD SWAP1 POP DUP2 DUP2 SUB PUSH1 0x0 DUP4 ADD MSTORE PUSH2 0x1C44 DUP2 DUP5 PUSH2 0x1BB5 JUMP JUMPDEST SWAP1 POP SWAP3 SWAP2 POP POP JUMP JUMPDEST PUSH32 0x4E487B7100000000000000000000000000000000000000000000000000000000 PUSH1 0x0 MSTORE PUSH1 0x22 PUSH1 0x4 MSTORE PUSH1 0x24 PUSH1 0x0 REVERT JUMPDEST PUSH1 0x0 PUSH1 0x2 DUP3 DIV SWAP1 POP PUSH1 0x1 DUP3 AND DUP1 PUSH2 0x1C93 JUMPI PUSH1 0x7F DUP3 AND SWAP2 POP JUMPDEST PUSH1 0x20 DUP3 LT DUP2 EQ ISZERO PUSH2 0x1CA7 JUMPI PUSH2 0x1CA6 PUSH2 0x1C4C JUMP JUMPDEST JUMPDEST POP SWAP2 SWAP1 POP JUMP JUMPDEST PUSH32 0x4E487B7100000000000000000000000000000000000000000000000000000000 PUSH1 0x0 MSTORE PUSH1 0x32 PUSH1 0x4 MSTORE PUSH1 0x24 PUSH1 0x0 REVERT JUMPDEST PUSH32 0x4E487B7100000000000000000000000000000000000000000000000000000000 PUSH1 0x0 MSTORE PUSH1 0x11 PUSH1 0x4 MSTORE PUSH1 0x24 PUSH1 0x0 REVERT JUMPDEST PUSH1 0x0 PUSH2 0x1D16 DUP3 PUSH2 0x141D JUMP JUMPDEST SWAP2 POP PUSH32 0xFFFFFFFFFFFFFFFFFFFFFFFFFFFFFFFFFFFFFFFFFFFFFFFFFFFFFFFFFFFFFFFF DUP3 EQ ISZERO PUSH2 0x1D49 JUMPI PUSH2 0x1D48 PUSH2 0x1CDC JUMP JUMPDEST JUMPDEST PUSH1 0x1 DUP3 ADD SWAP1 POP SWAP2 SWAP1 POP JUMP JUMPDEST PUSH32 0x4E487B7100000000000000000000000000000000000000000000000000000000 PUSH1 0x0 MSTORE PUSH1 0x12 PUSH1 0x4 MSTORE PUSH1 0x24 PUSH1 0x0 REVERT JUMPDEST PUSH1 0x0 PUSH2 0x1D8E DUP3 PUSH2 0x141D JUMP JUMPDEST SWAP2 POP PUSH2 0x1D99 DUP4 PUSH2 0x141D JUMP JUMPDEST SWAP3 POP DUP3 PUSH2 0x1DA9 JUMPI PUSH2 0x1DA8 PUSH2 0x1D54 JUMP JUMPDEST JUMPDEST DUP3 DUP3 DIV SWAP1 POP SWAP3 SWAP2 POP POP JUMP INVALID LOG2 PUSH5 0x6970667358 0x22 SLT KECCAK256 0xFC 0xDA MOD AND 0xB5 SWAP9 PUSH19 0x96187E89A07099960F2F7C9D4F99BEE15168CA 0x24 GAS 0xE4 SHL 0x5F MSIZE PUSH5 0x736F6C6343 STOP ADDMOD MULMOD STOP CALLER "},"gasEstimates":{"creation":{"codeDepositCost":"1531600","executionCost":"74597","totalCost":"1606197"},"external":{"approveClaim(uint256)":"infinite","claim(string,string,string,string,string,uint256,address)":"infinite","claims(uint256)":"infinite","contribute(string)":"infinite","contributors(uint256)":"infinite","getClaimsCount()":"2490","getContributors()":"infinite","getMessages()":"infinite","getMessagesCount()":"2468","makeMessage(string)":"infinite","messages(uint256)":"infinite","owner()":"2578","population()":"2474","startStudy(uint256)":"infinite"}},"methodIdentifiers":{"approveClaim(uint256)":"46e30135","claim(string,string,string,string,string,uint256,address)":"9efb693b","claims(uint256)":"a888c2cd","contribute(string)":"5c43217b","contributors(uint256)":"3cb5d100","getClaimsCount()":"3ef8f2ba","getContributors()":"af157c19","getMessages()":"5ff6cbf3","getMessagesCount()":"3d0c46d0","makeMessage(string)":"14d5b247","messages(uint256)":"0d80fefd","owner()":"8da5cb5b","population()":"78880f4a","startStudy(uint256)":"a5f7542a"}},"storageLayout":{"storage":[{"astId":33,"contract":"Appetito.sol:Appetito","label":"owner","offset":0,"slot":"0","type":"t_address"},{"astId":37,"contract":"Appetito.sol:Appetito","label":"mappedParticipants","offset":0,"slot":"1","type":"t_mapping(t_address,t_bool)"},{"astId":39,"contract":"Appetito.sol:Appetito","label":"population","offset":0,"slot":"2","type":"t_uint256"},{"astId":43,"contract":"Appetito.sol:Appetito","label":"contributors","offset":0,"slot":"3","type":"t_array(t_struct(ContributorType)31_storage)dyn_storage"},{"astId":47,"contract":"Appetito.sol:Appetito","label":"claims","offset":0,"slot":"4","type":"t_array(t_struct(ClaimType)26_storage)dyn_storage"},{"astId":56,"contract":"Appetito.sol:Appetito","label":"messages","offset":0,"slot":"5","type":"t_array(t_struct(MessageType)52_storage)dyn_storage"}],"types":{"t_address":{"encoding":"inplace","label":"address","numberOfBytes":"20"},"t_array(t_struct(ClaimType)26_storage)dyn_storage":{"base":"t_struct(ClaimType)26_storage","encoding":"dynamic_array","label":"struct Appetito.ClaimType[]","numberOfBytes":"32"},"t_array(t_struct(ContributorType)31_storage)dyn_storage":{"base":"t_struct(ContributorType)31_storage","encoding":"dynamic_array","label":"struct Appetito.ContributorType[]","numberOfBytes":"32"},"t_array(t_struct(MessageType)52_storage)dyn_storage":{"base":"t_struct(MessageType)52_storage","encoding":"dynamic_array","label":"struct Appetito.MessageType[]","numberOfBytes":"32"},"t_bool":{"encoding":"inplace","label":"bool","numberOfBytes":"1"},"t_mapping(t_address,t_bool)":{"encoding":"mapping","key":"t_address","label":"mapping(address => bool)","numberOfBytes":"32","value":"t_bool"},"t_string_storage":{"encoding":"bytes","label":"string","numberOfBytes":"32"},"t_struct(ClaimType)26_storage":{"encoding":"inplace","label":"struct Appetito.ClaimType","members":[{"astId":3,"contract":"Appetito.sol:Appetito","label":"claimerName","offset":0,"slot":"0","type":"t_string_storage"},{"astId":5,"contract":"Appetito.sol:Appetito","label":"dreamJob","offset":0,"slot":"1","type":"t_string_storage"},{"astId":7,"contract":"Appetito.sol:Appetito","label":"materialTitle","offset":0,"slot":"2","type":"t_string_storage"},{"astId":9,"contract":"Appetito.sol:Appetito","label":"description","offset":0,"slot":"3","type":"t_string_storage"},{"astId":11,"contract":"Appetito.sol:Appetito","label":"urlSource","offset":0,"slot":"4","type":"t_string_storage"},{"astId":13,"contract":"Appetito.sol:Appetito","label":"amount","offset":0,"slot":"5","type":"t_uint256"},{"astId":15,"contract":"Appetito.sol:Appetito","label":"claimerAddress","offset":0,"slot":"6","type":"t_address"},{"astId":17,"contract":"Appetito.sol:Appetito","label":"recipientAddress","offset":0,"slot":"7","type":"t_address"},{"astId":19,"contract":"Appetito.sol:Appetito","label":"done","offset":20,"slot":"7","type":"t_bool"},{"astId":23,"contract":"Appetito.sol:Appetito","label":"approvers","offset":0,"slot":"8","type":"t_mapping(t_address,t_bool)"},{"astId":25,"contract":"Appetito.sol:Appetito","label":"approvedCounts","offset":0,"slot":"9","type":"t_uint256"}],"numberOfBytes":"320"},"t_struct(ContributorType)31_storage":{"encoding":"inplace","label":"struct Appetito.ContributorType","members":[{"astId":28,"contract":"Appetito.sol:Appetito","label":"contributorName","offset":0,"slot":"0","type":"t_string_storage"},{"astId":30,"contract":"Appetito.sol:Appetito","label":"contributorAddress","offset":0,"slot":"1","type":"t_address"}],"numberOfBytes":"64"},"t_struct(MessageType)52_storage":{"encoding":"inplace","label":"struct Appetito.MessageType","members":[{"astId":49,"contract":"Appetito.sol:Appetito","label":"sender","offset":0,"slot":"0","type":"t_address"},{"astId":51,"contract":"Appetito.sol:Appetito","label":"description","offset":0,"slot":"1","type":"t_string_storage"}],"numberOfBytes":"64"},"t_uint256":{"encoding":"inplace","label":"uint256","numberOfBytes":"32"}}},"userdoc":{"kind":"user","methods":{},"version":1}}