{"abi":[{"inputs":[],"stateMutability":"nonpayable","type":"constructor"},{"inputs":[{"internalType":"uint256","name":"index","type":"uint256"}],"name":"approveClaim","outputs":[],"stateMutability":"nonpayable","type":"function"},{"inputs":[{"internalType":"string","name":"dreamJob","type":"string"},{"internalType":"string","name":"purpose","type":"string"},{"internalType":"string","name":"description","type":"string"},{"internalType":"uint256","name":"value","type":"uint256"},{"internalType":"address","name":"to","type":"address"}],"name":"claim","outputs":[],"stateMutability":"nonpayable","type":"function"},{"inputs":[{"internalType":"uint256","name":"","type":"uint256"}],"name":"claims","outputs":[{"internalType":"string","name":"dreamJob","type":"string"},{"internalType":"string","name":"purpose","type":"string"},{"internalType":"string","name":"description","type":"string"},{"internalType":"uint256","name":"value","type":"uint256"},{"internalType":"address","name":"claimer","type":"address"},{"internalType":"address","name":"to","type":"address"},{"internalType":"bool","name":"done","type":"bool"},{"internalType":"uint256","name":"approvedCounts","type":"uint256"}],"stateMutability":"view","type":"function"},{"inputs":[],"name":"contribute","outputs":[],"stateMutability":"payable","type":"function"},{"inputs":[{"internalType":"address","name":"","type":"address"}],"name":"contributors","outputs":[{"internalType":"bool","name":"","type":"bool"}],"stateMutability":"view","type":"function"},{"inputs":[],"name":"owner","outputs":[{"internalType":"address","name":"","type":"address"}],"stateMutability":"view","type":"function"},{"inputs":[],"name":"population","outputs":[{"internalType":"uint256","name":"","type":"uint256"}],"stateMutability":"view","type":"function"},{"inputs":[],"name":"requestIndex","outputs":[{"internalType":"uint256","name":"","type":"uint256"}],"stateMutability":"view","type":"function"},{"inputs":[{"internalType":"uint256","name":"index","type":"uint256"}],"name":"startStudy","outputs":[],"stateMutability":"payable","type":"function"}],"devdoc":{"kind":"dev","methods":{},"version":1},"evm":{"assembly":"    /* \"Appetito.sol\":57:1888  contract Appetito {... */\n  mstore(0x40, 0x80)\n    /* \"Appetito.sol\":525:567  constructor(){... */\n  callvalue\n  dup1\n  iszero\n  tag_1\n  jumpi\n  0x00\n  dup1\n  revert\ntag_1:\n  pop\n    /* \"Appetito.sol\":552:562  msg.sender */\n  caller\n    /* \"Appetito.sol\":544:549  owner */\n  0x00\n  dup1\n    /* \"Appetito.sol\":544:562  owner = msg.sender */\n  0x0100\n  exp\n  dup2\n  sload\n  dup2\n  0xffffffffffffffffffffffffffffffffffffffff\n  mul\n  not\n  and\n  swap1\n  dup4\n  0xffffffffffffffffffffffffffffffffffffffff\n  and\n  mul\n  or\n  swap1\n  sstore\n  pop\n    /* \"Appetito.sol\":57:1888  contract Appetito {... */\n  dataSize(sub_0)\n  dup1\n  dataOffset(sub_0)\n  0x00\n  codecopy\n  0x00\n  return\nstop\n\nsub_0: assembly {\n        /* \"Appetito.sol\":57:1888  contract Appetito {... */\n      mstore(0x40, 0x80)\n      jumpi(tag_1, lt(calldatasize, 0x04))\n      shr(0xe0, calldataload(0x00))\n      dup1\n      0x8da5cb5b\n      gt\n      tag_11\n      jumpi\n      dup1\n      0x8da5cb5b\n      eq\n      tag_6\n      jumpi\n      dup1\n      0xa5f7542a\n      eq\n      tag_7\n      jumpi\n      dup1\n      0xa888c2cd\n      eq\n      tag_8\n      jumpi\n      dup1\n      0xd7bb99ba\n      eq\n      tag_9\n      jumpi\n      dup1\n      0xec729859\n      eq\n      tag_10\n      jumpi\n      jump(tag_1)\n    tag_11:\n      dup1\n      0x1f6d4942\n      eq\n      tag_2\n      jumpi\n      dup1\n      0x420714bd\n      eq\n      tag_3\n      jumpi\n      dup1\n      0x46e30135\n      eq\n      tag_4\n      jumpi\n      dup1\n      0x78880f4a\n      eq\n      tag_5\n      jumpi\n    tag_1:\n      0x00\n      dup1\n      revert\n        /* \"Appetito.sol\":328:372  mapping(address => bool) public contributors */\n    tag_2:\n      callvalue\n      dup1\n      iszero\n      tag_12\n      jumpi\n      0x00\n      dup1\n      revert\n    tag_12:\n      pop\n      tag_13\n      0x04\n      dup1\n      calldatasize\n      sub\n      dup2\n      add\n      swap1\n      tag_14\n      swap2\n      swap1\n      tag_15\n      jump\t// in\n    tag_14:\n      tag_16\n      jump\t// in\n    tag_13:\n      mload(0x40)\n      tag_17\n      swap2\n      swap1\n      tag_18\n      jump\t// in\n    tag_17:\n      mload(0x40)\n      dup1\n      swap2\n      sub\n      swap1\n      return\n        /* \"Appetito.sol\":439:463  uint public requestIndex */\n    tag_3:\n      callvalue\n      dup1\n      iszero\n      tag_19\n      jumpi\n      0x00\n      dup1\n      revert\n    tag_19:\n      pop\n      tag_20\n      tag_21\n      jump\t// in\n    tag_20:\n      mload(0x40)\n      tag_22\n      swap2\n      swap1\n      tag_23\n      jump\t// in\n    tag_22:\n      mload(0x40)\n      dup1\n      swap2\n      sub\n      swap1\n      return\n        /* \"Appetito.sol\":1447:1621  function approveClaim(uint index) public {... */\n    tag_4:\n      callvalue\n      dup1\n      iszero\n      tag_24\n      jumpi\n      0x00\n      dup1\n      revert\n    tag_24:\n      pop\n      tag_25\n      0x04\n      dup1\n      calldatasize\n      sub\n      dup2\n      add\n      swap1\n      tag_26\n      swap2\n      swap1\n      tag_27\n      jump\t// in\n    tag_26:\n      tag_28\n      jump\t// in\n    tag_25:\n      stop\n        /* \"Appetito.sol\":376:398  uint public population */\n    tag_5:\n      callvalue\n      dup1\n      iszero\n      tag_29\n      jumpi\n      0x00\n      dup1\n      revert\n    tag_29:\n      pop\n      tag_30\n      tag_31\n      jump\t// in\n    tag_30:\n      mload(0x40)\n      tag_32\n      swap2\n      swap1\n      tag_23\n      jump\t// in\n    tag_32:\n      mload(0x40)\n      dup1\n      swap2\n      sub\n      swap1\n      return\n        /* \"Appetito.sol\":304:324  address public owner */\n    tag_6:\n      callvalue\n      dup1\n      iszero\n      tag_33\n      jumpi\n      0x00\n      dup1\n      revert\n    tag_33:\n      pop\n      tag_34\n      tag_35\n      jump\t// in\n    tag_34:\n      mload(0x40)\n      tag_36\n      swap2\n      swap1\n      tag_37\n      jump\t// in\n    tag_36:\n      mload(0x40)\n      dup1\n      swap2\n      sub\n      swap1\n      return\n        /* \"Appetito.sol\":1625:1886  function startStudy(uint index) public payable {... */\n    tag_7:\n      tag_38\n      0x04\n      dup1\n      calldatasize\n      sub\n      dup2\n      add\n      swap1\n      tag_39\n      swap2\n      swap1\n      tag_27\n      jump\t// in\n    tag_39:\n      tag_40\n      jump\t// in\n    tag_38:\n      stop\n        /* \"Appetito.sol\":467:507  mapping(uint => ClaimType) public claims */\n    tag_8:\n      callvalue\n      dup1\n      iszero\n      tag_41\n      jumpi\n      0x00\n      dup1\n      revert\n    tag_41:\n      pop\n      tag_42\n      0x04\n      dup1\n      calldatasize\n      sub\n      dup2\n      add\n      swap1\n      tag_43\n      swap2\n      swap1\n      tag_27\n      jump\t// in\n    tag_43:\n      tag_44\n      jump\t// in\n    tag_42:\n      mload(0x40)\n      tag_45\n      swap9\n      swap8\n      swap7\n      swap6\n      swap5\n      swap4\n      swap3\n      swap2\n      swap1\n      tag_46\n      jump\t// in\n    tag_45:\n      mload(0x40)\n      dup1\n      swap2\n      sub\n      swap1\n      return\n        /* \"Appetito.sol\":571:697  function contribute() public payable {... */\n    tag_9:\n      tag_47\n      tag_48\n      jump\t// in\n    tag_47:\n      stop\n        /* \"Appetito.sol\":701:1443  function claim(string memory dreamJob, string memory purpose, string memory description, uint value, address to) public {... */\n    tag_10:\n      callvalue\n      dup1\n      iszero\n      tag_49\n      jumpi\n      0x00\n      dup1\n      revert\n    tag_49:\n      pop\n      tag_50\n      0x04\n      dup1\n      calldatasize\n      sub\n      dup2\n      add\n      swap1\n      tag_51\n      swap2\n      swap1\n      tag_52\n      jump\t// in\n    tag_51:\n      tag_53\n      jump\t// in\n    tag_50:\n      stop\n        /* \"Appetito.sol\":328:372  mapping(address => bool) public contributors */\n    tag_16:\n      mstore(0x20, 0x01)\n      dup1\n      0x00\n      mstore\n      keccak256(0x00, 0x40)\n      0x00\n      swap2\n      pop\n      sload\n      swap1\n      0x0100\n      exp\n      swap1\n      div\n      0xff\n      and\n      dup2\n      jump\t// out\n        /* \"Appetito.sol\":439:463  uint public requestIndex */\n    tag_21:\n      sload(0x03)\n      dup2\n      jump\t// out\n        /* \"Appetito.sol\":1447:1621  function approveClaim(uint index) public {... */\n    tag_28:\n        /* \"Appetito.sol\":1503:1509  claims */\n      0x04\n        /* \"Appetito.sol\":1503:1516  claims[index] */\n      0x00\n        /* \"Appetito.sol\":1510:1515  index */\n      dup3\n        /* \"Appetito.sol\":1503:1516  claims[index] */\n      dup2\n      mstore\n      0x20\n      add\n      swap1\n      dup2\n      mstore\n      0x20\n      add\n      0x00\n      keccak256\n        /* \"Appetito.sol\":1503:1526  claims[index].approvers */\n      0x06\n      add\n        /* \"Appetito.sol\":1503:1538  claims[index].approvers[msg.sender] */\n      0x00\n        /* \"Appetito.sol\":1527:1537  msg.sender */\n      caller\n        /* \"Appetito.sol\":1503:1538  claims[index].approvers[msg.sender] */\n      0xffffffffffffffffffffffffffffffffffffffff\n      and\n      0xffffffffffffffffffffffffffffffffffffffff\n      and\n      dup2\n      mstore\n      0x20\n      add\n      swap1\n      dup2\n      mstore\n      0x20\n      add\n      0x00\n      keccak256\n      0x00\n      swap1\n      sload\n      swap1\n      0x0100\n      exp\n      swap1\n      div\n      0xff\n      and\n        /* \"Appetito.sol\":1502:1538  !claims[index].approvers[msg.sender] */\n      iszero\n        /* \"Appetito.sol\":1494:1539  require(!claims[index].approvers[msg.sender]) */\n      tag_55\n      jumpi\n      0x00\n      dup1\n      revert\n    tag_55:\n        /* \"Appetito.sol\":1545:1551  claims */\n      0x04\n        /* \"Appetito.sol\":1545:1558  claims[index] */\n      0x00\n        /* \"Appetito.sol\":1552:1557  index */\n      dup3\n        /* \"Appetito.sol\":1545:1558  claims[index] */\n      dup2\n      mstore\n      0x20\n      add\n      swap1\n      dup2\n      mstore\n      0x20\n      add\n      0x00\n      keccak256\n        /* \"Appetito.sol\":1545:1568  claims[index].approvers */\n      0x06\n      add\n        /* \"Appetito.sol\":1545:1580  claims[index].approvers[msg.sender] */\n      0x00\n        /* \"Appetito.sol\":1569:1579  msg.sender */\n      caller\n        /* \"Appetito.sol\":1545:1580  claims[index].approvers[msg.sender] */\n      0xffffffffffffffffffffffffffffffffffffffff\n      and\n      0xffffffffffffffffffffffffffffffffffffffff\n      and\n      dup2\n      mstore\n      0x20\n      add\n      swap1\n      dup2\n      mstore\n      0x20\n      add\n      0x00\n      keccak256\n      0x00\n      swap1\n      sload\n      swap1\n      0x0100\n      exp\n      swap1\n      pop\n      pop\n        /* \"Appetito.sol\":1586:1592  claims */\n      0x04\n        /* \"Appetito.sol\":1586:1599  claims[index] */\n      0x00\n        /* \"Appetito.sol\":1593:1598  index */\n      dup3\n        /* \"Appetito.sol\":1586:1599  claims[index] */\n      dup2\n      mstore\n      0x20\n      add\n      swap1\n      dup2\n      mstore\n      0x20\n      add\n      0x00\n      keccak256\n        /* \"Appetito.sol\":1586:1614  claims[index].approvedCounts */\n      0x07\n      add\n      0x00\n        /* \"Appetito.sol\":1586:1616  claims[index].approvedCounts++ */\n      dup2\n      sload\n      dup1\n      swap3\n      swap2\n      swap1\n      tag_56\n      swap1\n      tag_57\n      jump\t// in\n    tag_56:\n      swap2\n      swap1\n      pop\n      sstore\n      pop\n        /* \"Appetito.sol\":1447:1621  function approveClaim(uint index) public {... */\n      pop\n      jump\t// out\n        /* \"Appetito.sol\":376:398  uint public population */\n    tag_31:\n      sload(0x02)\n      dup2\n      jump\t// out\n        /* \"Appetito.sol\":304:324  address public owner */\n    tag_35:\n      0x00\n      dup1\n      sload\n      swap1\n      0x0100\n      exp\n      swap1\n      div\n      0xffffffffffffffffffffffffffffffffffffffff\n      and\n      dup2\n      jump\t// out\n        /* \"Appetito.sol\":1625:1886  function startStudy(uint index) public payable {... */\n    tag_40:\n        /* \"Appetito.sol\":1700:1706  claims */\n      0x04\n        /* \"Appetito.sol\":1700:1713  claims[index] */\n      0x00\n        /* \"Appetito.sol\":1707:1712  index */\n      dup3\n        /* \"Appetito.sol\":1700:1713  claims[index] */\n      dup2\n      mstore\n      0x20\n      add\n      swap1\n      dup2\n      mstore\n      0x20\n      add\n      0x00\n      keccak256\n        /* \"Appetito.sol\":1700:1721  claims[index].claimer */\n      0x04\n      add\n      0x00\n      swap1\n      sload\n      swap1\n      0x0100\n      exp\n      swap1\n      div\n      0xffffffffffffffffffffffffffffffffffffffff\n      and\n        /* \"Appetito.sol\":1686:1721  msg.sender == claims[index].claimer */\n      0xffffffffffffffffffffffffffffffffffffffff\n      and\n        /* \"Appetito.sol\":1686:1696  msg.sender */\n      caller\n        /* \"Appetito.sol\":1686:1721  msg.sender == claims[index].claimer */\n      0xffffffffffffffffffffffffffffffffffffffff\n      and\n      eq\n        /* \"Appetito.sol\":1678:1722  require(msg.sender == claims[index].claimer) */\n      tag_59\n      jumpi\n      0x00\n      dup1\n      revert\n    tag_59:\n        /* \"Appetito.sol\":1781:1782  2 */\n      0x02\n        /* \"Appetito.sol\":1768:1778  population */\n      dup1\n      sload\n        /* \"Appetito.sol\":1768:1782  population / 2 */\n      tag_60\n      swap2\n      swap1\n      tag_61\n      jump\t// in\n    tag_60:\n        /* \"Appetito.sol\":1736:1742  claims */\n      0x04\n        /* \"Appetito.sol\":1736:1749  claims[index] */\n      0x00\n        /* \"Appetito.sol\":1743:1748  index */\n      dup4\n        /* \"Appetito.sol\":1736:1749  claims[index] */\n      dup2\n      mstore\n      0x20\n      add\n      swap1\n      dup2\n      mstore\n      0x20\n      add\n      0x00\n      keccak256\n        /* \"Appetito.sol\":1736:1764  claims[index].approvedCounts */\n      0x07\n      add\n      sload\n        /* \"Appetito.sol\":1736:1783  claims[index].approvedCounts > (population / 2) */\n      gt\n        /* \"Appetito.sol\":1728:1784  require(claims[index].approvedCounts > (population / 2)) */\n      tag_62\n      jumpi\n      0x00\n      dup1\n      revert\n    tag_62:\n        /* \"Appetito.sol\":1799:1805  claims */\n      0x04\n        /* \"Appetito.sol\":1799:1812  claims[index] */\n      0x00\n        /* \"Appetito.sol\":1806:1811  index */\n      dup3\n        /* \"Appetito.sol\":1799:1812  claims[index] */\n      dup2\n      mstore\n      0x20\n      add\n      swap1\n      dup2\n      mstore\n      0x20\n      add\n      0x00\n      keccak256\n        /* \"Appetito.sol\":1799:1817  claims[index].done */\n      0x05\n      add\n      0x14\n      swap1\n      sload\n      swap1\n      0x0100\n      exp\n      swap1\n      div\n      0xff\n      and\n        /* \"Appetito.sol\":1798:1817  !claims[index].done */\n      iszero\n        /* \"Appetito.sol\":1790:1818  require(!claims[index].done) */\n      tag_63\n      jumpi\n      0x00\n      dup1\n      revert\n    tag_63:\n        /* \"Appetito.sol\":1834:1840  claims */\n      0x04\n        /* \"Appetito.sol\":1834:1847  claims[index] */\n      0x00\n        /* \"Appetito.sol\":1841:1846  index */\n      dup3\n        /* \"Appetito.sol\":1834:1847  claims[index] */\n      dup2\n      mstore\n      0x20\n      add\n      swap1\n      dup2\n      mstore\n      0x20\n      add\n      0x00\n      keccak256\n        /* \"Appetito.sol\":1834:1850  claims[index].to */\n      0x05\n      add\n      0x00\n      swap1\n      sload\n      swap1\n      0x0100\n      exp\n      swap1\n      div\n      0xffffffffffffffffffffffffffffffffffffffff\n      and\n        /* \"Appetito.sol\":1825:1860  payable (claims[index].to).transfer */\n      0xffffffffffffffffffffffffffffffffffffffff\n      and\n        /* \"Appetito.sol\":1825:1881  payable (claims[index].to).transfer(claims[index].value) */\n      0x08fc\n        /* \"Appetito.sol\":1861:1867  claims */\n      0x04\n        /* \"Appetito.sol\":1861:1874  claims[index] */\n      0x00\n        /* \"Appetito.sol\":1868:1873  index */\n      dup5\n        /* \"Appetito.sol\":1861:1874  claims[index] */\n      dup2\n      mstore\n      0x20\n      add\n      swap1\n      dup2\n      mstore\n      0x20\n      add\n      0x00\n      keccak256\n        /* \"Appetito.sol\":1861:1880  claims[index].value */\n      0x03\n      add\n      sload\n        /* \"Appetito.sol\":1825:1881  payable (claims[index].to).transfer(claims[index].value) */\n      swap1\n      dup2\n      iszero\n      mul\n      swap1\n      mload(0x40)\n      0x00\n      mload(0x40)\n      dup1\n      dup4\n      sub\n      dup2\n      dup6\n      dup9\n      dup9\n      call\n      swap4\n      pop\n      pop\n      pop\n      pop\n      iszero\n      dup1\n      iszero\n      tag_65\n      jumpi\n      returndatasize\n      0x00\n      dup1\n      returndatacopy\n      revert(0x00, returndatasize)\n    tag_65:\n      pop\n        /* \"Appetito.sol\":1625:1886  function startStudy(uint index) public payable {... */\n      pop\n      jump\t// out\n        /* \"Appetito.sol\":467:507  mapping(uint => ClaimType) public claims */\n    tag_44:\n      mstore(0x20, 0x04)\n      dup1\n      0x00\n      mstore\n      keccak256(0x00, 0x40)\n      0x00\n      swap2\n      pop\n      swap1\n      pop\n      dup1\n      0x00\n      add\n      dup1\n      sload\n      tag_66\n      swap1\n      tag_67\n      jump\t// in\n    tag_66:\n      dup1\n      0x1f\n      add\n      0x20\n      dup1\n      swap2\n      div\n      mul\n      0x20\n      add\n      mload(0x40)\n      swap1\n      dup2\n      add\n      0x40\n      mstore\n      dup1\n      swap3\n      swap2\n      swap1\n      dup2\n      dup2\n      mstore\n      0x20\n      add\n      dup3\n      dup1\n      sload\n      tag_68\n      swap1\n      tag_67\n      jump\t// in\n    tag_68:\n      dup1\n      iszero\n      tag_69\n      jumpi\n      dup1\n      0x1f\n      lt\n      tag_70\n      jumpi\n      0x0100\n      dup1\n      dup4\n      sload\n      div\n      mul\n      dup4\n      mstore\n      swap2\n      0x20\n      add\n      swap2\n      jump(tag_69)\n    tag_70:\n      dup3\n      add\n      swap2\n      swap1\n      0x00\n      mstore\n      keccak256(0x00, 0x20)\n      swap1\n    tag_71:\n      dup2\n      sload\n      dup2\n      mstore\n      swap1\n      0x01\n      add\n      swap1\n      0x20\n      add\n      dup1\n      dup4\n      gt\n      tag_71\n      jumpi\n      dup3\n      swap1\n      sub\n      0x1f\n      and\n      dup3\n      add\n      swap2\n    tag_69:\n      pop\n      pop\n      pop\n      pop\n      pop\n      swap1\n      dup1\n      0x01\n      add\n      dup1\n      sload\n      tag_72\n      swap1\n      tag_67\n      jump\t// in\n    tag_72:\n      dup1\n      0x1f\n      add\n      0x20\n      dup1\n      swap2\n      div\n      mul\n      0x20\n      add\n      mload(0x40)\n      swap1\n      dup2\n      add\n      0x40\n      mstore\n      dup1\n      swap3\n      swap2\n      swap1\n      dup2\n      dup2\n      mstore\n      0x20\n      add\n      dup3\n      dup1\n      sload\n      tag_73\n      swap1\n      tag_67\n      jump\t// in\n    tag_73:\n      dup1\n      iszero\n      tag_74\n      jumpi\n      dup1\n      0x1f\n      lt\n      tag_75\n      jumpi\n      0x0100\n      dup1\n      dup4\n      sload\n      div\n      mul\n      dup4\n      mstore\n      swap2\n      0x20\n      add\n      swap2\n      jump(tag_74)\n    tag_75:\n      dup3\n      add\n      swap2\n      swap1\n      0x00\n      mstore\n      keccak256(0x00, 0x20)\n      swap1\n    tag_76:\n      dup2\n      sload\n      dup2\n      mstore\n      swap1\n      0x01\n      add\n      swap1\n      0x20\n      add\n      dup1\n      dup4\n      gt\n      tag_76\n      jumpi\n      dup3\n      swap1\n      sub\n      0x1f\n      and\n      dup3\n      add\n      swap2\n    tag_74:\n      pop\n      pop\n      pop\n      pop\n      pop\n      swap1\n      dup1\n      0x02\n      add\n      dup1\n      sload\n      tag_77\n      swap1\n      tag_67\n      jump\t// in\n    tag_77:\n      dup1\n      0x1f\n      add\n      0x20\n      dup1\n      swap2\n      div\n      mul\n      0x20\n      add\n      mload(0x40)\n      swap1\n      dup2\n      add\n      0x40\n      mstore\n      dup1\n      swap3\n      swap2\n      swap1\n      dup2\n      dup2\n      mstore\n      0x20\n      add\n      dup3\n      dup1\n      sload\n      tag_78\n      swap1\n      tag_67\n      jump\t// in\n    tag_78:\n      dup1\n      iszero\n      tag_79\n      jumpi\n      dup1\n      0x1f\n      lt\n      tag_80\n      jumpi\n      0x0100\n      dup1\n      dup4\n      sload\n      div\n      mul\n      dup4\n      mstore\n      swap2\n      0x20\n      add\n      swap2\n      jump(tag_79)\n    tag_80:\n      dup3\n      add\n      swap2\n      swap1\n      0x00\n      mstore\n      keccak256(0x00, 0x20)\n      swap1\n    tag_81:\n      dup2\n      sload\n      dup2\n      mstore\n      swap1\n      0x01\n      add\n      swap1\n      0x20\n      add\n      dup1\n      dup4\n      gt\n      tag_81\n      jumpi\n      dup3\n      swap1\n      sub\n      0x1f\n      and\n      dup3\n      add\n      swap2\n    tag_79:\n      pop\n      pop\n      pop\n      pop\n      pop\n      swap1\n      dup1\n      0x03\n      add\n      sload\n      swap1\n      dup1\n      0x04\n      add\n      0x00\n      swap1\n      sload\n      swap1\n      0x0100\n      exp\n      swap1\n      div\n      0xffffffffffffffffffffffffffffffffffffffff\n      and\n      swap1\n      dup1\n      0x05\n      add\n      0x00\n      swap1\n      sload\n      swap1\n      0x0100\n      exp\n      swap1\n      div\n      0xffffffffffffffffffffffffffffffffffffffff\n      and\n      swap1\n      dup1\n      0x05\n      add\n      0x14\n      swap1\n      sload\n      swap1\n      0x0100\n      exp\n      swap1\n      div\n      0xff\n      and\n      swap1\n      dup1\n      0x07\n      add\n      sload\n      swap1\n      pop\n      dup9\n      jump\t// out\n        /* \"Appetito.sol\":571:697  function contribute() public payable {... */\n    tag_48:\n        /* \"Appetito.sol\":635:636  1 */\n      0x01\n        /* \"Appetito.sol\":622:631  msg.value */\n      callvalue\n        /* \"Appetito.sol\":622:636  msg.value >= 1 */\n      lt\n      iszero\n        /* \"Appetito.sol\":614:637  require(msg.value >= 1) */\n      tag_83\n      jumpi\n      0x00\n      dup1\n      revert\n    tag_83:\n        /* \"Appetito.sol\":670:674  true */\n      0x01\n        /* \"Appetito.sol\":643:655  contributors */\n      dup1\n        /* \"Appetito.sol\":643:667  contributors[msg.sender] */\n      0x00\n        /* \"Appetito.sol\":656:666  msg.sender */\n      caller\n        /* \"Appetito.sol\":643:667  contributors[msg.sender] */\n      0xffffffffffffffffffffffffffffffffffffffff\n      and\n      0xffffffffffffffffffffffffffffffffffffffff\n      and\n      dup2\n      mstore\n      0x20\n      add\n      swap1\n      dup2\n      mstore\n      0x20\n      add\n      0x00\n      keccak256\n      0x00\n        /* \"Appetito.sol\":643:674  contributors[msg.sender] = true */\n      0x0100\n      exp\n      dup2\n      sload\n      dup2\n      0xff\n      mul\n      not\n      and\n      swap1\n      dup4\n      iszero\n      iszero\n      mul\n      or\n      swap1\n      sstore\n      pop\n        /* \"Appetito.sol\":680:690  population */\n      0x02\n      0x00\n        /* \"Appetito.sol\":680:692  population++ */\n      dup2\n      sload\n      dup1\n      swap3\n      swap2\n      swap1\n      tag_84\n      swap1\n      tag_57\n      jump\t// in\n    tag_84:\n      swap2\n      swap1\n      pop\n      sstore\n      pop\n        /* \"Appetito.sol\":571:697  function contribute() public payable {... */\n      jump\t// out\n        /* \"Appetito.sol\":701:1443  function claim(string memory dreamJob, string memory purpose, string memory description, uint value, address to) public {... */\n    tag_53:\n        /* \"Appetito.sol\":1099:1125  ClaimType storage newClaim */\n      0x00\n        /* \"Appetito.sol\":1128:1134  claims */\n      0x04\n        /* \"Appetito.sol\":1128:1148  claims[requestIndex] */\n      0x00\n        /* \"Appetito.sol\":1135:1147  requestIndex */\n      sload(0x03)\n        /* \"Appetito.sol\":1128:1148  claims[requestIndex] */\n      dup2\n      mstore\n      0x20\n      add\n      swap1\n      dup2\n      mstore\n      0x20\n      add\n      0x00\n      keccak256\n        /* \"Appetito.sol\":1099:1148  ClaimType storage newClaim = claims[requestIndex] */\n      swap1\n      pop\n        /* \"Appetito.sol\":1154:1166  requestIndex */\n      0x03\n      0x00\n        /* \"Appetito.sol\":1154:1168  requestIndex++ */\n      dup2\n      sload\n      dup1\n      swap3\n      swap2\n      swap1\n      tag_86\n      swap1\n      tag_57\n      jump\t// in\n    tag_86:\n      swap2\n      swap1\n      pop\n      sstore\n      pop\n        /* \"Appetito.sol\":1194:1202  dreamJob */\n      dup6\n        /* \"Appetito.sol\":1174:1182  newClaim */\n      dup2\n        /* \"Appetito.sol\":1174:1191  newClaim.dreamJob */\n      0x00\n      add\n        /* \"Appetito.sol\":1174:1202  newClaim.dreamJob = dreamJob */\n      swap1\n      dup1\n      mload\n      swap1\n      0x20\n      add\n      swap1\n      tag_87\n      swap3\n      swap2\n      swap1\n      tag_88\n      jump\t// in\n    tag_87:\n      pop\n        /* \"Appetito.sol\":1227:1234  purpose */\n      dup5\n        /* \"Appetito.sol\":1208:1216  newClaim */\n      dup2\n        /* \"Appetito.sol\":1208:1224  newClaim.purpose */\n      0x01\n      add\n        /* \"Appetito.sol\":1208:1234  newClaim.purpose = purpose */\n      swap1\n      dup1\n      mload\n      swap1\n      0x20\n      add\n      swap1\n      tag_89\n      swap3\n      swap2\n      swap1\n      tag_88\n      jump\t// in\n    tag_89:\n      pop\n        /* \"Appetito.sol\":1263:1274  description */\n      dup4\n        /* \"Appetito.sol\":1240:1248  newClaim */\n      dup2\n        /* \"Appetito.sol\":1240:1260  newClaim.description */\n      0x02\n      add\n        /* \"Appetito.sol\":1240:1274  newClaim.description = description */\n      swap1\n      dup1\n      mload\n      swap1\n      0x20\n      add\n      swap1\n      tag_90\n      swap3\n      swap2\n      swap1\n      tag_88\n      jump\t// in\n    tag_90:\n      pop\n        /* \"Appetito.sol\":1297:1302  value */\n      dup3\n        /* \"Appetito.sol\":1280:1288  newClaim */\n      dup2\n        /* \"Appetito.sol\":1280:1294  newClaim.value */\n      0x03\n      add\n        /* \"Appetito.sol\":1280:1302  newClaim.value = value */\n      dup2\n      swap1\n      sstore\n      pop\n        /* \"Appetito.sol\":1327:1337  msg.sender */\n      caller\n        /* \"Appetito.sol\":1308:1316  newClaim */\n      dup2\n        /* \"Appetito.sol\":1308:1324  newClaim.claimer */\n      0x04\n      add\n      0x00\n        /* \"Appetito.sol\":1308:1337  newClaim.claimer = msg.sender */\n      0x0100\n      exp\n      dup2\n      sload\n      dup2\n      0xffffffffffffffffffffffffffffffffffffffff\n      mul\n      not\n      and\n      swap1\n      dup4\n      0xffffffffffffffffffffffffffffffffffffffff\n      and\n      mul\n      or\n      swap1\n      sstore\n      pop\n        /* \"Appetito.sol\":1357:1359  to */\n      dup2\n        /* \"Appetito.sol\":1343:1351  newClaim */\n      dup2\n        /* \"Appetito.sol\":1343:1354  newClaim.to */\n      0x05\n      add\n      0x00\n        /* \"Appetito.sol\":1343:1359  newClaim.to = to */\n      0x0100\n      exp\n      dup2\n      sload\n      dup2\n      0xffffffffffffffffffffffffffffffffffffffff\n      mul\n      not\n      and\n      swap1\n      dup4\n      0xffffffffffffffffffffffffffffffffffffffff\n      and\n      mul\n      or\n      swap1\n      sstore\n      pop\n        /* \"Appetito.sol\":1381:1386  false */\n      0x00\n        /* \"Appetito.sol\":1365:1373  newClaim */\n      dup2\n        /* \"Appetito.sol\":1365:1378  newClaim.done */\n      0x05\n      add\n      0x14\n        /* \"Appetito.sol\":1365:1386  newClaim.done = false */\n      0x0100\n      exp\n      dup2\n      sload\n      dup2\n      0xff\n      mul\n      not\n      and\n      swap1\n      dup4\n      iszero\n      iszero\n      mul\n      or\n      swap1\n      sstore\n      pop\n        /* \"Appetito.sol\":1418:1419  0 */\n      0x00\n        /* \"Appetito.sol\":1392:1400  newClaim */\n      dup2\n        /* \"Appetito.sol\":1392:1415  newClaim.approvedCounts */\n      0x07\n      add\n        /* \"Appetito.sol\":1392:1419  newClaim.approvedCounts = 0 */\n      dup2\n      swap1\n      sstore\n      pop\n        /* \"Appetito.sol\":1426:1436  population */\n      0x02\n      0x00\n        /* \"Appetito.sol\":1426:1438  population++ */\n      dup2\n      sload\n      dup1\n      swap3\n      swap2\n      swap1\n      tag_91\n      swap1\n      tag_57\n      jump\t// in\n    tag_91:\n      swap2\n      swap1\n      pop\n      sstore\n      pop\n        /* \"Appetito.sol\":821:1443  {... */\n      pop\n        /* \"Appetito.sol\":701:1443  function claim(string memory dreamJob, string memory purpose, string memory description, uint value, address to) public {... */\n      pop\n      pop\n      pop\n      pop\n      pop\n      jump\t// out\n    tag_88:\n      dup3\n      dup1\n      sload\n      tag_92\n      swap1\n      tag_67\n      jump\t// in\n    tag_92:\n      swap1\n      0x00\n      mstore\n      keccak256(0x00, 0x20)\n      swap1\n      0x1f\n      add\n      0x20\n      swap1\n      div\n      dup2\n      add\n      swap3\n      dup3\n      tag_94\n      jumpi\n      0x00\n      dup6\n      sstore\n      jump(tag_93)\n    tag_94:\n      dup3\n      0x1f\n      lt\n      tag_95\n      jumpi\n      dup1\n      mload\n      not(0xff)\n      and\n      dup4\n      dup1\n      add\n      or\n      dup6\n      sstore\n      jump(tag_93)\n    tag_95:\n      dup3\n      dup1\n      add\n      0x01\n      add\n      dup6\n      sstore\n      dup3\n      iszero\n      tag_93\n      jumpi\n      swap2\n      dup3\n      add\n    tag_96:\n      dup3\n      dup2\n      gt\n      iszero\n      tag_97\n      jumpi\n      dup3\n      mload\n      dup3\n      sstore\n      swap2\n      0x20\n      add\n      swap2\n      swap1\n      0x01\n      add\n      swap1\n      jump(tag_96)\n    tag_97:\n    tag_93:\n      pop\n      swap1\n      pop\n      tag_98\n      swap2\n      swap1\n      tag_99\n      jump\t// in\n    tag_98:\n      pop\n      swap1\n      jump\t// out\n    tag_99:\n    tag_100:\n      dup1\n      dup3\n      gt\n      iszero\n      tag_101\n      jumpi\n      0x00\n      dup2\n      0x00\n      swap1\n      sstore\n      pop\n      0x01\n      add\n      jump(tag_100)\n    tag_101:\n      pop\n      swap1\n      jump\t// out\n        /* \"#utility.yul\":7:82   */\n    tag_102:\n        /* \"#utility.yul\":40:46   */\n      0x00\n        /* \"#utility.yul\":73:75   */\n      0x40\n        /* \"#utility.yul\":67:76   */\n      mload\n        /* \"#utility.yul\":57:76   */\n      swap1\n      pop\n        /* \"#utility.yul\":7:82   */\n      swap1\n      jump\t// out\n        /* \"#utility.yul\":88:205   */\n    tag_103:\n        /* \"#utility.yul\":197:198   */\n      0x00\n        /* \"#utility.yul\":194:195   */\n      dup1\n        /* \"#utility.yul\":187:199   */\n      revert\n        /* \"#utility.yul\":211:328   */\n    tag_104:\n        /* \"#utility.yul\":320:321   */\n      0x00\n        /* \"#utility.yul\":317:318   */\n      dup1\n        /* \"#utility.yul\":310:322   */\n      revert\n        /* \"#utility.yul\":334:460   */\n    tag_105:\n        /* \"#utility.yul\":371:378   */\n      0x00\n        /* \"#utility.yul\":411:453   */\n      0xffffffffffffffffffffffffffffffffffffffff\n        /* \"#utility.yul\":404:409   */\n      dup3\n        /* \"#utility.yul\":400:454   */\n      and\n        /* \"#utility.yul\":389:454   */\n      swap1\n      pop\n        /* \"#utility.yul\":334:460   */\n      swap2\n      swap1\n      pop\n      jump\t// out\n        /* \"#utility.yul\":466:562   */\n    tag_106:\n        /* \"#utility.yul\":503:510   */\n      0x00\n        /* \"#utility.yul\":532:556   */\n      tag_139\n        /* \"#utility.yul\":550:555   */\n      dup3\n        /* \"#utility.yul\":532:556   */\n      tag_105\n      jump\t// in\n    tag_139:\n        /* \"#utility.yul\":521:556   */\n      swap1\n      pop\n        /* \"#utility.yul\":466:562   */\n      swap2\n      swap1\n      pop\n      jump\t// out\n        /* \"#utility.yul\":568:690   */\n    tag_107:\n        /* \"#utility.yul\":641:665   */\n      tag_141\n        /* \"#utility.yul\":659:664   */\n      dup2\n        /* \"#utility.yul\":641:665   */\n      tag_106\n      jump\t// in\n    tag_141:\n        /* \"#utility.yul\":634:639   */\n      dup2\n        /* \"#utility.yul\":631:666   */\n      eq\n        /* \"#utility.yul\":621:684   */\n      tag_142\n      jumpi\n        /* \"#utility.yul\":680:681   */\n      0x00\n        /* \"#utility.yul\":677:678   */\n      dup1\n        /* \"#utility.yul\":670:682   */\n      revert\n        /* \"#utility.yul\":621:684   */\n    tag_142:\n        /* \"#utility.yul\":568:690   */\n      pop\n      jump\t// out\n        /* \"#utility.yul\":696:835   */\n    tag_108:\n        /* \"#utility.yul\":742:747   */\n      0x00\n        /* \"#utility.yul\":780:786   */\n      dup2\n        /* \"#utility.yul\":767:787   */\n      calldataload\n        /* \"#utility.yul\":758:787   */\n      swap1\n      pop\n        /* \"#utility.yul\":796:829   */\n      tag_144\n        /* \"#utility.yul\":823:828   */\n      dup2\n        /* \"#utility.yul\":796:829   */\n      tag_107\n      jump\t// in\n    tag_144:\n        /* \"#utility.yul\":696:835   */\n      swap3\n      swap2\n      pop\n      pop\n      jump\t// out\n        /* \"#utility.yul\":841:1170   */\n    tag_15:\n        /* \"#utility.yul\":900:906   */\n      0x00\n        /* \"#utility.yul\":949:951   */\n      0x20\n        /* \"#utility.yul\":937:946   */\n      dup3\n        /* \"#utility.yul\":928:935   */\n      dup5\n        /* \"#utility.yul\":924:947   */\n      sub\n        /* \"#utility.yul\":920:952   */\n      slt\n        /* \"#utility.yul\":917:1036   */\n      iszero\n      tag_146\n      jumpi\n        /* \"#utility.yul\":955:1034   */\n      tag_147\n      tag_103\n      jump\t// in\n    tag_147:\n        /* \"#utility.yul\":917:1036   */\n    tag_146:\n        /* \"#utility.yul\":1075:1076   */\n      0x00\n        /* \"#utility.yul\":1100:1153   */\n      tag_148\n        /* \"#utility.yul\":1145:1152   */\n      dup5\n        /* \"#utility.yul\":1136:1142   */\n      dup3\n        /* \"#utility.yul\":1125:1134   */\n      dup6\n        /* \"#utility.yul\":1121:1143   */\n      add\n        /* \"#utility.yul\":1100:1153   */\n      tag_108\n      jump\t// in\n    tag_148:\n        /* \"#utility.yul\":1090:1153   */\n      swap2\n      pop\n        /* \"#utility.yul\":1046:1163   */\n      pop\n        /* \"#utility.yul\":841:1170   */\n      swap3\n      swap2\n      pop\n      pop\n      jump\t// out\n        /* \"#utility.yul\":1176:1266   */\n    tag_109:\n        /* \"#utility.yul\":1210:1217   */\n      0x00\n        /* \"#utility.yul\":1253:1258   */\n      dup2\n        /* \"#utility.yul\":1246:1259   */\n      iszero\n        /* \"#utility.yul\":1239:1260   */\n      iszero\n        /* \"#utility.yul\":1228:1260   */\n      swap1\n      pop\n        /* \"#utility.yul\":1176:1266   */\n      swap2\n      swap1\n      pop\n      jump\t// out\n        /* \"#utility.yul\":1272:1381   */\n    tag_110:\n        /* \"#utility.yul\":1353:1374   */\n      tag_151\n        /* \"#utility.yul\":1368:1373   */\n      dup2\n        /* \"#utility.yul\":1353:1374   */\n      tag_109\n      jump\t// in\n    tag_151:\n        /* \"#utility.yul\":1348:1351   */\n      dup3\n        /* \"#utility.yul\":1341:1375   */\n      mstore\n        /* \"#utility.yul\":1272:1381   */\n      pop\n      pop\n      jump\t// out\n        /* \"#utility.yul\":1387:1597   */\n    tag_18:\n        /* \"#utility.yul\":1474:1478   */\n      0x00\n        /* \"#utility.yul\":1512:1514   */\n      0x20\n        /* \"#utility.yul\":1501:1510   */\n      dup3\n        /* \"#utility.yul\":1497:1515   */\n      add\n        /* \"#utility.yul\":1489:1515   */\n      swap1\n      pop\n        /* \"#utility.yul\":1525:1590   */\n      tag_153\n        /* \"#utility.yul\":1587:1588   */\n      0x00\n        /* \"#utility.yul\":1576:1585   */\n      dup4\n        /* \"#utility.yul\":1572:1589   */\n      add\n        /* \"#utility.yul\":1563:1569   */\n      dup5\n        /* \"#utility.yul\":1525:1590   */\n      tag_110\n      jump\t// in\n    tag_153:\n        /* \"#utility.yul\":1387:1597   */\n      swap3\n      swap2\n      pop\n      pop\n      jump\t// out\n        /* \"#utility.yul\":1603:1680   */\n    tag_111:\n        /* \"#utility.yul\":1640:1647   */\n      0x00\n        /* \"#utility.yul\":1669:1674   */\n      dup2\n        /* \"#utility.yul\":1658:1674   */\n      swap1\n      pop\n        /* \"#utility.yul\":1603:1680   */\n      swap2\n      swap1\n      pop\n      jump\t// out\n        /* \"#utility.yul\":1686:1804   */\n    tag_112:\n        /* \"#utility.yul\":1773:1797   */\n      tag_156\n        /* \"#utility.yul\":1791:1796   */\n      dup2\n        /* \"#utility.yul\":1773:1797   */\n      tag_111\n      jump\t// in\n    tag_156:\n        /* \"#utility.yul\":1768:1771   */\n      dup3\n        /* \"#utility.yul\":1761:1798   */\n      mstore\n        /* \"#utility.yul\":1686:1804   */\n      pop\n      pop\n      jump\t// out\n        /* \"#utility.yul\":1810:2032   */\n    tag_23:\n        /* \"#utility.yul\":1903:1907   */\n      0x00\n        /* \"#utility.yul\":1941:1943   */\n      0x20\n        /* \"#utility.yul\":1930:1939   */\n      dup3\n        /* \"#utility.yul\":1926:1944   */\n      add\n        /* \"#utility.yul\":1918:1944   */\n      swap1\n      pop\n        /* \"#utility.yul\":1954:2025   */\n      tag_158\n        /* \"#utility.yul\":2022:2023   */\n      0x00\n        /* \"#utility.yul\":2011:2020   */\n      dup4\n        /* \"#utility.yul\":2007:2024   */\n      add\n        /* \"#utility.yul\":1998:2004   */\n      dup5\n        /* \"#utility.yul\":1954:2025   */\n      tag_112\n      jump\t// in\n    tag_158:\n        /* \"#utility.yul\":1810:2032   */\n      swap3\n      swap2\n      pop\n      pop\n      jump\t// out\n        /* \"#utility.yul\":2038:2160   */\n    tag_113:\n        /* \"#utility.yul\":2111:2135   */\n      tag_160\n        /* \"#utility.yul\":2129:2134   */\n      dup2\n        /* \"#utility.yul\":2111:2135   */\n      tag_111\n      jump\t// in\n    tag_160:\n        /* \"#utility.yul\":2104:2109   */\n      dup2\n        /* \"#utility.yul\":2101:2136   */\n      eq\n        /* \"#utility.yul\":2091:2154   */\n      tag_161\n      jumpi\n        /* \"#utility.yul\":2150:2151   */\n      0x00\n        /* \"#utility.yul\":2147:2148   */\n      dup1\n        /* \"#utility.yul\":2140:2152   */\n      revert\n        /* \"#utility.yul\":2091:2154   */\n    tag_161:\n        /* \"#utility.yul\":2038:2160   */\n      pop\n      jump\t// out\n        /* \"#utility.yul\":2166:2305   */\n    tag_114:\n        /* \"#utility.yul\":2212:2217   */\n      0x00\n        /* \"#utility.yul\":2250:2256   */\n      dup2\n        /* \"#utility.yul\":2237:2257   */\n      calldataload\n        /* \"#utility.yul\":2228:2257   */\n      swap1\n      pop\n        /* \"#utility.yul\":2266:2299   */\n      tag_163\n        /* \"#utility.yul\":2293:2298   */\n      dup2\n        /* \"#utility.yul\":2266:2299   */\n      tag_113\n      jump\t// in\n    tag_163:\n        /* \"#utility.yul\":2166:2305   */\n      swap3\n      swap2\n      pop\n      pop\n      jump\t// out\n        /* \"#utility.yul\":2311:2640   */\n    tag_27:\n        /* \"#utility.yul\":2370:2376   */\n      0x00\n        /* \"#utility.yul\":2419:2421   */\n      0x20\n        /* \"#utility.yul\":2407:2416   */\n      dup3\n        /* \"#utility.yul\":2398:2405   */\n      dup5\n        /* \"#utility.yul\":2394:2417   */\n      sub\n        /* \"#utility.yul\":2390:2422   */\n      slt\n        /* \"#utility.yul\":2387:2506   */\n      iszero\n      tag_165\n      jumpi\n        /* \"#utility.yul\":2425:2504   */\n      tag_166\n      tag_103\n      jump\t// in\n    tag_166:\n        /* \"#utility.yul\":2387:2506   */\n    tag_165:\n        /* \"#utility.yul\":2545:2546   */\n      0x00\n        /* \"#utility.yul\":2570:2623   */\n      tag_167\n        /* \"#utility.yul\":2615:2622   */\n      dup5\n        /* \"#utility.yul\":2606:2612   */\n      dup3\n        /* \"#utility.yul\":2595:2604   */\n      dup6\n        /* \"#utility.yul\":2591:2613   */\n      add\n        /* \"#utility.yul\":2570:2623   */\n      tag_114\n      jump\t// in\n    tag_167:\n        /* \"#utility.yul\":2560:2623   */\n      swap2\n      pop\n        /* \"#utility.yul\":2516:2633   */\n      pop\n        /* \"#utility.yul\":2311:2640   */\n      swap3\n      swap2\n      pop\n      pop\n      jump\t// out\n        /* \"#utility.yul\":2646:2764   */\n    tag_115:\n        /* \"#utility.yul\":2733:2757   */\n      tag_169\n        /* \"#utility.yul\":2751:2756   */\n      dup2\n        /* \"#utility.yul\":2733:2757   */\n      tag_106\n      jump\t// in\n    tag_169:\n        /* \"#utility.yul\":2728:2731   */\n      dup3\n        /* \"#utility.yul\":2721:2758   */\n      mstore\n        /* \"#utility.yul\":2646:2764   */\n      pop\n      pop\n      jump\t// out\n        /* \"#utility.yul\":2770:2992   */\n    tag_37:\n        /* \"#utility.yul\":2863:2867   */\n      0x00\n        /* \"#utility.yul\":2901:2903   */\n      0x20\n        /* \"#utility.yul\":2890:2899   */\n      dup3\n        /* \"#utility.yul\":2886:2904   */\n      add\n        /* \"#utility.yul\":2878:2904   */\n      swap1\n      pop\n        /* \"#utility.yul\":2914:2985   */\n      tag_171\n        /* \"#utility.yul\":2982:2983   */\n      0x00\n        /* \"#utility.yul\":2971:2980   */\n      dup4\n        /* \"#utility.yul\":2967:2984   */\n      add\n        /* \"#utility.yul\":2958:2964   */\n      dup5\n        /* \"#utility.yul\":2914:2985   */\n      tag_115\n      jump\t// in\n    tag_171:\n        /* \"#utility.yul\":2770:2992   */\n      swap3\n      swap2\n      pop\n      pop\n      jump\t// out\n        /* \"#utility.yul\":2998:3097   */\n    tag_116:\n        /* \"#utility.yul\":3050:3056   */\n      0x00\n        /* \"#utility.yul\":3084:3089   */\n      dup2\n        /* \"#utility.yul\":3078:3090   */\n      mload\n        /* \"#utility.yul\":3068:3090   */\n      swap1\n      pop\n        /* \"#utility.yul\":2998:3097   */\n      swap2\n      swap1\n      pop\n      jump\t// out\n        /* \"#utility.yul\":3103:3272   */\n    tag_117:\n        /* \"#utility.yul\":3187:3198   */\n      0x00\n        /* \"#utility.yul\":3221:3227   */\n      dup3\n        /* \"#utility.yul\":3216:3219   */\n      dup3\n        /* \"#utility.yul\":3209:3228   */\n      mstore\n        /* \"#utility.yul\":3261:3265   */\n      0x20\n        /* \"#utility.yul\":3256:3259   */\n      dup3\n        /* \"#utility.yul\":3252:3266   */\n      add\n        /* \"#utility.yul\":3237:3266   */\n      swap1\n      pop\n        /* \"#utility.yul\":3103:3272   */\n      swap3\n      swap2\n      pop\n      pop\n      jump\t// out\n        /* \"#utility.yul\":3278:3585   */\n    tag_118:\n        /* \"#utility.yul\":3346:3347   */\n      0x00\n        /* \"#utility.yul\":3356:3469   */\n    tag_175:\n        /* \"#utility.yul\":3370:3376   */\n      dup4\n        /* \"#utility.yul\":3367:3368   */\n      dup2\n        /* \"#utility.yul\":3364:3377   */\n      lt\n        /* \"#utility.yul\":3356:3469   */\n      iszero\n      tag_177\n      jumpi\n        /* \"#utility.yul\":3455:3456   */\n      dup1\n        /* \"#utility.yul\":3450:3453   */\n      dup3\n        /* \"#utility.yul\":3446:3457   */\n      add\n        /* \"#utility.yul\":3440:3458   */\n      mload\n        /* \"#utility.yul\":3436:3437   */\n      dup2\n        /* \"#utility.yul\":3431:3434   */\n      dup5\n        /* \"#utility.yul\":3427:3438   */\n      add\n        /* \"#utility.yul\":3420:3459   */\n      mstore\n        /* \"#utility.yul\":3392:3394   */\n      0x20\n        /* \"#utility.yul\":3389:3390   */\n      dup2\n        /* \"#utility.yul\":3385:3395   */\n      add\n        /* \"#utility.yul\":3380:3395   */\n      swap1\n      pop\n        /* \"#utility.yul\":3356:3469   */\n      jump(tag_175)\n    tag_177:\n        /* \"#utility.yul\":3487:3493   */\n      dup4\n        /* \"#utility.yul\":3484:3485   */\n      dup2\n        /* \"#utility.yul\":3481:3494   */\n      gt\n        /* \"#utility.yul\":3478:3579   */\n      iszero\n      tag_178\n      jumpi\n        /* \"#utility.yul\":3567:3568   */\n      0x00\n        /* \"#utility.yul\":3558:3564   */\n      dup5\n        /* \"#utility.yul\":3553:3556   */\n      dup5\n        /* \"#utility.yul\":3549:3565   */\n      add\n        /* \"#utility.yul\":3542:3569   */\n      mstore\n        /* \"#utility.yul\":3478:3579   */\n    tag_178:\n        /* \"#utility.yul\":3327:3585   */\n      pop\n        /* \"#utility.yul\":3278:3585   */\n      pop\n      pop\n      pop\n      jump\t// out\n        /* \"#utility.yul\":3591:3693   */\n    tag_119:\n        /* \"#utility.yul\":3632:3638   */\n      0x00\n        /* \"#utility.yul\":3683:3685   */\n      0x1f\n        /* \"#utility.yul\":3679:3686   */\n      not\n        /* \"#utility.yul\":3674:3676   */\n      0x1f\n        /* \"#utility.yul\":3667:3672   */\n      dup4\n        /* \"#utility.yul\":3663:3677   */\n      add\n        /* \"#utility.yul\":3659:3687   */\n      and\n        /* \"#utility.yul\":3649:3687   */\n      swap1\n      pop\n        /* \"#utility.yul\":3591:3693   */\n      swap2\n      swap1\n      pop\n      jump\t// out\n        /* \"#utility.yul\":3699:4063   */\n    tag_120:\n        /* \"#utility.yul\":3787:3790   */\n      0x00\n        /* \"#utility.yul\":3815:3854   */\n      tag_181\n        /* \"#utility.yul\":3848:3853   */\n      dup3\n        /* \"#utility.yul\":3815:3854   */\n      tag_116\n      jump\t// in\n    tag_181:\n        /* \"#utility.yul\":3870:3941   */\n      tag_182\n        /* \"#utility.yul\":3934:3940   */\n      dup2\n        /* \"#utility.yul\":3929:3932   */\n      dup6\n        /* \"#utility.yul\":3870:3941   */\n      tag_117\n      jump\t// in\n    tag_182:\n        /* \"#utility.yul\":3863:3941   */\n      swap4\n      pop\n        /* \"#utility.yul\":3950:4002   */\n      tag_183\n        /* \"#utility.yul\":3995:4001   */\n      dup2\n        /* \"#utility.yul\":3990:3993   */\n      dup6\n        /* \"#utility.yul\":3983:3987   */\n      0x20\n        /* \"#utility.yul\":3976:3981   */\n      dup7\n        /* \"#utility.yul\":3972:3988   */\n      add\n        /* \"#utility.yul\":3950:4002   */\n      tag_118\n      jump\t// in\n    tag_183:\n        /* \"#utility.yul\":4027:4056   */\n      tag_184\n        /* \"#utility.yul\":4049:4055   */\n      dup2\n        /* \"#utility.yul\":4027:4056   */\n      tag_119\n      jump\t// in\n    tag_184:\n        /* \"#utility.yul\":4022:4025   */\n      dup5\n        /* \"#utility.yul\":4018:4057   */\n      add\n        /* \"#utility.yul\":4011:4057   */\n      swap2\n      pop\n        /* \"#utility.yul\":3791:4063   */\n      pop\n        /* \"#utility.yul\":3699:4063   */\n      swap3\n      swap2\n      pop\n      pop\n      jump\t// out\n        /* \"#utility.yul\":4069:5327   */\n    tag_46:\n        /* \"#utility.yul\":4412:4416   */\n      0x00\n        /* \"#utility.yul\":4450:4453   */\n      0x0100\n        /* \"#utility.yul\":4439:4448   */\n      dup3\n        /* \"#utility.yul\":4435:4454   */\n      add\n        /* \"#utility.yul\":4427:4454   */\n      swap1\n      pop\n        /* \"#utility.yul\":4500:4509   */\n      dup2\n        /* \"#utility.yul\":4494:4498   */\n      dup2\n        /* \"#utility.yul\":4490:4510   */\n      sub\n        /* \"#utility.yul\":4486:4487   */\n      0x00\n        /* \"#utility.yul\":4475:4484   */\n      dup4\n        /* \"#utility.yul\":4471:4488   */\n      add\n        /* \"#utility.yul\":4464:4511   */\n      mstore\n        /* \"#utility.yul\":4528:4606   */\n      tag_186\n        /* \"#utility.yul\":4601:4605   */\n      dup2\n        /* \"#utility.yul\":4592:4598   */\n      dup12\n        /* \"#utility.yul\":4528:4606   */\n      tag_120\n      jump\t// in\n    tag_186:\n        /* \"#utility.yul\":4520:4606   */\n      swap1\n      pop\n        /* \"#utility.yul\":4653:4662   */\n      dup2\n        /* \"#utility.yul\":4647:4651   */\n      dup2\n        /* \"#utility.yul\":4643:4663   */\n      sub\n        /* \"#utility.yul\":4638:4640   */\n      0x20\n        /* \"#utility.yul\":4627:4636   */\n      dup4\n        /* \"#utility.yul\":4623:4641   */\n      add\n        /* \"#utility.yul\":4616:4664   */\n      mstore\n        /* \"#utility.yul\":4681:4759   */\n      tag_187\n        /* \"#utility.yul\":4754:4758   */\n      dup2\n        /* \"#utility.yul\":4745:4751   */\n      dup11\n        /* \"#utility.yul\":4681:4759   */\n      tag_120\n      jump\t// in\n    tag_187:\n        /* \"#utility.yul\":4673:4759   */\n      swap1\n      pop\n        /* \"#utility.yul\":4806:4815   */\n      dup2\n        /* \"#utility.yul\":4800:4804   */\n      dup2\n        /* \"#utility.yul\":4796:4816   */\n      sub\n        /* \"#utility.yul\":4791:4793   */\n      0x40\n        /* \"#utility.yul\":4780:4789   */\n      dup4\n        /* \"#utility.yul\":4776:4794   */\n      add\n        /* \"#utility.yul\":4769:4817   */\n      mstore\n        /* \"#utility.yul\":4834:4912   */\n      tag_188\n        /* \"#utility.yul\":4907:4911   */\n      dup2\n        /* \"#utility.yul\":4898:4904   */\n      dup10\n        /* \"#utility.yul\":4834:4912   */\n      tag_120\n      jump\t// in\n    tag_188:\n        /* \"#utility.yul\":4826:4912   */\n      swap1\n      pop\n        /* \"#utility.yul\":4922:4994   */\n      tag_189\n        /* \"#utility.yul\":4990:4992   */\n      0x60\n        /* \"#utility.yul\":4979:4988   */\n      dup4\n        /* \"#utility.yul\":4975:4993   */\n      add\n        /* \"#utility.yul\":4966:4972   */\n      dup9\n        /* \"#utility.yul\":4922:4994   */\n      tag_112\n      jump\t// in\n    tag_189:\n        /* \"#utility.yul\":5004:5077   */\n      tag_190\n        /* \"#utility.yul\":5072:5075   */\n      0x80\n        /* \"#utility.yul\":5061:5070   */\n      dup4\n        /* \"#utility.yul\":5057:5076   */\n      add\n        /* \"#utility.yul\":5048:5054   */\n      dup8\n        /* \"#utility.yul\":5004:5077   */\n      tag_115\n      jump\t// in\n    tag_190:\n        /* \"#utility.yul\":5087:5160   */\n      tag_191\n        /* \"#utility.yul\":5155:5158   */\n      0xa0\n        /* \"#utility.yul\":5144:5153   */\n      dup4\n        /* \"#utility.yul\":5140:5159   */\n      add\n        /* \"#utility.yul\":5131:5137   */\n      dup7\n        /* \"#utility.yul\":5087:5160   */\n      tag_115\n      jump\t// in\n    tag_191:\n        /* \"#utility.yul\":5170:5237   */\n      tag_192\n        /* \"#utility.yul\":5232:5235   */\n      0xc0\n        /* \"#utility.yul\":5221:5230   */\n      dup4\n        /* \"#utility.yul\":5217:5236   */\n      add\n        /* \"#utility.yul\":5208:5214   */\n      dup6\n        /* \"#utility.yul\":5170:5237   */\n      tag_110\n      jump\t// in\n    tag_192:\n        /* \"#utility.yul\":5247:5320   */\n      tag_193\n        /* \"#utility.yul\":5315:5318   */\n      0xe0\n        /* \"#utility.yul\":5304:5313   */\n      dup4\n        /* \"#utility.yul\":5300:5319   */\n      add\n        /* \"#utility.yul\":5291:5297   */\n      dup5\n        /* \"#utility.yul\":5247:5320   */\n      tag_112\n      jump\t// in\n    tag_193:\n        /* \"#utility.yul\":4069:5327   */\n      swap10\n      swap9\n      pop\n      pop\n      pop\n      pop\n      pop\n      pop\n      pop\n      pop\n      pop\n      jump\t// out\n        /* \"#utility.yul\":5333:5450   */\n    tag_121:\n        /* \"#utility.yul\":5442:5443   */\n      0x00\n        /* \"#utility.yul\":5439:5440   */\n      dup1\n        /* \"#utility.yul\":5432:5444   */\n      revert\n        /* \"#utility.yul\":5456:5573   */\n    tag_122:\n        /* \"#utility.yul\":5565:5566   */\n      0x00\n        /* \"#utility.yul\":5562:5563   */\n      dup1\n        /* \"#utility.yul\":5555:5567   */\n      revert\n        /* \"#utility.yul\":5579:5759   */\n    tag_123:\n        /* \"#utility.yul\":5627:5704   */\n      0x4e487b7100000000000000000000000000000000000000000000000000000000\n        /* \"#utility.yul\":5624:5625   */\n      0x00\n        /* \"#utility.yul\":5617:5705   */\n      mstore\n        /* \"#utility.yul\":5724:5728   */\n      0x41\n        /* \"#utility.yul\":5721:5722   */\n      0x04\n        /* \"#utility.yul\":5714:5729   */\n      mstore\n        /* \"#utility.yul\":5748:5752   */\n      0x24\n        /* \"#utility.yul\":5745:5746   */\n      0x00\n        /* \"#utility.yul\":5738:5753   */\n      revert\n        /* \"#utility.yul\":5765:6046   */\n    tag_124:\n        /* \"#utility.yul\":5848:5875   */\n      tag_198\n        /* \"#utility.yul\":5870:5874   */\n      dup3\n        /* \"#utility.yul\":5848:5875   */\n      tag_119\n      jump\t// in\n    tag_198:\n        /* \"#utility.yul\":5840:5846   */\n      dup2\n        /* \"#utility.yul\":5836:5876   */\n      add\n        /* \"#utility.yul\":5978:5984   */\n      dup2\n        /* \"#utility.yul\":5966:5976   */\n      dup2\n        /* \"#utility.yul\":5963:5985   */\n      lt\n        /* \"#utility.yul\":5942:5960   */\n      0xffffffffffffffff\n        /* \"#utility.yul\":5930:5940   */\n      dup3\n        /* \"#utility.yul\":5927:5961   */\n      gt\n        /* \"#utility.yul\":5924:5986   */\n      or\n        /* \"#utility.yul\":5921:6009   */\n      iszero\n      tag_199\n      jumpi\n        /* \"#utility.yul\":5989:6007   */\n      tag_200\n      tag_123\n      jump\t// in\n    tag_200:\n        /* \"#utility.yul\":5921:6009   */\n    tag_199:\n        /* \"#utility.yul\":6029:6039   */\n      dup1\n        /* \"#utility.yul\":6025:6027   */\n      0x40\n        /* \"#utility.yul\":6018:6040   */\n      mstore\n        /* \"#utility.yul\":5808:6046   */\n      pop\n        /* \"#utility.yul\":5765:6046   */\n      pop\n      pop\n      jump\t// out\n        /* \"#utility.yul\":6052:6181   */\n    tag_125:\n        /* \"#utility.yul\":6086:6092   */\n      0x00\n        /* \"#utility.yul\":6113:6133   */\n      tag_202\n      tag_102\n      jump\t// in\n    tag_202:\n        /* \"#utility.yul\":6103:6133   */\n      swap1\n      pop\n        /* \"#utility.yul\":6142:6175   */\n      tag_203\n        /* \"#utility.yul\":6170:6174   */\n      dup3\n        /* \"#utility.yul\":6162:6168   */\n      dup3\n        /* \"#utility.yul\":6142:6175   */\n      tag_124\n      jump\t// in\n    tag_203:\n        /* \"#utility.yul\":6052:6181   */\n      swap2\n      swap1\n      pop\n      jump\t// out\n        /* \"#utility.yul\":6187:6495   */\n    tag_126:\n        /* \"#utility.yul\":6249:6253   */\n      0x00\n        /* \"#utility.yul\":6339:6357   */\n      0xffffffffffffffff\n        /* \"#utility.yul\":6331:6337   */\n      dup3\n        /* \"#utility.yul\":6328:6358   */\n      gt\n        /* \"#utility.yul\":6325:6381   */\n      iszero\n      tag_205\n      jumpi\n        /* \"#utility.yul\":6361:6379   */\n      tag_206\n      tag_123\n      jump\t// in\n    tag_206:\n        /* \"#utility.yul\":6325:6381   */\n    tag_205:\n        /* \"#utility.yul\":6399:6428   */\n      tag_207\n        /* \"#utility.yul\":6421:6427   */\n      dup3\n        /* \"#utility.yul\":6399:6428   */\n      tag_119\n      jump\t// in\n    tag_207:\n        /* \"#utility.yul\":6391:6428   */\n      swap1\n      pop\n        /* \"#utility.yul\":6483:6487   */\n      0x20\n        /* \"#utility.yul\":6477:6481   */\n      dup2\n        /* \"#utility.yul\":6473:6488   */\n      add\n        /* \"#utility.yul\":6465:6488   */\n      swap1\n      pop\n        /* \"#utility.yul\":6187:6495   */\n      swap2\n      swap1\n      pop\n      jump\t// out\n        /* \"#utility.yul\":6501:6655   */\n    tag_127:\n        /* \"#utility.yul\":6585:6591   */\n      dup3\n        /* \"#utility.yul\":6580:6583   */\n      dup2\n        /* \"#utility.yul\":6575:6578   */\n      dup4\n        /* \"#utility.yul\":6562:6592   */\n      calldatacopy\n        /* \"#utility.yul\":6647:6648   */\n      0x00\n        /* \"#utility.yul\":6638:6644   */\n      dup4\n        /* \"#utility.yul\":6633:6636   */\n      dup4\n        /* \"#utility.yul\":6629:6645   */\n      add\n        /* \"#utility.yul\":6622:6649   */\n      mstore\n        /* \"#utility.yul\":6501:6655   */\n      pop\n      pop\n      pop\n      jump\t// out\n        /* \"#utility.yul\":6661:7073   */\n    tag_128:\n        /* \"#utility.yul\":6739:6744   */\n      0x00\n        /* \"#utility.yul\":6764:6830   */\n      tag_210\n        /* \"#utility.yul\":6780:6829   */\n      tag_211\n        /* \"#utility.yul\":6822:6828   */\n      dup5\n        /* \"#utility.yul\":6780:6829   */\n      tag_126\n      jump\t// in\n    tag_211:\n        /* \"#utility.yul\":6764:6830   */\n      tag_125\n      jump\t// in\n    tag_210:\n        /* \"#utility.yul\":6755:6830   */\n      swap1\n      pop\n        /* \"#utility.yul\":6853:6859   */\n      dup3\n        /* \"#utility.yul\":6846:6851   */\n      dup2\n        /* \"#utility.yul\":6839:6860   */\n      mstore\n        /* \"#utility.yul\":6891:6895   */\n      0x20\n        /* \"#utility.yul\":6884:6889   */\n      dup2\n        /* \"#utility.yul\":6880:6896   */\n      add\n        /* \"#utility.yul\":6929:6932   */\n      dup5\n        /* \"#utility.yul\":6920:6926   */\n      dup5\n        /* \"#utility.yul\":6915:6918   */\n      dup5\n        /* \"#utility.yul\":6911:6927   */\n      add\n        /* \"#utility.yul\":6908:6933   */\n      gt\n        /* \"#utility.yul\":6905:7017   */\n      iszero\n      tag_212\n      jumpi\n        /* \"#utility.yul\":6936:7015   */\n      tag_213\n      tag_122\n      jump\t// in\n    tag_213:\n        /* \"#utility.yul\":6905:7017   */\n    tag_212:\n        /* \"#utility.yul\":7026:7067   */\n      tag_214\n        /* \"#utility.yul\":7060:7066   */\n      dup5\n        /* \"#utility.yul\":7055:7058   */\n      dup3\n        /* \"#utility.yul\":7050:7053   */\n      dup6\n        /* \"#utility.yul\":7026:7067   */\n      tag_127\n      jump\t// in\n    tag_214:\n        /* \"#utility.yul\":6745:7073   */\n      pop\n        /* \"#utility.yul\":6661:7073   */\n      swap4\n      swap3\n      pop\n      pop\n      pop\n      jump\t// out\n        /* \"#utility.yul\":7093:7433   */\n    tag_129:\n        /* \"#utility.yul\":7149:7154   */\n      0x00\n        /* \"#utility.yul\":7198:7201   */\n      dup3\n        /* \"#utility.yul\":7191:7195   */\n      0x1f\n        /* \"#utility.yul\":7183:7189   */\n      dup4\n        /* \"#utility.yul\":7179:7196   */\n      add\n        /* \"#utility.yul\":7175:7202   */\n      slt\n        /* \"#utility.yul\":7165:7287   */\n      tag_216\n      jumpi\n        /* \"#utility.yul\":7206:7285   */\n      tag_217\n      tag_121\n      jump\t// in\n    tag_217:\n        /* \"#utility.yul\":7165:7287   */\n    tag_216:\n        /* \"#utility.yul\":7323:7329   */\n      dup2\n        /* \"#utility.yul\":7310:7330   */\n      calldataload\n        /* \"#utility.yul\":7348:7427   */\n      tag_218\n        /* \"#utility.yul\":7423:7426   */\n      dup5\n        /* \"#utility.yul\":7415:7421   */\n      dup3\n        /* \"#utility.yul\":7408:7412   */\n      0x20\n        /* \"#utility.yul\":7400:7406   */\n      dup7\n        /* \"#utility.yul\":7396:7413   */\n      add\n        /* \"#utility.yul\":7348:7427   */\n      tag_128\n      jump\t// in\n    tag_218:\n        /* \"#utility.yul\":7339:7427   */\n      swap2\n      pop\n        /* \"#utility.yul\":7155:7433   */\n      pop\n        /* \"#utility.yul\":7093:7433   */\n      swap3\n      swap2\n      pop\n      pop\n      jump\t// out\n        /* \"#utility.yul\":7439:8890   */\n    tag_52:\n        /* \"#utility.yul\":7564:7570   */\n      0x00\n        /* \"#utility.yul\":7572:7578   */\n      dup1\n        /* \"#utility.yul\":7580:7586   */\n      0x00\n        /* \"#utility.yul\":7588:7594   */\n      dup1\n        /* \"#utility.yul\":7596:7602   */\n      0x00\n        /* \"#utility.yul\":7645:7648   */\n      0xa0\n        /* \"#utility.yul\":7633:7642   */\n      dup7\n        /* \"#utility.yul\":7624:7631   */\n      dup9\n        /* \"#utility.yul\":7620:7643   */\n      sub\n        /* \"#utility.yul\":7616:7649   */\n      slt\n        /* \"#utility.yul\":7613:7733   */\n      iszero\n      tag_220\n      jumpi\n        /* \"#utility.yul\":7652:7731   */\n      tag_221\n      tag_103\n      jump\t// in\n    tag_221:\n        /* \"#utility.yul\":7613:7733   */\n    tag_220:\n        /* \"#utility.yul\":7800:7801   */\n      0x00\n        /* \"#utility.yul\":7789:7798   */\n      dup7\n        /* \"#utility.yul\":7785:7802   */\n      add\n        /* \"#utility.yul\":7772:7803   */\n      calldataload\n        /* \"#utility.yul\":7830:7848   */\n      0xffffffffffffffff\n        /* \"#utility.yul\":7822:7828   */\n      dup2\n        /* \"#utility.yul\":7819:7849   */\n      gt\n        /* \"#utility.yul\":7816:7933   */\n      iszero\n      tag_222\n      jumpi\n        /* \"#utility.yul\":7852:7931   */\n      tag_223\n      tag_104\n      jump\t// in\n    tag_223:\n        /* \"#utility.yul\":7816:7933   */\n    tag_222:\n        /* \"#utility.yul\":7957:8020   */\n      tag_224\n        /* \"#utility.yul\":8012:8019   */\n      dup9\n        /* \"#utility.yul\":8003:8009   */\n      dup3\n        /* \"#utility.yul\":7992:8001   */\n      dup10\n        /* \"#utility.yul\":7988:8010   */\n      add\n        /* \"#utility.yul\":7957:8020   */\n      tag_129\n      jump\t// in\n    tag_224:\n        /* \"#utility.yul\":7947:8020   */\n      swap6\n      pop\n        /* \"#utility.yul\":7743:8030   */\n      pop\n        /* \"#utility.yul\":8097:8099   */\n      0x20\n        /* \"#utility.yul\":8086:8095   */\n      dup7\n        /* \"#utility.yul\":8082:8100   */\n      add\n        /* \"#utility.yul\":8069:8101   */\n      calldataload\n        /* \"#utility.yul\":8128:8146   */\n      0xffffffffffffffff\n        /* \"#utility.yul\":8120:8126   */\n      dup2\n        /* \"#utility.yul\":8117:8147   */\n      gt\n        /* \"#utility.yul\":8114:8231   */\n      iszero\n      tag_225\n      jumpi\n        /* \"#utility.yul\":8150:8229   */\n      tag_226\n      tag_104\n      jump\t// in\n    tag_226:\n        /* \"#utility.yul\":8114:8231   */\n    tag_225:\n        /* \"#utility.yul\":8255:8318   */\n      tag_227\n        /* \"#utility.yul\":8310:8317   */\n      dup9\n        /* \"#utility.yul\":8301:8307   */\n      dup3\n        /* \"#utility.yul\":8290:8299   */\n      dup10\n        /* \"#utility.yul\":8286:8308   */\n      add\n        /* \"#utility.yul\":8255:8318   */\n      tag_129\n      jump\t// in\n    tag_227:\n        /* \"#utility.yul\":8245:8318   */\n      swap5\n      pop\n        /* \"#utility.yul\":8040:8328   */\n      pop\n        /* \"#utility.yul\":8395:8397   */\n      0x40\n        /* \"#utility.yul\":8384:8393   */\n      dup7\n        /* \"#utility.yul\":8380:8398   */\n      add\n        /* \"#utility.yul\":8367:8399   */\n      calldataload\n        /* \"#utility.yul\":8426:8444   */\n      0xffffffffffffffff\n        /* \"#utility.yul\":8418:8424   */\n      dup2\n        /* \"#utility.yul\":8415:8445   */\n      gt\n        /* \"#utility.yul\":8412:8529   */\n      iszero\n      tag_228\n      jumpi\n        /* \"#utility.yul\":8448:8527   */\n      tag_229\n      tag_104\n      jump\t// in\n    tag_229:\n        /* \"#utility.yul\":8412:8529   */\n    tag_228:\n        /* \"#utility.yul\":8553:8616   */\n      tag_230\n        /* \"#utility.yul\":8608:8615   */\n      dup9\n        /* \"#utility.yul\":8599:8605   */\n      dup3\n        /* \"#utility.yul\":8588:8597   */\n      dup10\n        /* \"#utility.yul\":8584:8606   */\n      add\n        /* \"#utility.yul\":8553:8616   */\n      tag_129\n      jump\t// in\n    tag_230:\n        /* \"#utility.yul\":8543:8616   */\n      swap4\n      pop\n        /* \"#utility.yul\":8338:8626   */\n      pop\n        /* \"#utility.yul\":8665:8667   */\n      0x60\n        /* \"#utility.yul\":8691:8744   */\n      tag_231\n        /* \"#utility.yul\":8736:8743   */\n      dup9\n        /* \"#utility.yul\":8727:8733   */\n      dup3\n        /* \"#utility.yul\":8716:8725   */\n      dup10\n        /* \"#utility.yul\":8712:8734   */\n      add\n        /* \"#utility.yul\":8691:8744   */\n      tag_114\n      jump\t// in\n    tag_231:\n        /* \"#utility.yul\":8681:8744   */\n      swap3\n      pop\n        /* \"#utility.yul\":8636:8754   */\n      pop\n        /* \"#utility.yul\":8793:8796   */\n      0x80\n        /* \"#utility.yul\":8820:8873   */\n      tag_232\n        /* \"#utility.yul\":8865:8872   */\n      dup9\n        /* \"#utility.yul\":8856:8862   */\n      dup3\n        /* \"#utility.yul\":8845:8854   */\n      dup10\n        /* \"#utility.yul\":8841:8863   */\n      add\n        /* \"#utility.yul\":8820:8873   */\n      tag_108\n      jump\t// in\n    tag_232:\n        /* \"#utility.yul\":8810:8873   */\n      swap2\n      pop\n        /* \"#utility.yul\":8764:8883   */\n      pop\n        /* \"#utility.yul\":7439:8890   */\n      swap3\n      swap6\n      pop\n      swap3\n      swap6\n      swap1\n      swap4\n      pop\n      jump\t// out\n        /* \"#utility.yul\":8896:9076   */\n    tag_130:\n        /* \"#utility.yul\":8944:9021   */\n      0x4e487b7100000000000000000000000000000000000000000000000000000000\n        /* \"#utility.yul\":8941:8942   */\n      0x00\n        /* \"#utility.yul\":8934:9022   */\n      mstore\n        /* \"#utility.yul\":9041:9045   */\n      0x11\n        /* \"#utility.yul\":9038:9039   */\n      0x04\n        /* \"#utility.yul\":9031:9046   */\n      mstore\n        /* \"#utility.yul\":9065:9069   */\n      0x24\n        /* \"#utility.yul\":9062:9063   */\n      0x00\n        /* \"#utility.yul\":9055:9070   */\n      revert\n        /* \"#utility.yul\":9082:9315   */\n    tag_57:\n        /* \"#utility.yul\":9121:9124   */\n      0x00\n        /* \"#utility.yul\":9144:9168   */\n      tag_235\n        /* \"#utility.yul\":9162:9167   */\n      dup3\n        /* \"#utility.yul\":9144:9168   */\n      tag_111\n      jump\t// in\n    tag_235:\n        /* \"#utility.yul\":9135:9168   */\n      swap2\n      pop\n        /* \"#utility.yul\":9190:9256   */\n      0xffffffffffffffffffffffffffffffffffffffffffffffffffffffffffffffff\n        /* \"#utility.yul\":9183:9188   */\n      dup3\n        /* \"#utility.yul\":9180:9257   */\n      eq\n        /* \"#utility.yul\":9177:9280   */\n      iszero\n      tag_236\n      jumpi\n        /* \"#utility.yul\":9260:9278   */\n      tag_237\n      tag_130\n      jump\t// in\n    tag_237:\n        /* \"#utility.yul\":9177:9280   */\n    tag_236:\n        /* \"#utility.yul\":9307:9308   */\n      0x01\n        /* \"#utility.yul\":9300:9305   */\n      dup3\n        /* \"#utility.yul\":9296:9309   */\n      add\n        /* \"#utility.yul\":9289:9309   */\n      swap1\n      pop\n        /* \"#utility.yul\":9082:9315   */\n      swap2\n      swap1\n      pop\n      jump\t// out\n        /* \"#utility.yul\":9321:9501   */\n    tag_131:\n        /* \"#utility.yul\":9369:9446   */\n      0x4e487b7100000000000000000000000000000000000000000000000000000000\n        /* \"#utility.yul\":9366:9367   */\n      0x00\n        /* \"#utility.yul\":9359:9447   */\n      mstore\n        /* \"#utility.yul\":9466:9470   */\n      0x12\n        /* \"#utility.yul\":9463:9464   */\n      0x04\n        /* \"#utility.yul\":9456:9471   */\n      mstore\n        /* \"#utility.yul\":9490:9494   */\n      0x24\n        /* \"#utility.yul\":9487:9488   */\n      0x00\n        /* \"#utility.yul\":9480:9495   */\n      revert\n        /* \"#utility.yul\":9507:9692   */\n    tag_61:\n        /* \"#utility.yul\":9547:9548   */\n      0x00\n        /* \"#utility.yul\":9564:9584   */\n      tag_240\n        /* \"#utility.yul\":9582:9583   */\n      dup3\n        /* \"#utility.yul\":9564:9584   */\n      tag_111\n      jump\t// in\n    tag_240:\n        /* \"#utility.yul\":9559:9584   */\n      swap2\n      pop\n        /* \"#utility.yul\":9598:9618   */\n      tag_241\n        /* \"#utility.yul\":9616:9617   */\n      dup4\n        /* \"#utility.yul\":9598:9618   */\n      tag_111\n      jump\t// in\n    tag_241:\n        /* \"#utility.yul\":9593:9618   */\n      swap3\n      pop\n        /* \"#utility.yul\":9637:9638   */\n      dup3\n        /* \"#utility.yul\":9627:9662   */\n      tag_242\n      jumpi\n        /* \"#utility.yul\":9642:9660   */\n      tag_243\n      tag_131\n      jump\t// in\n    tag_243:\n        /* \"#utility.yul\":9627:9662   */\n    tag_242:\n        /* \"#utility.yul\":9684:9685   */\n      dup3\n        /* \"#utility.yul\":9681:9682   */\n      dup3\n        /* \"#utility.yul\":9677:9686   */\n      div\n        /* \"#utility.yul\":9672:9686   */\n      swap1\n      pop\n        /* \"#utility.yul\":9507:9692   */\n      swap3\n      swap2\n      pop\n      pop\n      jump\t// out\n        /* \"#utility.yul\":9698:9878   */\n    tag_132:\n        /* \"#utility.yul\":9746:9823   */\n      0x4e487b7100000000000000000000000000000000000000000000000000000000\n        /* \"#utility.yul\":9743:9744   */\n      0x00\n        /* \"#utility.yul\":9736:9824   */\n      mstore\n        /* \"#utility.yul\":9843:9847   */\n      0x22\n        /* \"#utility.yul\":9840:9841   */\n      0x04\n        /* \"#utility.yul\":9833:9848   */\n      mstore\n        /* \"#utility.yul\":9867:9871   */\n      0x24\n        /* \"#utility.yul\":9864:9865   */\n      0x00\n        /* \"#utility.yul\":9857:9872   */\n      revert\n        /* \"#utility.yul\":9884:10204   */\n    tag_67:\n        /* \"#utility.yul\":9928:9934   */\n      0x00\n        /* \"#utility.yul\":9965:9966   */\n      0x02\n        /* \"#utility.yul\":9959:9963   */\n      dup3\n        /* \"#utility.yul\":9955:9967   */\n      div\n        /* \"#utility.yul\":9945:9967   */\n      swap1\n      pop\n        /* \"#utility.yul\":10012:10013   */\n      0x01\n        /* \"#utility.yul\":10006:10010   */\n      dup3\n        /* \"#utility.yul\":10002:10014   */\n      and\n        /* \"#utility.yul\":10033:10051   */\n      dup1\n        /* \"#utility.yul\":10023:10104   */\n      tag_246\n      jumpi\n        /* \"#utility.yul\":10089:10093   */\n      0x7f\n        /* \"#utility.yul\":10081:10087   */\n      dup3\n        /* \"#utility.yul\":10077:10094   */\n      and\n        /* \"#utility.yul\":10067:10094   */\n      swap2\n      pop\n        /* \"#utility.yul\":10023:10104   */\n    tag_246:\n        /* \"#utility.yul\":10151:10153   */\n      0x20\n        /* \"#utility.yul\":10143:10149   */\n      dup3\n        /* \"#utility.yul\":10140:10154   */\n      lt\n        /* \"#utility.yul\":10120:10138   */\n      dup2\n        /* \"#utility.yul\":10117:10155   */\n      eq\n        /* \"#utility.yul\":10114:10198   */\n      iszero\n      tag_247\n      jumpi\n        /* \"#utility.yul\":10170:10188   */\n      tag_248\n      tag_132\n      jump\t// in\n    tag_248:\n        /* \"#utility.yul\":10114:10198   */\n    tag_247:\n        /* \"#utility.yul\":9935:10204   */\n      pop\n        /* \"#utility.yul\":9884:10204   */\n      swap2\n      swap1\n      pop\n      jump\t// out\n\n    auxdata: 0xa264697066735822122000b403836dc9489e0aed447ee52c151da089d7812855396fd908a35fe5715bb264736f6c63430008090033\n}\n","bytecode":{"linkReferences":{},"object":"608060405234801561001057600080fd5b50336000806101000a81548173ffffffffffffffffffffffffffffffffffffffff021916908373ffffffffffffffffffffffffffffffffffffffff160217905550610f7b806100606000396000f3fe6080604052600436106100865760003560e01c80638da5cb5b116100595780638da5cb5b14610147578063a5f7542a14610172578063a888c2cd1461018e578063d7bb99ba146101d2578063ec729859146101dc57610086565b80631f6d49421461008b578063420714bd146100c857806346e30135146100f357806378880f4a1461011c575b600080fd5b34801561009757600080fd5b506100b260048036038101906100ad91906109c2565b610205565b6040516100bf9190610a0a565b60405180910390f35b3480156100d457600080fd5b506100dd610225565b6040516100ea9190610a3e565b60405180910390f35b3480156100ff57600080fd5b5061011a60048036038101906101159190610a85565b61022b565b005b34801561012857600080fd5b50610131610324565b60405161013e9190610a3e565b60405180910390f35b34801561015357600080fd5b5061015c61032a565b6040516101699190610ac1565b60405180910390f35b61018c60048036038101906101879190610a85565b61034e565b005b34801561019a57600080fd5b506101b560048036038101906101b09190610a85565b6104af565b6040516101c9989796959493929190610b75565b60405180910390f35b6101da6106dc565b005b3480156101e857600080fd5b5061020360048036038101906101fe9190610d3d565b61075b565b005b60016020528060005260406000206000915054906101000a900460ff1681565b60035481565b6004600082815260200190815260200160002060060160003373ffffffffffffffffffffffffffffffffffffffff1673ffffffffffffffffffffffffffffffffffffffff16815260200190815260200160002060009054906101000a900460ff161561029657600080fd5b6004600082815260200190815260200160002060060160003373ffffffffffffffffffffffffffffffffffffffff1673ffffffffffffffffffffffffffffffffffffffff16815260200190815260200160002060009054906101000a90505060046000828152602001908152602001600020600701600081548092919061031c90610e3b565b919050555050565b60025481565b60008054906101000a900473ffffffffffffffffffffffffffffffffffffffff1681565b6004600082815260200190815260200160002060040160009054906101000a900473ffffffffffffffffffffffffffffffffffffffff1673ffffffffffffffffffffffffffffffffffffffff163373ffffffffffffffffffffffffffffffffffffffff16146103bc57600080fd5b600280546103ca9190610eb3565b6004600083815260200190815260200160002060070154116103eb57600080fd5b6004600082815260200190815260200160002060050160149054906101000a900460ff161561041957600080fd5b6004600082815260200190815260200160002060050160009054906101000a900473ffffffffffffffffffffffffffffffffffffffff1673ffffffffffffffffffffffffffffffffffffffff166108fc60046000848152602001908152602001600020600301549081150290604051600060405180830381858888f193505050501580156104ab573d6000803e3d6000fd5b5050565b60046020528060005260406000206000915090508060000180546104d290610f13565b80601f01602080910402602001604051908101604052809291908181526020018280546104fe90610f13565b801561054b5780601f106105205761010080835404028352916020019161054b565b820191906000526020600020905b81548152906001019060200180831161052e57829003601f168201915b50505050509080600101805461056090610f13565b80601f016020809104026020016040519081016040528092919081815260200182805461058c90610f13565b80156105d95780601f106105ae576101008083540402835291602001916105d9565b820191906000526020600020905b8154815290600101906020018083116105bc57829003601f168201915b5050505050908060020180546105ee90610f13565b80601f016020809104026020016040519081016040528092919081815260200182805461061a90610f13565b80156106675780601f1061063c57610100808354040283529160200191610667565b820191906000526020600020905b81548152906001019060200180831161064a57829003601f168201915b5050505050908060030154908060040160009054906101000a900473ffffffffffffffffffffffffffffffffffffffff16908060050160009054906101000a900473ffffffffffffffffffffffffffffffffffffffff16908060050160149054906101000a900460ff16908060070154905088565b60013410156106ea57600080fd5b60018060003373ffffffffffffffffffffffffffffffffffffffff1673ffffffffffffffffffffffffffffffffffffffff16815260200190815260200160002060006101000a81548160ff0219169083151502179055506002600081548092919061075490610e3b565b9190505550565b600060046000600354815260200190815260200160002090506003600081548092919061078790610e3b565b9190505550858160000190805190602001906107a49291906108ad565b50848160010190805190602001906107bd9291906108ad565b50838160020190805190602001906107d69291906108ad565b50828160030181905550338160040160006101000a81548173ffffffffffffffffffffffffffffffffffffffff021916908373ffffffffffffffffffffffffffffffffffffffff160217905550818160050160006101000a81548173ffffffffffffffffffffffffffffffffffffffff021916908373ffffffffffffffffffffffffffffffffffffffff16021790555060008160050160146101000a81548160ff02191690831515021790555060008160070181905550600260008154809291906108a090610e3b565b9190505550505050505050565b8280546108b990610f13565b90600052602060002090601f0160209004810192826108db5760008555610922565b82601f106108f457805160ff1916838001178555610922565b82800160010185558215610922579182015b82811115610921578251825591602001919060010190610906565b5b50905061092f9190610933565b5090565b5b8082111561094c576000816000905550600101610934565b5090565b6000604051905090565b600080fd5b600080fd5b600073ffffffffffffffffffffffffffffffffffffffff82169050919050565b600061098f82610964565b9050919050565b61099f81610984565b81146109aa57600080fd5b50565b6000813590506109bc81610996565b92915050565b6000602082840312156109d8576109d761095a565b5b60006109e6848285016109ad565b91505092915050565b60008115159050919050565b610a04816109ef565b82525050565b6000602082019050610a1f60008301846109fb565b92915050565b6000819050919050565b610a3881610a25565b82525050565b6000602082019050610a536000830184610a2f565b92915050565b610a6281610a25565b8114610a6d57600080fd5b50565b600081359050610a7f81610a59565b92915050565b600060208284031215610a9b57610a9a61095a565b5b6000610aa984828501610a70565b91505092915050565b610abb81610984565b82525050565b6000602082019050610ad66000830184610ab2565b92915050565b600081519050919050565b600082825260208201905092915050565b60005b83811015610b16578082015181840152602081019050610afb565b83811115610b25576000848401525b50505050565b6000601f19601f8301169050919050565b6000610b4782610adc565b610b518185610ae7565b9350610b61818560208601610af8565b610b6a81610b2b565b840191505092915050565b6000610100820190508181036000830152610b90818b610b3c565b90508181036020830152610ba4818a610b3c565b90508181036040830152610bb88189610b3c565b9050610bc76060830188610a2f565b610bd46080830187610ab2565b610be160a0830186610ab2565b610bee60c08301856109fb565b610bfb60e0830184610a2f565b9998505050505050505050565b600080fd5b600080fd5b7f4e487b7100000000000000000000000000000000000000000000000000000000600052604160045260246000fd5b610c4a82610b2b565b810181811067ffffffffffffffff82111715610c6957610c68610c12565b5b80604052505050565b6000610c7c610950565b9050610c888282610c41565b919050565b600067ffffffffffffffff821115610ca857610ca7610c12565b5b610cb182610b2b565b9050602081019050919050565b82818337600083830152505050565b6000610ce0610cdb84610c8d565b610c72565b905082815260208101848484011115610cfc57610cfb610c0d565b5b610d07848285610cbe565b509392505050565b600082601f830112610d2457610d23610c08565b5b8135610d34848260208601610ccd565b91505092915050565b600080600080600060a08688031215610d5957610d5861095a565b5b600086013567ffffffffffffffff811115610d7757610d7661095f565b5b610d8388828901610d0f565b955050602086013567ffffffffffffffff811115610da457610da361095f565b5b610db088828901610d0f565b945050604086013567ffffffffffffffff811115610dd157610dd061095f565b5b610ddd88828901610d0f565b9350506060610dee88828901610a70565b9250506080610dff888289016109ad565b9150509295509295909350565b7f4e487b7100000000000000000000000000000000000000000000000000000000600052601160045260246000fd5b6000610e4682610a25565b91507fffffffffffffffffffffffffffffffffffffffffffffffffffffffffffffffff821415610e7957610e78610e0c565b5b600182019050919050565b7f4e487b7100000000000000000000000000000000000000000000000000000000600052601260045260246000fd5b6000610ebe82610a25565b9150610ec983610a25565b925082610ed957610ed8610e84565b5b828204905092915050565b7f4e487b7100000000000000000000000000000000000000000000000000000000600052602260045260246000fd5b60006002820490506001821680610f2b57607f821691505b60208210811415610f3f57610f3e610ee4565b5b5091905056fea264697066735822122000b403836dc9489e0aed447ee52c151da089d7812855396fd908a35fe5715bb264736f6c63430008090033","opcodes":"PUSH1 0x80 PUSH1 0x40 MSTORE CALLVALUE DUP1 ISZERO PUSH2 0x10 JUMPI PUSH1 0x0 DUP1 REVERT JUMPDEST POP CALLER PUSH1 0x0 DUP1 PUSH2 0x100 EXP DUP2 SLOAD DUP2 PUSH20 0xFFFFFFFFFFFFFFFFFFFFFFFFFFFFFFFFFFFFFFFF MUL NOT AND SWAP1 DUP4 PUSH20 0xFFFFFFFFFFFFFFFFFFFFFFFFFFFFFFFFFFFFFFFF AND MUL OR SWAP1 SSTORE POP PUSH2 0xF7B DUP1 PUSH2 0x60 PUSH1 0x0 CODECOPY PUSH1 0x0 RETURN INVALID PUSH1 0x80 PUSH1 0x40 MSTORE PUSH1 0x4 CALLDATASIZE LT PUSH2 0x86 JUMPI PUSH1 0x0 CALLDATALOAD PUSH1 0xE0 SHR DUP1 PUSH4 0x8DA5CB5B GT PUSH2 0x59 JUMPI DUP1 PUSH4 0x8DA5CB5B EQ PUSH2 0x147 JUMPI DUP1 PUSH4 0xA5F7542A EQ PUSH2 0x172 JUMPI DUP1 PUSH4 0xA888C2CD EQ PUSH2 0x18E JUMPI DUP1 PUSH4 0xD7BB99BA EQ PUSH2 0x1D2 JUMPI DUP1 PUSH4 0xEC729859 EQ PUSH2 0x1DC JUMPI PUSH2 0x86 JUMP JUMPDEST DUP1 PUSH4 0x1F6D4942 EQ PUSH2 0x8B JUMPI DUP1 PUSH4 0x420714BD EQ PUSH2 0xC8 JUMPI DUP1 PUSH4 0x46E30135 EQ PUSH2 0xF3 JUMPI DUP1 PUSH4 0x78880F4A EQ PUSH2 0x11C JUMPI JUMPDEST PUSH1 0x0 DUP1 REVERT JUMPDEST CALLVALUE DUP1 ISZERO PUSH2 0x97 JUMPI PUSH1 0x0 DUP1 REVERT JUMPDEST POP PUSH2 0xB2 PUSH1 0x4 DUP1 CALLDATASIZE SUB DUP2 ADD SWAP1 PUSH2 0xAD SWAP2 SWAP1 PUSH2 0x9C2 JUMP JUMPDEST PUSH2 0x205 JUMP JUMPDEST PUSH1 0x40 MLOAD PUSH2 0xBF SWAP2 SWAP1 PUSH2 0xA0A JUMP JUMPDEST PUSH1 0x40 MLOAD DUP1 SWAP2 SUB SWAP1 RETURN JUMPDEST CALLVALUE DUP1 ISZERO PUSH2 0xD4 JUMPI PUSH1 0x0 DUP1 REVERT JUMPDEST POP PUSH2 0xDD PUSH2 0x225 JUMP JUMPDEST PUSH1 0x40 MLOAD PUSH2 0xEA SWAP2 SWAP1 PUSH2 0xA3E JUMP JUMPDEST PUSH1 0x40 MLOAD DUP1 SWAP2 SUB SWAP1 RETURN JUMPDEST CALLVALUE DUP1 ISZERO PUSH2 0xFF JUMPI PUSH1 0x0 DUP1 REVERT JUMPDEST POP PUSH2 0x11A PUSH1 0x4 DUP1 CALLDATASIZE SUB DUP2 ADD SWAP1 PUSH2 0x115 SWAP2 SWAP1 PUSH2 0xA85 JUMP JUMPDEST PUSH2 0x22B JUMP JUMPDEST STOP JUMPDEST CALLVALUE DUP1 ISZERO PUSH2 0x128 JUMPI PUSH1 0x0 DUP1 REVERT JUMPDEST POP PUSH2 0x131 PUSH2 0x324 JUMP JUMPDEST PUSH1 0x40 MLOAD PUSH2 0x13E SWAP2 SWAP1 PUSH2 0xA3E JUMP JUMPDEST PUSH1 0x40 MLOAD DUP1 SWAP2 SUB SWAP1 RETURN JUMPDEST CALLVALUE DUP1 ISZERO PUSH2 0x153 JUMPI PUSH1 0x0 DUP1 REVERT JUMPDEST POP PUSH2 0x15C PUSH2 0x32A JUMP JUMPDEST PUSH1 0x40 MLOAD PUSH2 0x169 SWAP2 SWAP1 PUSH2 0xAC1 JUMP JUMPDEST PUSH1 0x40 MLOAD DUP1 SWAP2 SUB SWAP1 RETURN JUMPDEST PUSH2 0x18C PUSH1 0x4 DUP1 CALLDATASIZE SUB DUP2 ADD SWAP1 PUSH2 0x187 SWAP2 SWAP1 PUSH2 0xA85 JUMP JUMPDEST PUSH2 0x34E JUMP JUMPDEST STOP JUMPDEST CALLVALUE DUP1 ISZERO PUSH2 0x19A JUMPI PUSH1 0x0 DUP1 REVERT JUMPDEST POP PUSH2 0x1B5 PUSH1 0x4 DUP1 CALLDATASIZE SUB DUP2 ADD SWAP1 PUSH2 0x1B0 SWAP2 SWAP1 PUSH2 0xA85 JUMP JUMPDEST PUSH2 0x4AF JUMP JUMPDEST PUSH1 0x40 MLOAD PUSH2 0x1C9 SWAP9 SWAP8 SWAP7 SWAP6 SWAP5 SWAP4 SWAP3 SWAP2 SWAP1 PUSH2 0xB75 JUMP JUMPDEST PUSH1 0x40 MLOAD DUP1 SWAP2 SUB SWAP1 RETURN JUMPDEST PUSH2 0x1DA PUSH2 0x6DC JUMP JUMPDEST STOP JUMPDEST CALLVALUE DUP1 ISZERO PUSH2 0x1E8 JUMPI PUSH1 0x0 DUP1 REVERT JUMPDEST POP PUSH2 0x203 PUSH1 0x4 DUP1 CALLDATASIZE SUB DUP2 ADD SWAP1 PUSH2 0x1FE SWAP2 SWAP1 PUSH2 0xD3D JUMP JUMPDEST PUSH2 0x75B JUMP JUMPDEST STOP JUMPDEST PUSH1 0x1 PUSH1 0x20 MSTORE DUP1 PUSH1 0x0 MSTORE PUSH1 0x40 PUSH1 0x0 KECCAK256 PUSH1 0x0 SWAP2 POP SLOAD SWAP1 PUSH2 0x100 EXP SWAP1 DIV PUSH1 0xFF AND DUP2 JUMP JUMPDEST PUSH1 0x3 SLOAD DUP2 JUMP JUMPDEST PUSH1 0x4 PUSH1 0x0 DUP3 DUP2 MSTORE PUSH1 0x20 ADD SWAP1 DUP2 MSTORE PUSH1 0x20 ADD PUSH1 0x0 KECCAK256 PUSH1 0x6 ADD PUSH1 0x0 CALLER PUSH20 0xFFFFFFFFFFFFFFFFFFFFFFFFFFFFFFFFFFFFFFFF AND PUSH20 0xFFFFFFFFFFFFFFFFFFFFFFFFFFFFFFFFFFFFFFFF AND DUP2 MSTORE PUSH1 0x20 ADD SWAP1 DUP2 MSTORE PUSH1 0x20 ADD PUSH1 0x0 KECCAK256 PUSH1 0x0 SWAP1 SLOAD SWAP1 PUSH2 0x100 EXP SWAP1 DIV PUSH1 0xFF AND ISZERO PUSH2 0x296 JUMPI PUSH1 0x0 DUP1 REVERT JUMPDEST PUSH1 0x4 PUSH1 0x0 DUP3 DUP2 MSTORE PUSH1 0x20 ADD SWAP1 DUP2 MSTORE PUSH1 0x20 ADD PUSH1 0x0 KECCAK256 PUSH1 0x6 ADD PUSH1 0x0 CALLER PUSH20 0xFFFFFFFFFFFFFFFFFFFFFFFFFFFFFFFFFFFFFFFF AND PUSH20 0xFFFFFFFFFFFFFFFFFFFFFFFFFFFFFFFFFFFFFFFF AND DUP2 MSTORE PUSH1 0x20 ADD SWAP1 DUP2 MSTORE PUSH1 0x20 ADD PUSH1 0x0 KECCAK256 PUSH1 0x0 SWAP1 SLOAD SWAP1 PUSH2 0x100 EXP SWAP1 POP POP PUSH1 0x4 PUSH1 0x0 DUP3 DUP2 MSTORE PUSH1 0x20 ADD SWAP1 DUP2 MSTORE PUSH1 0x20 ADD PUSH1 0x0 KECCAK256 PUSH1 0x7 ADD PUSH1 0x0 DUP2 SLOAD DUP1 SWAP3 SWAP2 SWAP1 PUSH2 0x31C SWAP1 PUSH2 0xE3B JUMP JUMPDEST SWAP2 SWAP1 POP SSTORE POP POP JUMP JUMPDEST PUSH1 0x2 SLOAD DUP2 JUMP JUMPDEST PUSH1 0x0 DUP1 SLOAD SWAP1 PUSH2 0x100 EXP SWAP1 DIV PUSH20 0xFFFFFFFFFFFFFFFFFFFFFFFFFFFFFFFFFFFFFFFF AND DUP2 JUMP JUMPDEST PUSH1 0x4 PUSH1 0x0 DUP3 DUP2 MSTORE PUSH1 0x20 ADD SWAP1 DUP2 MSTORE PUSH1 0x20 ADD PUSH1 0x0 KECCAK256 PUSH1 0x4 ADD PUSH1 0x0 SWAP1 SLOAD SWAP1 PUSH2 0x100 EXP SWAP1 DIV PUSH20 0xFFFFFFFFFFFFFFFFFFFFFFFFFFFFFFFFFFFFFFFF AND PUSH20 0xFFFFFFFFFFFFFFFFFFFFFFFFFFFFFFFFFFFFFFFF AND CALLER PUSH20 0xFFFFFFFFFFFFFFFFFFFFFFFFFFFFFFFFFFFFFFFF AND EQ PUSH2 0x3BC JUMPI PUSH1 0x0 DUP1 REVERT JUMPDEST PUSH1 0x2 DUP1 SLOAD PUSH2 0x3CA SWAP2 SWAP1 PUSH2 0xEB3 JUMP JUMPDEST PUSH1 0x4 PUSH1 0x0 DUP4 DUP2 MSTORE PUSH1 0x20 ADD SWAP1 DUP2 MSTORE PUSH1 0x20 ADD PUSH1 0x0 KECCAK256 PUSH1 0x7 ADD SLOAD GT PUSH2 0x3EB JUMPI PUSH1 0x0 DUP1 REVERT JUMPDEST PUSH1 0x4 PUSH1 0x0 DUP3 DUP2 MSTORE PUSH1 0x20 ADD SWAP1 DUP2 MSTORE PUSH1 0x20 ADD PUSH1 0x0 KECCAK256 PUSH1 0x5 ADD PUSH1 0x14 SWAP1 SLOAD SWAP1 PUSH2 0x100 EXP SWAP1 DIV PUSH1 0xFF AND ISZERO PUSH2 0x419 JUMPI PUSH1 0x0 DUP1 REVERT JUMPDEST PUSH1 0x4 PUSH1 0x0 DUP3 DUP2 MSTORE PUSH1 0x20 ADD SWAP1 DUP2 MSTORE PUSH1 0x20 ADD PUSH1 0x0 KECCAK256 PUSH1 0x5 ADD PUSH1 0x0 SWAP1 SLOAD SWAP1 PUSH2 0x100 EXP SWAP1 DIV PUSH20 0xFFFFFFFFFFFFFFFFFFFFFFFFFFFFFFFFFFFFFFFF AND PUSH20 0xFFFFFFFFFFFFFFFFFFFFFFFFFFFFFFFFFFFFFFFF AND PUSH2 0x8FC PUSH1 0x4 PUSH1 0x0 DUP5 DUP2 MSTORE PUSH1 0x20 ADD SWAP1 DUP2 MSTORE PUSH1 0x20 ADD PUSH1 0x0 KECCAK256 PUSH1 0x3 ADD SLOAD SWAP1 DUP2 ISZERO MUL SWAP1 PUSH1 0x40 MLOAD PUSH1 0x0 PUSH1 0x40 MLOAD DUP1 DUP4 SUB DUP2 DUP6 DUP9 DUP9 CALL SWAP4 POP POP POP POP ISZERO DUP1 ISZERO PUSH2 0x4AB JUMPI RETURNDATASIZE PUSH1 0x0 DUP1 RETURNDATACOPY RETURNDATASIZE PUSH1 0x0 REVERT JUMPDEST POP POP JUMP JUMPDEST PUSH1 0x4 PUSH1 0x20 MSTORE DUP1 PUSH1 0x0 MSTORE PUSH1 0x40 PUSH1 0x0 KECCAK256 PUSH1 0x0 SWAP2 POP SWAP1 POP DUP1 PUSH1 0x0 ADD DUP1 SLOAD PUSH2 0x4D2 SWAP1 PUSH2 0xF13 JUMP JUMPDEST DUP1 PUSH1 0x1F ADD PUSH1 0x20 DUP1 SWAP2 DIV MUL PUSH1 0x20 ADD PUSH1 0x40 MLOAD SWAP1 DUP2 ADD PUSH1 0x40 MSTORE DUP1 SWAP3 SWAP2 SWAP1 DUP2 DUP2 MSTORE PUSH1 0x20 ADD DUP3 DUP1 SLOAD PUSH2 0x4FE SWAP1 PUSH2 0xF13 JUMP JUMPDEST DUP1 ISZERO PUSH2 0x54B JUMPI DUP1 PUSH1 0x1F LT PUSH2 0x520 JUMPI PUSH2 0x100 DUP1 DUP4 SLOAD DIV MUL DUP4 MSTORE SWAP2 PUSH1 0x20 ADD SWAP2 PUSH2 0x54B JUMP JUMPDEST DUP3 ADD SWAP2 SWAP1 PUSH1 0x0 MSTORE PUSH1 0x20 PUSH1 0x0 KECCAK256 SWAP1 JUMPDEST DUP2 SLOAD DUP2 MSTORE SWAP1 PUSH1 0x1 ADD SWAP1 PUSH1 0x20 ADD DUP1 DUP4 GT PUSH2 0x52E JUMPI DUP3 SWAP1 SUB PUSH1 0x1F AND DUP3 ADD SWAP2 JUMPDEST POP POP POP POP POP SWAP1 DUP1 PUSH1 0x1 ADD DUP1 SLOAD PUSH2 0x560 SWAP1 PUSH2 0xF13 JUMP JUMPDEST DUP1 PUSH1 0x1F ADD PUSH1 0x20 DUP1 SWAP2 DIV MUL PUSH1 0x20 ADD PUSH1 0x40 MLOAD SWAP1 DUP2 ADD PUSH1 0x40 MSTORE DUP1 SWAP3 SWAP2 SWAP1 DUP2 DUP2 MSTORE PUSH1 0x20 ADD DUP3 DUP1 SLOAD PUSH2 0x58C SWAP1 PUSH2 0xF13 JUMP JUMPDEST DUP1 ISZERO PUSH2 0x5D9 JUMPI DUP1 PUSH1 0x1F LT PUSH2 0x5AE JUMPI PUSH2 0x100 DUP1 DUP4 SLOAD DIV MUL DUP4 MSTORE SWAP2 PUSH1 0x20 ADD SWAP2 PUSH2 0x5D9 JUMP JUMPDEST DUP3 ADD SWAP2 SWAP1 PUSH1 0x0 MSTORE PUSH1 0x20 PUSH1 0x0 KECCAK256 SWAP1 JUMPDEST DUP2 SLOAD DUP2 MSTORE SWAP1 PUSH1 0x1 ADD SWAP1 PUSH1 0x20 ADD DUP1 DUP4 GT PUSH2 0x5BC JUMPI DUP3 SWAP1 SUB PUSH1 0x1F AND DUP3 ADD SWAP2 JUMPDEST POP POP POP POP POP SWAP1 DUP1 PUSH1 0x2 ADD DUP1 SLOAD PUSH2 0x5EE SWAP1 PUSH2 0xF13 JUMP JUMPDEST DUP1 PUSH1 0x1F ADD PUSH1 0x20 DUP1 SWAP2 DIV MUL PUSH1 0x20 ADD PUSH1 0x40 MLOAD SWAP1 DUP2 ADD PUSH1 0x40 MSTORE DUP1 SWAP3 SWAP2 SWAP1 DUP2 DUP2 MSTORE PUSH1 0x20 ADD DUP3 DUP1 SLOAD PUSH2 0x61A SWAP1 PUSH2 0xF13 JUMP JUMPDEST DUP1 ISZERO PUSH2 0x667 JUMPI DUP1 PUSH1 0x1F LT PUSH2 0x63C JUMPI PUSH2 0x100 DUP1 DUP4 SLOAD DIV MUL DUP4 MSTORE SWAP2 PUSH1 0x20 ADD SWAP2 PUSH2 0x667 JUMP JUMPDEST DUP3 ADD SWAP2 SWAP1 PUSH1 0x0 MSTORE PUSH1 0x20 PUSH1 0x0 KECCAK256 SWAP1 JUMPDEST DUP2 SLOAD DUP2 MSTORE SWAP1 PUSH1 0x1 ADD SWAP1 PUSH1 0x20 ADD DUP1 DUP4 GT PUSH2 0x64A JUMPI DUP3 SWAP1 SUB PUSH1 0x1F AND DUP3 ADD SWAP2 JUMPDEST POP POP POP POP POP SWAP1 DUP1 PUSH1 0x3 ADD SLOAD SWAP1 DUP1 PUSH1 0x4 ADD PUSH1 0x0 SWAP1 SLOAD SWAP1 PUSH2 0x100 EXP SWAP1 DIV PUSH20 0xFFFFFFFFFFFFFFFFFFFFFFFFFFFFFFFFFFFFFFFF AND SWAP1 DUP1 PUSH1 0x5 ADD PUSH1 0x0 SWAP1 SLOAD SWAP1 PUSH2 0x100 EXP SWAP1 DIV PUSH20 0xFFFFFFFFFFFFFFFFFFFFFFFFFFFFFFFFFFFFFFFF AND SWAP1 DUP1 PUSH1 0x5 ADD PUSH1 0x14 SWAP1 SLOAD SWAP1 PUSH2 0x100 EXP SWAP1 DIV PUSH1 0xFF AND SWAP1 DUP1 PUSH1 0x7 ADD SLOAD SWAP1 POP DUP9 JUMP JUMPDEST PUSH1 0x1 CALLVALUE LT ISZERO PUSH2 0x6EA JUMPI PUSH1 0x0 DUP1 REVERT JUMPDEST PUSH1 0x1 DUP1 PUSH1 0x0 CALLER PUSH20 0xFFFFFFFFFFFFFFFFFFFFFFFFFFFFFFFFFFFFFFFF AND PUSH20 0xFFFFFFFFFFFFFFFFFFFFFFFFFFFFFFFFFFFFFFFF AND DUP2 MSTORE PUSH1 0x20 ADD SWAP1 DUP2 MSTORE PUSH1 0x20 ADD PUSH1 0x0 KECCAK256 PUSH1 0x0 PUSH2 0x100 EXP DUP2 SLOAD DUP2 PUSH1 0xFF MUL NOT AND SWAP1 DUP4 ISZERO ISZERO MUL OR SWAP1 SSTORE POP PUSH1 0x2 PUSH1 0x0 DUP2 SLOAD DUP1 SWAP3 SWAP2 SWAP1 PUSH2 0x754 SWAP1 PUSH2 0xE3B JUMP JUMPDEST SWAP2 SWAP1 POP SSTORE POP JUMP JUMPDEST PUSH1 0x0 PUSH1 0x4 PUSH1 0x0 PUSH1 0x3 SLOAD DUP2 MSTORE PUSH1 0x20 ADD SWAP1 DUP2 MSTORE PUSH1 0x20 ADD PUSH1 0x0 KECCAK256 SWAP1 POP PUSH1 0x3 PUSH1 0x0 DUP2 SLOAD DUP1 SWAP3 SWAP2 SWAP1 PUSH2 0x787 SWAP1 PUSH2 0xE3B JUMP JUMPDEST SWAP2 SWAP1 POP SSTORE POP DUP6 DUP2 PUSH1 0x0 ADD SWAP1 DUP1 MLOAD SWAP1 PUSH1 0x20 ADD SWAP1 PUSH2 0x7A4 SWAP3 SWAP2 SWAP1 PUSH2 0x8AD JUMP JUMPDEST POP DUP5 DUP2 PUSH1 0x1 ADD SWAP1 DUP1 MLOAD SWAP1 PUSH1 0x20 ADD SWAP1 PUSH2 0x7BD SWAP3 SWAP2 SWAP1 PUSH2 0x8AD JUMP JUMPDEST POP DUP4 DUP2 PUSH1 0x2 ADD SWAP1 DUP1 MLOAD SWAP1 PUSH1 0x20 ADD SWAP1 PUSH2 0x7D6 SWAP3 SWAP2 SWAP1 PUSH2 0x8AD JUMP JUMPDEST POP DUP3 DUP2 PUSH1 0x3 ADD DUP2 SWAP1 SSTORE POP CALLER DUP2 PUSH1 0x4 ADD PUSH1 0x0 PUSH2 0x100 EXP DUP2 SLOAD DUP2 PUSH20 0xFFFFFFFFFFFFFFFFFFFFFFFFFFFFFFFFFFFFFFFF MUL NOT AND SWAP1 DUP4 PUSH20 0xFFFFFFFFFFFFFFFFFFFFFFFFFFFFFFFFFFFFFFFF AND MUL OR SWAP1 SSTORE POP DUP2 DUP2 PUSH1 0x5 ADD PUSH1 0x0 PUSH2 0x100 EXP DUP2 SLOAD DUP2 PUSH20 0xFFFFFFFFFFFFFFFFFFFFFFFFFFFFFFFFFFFFFFFF MUL NOT AND SWAP1 DUP4 PUSH20 0xFFFFFFFFFFFFFFFFFFFFFFFFFFFFFFFFFFFFFFFF AND MUL OR SWAP1 SSTORE POP PUSH1 0x0 DUP2 PUSH1 0x5 ADD PUSH1 0x14 PUSH2 0x100 EXP DUP2 SLOAD DUP2 PUSH1 0xFF MUL NOT AND SWAP1 DUP4 ISZERO ISZERO MUL OR SWAP1 SSTORE POP PUSH1 0x0 DUP2 PUSH1 0x7 ADD DUP2 SWAP1 SSTORE POP PUSH1 0x2 PUSH1 0x0 DUP2 SLOAD DUP1 SWAP3 SWAP2 SWAP1 PUSH2 0x8A0 SWAP1 PUSH2 0xE3B JUMP JUMPDEST SWAP2 SWAP1 POP SSTORE POP POP POP POP POP POP POP JUMP JUMPDEST DUP3 DUP1 SLOAD PUSH2 0x8B9 SWAP1 PUSH2 0xF13 JUMP JUMPDEST SWAP1 PUSH1 0x0 MSTORE PUSH1 0x20 PUSH1 0x0 KECCAK256 SWAP1 PUSH1 0x1F ADD PUSH1 0x20 SWAP1 DIV DUP2 ADD SWAP3 DUP3 PUSH2 0x8DB JUMPI PUSH1 0x0 DUP6 SSTORE PUSH2 0x922 JUMP JUMPDEST DUP3 PUSH1 0x1F LT PUSH2 0x8F4 JUMPI DUP1 MLOAD PUSH1 0xFF NOT AND DUP4 DUP1 ADD OR DUP6 SSTORE PUSH2 0x922 JUMP JUMPDEST DUP3 DUP1 ADD PUSH1 0x1 ADD DUP6 SSTORE DUP3 ISZERO PUSH2 0x922 JUMPI SWAP2 DUP3 ADD JUMPDEST DUP3 DUP2 GT ISZERO PUSH2 0x921 JUMPI DUP3 MLOAD DUP3 SSTORE SWAP2 PUSH1 0x20 ADD SWAP2 SWAP1 PUSH1 0x1 ADD SWAP1 PUSH2 0x906 JUMP JUMPDEST JUMPDEST POP SWAP1 POP PUSH2 0x92F SWAP2 SWAP1 PUSH2 0x933 JUMP JUMPDEST POP SWAP1 JUMP JUMPDEST JUMPDEST DUP1 DUP3 GT ISZERO PUSH2 0x94C JUMPI PUSH1 0x0 DUP2 PUSH1 0x0 SWAP1 SSTORE POP PUSH1 0x1 ADD PUSH2 0x934 JUMP JUMPDEST POP SWAP1 JUMP JUMPDEST PUSH1 0x0 PUSH1 0x40 MLOAD SWAP1 POP SWAP1 JUMP JUMPDEST PUSH1 0x0 DUP1 REVERT JUMPDEST PUSH1 0x0 DUP1 REVERT JUMPDEST PUSH1 0x0 PUSH20 0xFFFFFFFFFFFFFFFFFFFFFFFFFFFFFFFFFFFFFFFF DUP3 AND SWAP1 POP SWAP2 SWAP1 POP JUMP JUMPDEST PUSH1 0x0 PUSH2 0x98F DUP3 PUSH2 0x964 JUMP JUMPDEST SWAP1 POP SWAP2 SWAP1 POP JUMP JUMPDEST PUSH2 0x99F DUP2 PUSH2 0x984 JUMP JUMPDEST DUP2 EQ PUSH2 0x9AA JUMPI PUSH1 0x0 DUP1 REVERT JUMPDEST POP JUMP JUMPDEST PUSH1 0x0 DUP2 CALLDATALOAD SWAP1 POP PUSH2 0x9BC DUP2 PUSH2 0x996 JUMP JUMPDEST SWAP3 SWAP2 POP POP JUMP JUMPDEST PUSH1 0x0 PUSH1 0x20 DUP3 DUP5 SUB SLT ISZERO PUSH2 0x9D8 JUMPI PUSH2 0x9D7 PUSH2 0x95A JUMP JUMPDEST JUMPDEST PUSH1 0x0 PUSH2 0x9E6 DUP5 DUP3 DUP6 ADD PUSH2 0x9AD JUMP JUMPDEST SWAP2 POP POP SWAP3 SWAP2 POP POP JUMP JUMPDEST PUSH1 0x0 DUP2 ISZERO ISZERO SWAP1 POP SWAP2 SWAP1 POP JUMP JUMPDEST PUSH2 0xA04 DUP2 PUSH2 0x9EF JUMP JUMPDEST DUP3 MSTORE POP POP JUMP JUMPDEST PUSH1 0x0 PUSH1 0x20 DUP3 ADD SWAP1 POP PUSH2 0xA1F PUSH1 0x0 DUP4 ADD DUP5 PUSH2 0x9FB JUMP JUMPDEST SWAP3 SWAP2 POP POP JUMP JUMPDEST PUSH1 0x0 DUP2 SWAP1 POP SWAP2 SWAP1 POP JUMP JUMPDEST PUSH2 0xA38 DUP2 PUSH2 0xA25 JUMP JUMPDEST DUP3 MSTORE POP POP JUMP JUMPDEST PUSH1 0x0 PUSH1 0x20 DUP3 ADD SWAP1 POP PUSH2 0xA53 PUSH1 0x0 DUP4 ADD DUP5 PUSH2 0xA2F JUMP JUMPDEST SWAP3 SWAP2 POP POP JUMP JUMPDEST PUSH2 0xA62 DUP2 PUSH2 0xA25 JUMP JUMPDEST DUP2 EQ PUSH2 0xA6D JUMPI PUSH1 0x0 DUP1 REVERT JUMPDEST POP JUMP JUMPDEST PUSH1 0x0 DUP2 CALLDATALOAD SWAP1 POP PUSH2 0xA7F DUP2 PUSH2 0xA59 JUMP JUMPDEST SWAP3 SWAP2 POP POP JUMP JUMPDEST PUSH1 0x0 PUSH1 0x20 DUP3 DUP5 SUB SLT ISZERO PUSH2 0xA9B JUMPI PUSH2 0xA9A PUSH2 0x95A JUMP JUMPDEST JUMPDEST PUSH1 0x0 PUSH2 0xAA9 DUP5 DUP3 DUP6 ADD PUSH2 0xA70 JUMP JUMPDEST SWAP2 POP POP SWAP3 SWAP2 POP POP JUMP JUMPDEST PUSH2 0xABB DUP2 PUSH2 0x984 JUMP JUMPDEST DUP3 MSTORE POP POP JUMP JUMPDEST PUSH1 0x0 PUSH1 0x20 DUP3 ADD SWAP1 POP PUSH2 0xAD6 PUSH1 0x0 DUP4 ADD DUP5 PUSH2 0xAB2 JUMP JUMPDEST SWAP3 SWAP2 POP POP JUMP JUMPDEST PUSH1 0x0 DUP2 MLOAD SWAP1 POP SWAP2 SWAP1 POP JUMP JUMPDEST PUSH1 0x0 DUP3 DUP3 MSTORE PUSH1 0x20 DUP3 ADD SWAP1 POP SWAP3 SWAP2 POP POP JUMP JUMPDEST PUSH1 0x0 JUMPDEST DUP4 DUP2 LT ISZERO PUSH2 0xB16 JUMPI DUP1 DUP3 ADD MLOAD DUP2 DUP5 ADD MSTORE PUSH1 0x20 DUP2 ADD SWAP1 POP PUSH2 0xAFB JUMP JUMPDEST DUP4 DUP2 GT ISZERO PUSH2 0xB25 JUMPI PUSH1 0x0 DUP5 DUP5 ADD MSTORE JUMPDEST POP POP POP POP JUMP JUMPDEST PUSH1 0x0 PUSH1 0x1F NOT PUSH1 0x1F DUP4 ADD AND SWAP1 POP SWAP2 SWAP1 POP JUMP JUMPDEST PUSH1 0x0 PUSH2 0xB47 DUP3 PUSH2 0xADC JUMP JUMPDEST PUSH2 0xB51 DUP2 DUP6 PUSH2 0xAE7 JUMP JUMPDEST SWAP4 POP PUSH2 0xB61 DUP2 DUP6 PUSH1 0x20 DUP7 ADD PUSH2 0xAF8 JUMP JUMPDEST PUSH2 0xB6A DUP2 PUSH2 0xB2B JUMP JUMPDEST DUP5 ADD SWAP2 POP POP SWAP3 SWAP2 POP POP JUMP JUMPDEST PUSH1 0x0 PUSH2 0x100 DUP3 ADD SWAP1 POP DUP2 DUP2 SUB PUSH1 0x0 DUP4 ADD MSTORE PUSH2 0xB90 DUP2 DUP12 PUSH2 0xB3C JUMP JUMPDEST SWAP1 POP DUP2 DUP2 SUB PUSH1 0x20 DUP4 ADD MSTORE PUSH2 0xBA4 DUP2 DUP11 PUSH2 0xB3C JUMP JUMPDEST SWAP1 POP DUP2 DUP2 SUB PUSH1 0x40 DUP4 ADD MSTORE PUSH2 0xBB8 DUP2 DUP10 PUSH2 0xB3C JUMP JUMPDEST SWAP1 POP PUSH2 0xBC7 PUSH1 0x60 DUP4 ADD DUP9 PUSH2 0xA2F JUMP JUMPDEST PUSH2 0xBD4 PUSH1 0x80 DUP4 ADD DUP8 PUSH2 0xAB2 JUMP JUMPDEST PUSH2 0xBE1 PUSH1 0xA0 DUP4 ADD DUP7 PUSH2 0xAB2 JUMP JUMPDEST PUSH2 0xBEE PUSH1 0xC0 DUP4 ADD DUP6 PUSH2 0x9FB JUMP JUMPDEST PUSH2 0xBFB PUSH1 0xE0 DUP4 ADD DUP5 PUSH2 0xA2F JUMP JUMPDEST SWAP10 SWAP9 POP POP POP POP POP POP POP POP POP JUMP JUMPDEST PUSH1 0x0 DUP1 REVERT JUMPDEST PUSH1 0x0 DUP1 REVERT JUMPDEST PUSH32 0x4E487B7100000000000000000000000000000000000000000000000000000000 PUSH1 0x0 MSTORE PUSH1 0x41 PUSH1 0x4 MSTORE PUSH1 0x24 PUSH1 0x0 REVERT JUMPDEST PUSH2 0xC4A DUP3 PUSH2 0xB2B JUMP JUMPDEST DUP2 ADD DUP2 DUP2 LT PUSH8 0xFFFFFFFFFFFFFFFF DUP3 GT OR ISZERO PUSH2 0xC69 JUMPI PUSH2 0xC68 PUSH2 0xC12 JUMP JUMPDEST JUMPDEST DUP1 PUSH1 0x40 MSTORE POP POP POP JUMP JUMPDEST PUSH1 0x0 PUSH2 0xC7C PUSH2 0x950 JUMP JUMPDEST SWAP1 POP PUSH2 0xC88 DUP3 DUP3 PUSH2 0xC41 JUMP JUMPDEST SWAP2 SWAP1 POP JUMP JUMPDEST PUSH1 0x0 PUSH8 0xFFFFFFFFFFFFFFFF DUP3 GT ISZERO PUSH2 0xCA8 JUMPI PUSH2 0xCA7 PUSH2 0xC12 JUMP JUMPDEST JUMPDEST PUSH2 0xCB1 DUP3 PUSH2 0xB2B JUMP JUMPDEST SWAP1 POP PUSH1 0x20 DUP2 ADD SWAP1 POP SWAP2 SWAP1 POP JUMP JUMPDEST DUP3 DUP2 DUP4 CALLDATACOPY PUSH1 0x0 DUP4 DUP4 ADD MSTORE POP POP POP JUMP JUMPDEST PUSH1 0x0 PUSH2 0xCE0 PUSH2 0xCDB DUP5 PUSH2 0xC8D JUMP JUMPDEST PUSH2 0xC72 JUMP JUMPDEST SWAP1 POP DUP3 DUP2 MSTORE PUSH1 0x20 DUP2 ADD DUP5 DUP5 DUP5 ADD GT ISZERO PUSH2 0xCFC JUMPI PUSH2 0xCFB PUSH2 0xC0D JUMP JUMPDEST JUMPDEST PUSH2 0xD07 DUP5 DUP3 DUP6 PUSH2 0xCBE JUMP JUMPDEST POP SWAP4 SWAP3 POP POP POP JUMP JUMPDEST PUSH1 0x0 DUP3 PUSH1 0x1F DUP4 ADD SLT PUSH2 0xD24 JUMPI PUSH2 0xD23 PUSH2 0xC08 JUMP JUMPDEST JUMPDEST DUP2 CALLDATALOAD PUSH2 0xD34 DUP5 DUP3 PUSH1 0x20 DUP7 ADD PUSH2 0xCCD JUMP JUMPDEST SWAP2 POP POP SWAP3 SWAP2 POP POP JUMP JUMPDEST PUSH1 0x0 DUP1 PUSH1 0x0 DUP1 PUSH1 0x0 PUSH1 0xA0 DUP7 DUP9 SUB SLT ISZERO PUSH2 0xD59 JUMPI PUSH2 0xD58 PUSH2 0x95A JUMP JUMPDEST JUMPDEST PUSH1 0x0 DUP7 ADD CALLDATALOAD PUSH8 0xFFFFFFFFFFFFFFFF DUP2 GT ISZERO PUSH2 0xD77 JUMPI PUSH2 0xD76 PUSH2 0x95F JUMP JUMPDEST JUMPDEST PUSH2 0xD83 DUP9 DUP3 DUP10 ADD PUSH2 0xD0F JUMP JUMPDEST SWAP6 POP POP PUSH1 0x20 DUP7 ADD CALLDATALOAD PUSH8 0xFFFFFFFFFFFFFFFF DUP2 GT ISZERO PUSH2 0xDA4 JUMPI PUSH2 0xDA3 PUSH2 0x95F JUMP JUMPDEST JUMPDEST PUSH2 0xDB0 DUP9 DUP3 DUP10 ADD PUSH2 0xD0F JUMP JUMPDEST SWAP5 POP POP PUSH1 0x40 DUP7 ADD CALLDATALOAD PUSH8 0xFFFFFFFFFFFFFFFF DUP2 GT ISZERO PUSH2 0xDD1 JUMPI PUSH2 0xDD0 PUSH2 0x95F JUMP JUMPDEST JUMPDEST PUSH2 0xDDD DUP9 DUP3 DUP10 ADD PUSH2 0xD0F JUMP JUMPDEST SWAP4 POP POP PUSH1 0x60 PUSH2 0xDEE DUP9 DUP3 DUP10 ADD PUSH2 0xA70 JUMP JUMPDEST SWAP3 POP POP PUSH1 0x80 PUSH2 0xDFF DUP9 DUP3 DUP10 ADD PUSH2 0x9AD JUMP JUMPDEST SWAP2 POP POP SWAP3 SWAP6 POP SWAP3 SWAP6 SWAP1 SWAP4 POP JUMP JUMPDEST PUSH32 0x4E487B7100000000000000000000000000000000000000000000000000000000 PUSH1 0x0 MSTORE PUSH1 0x11 PUSH1 0x4 MSTORE PUSH1 0x24 PUSH1 0x0 REVERT JUMPDEST PUSH1 0x0 PUSH2 0xE46 DUP3 PUSH2 0xA25 JUMP JUMPDEST SWAP2 POP PUSH32 0xFFFFFFFFFFFFFFFFFFFFFFFFFFFFFFFFFFFFFFFFFFFFFFFFFFFFFFFFFFFFFFFF DUP3 EQ ISZERO PUSH2 0xE79 JUMPI PUSH2 0xE78 PUSH2 0xE0C JUMP JUMPDEST JUMPDEST PUSH1 0x1 DUP3 ADD SWAP1 POP SWAP2 SWAP1 POP JUMP JUMPDEST PUSH32 0x4E487B7100000000000000000000000000000000000000000000000000000000 PUSH1 0x0 MSTORE PUSH1 0x12 PUSH1 0x4 MSTORE PUSH1 0x24 PUSH1 0x0 REVERT JUMPDEST PUSH1 0x0 PUSH2 0xEBE DUP3 PUSH2 0xA25 JUMP JUMPDEST SWAP2 POP PUSH2 0xEC9 DUP4 PUSH2 0xA25 JUMP JUMPDEST SWAP3 POP DUP3 PUSH2 0xED9 JUMPI PUSH2 0xED8 PUSH2 0xE84 JUMP JUMPDEST JUMPDEST DUP3 DUP3 DIV SWAP1 POP SWAP3 SWAP2 POP POP JUMP JUMPDEST PUSH32 0x4E487B7100000000000000000000000000000000000000000000000000000000 PUSH1 0x0 MSTORE PUSH1 0x22 PUSH1 0x4 MSTORE PUSH1 0x24 PUSH1 0x0 REVERT JUMPDEST PUSH1 0x0 PUSH1 0x2 DUP3 DIV SWAP1 POP PUSH1 0x1 DUP3 AND DUP1 PUSH2 0xF2B JUMPI PUSH1 0x7F DUP3 AND SWAP2 POP JUMPDEST PUSH1 0x20 DUP3 LT DUP2 EQ ISZERO PUSH2 0xF3F JUMPI PUSH2 0xF3E PUSH2 0xEE4 JUMP JUMPDEST JUMPDEST POP SWAP2 SWAP1 POP JUMP INVALID LOG2 PUSH5 0x6970667358 0x22 SLT KECCAK256 STOP 0xB4 SUB DUP4 PUSH14 0xC9489E0AED447EE52C151DA089D7 DUP2 0x28 SSTORE CODECOPY PUSH16 0xD908A35FE5715BB264736F6C63430008 MULMOD STOP CALLER "},"gasEstimates":{"creation":{"codeDepositCost":"792600","executionCost":"25091","totalCost":"817691"},"external":{"approveClaim(uint256)":"infinite","claim(string,string,string,uint256,address)":"infinite","claims(uint256)":"infinite","contribute()":"48927","contributors(address)":"2846","owner()":"2511","population()":"2496","requestIndex()":"2452","startStudy(uint256)":"infinite"}},"methodIdentifiers":{"approveClaim(uint256)":"46e30135","claim(string,string,string,uint256,address)":"ec729859","claims(uint256)":"a888c2cd","contribute()":"d7bb99ba","contributors(address)":"1f6d4942","owner()":"8da5cb5b","population()":"78880f4a","requestIndex()":"420714bd","startStudy(uint256)":"a5f7542a"}},"storageLayout":{"storage":[{"astId":24,"contract":"Appetito.sol:Appetito","label":"owner","offset":0,"slot":"0","type":"t_address"},{"astId":28,"contract":"Appetito.sol:Appetito","label":"contributors","offset":0,"slot":"1","type":"t_mapping(t_address,t_bool)"},{"astId":30,"contract":"Appetito.sol:Appetito","label":"population","offset":0,"slot":"2","type":"t_uint256"},{"astId":32,"contract":"Appetito.sol:Appetito","label":"requestIndex","offset":0,"slot":"3","type":"t_uint256"},{"astId":37,"contract":"Appetito.sol:Appetito","label":"claims","offset":0,"slot":"4","type":"t_mapping(t_uint256,t_struct(ClaimType)22_storage)"}],"types":{"t_address":{"encoding":"inplace","label":"address","numberOfBytes":"20"},"t_bool":{"encoding":"inplace","label":"bool","numberOfBytes":"1"},"t_mapping(t_address,t_bool)":{"encoding":"mapping","key":"t_address","label":"mapping(address => bool)","numberOfBytes":"32","value":"t_bool"},"t_mapping(t_uint256,t_struct(ClaimType)22_storage)":{"encoding":"mapping","key":"t_uint256","label":"mapping(uint256 => struct Appetito.ClaimType)","numberOfBytes":"32","value":"t_struct(ClaimType)22_storage"},"t_string_storage":{"encoding":"bytes","label":"string","numberOfBytes":"32"},"t_struct(ClaimType)22_storage":{"encoding":"inplace","label":"struct Appetito.ClaimType","members":[{"astId":3,"contract":"Appetito.sol:Appetito","label":"dreamJob","offset":0,"slot":"0","type":"t_string_storage"},{"astId":5,"contract":"Appetito.sol:Appetito","label":"purpose","offset":0,"slot":"1","type":"t_string_storage"},{"astId":7,"contract":"Appetito.sol:Appetito","label":"description","offset":0,"slot":"2","type":"t_string_storage"},{"astId":9,"contract":"Appetito.sol:Appetito","label":"value","offset":0,"slot":"3","type":"t_uint256"},{"astId":11,"contract":"Appetito.sol:Appetito","label":"claimer","offset":0,"slot":"4","type":"t_address"},{"astId":13,"contract":"Appetito.sol:Appetito","label":"to","offset":0,"slot":"5","type":"t_address"},{"astId":15,"contract":"Appetito.sol:Appetito","label":"done","offset":20,"slot":"5","type":"t_bool"},{"astId":19,"contract":"Appetito.sol:Appetito","label":"approvers","offset":0,"slot":"6","type":"t_mapping(t_address,t_bool)"},{"astId":21,"contract":"Appetito.sol:Appetito","label":"approvedCounts","offset":0,"slot":"7","type":"t_uint256"}],"numberOfBytes":"256"},"t_uint256":{"encoding":"inplace","label":"uint256","numberOfBytes":"32"}}},"userdoc":{"kind":"user","methods":{},"version":1}}