{"abi":[{"inputs":[],"stateMutability":"nonpayable","type":"constructor"},{"inputs":[{"internalType":"uint256","name":"index","type":"uint256"}],"name":"approveClaim","outputs":[],"stateMutability":"nonpayable","type":"function"},{"inputs":[{"internalType":"string","name":"dreamJob","type":"string"},{"internalType":"string","name":"purpose","type":"string"},{"internalType":"string","name":"description","type":"string"},{"internalType":"uint256","name":"value","type":"uint256"},{"internalType":"address","name":"recipient","type":"address"}],"name":"claim","outputs":[],"stateMutability":"nonpayable","type":"function"},{"inputs":[],"name":"claiming","outputs":[{"internalType":"string","name":"dreamJob","type":"string"},{"internalType":"string","name":"purpose","type":"string"},{"internalType":"string","name":"description","type":"string"},{"internalType":"uint256","name":"value","type":"uint256"},{"internalType":"address","name":"claimer","type":"address"},{"internalType":"address","name":"recipient","type":"address"},{"internalType":"bool","name":"done","type":"bool"},{"internalType":"uint256","name":"approvedCounts","type":"uint256"}],"stateMutability":"view","type":"function"},{"inputs":[{"internalType":"uint256","name":"","type":"uint256"}],"name":"claims","outputs":[{"internalType":"string","name":"dreamJob","type":"string"},{"internalType":"string","name":"purpose","type":"string"},{"internalType":"string","name":"description","type":"string"},{"internalType":"uint256","name":"value","type":"uint256"},{"internalType":"address","name":"claimer","type":"address"},{"internalType":"address","name":"recipient","type":"address"},{"internalType":"bool","name":"done","type":"bool"},{"internalType":"uint256","name":"approvedCounts","type":"uint256"}],"stateMutability":"view","type":"function"},{"inputs":[{"internalType":"string","name":"nickName","type":"string"},{"internalType":"uint256","name":"latitude","type":"uint256"},{"internalType":"uint256","name":"longitude","type":"uint256"}],"name":"contribute","outputs":[],"stateMutability":"payable","type":"function"},{"inputs":[{"internalType":"uint256","name":"","type":"uint256"}],"name":"contributors","outputs":[{"internalType":"string","name":"nickName","type":"string"},{"internalType":"address","name":"place","type":"address"},{"internalType":"uint256","name":"latitude","type":"uint256"},{"internalType":"uint256","name":"longitude","type":"uint256"}],"stateMutability":"view","type":"function"},{"inputs":[],"name":"getContributors","outputs":[{"components":[{"internalType":"string","name":"nickName","type":"string"},{"internalType":"address","name":"place","type":"address"},{"internalType":"uint256","name":"latitude","type":"uint256"},{"internalType":"uint256","name":"longitude","type":"uint256"}],"internalType":"struct Appetito.ContibutorType[]","name":"","type":"tuple[]"}],"stateMutability":"view","type":"function"},{"inputs":[],"name":"getContributorsNum","outputs":[{"internalType":"uint256","name":"","type":"uint256"}],"stateMutability":"view","type":"function"},{"inputs":[],"name":"owner","outputs":[{"internalType":"address","name":"","type":"address"}],"stateMutability":"view","type":"function"},{"inputs":[],"name":"population","outputs":[{"internalType":"uint256","name":"","type":"uint256"}],"stateMutability":"view","type":"function"},{"inputs":[{"internalType":"uint256","name":"index","type":"uint256"}],"name":"startStudy","outputs":[],"stateMutability":"payable","type":"function"}],"devdoc":{"kind":"dev","methods":{},"version":1},"evm":{"assembly":"    /* \"Appetito.sol\":57:2395  contract Appetito {... */\n  mstore(0x40, 0x80)\n    /* \"Appetito.sol\":622:682  constructor(){... */\n  callvalue\n  dup1\n  iszero\n  tag_1\n  jumpi\n  0x00\n  dup1\n  revert\ntag_1:\n  pop\n    /* \"Appetito.sol\":649:659  msg.sender */\n  caller\n    /* \"Appetito.sol\":641:646  owner */\n  0x08\n  0x00\n    /* \"Appetito.sol\":641:659  owner = msg.sender */\n  0x0100\n  exp\n  dup2\n  sload\n  dup2\n  0xffffffffffffffffffffffffffffffffffffffff\n  mul\n  not\n  and\n  swap1\n  dup4\n  0xffffffffffffffffffffffffffffffffffffffff\n  and\n  mul\n  or\n  swap1\n  sstore\n  pop\n    /* \"Appetito.sol\":665:675  population */\n  0x0a\n  0x00\n    /* \"Appetito.sol\":665:677  population++ */\n  dup2\n  sload\n  dup1\n  swap3\n  swap2\n  swap1\n  tag_4\n  swap1\n  tag_5\n  jump\t// in\ntag_4:\n  swap2\n  swap1\n  pop\n  sstore\n  pop\n    /* \"Appetito.sol\":57:2395  contract Appetito {... */\n  jump(tag_6)\n    /* \"#utility.yul\":7:187   */\ntag_7:\n    /* \"#utility.yul\":55:132   */\n  0x4e487b7100000000000000000000000000000000000000000000000000000000\n    /* \"#utility.yul\":52:53   */\n  0x00\n    /* \"#utility.yul\":45:133   */\n  mstore\n    /* \"#utility.yul\":152:156   */\n  0x11\n    /* \"#utility.yul\":149:150   */\n  0x04\n    /* \"#utility.yul\":142:157   */\n  mstore\n    /* \"#utility.yul\":176:180   */\n  0x24\n    /* \"#utility.yul\":173:174   */\n  0x00\n    /* \"#utility.yul\":166:181   */\n  revert\n    /* \"#utility.yul\":193:270   */\ntag_8:\n    /* \"#utility.yul\":230:237   */\n  0x00\n    /* \"#utility.yul\":259:264   */\n  dup2\n    /* \"#utility.yul\":248:264   */\n  swap1\n  pop\n    /* \"#utility.yul\":193:270   */\n  swap2\n  swap1\n  pop\n  jump\t// out\n    /* \"#utility.yul\":276:509   */\ntag_5:\n    /* \"#utility.yul\":315:318   */\n  0x00\n    /* \"#utility.yul\":338:362   */\n  tag_13\n    /* \"#utility.yul\":356:361   */\n  dup3\n    /* \"#utility.yul\":338:362   */\n  tag_8\n  jump\t// in\ntag_13:\n    /* \"#utility.yul\":329:362   */\n  swap2\n  pop\n    /* \"#utility.yul\":384:450   */\n  0xffffffffffffffffffffffffffffffffffffffffffffffffffffffffffffffff\n    /* \"#utility.yul\":377:382   */\n  dup3\n    /* \"#utility.yul\":374:451   */\n  eq\n    /* \"#utility.yul\":371:474   */\n  iszero\n  tag_14\n  jumpi\n    /* \"#utility.yul\":454:472   */\n  tag_15\n  tag_7\n  jump\t// in\ntag_15:\n    /* \"#utility.yul\":371:474   */\ntag_14:\n    /* \"#utility.yul\":501:502   */\n  0x01\n    /* \"#utility.yul\":494:499   */\n  dup3\n    /* \"#utility.yul\":490:503   */\n  add\n    /* \"#utility.yul\":483:503   */\n  swap1\n  pop\n    /* \"#utility.yul\":276:509   */\n  swap2\n  swap1\n  pop\n  jump\t// out\n    /* \"Appetito.sol\":57:2395  contract Appetito {... */\ntag_6:\n  dataSize(sub_0)\n  dup1\n  dataOffset(sub_0)\n  0x00\n  codecopy\n  0x00\n  return\nstop\n\nsub_0: assembly {\n        /* \"Appetito.sol\":57:2395  contract Appetito {... */\n      mstore(0x40, 0x80)\n      jumpi(tag_1, lt(calldatasize, 0x04))\n      shr(0xe0, calldataload(0x00))\n      dup1\n      0x78880f4a\n      gt\n      tag_13\n      jumpi\n      dup1\n      0x78880f4a\n      eq\n      tag_7\n      jumpi\n      dup1\n      0x8da5cb5b\n      eq\n      tag_8\n      jumpi\n      dup1\n      0xa5f7542a\n      eq\n      tag_9\n      jumpi\n      dup1\n      0xa888c2cd\n      eq\n      tag_10\n      jumpi\n      dup1\n      0xaf157c19\n      eq\n      tag_11\n      jumpi\n      dup1\n      0xec729859\n      eq\n      tag_12\n      jumpi\n      jump(tag_1)\n    tag_13:\n      dup1\n      0x0defc08a\n      eq\n      tag_2\n      jumpi\n      dup1\n      0x39e77905\n      eq\n      tag_3\n      jumpi\n      dup1\n      0x3cb5d100\n      eq\n      tag_4\n      jumpi\n      dup1\n      0x46e30135\n      eq\n      tag_5\n      jumpi\n      dup1\n      0x64f745a7\n      eq\n      tag_6\n      jumpi\n    tag_1:\n      0x00\n      dup1\n      revert\n        /* \"Appetito.sol\":421:446  ClaimType public claiming */\n    tag_2:\n      callvalue\n      dup1\n      iszero\n      tag_14\n      jumpi\n      0x00\n      dup1\n      revert\n    tag_14:\n      pop\n      tag_15\n      tag_16\n      jump\t// in\n    tag_15:\n      mload(0x40)\n      tag_17\n      swap9\n      swap8\n      swap7\n      swap6\n      swap5\n      swap4\n      swap3\n      swap2\n      swap1\n      tag_18\n      jump\t// in\n    tag_17:\n      mload(0x40)\n      dup1\n      swap2\n      sub\n      swap1\n      return\n        /* \"Appetito.sol\":1183:1275  function getContributorsNum() public view returns(uint){... */\n    tag_3:\n      callvalue\n      dup1\n      iszero\n      tag_19\n      jumpi\n      0x00\n      dup1\n      revert\n    tag_19:\n      pop\n      tag_20\n      tag_21\n      jump\t// in\n    tag_20:\n      mload(0x40)\n      tag_22\n      swap2\n      swap1\n      tag_23\n      jump\t// in\n    tag_22:\n      mload(0x40)\n      dup1\n      swap2\n      sub\n      swap1\n      return\n        /* \"Appetito.sol\":526:562  ContibutorType[] public contributors */\n    tag_4:\n      callvalue\n      dup1\n      iszero\n      tag_24\n      jumpi\n      0x00\n      dup1\n      revert\n    tag_24:\n      pop\n      tag_25\n      0x04\n      dup1\n      calldatasize\n      sub\n      dup2\n      add\n      swap1\n      tag_26\n      swap2\n      swap1\n      tag_27\n      jump\t// in\n    tag_26:\n      tag_28\n      jump\t// in\n    tag_25:\n      mload(0x40)\n      tag_29\n      swap5\n      swap4\n      swap3\n      swap2\n      swap1\n      tag_30\n      jump\t// in\n    tag_29:\n      mload(0x40)\n      dup1\n      swap2\n      sub\n      swap1\n      return\n        /* \"Appetito.sol\":1940:2121  function approveClaim(uint index) public {... */\n    tag_5:\n      callvalue\n      dup1\n      iszero\n      tag_31\n      jumpi\n      0x00\n      dup1\n      revert\n    tag_31:\n      pop\n      tag_32\n      0x04\n      dup1\n      calldatasize\n      sub\n      dup2\n      add\n      swap1\n      tag_33\n      swap2\n      swap1\n      tag_27\n      jump\t// in\n    tag_33:\n      tag_34\n      jump\t// in\n    tag_32:\n      stop\n        /* \"Appetito.sol\":686:1074  function contribute(string memory nickName, uint latitude, uint longitude) public payable {... */\n    tag_6:\n      tag_35\n      0x04\n      dup1\n      calldatasize\n      sub\n      dup2\n      add\n      swap1\n      tag_36\n      swap2\n      swap1\n      tag_37\n      jump\t// in\n    tag_36:\n      tag_38\n      jump\t// in\n    tag_35:\n      stop\n        /* \"Appetito.sol\":566:588  uint public population */\n    tag_7:\n      callvalue\n      dup1\n      iszero\n      tag_39\n      jumpi\n      0x00\n      dup1\n      revert\n    tag_39:\n      pop\n      tag_40\n      tag_41\n      jump\t// in\n    tag_40:\n      mload(0x40)\n      tag_42\n      swap2\n      swap1\n      tag_23\n      jump\t// in\n    tag_42:\n      mload(0x40)\n      dup1\n      swap2\n      sub\n      swap1\n      return\n        /* \"Appetito.sol\":451:471  address public owner */\n    tag_8:\n      callvalue\n      dup1\n      iszero\n      tag_43\n      jumpi\n      0x00\n      dup1\n      revert\n    tag_43:\n      pop\n      tag_44\n      tag_45\n      jump\t// in\n    tag_44:\n      mload(0x40)\n      tag_46\n      swap2\n      swap1\n      tag_47\n      jump\t// in\n    tag_46:\n      mload(0x40)\n      dup1\n      swap2\n      sub\n      swap1\n      return\n        /* \"Appetito.sol\":2125:2393  function startStudy(uint index) public payable {... */\n    tag_9:\n      tag_48\n      0x04\n      dup1\n      calldatasize\n      sub\n      dup2\n      add\n      swap1\n      tag_49\n      swap2\n      swap1\n      tag_27\n      jump\t// in\n    tag_49:\n      tag_50\n      jump\t// in\n    tag_48:\n      stop\n        /* \"Appetito.sol\":592:617  ClaimType[] public claims */\n    tag_10:\n      callvalue\n      dup1\n      iszero\n      tag_51\n      jumpi\n      0x00\n      dup1\n      revert\n    tag_51:\n      pop\n      tag_52\n      0x04\n      dup1\n      calldatasize\n      sub\n      dup2\n      add\n      swap1\n      tag_53\n      swap2\n      swap1\n      tag_27\n      jump\t// in\n    tag_53:\n      tag_54\n      jump\t// in\n    tag_52:\n      mload(0x40)\n      tag_55\n      swap9\n      swap8\n      swap7\n      swap6\n      swap5\n      swap4\n      swap3\n      swap2\n      swap1\n      tag_18\n      jump\t// in\n    tag_55:\n      mload(0x40)\n      dup1\n      swap2\n      sub\n      swap1\n      return\n        /* \"Appetito.sol\":1078:1179  function getContributors() public view returns(ContibutorType[] memory){... */\n    tag_11:\n      callvalue\n      dup1\n      iszero\n      tag_56\n      jumpi\n      0x00\n      dup1\n      revert\n    tag_56:\n      pop\n      tag_57\n      tag_58\n      jump\t// in\n    tag_57:\n      mload(0x40)\n      tag_59\n      swap2\n      swap1\n      tag_60\n      jump\t// in\n    tag_59:\n      mload(0x40)\n      dup1\n      swap2\n      sub\n      swap1\n      return\n        /* \"Appetito.sol\":1447:1936  function claim(string memory dreamJob, string memory purpose, string memory description, uint value, address recipient) public {... */\n    tag_12:\n      callvalue\n      dup1\n      iszero\n      tag_61\n      jumpi\n      0x00\n      dup1\n      revert\n    tag_61:\n      pop\n      tag_62\n      0x04\n      dup1\n      calldatasize\n      sub\n      dup2\n      add\n      swap1\n      tag_63\n      swap2\n      swap1\n      tag_64\n      jump\t// in\n    tag_63:\n      tag_65\n      jump\t// in\n    tag_62:\n      stop\n        /* \"Appetito.sol\":421:446  ClaimType public claiming */\n    tag_16:\n      0x00\n      dup1\n      0x00\n      add\n      dup1\n      sload\n      tag_66\n      swap1\n      tag_67\n      jump\t// in\n    tag_66:\n      dup1\n      0x1f\n      add\n      0x20\n      dup1\n      swap2\n      div\n      mul\n      0x20\n      add\n      mload(0x40)\n      swap1\n      dup2\n      add\n      0x40\n      mstore\n      dup1\n      swap3\n      swap2\n      swap1\n      dup2\n      dup2\n      mstore\n      0x20\n      add\n      dup3\n      dup1\n      sload\n      tag_68\n      swap1\n      tag_67\n      jump\t// in\n    tag_68:\n      dup1\n      iszero\n      tag_69\n      jumpi\n      dup1\n      0x1f\n      lt\n      tag_70\n      jumpi\n      0x0100\n      dup1\n      dup4\n      sload\n      div\n      mul\n      dup4\n      mstore\n      swap2\n      0x20\n      add\n      swap2\n      jump(tag_69)\n    tag_70:\n      dup3\n      add\n      swap2\n      swap1\n      0x00\n      mstore\n      keccak256(0x00, 0x20)\n      swap1\n    tag_71:\n      dup2\n      sload\n      dup2\n      mstore\n      swap1\n      0x01\n      add\n      swap1\n      0x20\n      add\n      dup1\n      dup4\n      gt\n      tag_71\n      jumpi\n      dup3\n      swap1\n      sub\n      0x1f\n      and\n      dup3\n      add\n      swap2\n    tag_69:\n      pop\n      pop\n      pop\n      pop\n      pop\n      swap1\n      dup1\n      0x01\n      add\n      dup1\n      sload\n      tag_72\n      swap1\n      tag_67\n      jump\t// in\n    tag_72:\n      dup1\n      0x1f\n      add\n      0x20\n      dup1\n      swap2\n      div\n      mul\n      0x20\n      add\n      mload(0x40)\n      swap1\n      dup2\n      add\n      0x40\n      mstore\n      dup1\n      swap3\n      swap2\n      swap1\n      dup2\n      dup2\n      mstore\n      0x20\n      add\n      dup3\n      dup1\n      sload\n      tag_73\n      swap1\n      tag_67\n      jump\t// in\n    tag_73:\n      dup1\n      iszero\n      tag_74\n      jumpi\n      dup1\n      0x1f\n      lt\n      tag_75\n      jumpi\n      0x0100\n      dup1\n      dup4\n      sload\n      div\n      mul\n      dup4\n      mstore\n      swap2\n      0x20\n      add\n      swap2\n      jump(tag_74)\n    tag_75:\n      dup3\n      add\n      swap2\n      swap1\n      0x00\n      mstore\n      keccak256(0x00, 0x20)\n      swap1\n    tag_76:\n      dup2\n      sload\n      dup2\n      mstore\n      swap1\n      0x01\n      add\n      swap1\n      0x20\n      add\n      dup1\n      dup4\n      gt\n      tag_76\n      jumpi\n      dup3\n      swap1\n      sub\n      0x1f\n      and\n      dup3\n      add\n      swap2\n    tag_74:\n      pop\n      pop\n      pop\n      pop\n      pop\n      swap1\n      dup1\n      0x02\n      add\n      dup1\n      sload\n      tag_77\n      swap1\n      tag_67\n      jump\t// in\n    tag_77:\n      dup1\n      0x1f\n      add\n      0x20\n      dup1\n      swap2\n      div\n      mul\n      0x20\n      add\n      mload(0x40)\n      swap1\n      dup2\n      add\n      0x40\n      mstore\n      dup1\n      swap3\n      swap2\n      swap1\n      dup2\n      dup2\n      mstore\n      0x20\n      add\n      dup3\n      dup1\n      sload\n      tag_78\n      swap1\n      tag_67\n      jump\t// in\n    tag_78:\n      dup1\n      iszero\n      tag_79\n      jumpi\n      dup1\n      0x1f\n      lt\n      tag_80\n      jumpi\n      0x0100\n      dup1\n      dup4\n      sload\n      div\n      mul\n      dup4\n      mstore\n      swap2\n      0x20\n      add\n      swap2\n      jump(tag_79)\n    tag_80:\n      dup3\n      add\n      swap2\n      swap1\n      0x00\n      mstore\n      keccak256(0x00, 0x20)\n      swap1\n    tag_81:\n      dup2\n      sload\n      dup2\n      mstore\n      swap1\n      0x01\n      add\n      swap1\n      0x20\n      add\n      dup1\n      dup4\n      gt\n      tag_81\n      jumpi\n      dup3\n      swap1\n      sub\n      0x1f\n      and\n      dup3\n      add\n      swap2\n    tag_79:\n      pop\n      pop\n      pop\n      pop\n      pop\n      swap1\n      dup1\n      0x03\n      add\n      sload\n      swap1\n      dup1\n      0x04\n      add\n      0x00\n      swap1\n      sload\n      swap1\n      0x0100\n      exp\n      swap1\n      div\n      0xffffffffffffffffffffffffffffffffffffffff\n      and\n      swap1\n      dup1\n      0x05\n      add\n      0x00\n      swap1\n      sload\n      swap1\n      0x0100\n      exp\n      swap1\n      div\n      0xffffffffffffffffffffffffffffffffffffffff\n      and\n      swap1\n      dup1\n      0x05\n      add\n      0x14\n      swap1\n      sload\n      swap1\n      0x0100\n      exp\n      swap1\n      div\n      0xff\n      and\n      swap1\n      dup1\n      0x07\n      add\n      sload\n      swap1\n      pop\n      dup9\n      jump\t// out\n        /* \"Appetito.sol\":1183:1275  function getContributorsNum() public view returns(uint){... */\n    tag_21:\n        /* \"Appetito.sol\":1233:1237  uint */\n      0x00\n        /* \"Appetito.sol\":1251:1263  contributors */\n      0x09\n        /* \"Appetito.sol\":1251:1270  contributors.length */\n      dup1\n      sload\n      swap1\n      pop\n        /* \"Appetito.sol\":1244:1270  return contributors.length */\n      swap1\n      pop\n        /* \"Appetito.sol\":1183:1275  function getContributorsNum() public view returns(uint){... */\n      swap1\n      jump\t// out\n        /* \"Appetito.sol\":526:562  ContibutorType[] public contributors */\n    tag_28:\n      0x09\n      dup2\n      dup2\n      sload\n      dup2\n      lt\n      tag_83\n      jumpi\n      0x00\n      dup1\n      revert\n    tag_83:\n      swap1\n      0x00\n      mstore\n      keccak256(0x00, 0x20)\n      swap1\n      0x04\n      mul\n      add\n      0x00\n      swap2\n      pop\n      swap1\n      pop\n      dup1\n      0x00\n      add\n      dup1\n      sload\n      tag_85\n      swap1\n      tag_67\n      jump\t// in\n    tag_85:\n      dup1\n      0x1f\n      add\n      0x20\n      dup1\n      swap2\n      div\n      mul\n      0x20\n      add\n      mload(0x40)\n      swap1\n      dup2\n      add\n      0x40\n      mstore\n      dup1\n      swap3\n      swap2\n      swap1\n      dup2\n      dup2\n      mstore\n      0x20\n      add\n      dup3\n      dup1\n      sload\n      tag_86\n      swap1\n      tag_67\n      jump\t// in\n    tag_86:\n      dup1\n      iszero\n      tag_87\n      jumpi\n      dup1\n      0x1f\n      lt\n      tag_88\n      jumpi\n      0x0100\n      dup1\n      dup4\n      sload\n      div\n      mul\n      dup4\n      mstore\n      swap2\n      0x20\n      add\n      swap2\n      jump(tag_87)\n    tag_88:\n      dup3\n      add\n      swap2\n      swap1\n      0x00\n      mstore\n      keccak256(0x00, 0x20)\n      swap1\n    tag_89:\n      dup2\n      sload\n      dup2\n      mstore\n      swap1\n      0x01\n      add\n      swap1\n      0x20\n      add\n      dup1\n      dup4\n      gt\n      tag_89\n      jumpi\n      dup3\n      swap1\n      sub\n      0x1f\n      and\n      dup3\n      add\n      swap2\n    tag_87:\n      pop\n      pop\n      pop\n      pop\n      pop\n      swap1\n      dup1\n      0x01\n      add\n      0x00\n      swap1\n      sload\n      swap1\n      0x0100\n      exp\n      swap1\n      div\n      0xffffffffffffffffffffffffffffffffffffffff\n      and\n      swap1\n      dup1\n      0x02\n      add\n      sload\n      swap1\n      dup1\n      0x03\n      add\n      sload\n      swap1\n      pop\n      dup5\n      jump\t// out\n        /* \"Appetito.sol\":1940:2121  function approveClaim(uint index) public {... */\n    tag_34:\n        /* \"Appetito.sol\":1996:2002  claims */\n      0x0b\n        /* \"Appetito.sol\":2003:2008  index */\n      dup2\n        /* \"Appetito.sol\":1996:2009  claims[index] */\n      dup2\n      sload\n      dup2\n      lt\n      tag_91\n      jumpi\n      tag_92\n      tag_93\n      jump\t// in\n    tag_92:\n    tag_91:\n      swap1\n      0x00\n      mstore\n      keccak256(0x00, 0x20)\n      swap1\n      0x08\n      mul\n      add\n        /* \"Appetito.sol\":1996:2019  claims[index].approvers */\n      0x06\n      add\n        /* \"Appetito.sol\":1996:2031  claims[index].approvers[msg.sender] */\n      0x00\n        /* \"Appetito.sol\":2020:2030  msg.sender */\n      caller\n        /* \"Appetito.sol\":1996:2031  claims[index].approvers[msg.sender] */\n      0xffffffffffffffffffffffffffffffffffffffff\n      and\n      0xffffffffffffffffffffffffffffffffffffffff\n      and\n      dup2\n      mstore\n      0x20\n      add\n      swap1\n      dup2\n      mstore\n      0x20\n      add\n      0x00\n      keccak256\n      0x00\n      swap1\n      sload\n      swap1\n      0x0100\n      exp\n      swap1\n      div\n      0xff\n      and\n        /* \"Appetito.sol\":1995:2031  !claims[index].approvers[msg.sender] */\n      iszero\n        /* \"Appetito.sol\":1987:2032  require(!claims[index].approvers[msg.sender]) */\n      tag_95\n      jumpi\n      0x00\n      dup1\n      revert\n    tag_95:\n        /* \"Appetito.sol\":2076:2080  true */\n      0x01\n        /* \"Appetito.sol\":2038:2044  claims */\n      0x0b\n        /* \"Appetito.sol\":2045:2050  index */\n      dup3\n        /* \"Appetito.sol\":2038:2051  claims[index] */\n      dup2\n      sload\n      dup2\n      lt\n      tag_96\n      jumpi\n      tag_97\n      tag_93\n      jump\t// in\n    tag_97:\n    tag_96:\n      swap1\n      0x00\n      mstore\n      keccak256(0x00, 0x20)\n      swap1\n      0x08\n      mul\n      add\n        /* \"Appetito.sol\":2038:2061  claims[index].approvers */\n      0x06\n      add\n        /* \"Appetito.sol\":2038:2073  claims[index].approvers[msg.sender] */\n      0x00\n        /* \"Appetito.sol\":2062:2072  msg.sender */\n      caller\n        /* \"Appetito.sol\":2038:2073  claims[index].approvers[msg.sender] */\n      0xffffffffffffffffffffffffffffffffffffffff\n      and\n      0xffffffffffffffffffffffffffffffffffffffff\n      and\n      dup2\n      mstore\n      0x20\n      add\n      swap1\n      dup2\n      mstore\n      0x20\n      add\n      0x00\n      keccak256\n      0x00\n        /* \"Appetito.sol\":2038:2080  claims[index].approvers[msg.sender] = true */\n      0x0100\n      exp\n      dup2\n      sload\n      dup2\n      0xff\n      mul\n      not\n      and\n      swap1\n      dup4\n      iszero\n      iszero\n      mul\n      or\n      swap1\n      sstore\n      pop\n        /* \"Appetito.sol\":2086:2092  claims */\n      0x0b\n        /* \"Appetito.sol\":2093:2098  index */\n      dup2\n        /* \"Appetito.sol\":2086:2099  claims[index] */\n      dup2\n      sload\n      dup2\n      lt\n      tag_99\n      jumpi\n      tag_100\n      tag_93\n      jump\t// in\n    tag_100:\n    tag_99:\n      swap1\n      0x00\n      mstore\n      keccak256(0x00, 0x20)\n      swap1\n      0x08\n      mul\n      add\n        /* \"Appetito.sol\":2086:2114  claims[index].approvedCounts */\n      0x07\n      add\n      0x00\n        /* \"Appetito.sol\":2086:2116  claims[index].approvedCounts++ */\n      dup2\n      sload\n      dup1\n      swap3\n      swap2\n      swap1\n      tag_102\n      swap1\n      tag_103\n      jump\t// in\n    tag_102:\n      swap2\n      swap1\n      pop\n      sstore\n      pop\n        /* \"Appetito.sol\":1940:2121  function approveClaim(uint index) public {... */\n      pop\n      jump\t// out\n        /* \"Appetito.sol\":686:1074  function contribute(string memory nickName, uint latitude, uint longitude) public payable {... */\n    tag_38:\n        /* \"Appetito.sol\":803:804  1 */\n      0x01\n        /* \"Appetito.sol\":790:799  msg.value */\n      callvalue\n        /* \"Appetito.sol\":790:804  msg.value >= 1 */\n      lt\n      iszero\n        /* \"Appetito.sol\":782:805  require(msg.value >= 1) */\n      tag_105\n      jumpi\n      0x00\n      dup1\n      revert\n    tag_105:\n        /* \"Appetito.sol\":851:884  ContibutorType memory contributor */\n      0x00\n        /* \"Appetito.sol\":887:1014  ContibutorType({... */\n      mload(0x40)\n      dup1\n      0x80\n      add\n      0x40\n      mstore\n      dup1\n        /* \"Appetito.sol\":920:928  nickName */\n      dup6\n        /* \"Appetito.sol\":887:1014  ContibutorType({... */\n      dup2\n      mstore\n      0x20\n      add\n        /* \"Appetito.sol\":943:953  msg.sender */\n      caller\n        /* \"Appetito.sol\":887:1014  ContibutorType({... */\n      0xffffffffffffffffffffffffffffffffffffffff\n      and\n      dup2\n      mstore\n      0x20\n      add\n        /* \"Appetito.sol\":971:979  latitude */\n      dup5\n        /* \"Appetito.sol\":887:1014  ContibutorType({... */\n      dup2\n      mstore\n      0x20\n      add\n        /* \"Appetito.sol\":998:1007  longitude */\n      dup4\n        /* \"Appetito.sol\":887:1014  ContibutorType({... */\n      dup2\n      mstore\n      pop\n        /* \"Appetito.sol\":851:1014  ContibutorType memory contributor = ContibutorType({... */\n      swap1\n      pop\n        /* \"Appetito.sol\":1021:1033  contributors */\n      0x09\n        /* \"Appetito.sol\":1039:1050  contributor */\n      dup2\n        /* \"Appetito.sol\":1021:1051  contributors.push(contributor) */\n      swap1\n      dup1\n      0x01\n      dup2\n      sload\n      add\n      dup1\n      dup3\n      sstore\n      dup1\n      swap2\n      pop\n      pop\n      0x01\n      swap1\n      sub\n      swap1\n      0x00\n      mstore\n      keccak256(0x00, 0x20)\n      swap1\n      0x04\n      mul\n      add\n      0x00\n      swap1\n      swap2\n      swap1\n      swap2\n      swap1\n      swap2\n      pop\n      0x00\n      dup3\n      add\n      mload\n      dup2\n      0x00\n      add\n      swap1\n      dup1\n      mload\n      swap1\n      0x20\n      add\n      swap1\n      tag_107\n      swap3\n      swap2\n      swap1\n      tag_108\n      jump\t// in\n    tag_107:\n      pop\n      0x20\n      dup3\n      add\n      mload\n      dup2\n      0x01\n      add\n      exp(0x0100, 0x00)\n      dup2\n      sload\n      dup2\n      0xffffffffffffffffffffffffffffffffffffffff\n      mul\n      not\n      and\n      swap1\n      dup4\n      0xffffffffffffffffffffffffffffffffffffffff\n      and\n      mul\n      or\n      swap1\n      sstore\n      pop\n      0x40\n      dup3\n      add\n      mload\n      dup2\n      0x02\n      add\n      sstore\n      0x60\n      dup3\n      add\n      mload\n      dup2\n      0x03\n      add\n      sstore\n      pop\n      pop\n        /* \"Appetito.sol\":1057:1067  population */\n      0x0a\n      0x00\n        /* \"Appetito.sol\":1057:1069  population++ */\n      dup2\n      sload\n      dup1\n      swap3\n      swap2\n      swap1\n      tag_109\n      swap1\n      tag_103\n      jump\t// in\n    tag_109:\n      swap2\n      swap1\n      pop\n      sstore\n      pop\n        /* \"Appetito.sol\":776:1074  {... */\n      pop\n        /* \"Appetito.sol\":686:1074  function contribute(string memory nickName, uint latitude, uint longitude) public payable {... */\n      pop\n      pop\n      pop\n      jump\t// out\n        /* \"Appetito.sol\":566:588  uint public population */\n    tag_41:\n      sload(0x0a)\n      dup2\n      jump\t// out\n        /* \"Appetito.sol\":451:471  address public owner */\n    tag_45:\n      0x08\n      0x00\n      swap1\n      sload\n      swap1\n      0x0100\n      exp\n      swap1\n      div\n      0xffffffffffffffffffffffffffffffffffffffff\n      and\n      dup2\n      jump\t// out\n        /* \"Appetito.sol\":2125:2393  function startStudy(uint index) public payable {... */\n    tag_50:\n        /* \"Appetito.sol\":2200:2206  claims */\n      0x0b\n        /* \"Appetito.sol\":2207:2212  index */\n      dup2\n        /* \"Appetito.sol\":2200:2213  claims[index] */\n      dup2\n      sload\n      dup2\n      lt\n      tag_111\n      jumpi\n      tag_112\n      tag_93\n      jump\t// in\n    tag_112:\n    tag_111:\n      swap1\n      0x00\n      mstore\n      keccak256(0x00, 0x20)\n      swap1\n      0x08\n      mul\n      add\n        /* \"Appetito.sol\":2200:2221  claims[index].claimer */\n      0x04\n      add\n      0x00\n      swap1\n      sload\n      swap1\n      0x0100\n      exp\n      swap1\n      div\n      0xffffffffffffffffffffffffffffffffffffffff\n      and\n        /* \"Appetito.sol\":2186:2221  msg.sender == claims[index].claimer */\n      0xffffffffffffffffffffffffffffffffffffffff\n      and\n        /* \"Appetito.sol\":2186:2196  msg.sender */\n      caller\n        /* \"Appetito.sol\":2186:2221  msg.sender == claims[index].claimer */\n      0xffffffffffffffffffffffffffffffffffffffff\n      and\n      eq\n        /* \"Appetito.sol\":2178:2222  require(msg.sender == claims[index].claimer) */\n      tag_114\n      jumpi\n      0x00\n      dup1\n      revert\n    tag_114:\n        /* \"Appetito.sol\":2281:2282  2 */\n      0x02\n        /* \"Appetito.sol\":2268:2278  population */\n      sload(0x0a)\n        /* \"Appetito.sol\":2268:2282  population / 2 */\n      tag_115\n      swap2\n      swap1\n      tag_116\n      jump\t// in\n    tag_115:\n        /* \"Appetito.sol\":2236:2242  claims */\n      0x0b\n        /* \"Appetito.sol\":2243:2248  index */\n      dup3\n        /* \"Appetito.sol\":2236:2249  claims[index] */\n      dup2\n      sload\n      dup2\n      lt\n      tag_117\n      jumpi\n      tag_118\n      tag_93\n      jump\t// in\n    tag_118:\n    tag_117:\n      swap1\n      0x00\n      mstore\n      keccak256(0x00, 0x20)\n      swap1\n      0x08\n      mul\n      add\n        /* \"Appetito.sol\":2236:2264  claims[index].approvedCounts */\n      0x07\n      add\n      sload\n        /* \"Appetito.sol\":2236:2283  claims[index].approvedCounts > (population / 2) */\n      gt\n        /* \"Appetito.sol\":2228:2284  require(claims[index].approvedCounts > (population / 2)) */\n      tag_120\n      jumpi\n      0x00\n      dup1\n      revert\n    tag_120:\n        /* \"Appetito.sol\":2299:2305  claims */\n      0x0b\n        /* \"Appetito.sol\":2306:2311  index */\n      dup2\n        /* \"Appetito.sol\":2299:2312  claims[index] */\n      dup2\n      sload\n      dup2\n      lt\n      tag_121\n      jumpi\n      tag_122\n      tag_93\n      jump\t// in\n    tag_122:\n    tag_121:\n      swap1\n      0x00\n      mstore\n      keccak256(0x00, 0x20)\n      swap1\n      0x08\n      mul\n      add\n        /* \"Appetito.sol\":2299:2317  claims[index].done */\n      0x05\n      add\n      0x14\n      swap1\n      sload\n      swap1\n      0x0100\n      exp\n      swap1\n      div\n      0xff\n      and\n        /* \"Appetito.sol\":2298:2317  !claims[index].done */\n      iszero\n        /* \"Appetito.sol\":2290:2318  require(!claims[index].done) */\n      tag_124\n      jumpi\n      0x00\n      dup1\n      revert\n    tag_124:\n        /* \"Appetito.sol\":2334:2340  claims */\n      0x0b\n        /* \"Appetito.sol\":2341:2346  index */\n      dup2\n        /* \"Appetito.sol\":2334:2347  claims[index] */\n      dup2\n      sload\n      dup2\n      lt\n      tag_125\n      jumpi\n      tag_126\n      tag_93\n      jump\t// in\n    tag_126:\n    tag_125:\n      swap1\n      0x00\n      mstore\n      keccak256(0x00, 0x20)\n      swap1\n      0x08\n      mul\n      add\n        /* \"Appetito.sol\":2334:2357  claims[index].recipient */\n      0x05\n      add\n      0x00\n      swap1\n      sload\n      swap1\n      0x0100\n      exp\n      swap1\n      div\n      0xffffffffffffffffffffffffffffffffffffffff\n      and\n        /* \"Appetito.sol\":2325:2367  payable (claims[index].recipient).transfer */\n      0xffffffffffffffffffffffffffffffffffffffff\n      and\n        /* \"Appetito.sol\":2325:2388  payable (claims[index].recipient).transfer(claims[index].value) */\n      0x08fc\n        /* \"Appetito.sol\":2368:2374  claims */\n      0x0b\n        /* \"Appetito.sol\":2375:2380  index */\n      dup4\n        /* \"Appetito.sol\":2368:2381  claims[index] */\n      dup2\n      sload\n      dup2\n      lt\n      tag_128\n      jumpi\n      tag_129\n      tag_93\n      jump\t// in\n    tag_129:\n    tag_128:\n      swap1\n      0x00\n      mstore\n      keccak256(0x00, 0x20)\n      swap1\n      0x08\n      mul\n      add\n        /* \"Appetito.sol\":2368:2387  claims[index].value */\n      0x03\n      add\n      sload\n        /* \"Appetito.sol\":2325:2388  payable (claims[index].recipient).transfer(claims[index].value) */\n      swap1\n      dup2\n      iszero\n      mul\n      swap1\n      mload(0x40)\n      0x00\n      mload(0x40)\n      dup1\n      dup4\n      sub\n      dup2\n      dup6\n      dup9\n      dup9\n      call\n      swap4\n      pop\n      pop\n      pop\n      pop\n      iszero\n      dup1\n      iszero\n      tag_132\n      jumpi\n      returndatasize\n      0x00\n      dup1\n      returndatacopy\n      revert(0x00, returndatasize)\n    tag_132:\n      pop\n        /* \"Appetito.sol\":2125:2393  function startStudy(uint index) public payable {... */\n      pop\n      jump\t// out\n        /* \"Appetito.sol\":592:617  ClaimType[] public claims */\n    tag_54:\n      0x0b\n      dup2\n      dup2\n      sload\n      dup2\n      lt\n      tag_133\n      jumpi\n      0x00\n      dup1\n      revert\n    tag_133:\n      swap1\n      0x00\n      mstore\n      keccak256(0x00, 0x20)\n      swap1\n      0x08\n      mul\n      add\n      0x00\n      swap2\n      pop\n      swap1\n      pop\n      dup1\n      0x00\n      add\n      dup1\n      sload\n      tag_135\n      swap1\n      tag_67\n      jump\t// in\n    tag_135:\n      dup1\n      0x1f\n      add\n      0x20\n      dup1\n      swap2\n      div\n      mul\n      0x20\n      add\n      mload(0x40)\n      swap1\n      dup2\n      add\n      0x40\n      mstore\n      dup1\n      swap3\n      swap2\n      swap1\n      dup2\n      dup2\n      mstore\n      0x20\n      add\n      dup3\n      dup1\n      sload\n      tag_136\n      swap1\n      tag_67\n      jump\t// in\n    tag_136:\n      dup1\n      iszero\n      tag_137\n      jumpi\n      dup1\n      0x1f\n      lt\n      tag_138\n      jumpi\n      0x0100\n      dup1\n      dup4\n      sload\n      div\n      mul\n      dup4\n      mstore\n      swap2\n      0x20\n      add\n      swap2\n      jump(tag_137)\n    tag_138:\n      dup3\n      add\n      swap2\n      swap1\n      0x00\n      mstore\n      keccak256(0x00, 0x20)\n      swap1\n    tag_139:\n      dup2\n      sload\n      dup2\n      mstore\n      swap1\n      0x01\n      add\n      swap1\n      0x20\n      add\n      dup1\n      dup4\n      gt\n      tag_139\n      jumpi\n      dup3\n      swap1\n      sub\n      0x1f\n      and\n      dup3\n      add\n      swap2\n    tag_137:\n      pop\n      pop\n      pop\n      pop\n      pop\n      swap1\n      dup1\n      0x01\n      add\n      dup1\n      sload\n      tag_140\n      swap1\n      tag_67\n      jump\t// in\n    tag_140:\n      dup1\n      0x1f\n      add\n      0x20\n      dup1\n      swap2\n      div\n      mul\n      0x20\n      add\n      mload(0x40)\n      swap1\n      dup2\n      add\n      0x40\n      mstore\n      dup1\n      swap3\n      swap2\n      swap1\n      dup2\n      dup2\n      mstore\n      0x20\n      add\n      dup3\n      dup1\n      sload\n      tag_141\n      swap1\n      tag_67\n      jump\t// in\n    tag_141:\n      dup1\n      iszero\n      tag_142\n      jumpi\n      dup1\n      0x1f\n      lt\n      tag_143\n      jumpi\n      0x0100\n      dup1\n      dup4\n      sload\n      div\n      mul\n      dup4\n      mstore\n      swap2\n      0x20\n      add\n      swap2\n      jump(tag_142)\n    tag_143:\n      dup3\n      add\n      swap2\n      swap1\n      0x00\n      mstore\n      keccak256(0x00, 0x20)\n      swap1\n    tag_144:\n      dup2\n      sload\n      dup2\n      mstore\n      swap1\n      0x01\n      add\n      swap1\n      0x20\n      add\n      dup1\n      dup4\n      gt\n      tag_144\n      jumpi\n      dup3\n      swap1\n      sub\n      0x1f\n      and\n      dup3\n      add\n      swap2\n    tag_142:\n      pop\n      pop\n      pop\n      pop\n      pop\n      swap1\n      dup1\n      0x02\n      add\n      dup1\n      sload\n      tag_145\n      swap1\n      tag_67\n      jump\t// in\n    tag_145:\n      dup1\n      0x1f\n      add\n      0x20\n      dup1\n      swap2\n      div\n      mul\n      0x20\n      add\n      mload(0x40)\n      swap1\n      dup2\n      add\n      0x40\n      mstore\n      dup1\n      swap3\n      swap2\n      swap1\n      dup2\n      dup2\n      mstore\n      0x20\n      add\n      dup3\n      dup1\n      sload\n      tag_146\n      swap1\n      tag_67\n      jump\t// in\n    tag_146:\n      dup1\n      iszero\n      tag_147\n      jumpi\n      dup1\n      0x1f\n      lt\n      tag_148\n      jumpi\n      0x0100\n      dup1\n      dup4\n      sload\n      div\n      mul\n      dup4\n      mstore\n      swap2\n      0x20\n      add\n      swap2\n      jump(tag_147)\n    tag_148:\n      dup3\n      add\n      swap2\n      swap1\n      0x00\n      mstore\n      keccak256(0x00, 0x20)\n      swap1\n    tag_149:\n      dup2\n      sload\n      dup2\n      mstore\n      swap1\n      0x01\n      add\n      swap1\n      0x20\n      add\n      dup1\n      dup4\n      gt\n      tag_149\n      jumpi\n      dup3\n      swap1\n      sub\n      0x1f\n      and\n      dup3\n      add\n      swap2\n    tag_147:\n      pop\n      pop\n      pop\n      pop\n      pop\n      swap1\n      dup1\n      0x03\n      add\n      sload\n      swap1\n      dup1\n      0x04\n      add\n      0x00\n      swap1\n      sload\n      swap1\n      0x0100\n      exp\n      swap1\n      div\n      0xffffffffffffffffffffffffffffffffffffffff\n      and\n      swap1\n      dup1\n      0x05\n      add\n      0x00\n      swap1\n      sload\n      swap1\n      0x0100\n      exp\n      swap1\n      div\n      0xffffffffffffffffffffffffffffffffffffffff\n      and\n      swap1\n      dup1\n      0x05\n      add\n      0x14\n      swap1\n      sload\n      swap1\n      0x0100\n      exp\n      swap1\n      div\n      0xff\n      and\n      swap1\n      dup1\n      0x07\n      add\n      sload\n      swap1\n      pop\n      dup9\n      jump\t// out\n        /* \"Appetito.sol\":1078:1179  function getContributors() public view returns(ContibutorType[] memory){... */\n    tag_58:\n        /* \"Appetito.sol\":1125:1148  ContibutorType[] memory */\n      0x60\n        /* \"Appetito.sol\":1162:1174  contributors */\n      0x09\n        /* \"Appetito.sol\":1155:1174  return contributors */\n      dup1\n      sload\n      dup1\n      0x20\n      mul\n      0x20\n      add\n      mload(0x40)\n      swap1\n      dup2\n      add\n      0x40\n      mstore\n      dup1\n      swap3\n      swap2\n      swap1\n      dup2\n      dup2\n      mstore\n      0x20\n      add\n      0x00\n      swap1\n    tag_151:\n      dup3\n      dup3\n      lt\n      iszero\n      tag_152\n      jumpi\n      dup4\n      dup3\n      swap1\n      0x00\n      mstore\n      keccak256(0x00, 0x20)\n      swap1\n      0x04\n      mul\n      add\n      mload(0x40)\n      dup1\n      0x80\n      add\n      0x40\n      mstore\n      swap1\n      dup2\n      0x00\n      dup3\n      add\n      dup1\n      sload\n      tag_154\n      swap1\n      tag_67\n      jump\t// in\n    tag_154:\n      dup1\n      0x1f\n      add\n      0x20\n      dup1\n      swap2\n      div\n      mul\n      0x20\n      add\n      mload(0x40)\n      swap1\n      dup2\n      add\n      0x40\n      mstore\n      dup1\n      swap3\n      swap2\n      swap1\n      dup2\n      dup2\n      mstore\n      0x20\n      add\n      dup3\n      dup1\n      sload\n      tag_155\n      swap1\n      tag_67\n      jump\t// in\n    tag_155:\n      dup1\n      iszero\n      tag_156\n      jumpi\n      dup1\n      0x1f\n      lt\n      tag_157\n      jumpi\n      0x0100\n      dup1\n      dup4\n      sload\n      div\n      mul\n      dup4\n      mstore\n      swap2\n      0x20\n      add\n      swap2\n      jump(tag_156)\n    tag_157:\n      dup3\n      add\n      swap2\n      swap1\n      0x00\n      mstore\n      keccak256(0x00, 0x20)\n      swap1\n    tag_158:\n      dup2\n      sload\n      dup2\n      mstore\n      swap1\n      0x01\n      add\n      swap1\n      0x20\n      add\n      dup1\n      dup4\n      gt\n      tag_158\n      jumpi\n      dup3\n      swap1\n      sub\n      0x1f\n      and\n      dup3\n      add\n      swap2\n    tag_156:\n      pop\n      pop\n      pop\n      pop\n      pop\n      dup2\n      mstore\n      0x20\n      add\n      0x01\n      dup3\n      add\n      0x00\n      swap1\n      sload\n      swap1\n      0x0100\n      exp\n      swap1\n      div\n      0xffffffffffffffffffffffffffffffffffffffff\n      and\n      0xffffffffffffffffffffffffffffffffffffffff\n      and\n      0xffffffffffffffffffffffffffffffffffffffff\n      and\n      dup2\n      mstore\n      0x20\n      add\n      0x02\n      dup3\n      add\n      sload\n      dup2\n      mstore\n      0x20\n      add\n      0x03\n      dup3\n      add\n      sload\n      dup2\n      mstore\n      pop\n      pop\n      dup2\n      mstore\n      0x20\n      add\n      swap1\n      0x01\n      add\n      swap1\n      jump(tag_151)\n    tag_152:\n      pop\n      pop\n      pop\n      pop\n      swap1\n      pop\n        /* \"Appetito.sol\":1078:1179  function getContributors() public view returns(ContibutorType[] memory){... */\n      swap1\n      jump\t// out\n        /* \"Appetito.sol\":1447:1936  function claim(string memory dreamJob, string memory purpose, string memory description, uint value, address recipient) public {... */\n    tag_65:\n        /* \"Appetito.sol\":1580:1590  uint index */\n      0x00\n        /* \"Appetito.sol\":1593:1599  claims */\n      0x0b\n        /* \"Appetito.sol\":1593:1606  claims.length */\n      dup1\n      sload\n      swap1\n      pop\n        /* \"Appetito.sol\":1580:1606  uint index = claims.length */\n      swap1\n      pop\n        /* \"Appetito.sol\":1612:1618  claims */\n      0x0b\n        /* \"Appetito.sol\":1612:1625  claims.push() */\n      0x01\n      dup2\n      0x01\n      dup2\n      sload\n      add\n      dup1\n      dup3\n      sstore\n      dup1\n      swap2\n      pop\n      pop\n      sub\n      swap1\n      0x00\n      mstore\n      keccak256(0x00, 0x20)\n      swap1\n      pop\n      pop\n        /* \"Appetito.sol\":1632:1655  ClaimType storage claim */\n      0x00\n        /* \"Appetito.sol\":1658:1664  claims */\n      0x0b\n        /* \"Appetito.sol\":1665:1670  index */\n      dup3\n        /* \"Appetito.sol\":1658:1671  claims[index] */\n      dup2\n      sload\n      dup2\n      lt\n      tag_161\n      jumpi\n      tag_162\n      tag_93\n      jump\t// in\n    tag_162:\n    tag_161:\n      swap1\n      0x00\n      mstore\n      keccak256(0x00, 0x20)\n      swap1\n      0x08\n      mul\n      add\n        /* \"Appetito.sol\":1632:1671  ClaimType storage claim = claims[index] */\n      swap1\n      pop\n        /* \"Appetito.sol\":1694:1702  dreamJob */\n      dup7\n        /* \"Appetito.sol\":1677:1682  claim */\n      dup2\n        /* \"Appetito.sol\":1677:1691  claim.dreamJob */\n      0x00\n      add\n        /* \"Appetito.sol\":1677:1702  claim.dreamJob = dreamJob */\n      swap1\n      dup1\n      mload\n      swap1\n      0x20\n      add\n      swap1\n      tag_164\n      swap3\n      swap2\n      swap1\n      tag_108\n      jump\t// in\n    tag_164:\n      pop\n        /* \"Appetito.sol\":1724:1731  purpose */\n      dup6\n        /* \"Appetito.sol\":1708:1713  claim */\n      dup2\n        /* \"Appetito.sol\":1708:1721  claim.purpose */\n      0x01\n      add\n        /* \"Appetito.sol\":1708:1731  claim.purpose = purpose */\n      swap1\n      dup1\n      mload\n      swap1\n      0x20\n      add\n      swap1\n      tag_165\n      swap3\n      swap2\n      swap1\n      tag_108\n      jump\t// in\n    tag_165:\n      pop\n        /* \"Appetito.sol\":1757:1768  description */\n      dup5\n        /* \"Appetito.sol\":1737:1742  claim */\n      dup2\n        /* \"Appetito.sol\":1737:1754  claim.description */\n      0x02\n      add\n        /* \"Appetito.sol\":1737:1768  claim.description = description */\n      swap1\n      dup1\n      mload\n      swap1\n      0x20\n      add\n      swap1\n      tag_166\n      swap3\n      swap2\n      swap1\n      tag_108\n      jump\t// in\n    tag_166:\n      pop\n        /* \"Appetito.sol\":1788:1793  value */\n      dup4\n        /* \"Appetito.sol\":1774:1779  claim */\n      dup2\n        /* \"Appetito.sol\":1774:1785  claim.value */\n      0x03\n      add\n        /* \"Appetito.sol\":1774:1793  claim.value = value */\n      dup2\n      swap1\n      sstore\n      pop\n        /* \"Appetito.sol\":1815:1825  msg.sender */\n      caller\n        /* \"Appetito.sol\":1799:1804  claim */\n      dup2\n        /* \"Appetito.sol\":1799:1812  claim.claimer */\n      0x04\n      add\n      0x00\n        /* \"Appetito.sol\":1799:1825  claim.claimer = msg.sender */\n      0x0100\n      exp\n      dup2\n      sload\n      dup2\n      0xffffffffffffffffffffffffffffffffffffffff\n      mul\n      not\n      and\n      swap1\n      dup4\n      0xffffffffffffffffffffffffffffffffffffffff\n      and\n      mul\n      or\n      swap1\n      sstore\n      pop\n        /* \"Appetito.sol\":1849:1858  recipient */\n      dup3\n        /* \"Appetito.sol\":1831:1836  claim */\n      dup2\n        /* \"Appetito.sol\":1831:1846  claim.recipient */\n      0x05\n      add\n      0x00\n        /* \"Appetito.sol\":1831:1858  claim.recipient = recipient */\n      0x0100\n      exp\n      dup2\n      sload\n      dup2\n      0xffffffffffffffffffffffffffffffffffffffff\n      mul\n      not\n      and\n      swap1\n      dup4\n      0xffffffffffffffffffffffffffffffffffffffff\n      and\n      mul\n      or\n      swap1\n      sstore\n      pop\n        /* \"Appetito.sol\":1877:1882  false */\n      0x00\n        /* \"Appetito.sol\":1864:1869  claim */\n      dup2\n        /* \"Appetito.sol\":1864:1874  claim.done */\n      0x05\n      add\n      0x14\n        /* \"Appetito.sol\":1864:1882  claim.done = false */\n      0x0100\n      exp\n      dup2\n      sload\n      dup2\n      0xff\n      mul\n      not\n      and\n      swap1\n      dup4\n      iszero\n      iszero\n      mul\n      or\n      swap1\n      sstore\n      pop\n        /* \"Appetito.sol\":1911:1912  0 */\n      0x00\n        /* \"Appetito.sol\":1888:1893  claim */\n      dup2\n        /* \"Appetito.sol\":1888:1908  claim.approvedCounts */\n      0x07\n      add\n        /* \"Appetito.sol\":1888:1912  claim.approvedCounts = 0 */\n      dup2\n      swap1\n      sstore\n      pop\n        /* \"Appetito.sol\":1919:1929  population */\n      0x0a\n      0x00\n        /* \"Appetito.sol\":1919:1931  population++ */\n      dup2\n      sload\n      dup1\n      swap3\n      swap2\n      swap1\n      tag_167\n      swap1\n      tag_103\n      jump\t// in\n    tag_167:\n      swap2\n      swap1\n      pop\n      sstore\n      pop\n        /* \"Appetito.sol\":1574:1936  {... */\n      pop\n      pop\n        /* \"Appetito.sol\":1447:1936  function claim(string memory dreamJob, string memory purpose, string memory description, uint value, address recipient) public {... */\n      pop\n      pop\n      pop\n      pop\n      pop\n      jump\t// out\n    tag_108:\n      dup3\n      dup1\n      sload\n      tag_168\n      swap1\n      tag_67\n      jump\t// in\n    tag_168:\n      swap1\n      0x00\n      mstore\n      keccak256(0x00, 0x20)\n      swap1\n      0x1f\n      add\n      0x20\n      swap1\n      div\n      dup2\n      add\n      swap3\n      dup3\n      tag_170\n      jumpi\n      0x00\n      dup6\n      sstore\n      jump(tag_169)\n    tag_170:\n      dup3\n      0x1f\n      lt\n      tag_171\n      jumpi\n      dup1\n      mload\n      not(0xff)\n      and\n      dup4\n      dup1\n      add\n      or\n      dup6\n      sstore\n      jump(tag_169)\n    tag_171:\n      dup3\n      dup1\n      add\n      0x01\n      add\n      dup6\n      sstore\n      dup3\n      iszero\n      tag_169\n      jumpi\n      swap2\n      dup3\n      add\n    tag_172:\n      dup3\n      dup2\n      gt\n      iszero\n      tag_173\n      jumpi\n      dup3\n      mload\n      dup3\n      sstore\n      swap2\n      0x20\n      add\n      swap2\n      swap1\n      0x01\n      add\n      swap1\n      jump(tag_172)\n    tag_173:\n    tag_169:\n      pop\n      swap1\n      pop\n      tag_174\n      swap2\n      swap1\n      tag_175\n      jump\t// in\n    tag_174:\n      pop\n      swap1\n      jump\t// out\n    tag_175:\n    tag_176:\n      dup1\n      dup3\n      gt\n      iszero\n      tag_177\n      jumpi\n      0x00\n      dup2\n      0x00\n      swap1\n      sstore\n      pop\n      0x01\n      add\n      jump(tag_176)\n    tag_177:\n      pop\n      swap1\n      jump\t// out\n        /* \"#utility.yul\":7:106   */\n    tag_178:\n        /* \"#utility.yul\":59:65   */\n      0x00\n        /* \"#utility.yul\":93:98   */\n      dup2\n        /* \"#utility.yul\":87:99   */\n      mload\n        /* \"#utility.yul\":77:99   */\n      swap1\n      pop\n        /* \"#utility.yul\":7:106   */\n      swap2\n      swap1\n      pop\n      jump\t// out\n        /* \"#utility.yul\":112:281   */\n    tag_179:\n        /* \"#utility.yul\":196:207   */\n      0x00\n        /* \"#utility.yul\":230:236   */\n      dup3\n        /* \"#utility.yul\":225:228   */\n      dup3\n        /* \"#utility.yul\":218:237   */\n      mstore\n        /* \"#utility.yul\":270:274   */\n      0x20\n        /* \"#utility.yul\":265:268   */\n      dup3\n        /* \"#utility.yul\":261:275   */\n      add\n        /* \"#utility.yul\":246:275   */\n      swap1\n      pop\n        /* \"#utility.yul\":112:281   */\n      swap3\n      swap2\n      pop\n      pop\n      jump\t// out\n        /* \"#utility.yul\":287:594   */\n    tag_180:\n        /* \"#utility.yul\":355:356   */\n      0x00\n        /* \"#utility.yul\":365:478   */\n    tag_224:\n        /* \"#utility.yul\":379:385   */\n      dup4\n        /* \"#utility.yul\":376:377   */\n      dup2\n        /* \"#utility.yul\":373:386   */\n      lt\n        /* \"#utility.yul\":365:478   */\n      iszero\n      tag_226\n      jumpi\n        /* \"#utility.yul\":464:465   */\n      dup1\n        /* \"#utility.yul\":459:462   */\n      dup3\n        /* \"#utility.yul\":455:466   */\n      add\n        /* \"#utility.yul\":449:467   */\n      mload\n        /* \"#utility.yul\":445:446   */\n      dup2\n        /* \"#utility.yul\":440:443   */\n      dup5\n        /* \"#utility.yul\":436:447   */\n      add\n        /* \"#utility.yul\":429:468   */\n      mstore\n        /* \"#utility.yul\":401:403   */\n      0x20\n        /* \"#utility.yul\":398:399   */\n      dup2\n        /* \"#utility.yul\":394:404   */\n      add\n        /* \"#utility.yul\":389:404   */\n      swap1\n      pop\n        /* \"#utility.yul\":365:478   */\n      jump(tag_224)\n    tag_226:\n        /* \"#utility.yul\":496:502   */\n      dup4\n        /* \"#utility.yul\":493:494   */\n      dup2\n        /* \"#utility.yul\":490:503   */\n      gt\n        /* \"#utility.yul\":487:588   */\n      iszero\n      tag_227\n      jumpi\n        /* \"#utility.yul\":576:577   */\n      0x00\n        /* \"#utility.yul\":567:573   */\n      dup5\n        /* \"#utility.yul\":562:565   */\n      dup5\n        /* \"#utility.yul\":558:574   */\n      add\n        /* \"#utility.yul\":551:578   */\n      mstore\n        /* \"#utility.yul\":487:588   */\n    tag_227:\n        /* \"#utility.yul\":336:594   */\n      pop\n        /* \"#utility.yul\":287:594   */\n      pop\n      pop\n      pop\n      jump\t// out\n        /* \"#utility.yul\":600:702   */\n    tag_181:\n        /* \"#utility.yul\":641:647   */\n      0x00\n        /* \"#utility.yul\":692:694   */\n      0x1f\n        /* \"#utility.yul\":688:695   */\n      not\n        /* \"#utility.yul\":683:685   */\n      0x1f\n        /* \"#utility.yul\":676:681   */\n      dup4\n        /* \"#utility.yul\":672:686   */\n      add\n        /* \"#utility.yul\":668:696   */\n      and\n        /* \"#utility.yul\":658:696   */\n      swap1\n      pop\n        /* \"#utility.yul\":600:702   */\n      swap2\n      swap1\n      pop\n      jump\t// out\n        /* \"#utility.yul\":708:1072   */\n    tag_182:\n        /* \"#utility.yul\":796:799   */\n      0x00\n        /* \"#utility.yul\":824:863   */\n      tag_230\n        /* \"#utility.yul\":857:862   */\n      dup3\n        /* \"#utility.yul\":824:863   */\n      tag_178\n      jump\t// in\n    tag_230:\n        /* \"#utility.yul\":879:950   */\n      tag_231\n        /* \"#utility.yul\":943:949   */\n      dup2\n        /* \"#utility.yul\":938:941   */\n      dup6\n        /* \"#utility.yul\":879:950   */\n      tag_179\n      jump\t// in\n    tag_231:\n        /* \"#utility.yul\":872:950   */\n      swap4\n      pop\n        /* \"#utility.yul\":959:1011   */\n      tag_232\n        /* \"#utility.yul\":1004:1010   */\n      dup2\n        /* \"#utility.yul\":999:1002   */\n      dup6\n        /* \"#utility.yul\":992:996   */\n      0x20\n        /* \"#utility.yul\":985:990   */\n      dup7\n        /* \"#utility.yul\":981:997   */\n      add\n        /* \"#utility.yul\":959:1011   */\n      tag_180\n      jump\t// in\n    tag_232:\n        /* \"#utility.yul\":1036:1065   */\n      tag_233\n        /* \"#utility.yul\":1058:1064   */\n      dup2\n        /* \"#utility.yul\":1036:1065   */\n      tag_181\n      jump\t// in\n    tag_233:\n        /* \"#utility.yul\":1031:1034   */\n      dup5\n        /* \"#utility.yul\":1027:1066   */\n      add\n        /* \"#utility.yul\":1020:1066   */\n      swap2\n      pop\n        /* \"#utility.yul\":800:1072   */\n      pop\n        /* \"#utility.yul\":708:1072   */\n      swap3\n      swap2\n      pop\n      pop\n      jump\t// out\n        /* \"#utility.yul\":1078:1155   */\n    tag_183:\n        /* \"#utility.yul\":1115:1122   */\n      0x00\n        /* \"#utility.yul\":1144:1149   */\n      dup2\n        /* \"#utility.yul\":1133:1149   */\n      swap1\n      pop\n        /* \"#utility.yul\":1078:1155   */\n      swap2\n      swap1\n      pop\n      jump\t// out\n        /* \"#utility.yul\":1161:1279   */\n    tag_184:\n        /* \"#utility.yul\":1248:1272   */\n      tag_236\n        /* \"#utility.yul\":1266:1271   */\n      dup2\n        /* \"#utility.yul\":1248:1272   */\n      tag_183\n      jump\t// in\n    tag_236:\n        /* \"#utility.yul\":1243:1246   */\n      dup3\n        /* \"#utility.yul\":1236:1273   */\n      mstore\n        /* \"#utility.yul\":1161:1279   */\n      pop\n      pop\n      jump\t// out\n        /* \"#utility.yul\":1285:1411   */\n    tag_185:\n        /* \"#utility.yul\":1322:1329   */\n      0x00\n        /* \"#utility.yul\":1362:1404   */\n      0xffffffffffffffffffffffffffffffffffffffff\n        /* \"#utility.yul\":1355:1360   */\n      dup3\n        /* \"#utility.yul\":1351:1405   */\n      and\n        /* \"#utility.yul\":1340:1405   */\n      swap1\n      pop\n        /* \"#utility.yul\":1285:1411   */\n      swap2\n      swap1\n      pop\n      jump\t// out\n        /* \"#utility.yul\":1417:1513   */\n    tag_186:\n        /* \"#utility.yul\":1454:1461   */\n      0x00\n        /* \"#utility.yul\":1483:1507   */\n      tag_239\n        /* \"#utility.yul\":1501:1506   */\n      dup3\n        /* \"#utility.yul\":1483:1507   */\n      tag_185\n      jump\t// in\n    tag_239:\n        /* \"#utility.yul\":1472:1507   */\n      swap1\n      pop\n        /* \"#utility.yul\":1417:1513   */\n      swap2\n      swap1\n      pop\n      jump\t// out\n        /* \"#utility.yul\":1519:1637   */\n    tag_187:\n        /* \"#utility.yul\":1606:1630   */\n      tag_241\n        /* \"#utility.yul\":1624:1629   */\n      dup2\n        /* \"#utility.yul\":1606:1630   */\n      tag_186\n      jump\t// in\n    tag_241:\n        /* \"#utility.yul\":1601:1604   */\n      dup3\n        /* \"#utility.yul\":1594:1631   */\n      mstore\n        /* \"#utility.yul\":1519:1637   */\n      pop\n      pop\n      jump\t// out\n        /* \"#utility.yul\":1643:1733   */\n    tag_188:\n        /* \"#utility.yul\":1677:1684   */\n      0x00\n        /* \"#utility.yul\":1720:1725   */\n      dup2\n        /* \"#utility.yul\":1713:1726   */\n      iszero\n        /* \"#utility.yul\":1706:1727   */\n      iszero\n        /* \"#utility.yul\":1695:1727   */\n      swap1\n      pop\n        /* \"#utility.yul\":1643:1733   */\n      swap2\n      swap1\n      pop\n      jump\t// out\n        /* \"#utility.yul\":1739:1848   */\n    tag_189:\n        /* \"#utility.yul\":1820:1841   */\n      tag_244\n        /* \"#utility.yul\":1835:1840   */\n      dup2\n        /* \"#utility.yul\":1820:1841   */\n      tag_188\n      jump\t// in\n    tag_244:\n        /* \"#utility.yul\":1815:1818   */\n      dup3\n        /* \"#utility.yul\":1808:1842   */\n      mstore\n        /* \"#utility.yul\":1739:1848   */\n      pop\n      pop\n      jump\t// out\n        /* \"#utility.yul\":1854:3112   */\n    tag_18:\n        /* \"#utility.yul\":2197:2201   */\n      0x00\n        /* \"#utility.yul\":2235:2238   */\n      0x0100\n        /* \"#utility.yul\":2224:2233   */\n      dup3\n        /* \"#utility.yul\":2220:2239   */\n      add\n        /* \"#utility.yul\":2212:2239   */\n      swap1\n      pop\n        /* \"#utility.yul\":2285:2294   */\n      dup2\n        /* \"#utility.yul\":2279:2283   */\n      dup2\n        /* \"#utility.yul\":2275:2295   */\n      sub\n        /* \"#utility.yul\":2271:2272   */\n      0x00\n        /* \"#utility.yul\":2260:2269   */\n      dup4\n        /* \"#utility.yul\":2256:2273   */\n      add\n        /* \"#utility.yul\":2249:2296   */\n      mstore\n        /* \"#utility.yul\":2313:2391   */\n      tag_246\n        /* \"#utility.yul\":2386:2390   */\n      dup2\n        /* \"#utility.yul\":2377:2383   */\n      dup12\n        /* \"#utility.yul\":2313:2391   */\n      tag_182\n      jump\t// in\n    tag_246:\n        /* \"#utility.yul\":2305:2391   */\n      swap1\n      pop\n        /* \"#utility.yul\":2438:2447   */\n      dup2\n        /* \"#utility.yul\":2432:2436   */\n      dup2\n        /* \"#utility.yul\":2428:2448   */\n      sub\n        /* \"#utility.yul\":2423:2425   */\n      0x20\n        /* \"#utility.yul\":2412:2421   */\n      dup4\n        /* \"#utility.yul\":2408:2426   */\n      add\n        /* \"#utility.yul\":2401:2449   */\n      mstore\n        /* \"#utility.yul\":2466:2544   */\n      tag_247\n        /* \"#utility.yul\":2539:2543   */\n      dup2\n        /* \"#utility.yul\":2530:2536   */\n      dup11\n        /* \"#utility.yul\":2466:2544   */\n      tag_182\n      jump\t// in\n    tag_247:\n        /* \"#utility.yul\":2458:2544   */\n      swap1\n      pop\n        /* \"#utility.yul\":2591:2600   */\n      dup2\n        /* \"#utility.yul\":2585:2589   */\n      dup2\n        /* \"#utility.yul\":2581:2601   */\n      sub\n        /* \"#utility.yul\":2576:2578   */\n      0x40\n        /* \"#utility.yul\":2565:2574   */\n      dup4\n        /* \"#utility.yul\":2561:2579   */\n      add\n        /* \"#utility.yul\":2554:2602   */\n      mstore\n        /* \"#utility.yul\":2619:2697   */\n      tag_248\n        /* \"#utility.yul\":2692:2696   */\n      dup2\n        /* \"#utility.yul\":2683:2689   */\n      dup10\n        /* \"#utility.yul\":2619:2697   */\n      tag_182\n      jump\t// in\n    tag_248:\n        /* \"#utility.yul\":2611:2697   */\n      swap1\n      pop\n        /* \"#utility.yul\":2707:2779   */\n      tag_249\n        /* \"#utility.yul\":2775:2777   */\n      0x60\n        /* \"#utility.yul\":2764:2773   */\n      dup4\n        /* \"#utility.yul\":2760:2778   */\n      add\n        /* \"#utility.yul\":2751:2757   */\n      dup9\n        /* \"#utility.yul\":2707:2779   */\n      tag_184\n      jump\t// in\n    tag_249:\n        /* \"#utility.yul\":2789:2862   */\n      tag_250\n        /* \"#utility.yul\":2857:2860   */\n      0x80\n        /* \"#utility.yul\":2846:2855   */\n      dup4\n        /* \"#utility.yul\":2842:2861   */\n      add\n        /* \"#utility.yul\":2833:2839   */\n      dup8\n        /* \"#utility.yul\":2789:2862   */\n      tag_187\n      jump\t// in\n    tag_250:\n        /* \"#utility.yul\":2872:2945   */\n      tag_251\n        /* \"#utility.yul\":2940:2943   */\n      0xa0\n        /* \"#utility.yul\":2929:2938   */\n      dup4\n        /* \"#utility.yul\":2925:2944   */\n      add\n        /* \"#utility.yul\":2916:2922   */\n      dup7\n        /* \"#utility.yul\":2872:2945   */\n      tag_187\n      jump\t// in\n    tag_251:\n        /* \"#utility.yul\":2955:3022   */\n      tag_252\n        /* \"#utility.yul\":3017:3020   */\n      0xc0\n        /* \"#utility.yul\":3006:3015   */\n      dup4\n        /* \"#utility.yul\":3002:3021   */\n      add\n        /* \"#utility.yul\":2993:2999   */\n      dup6\n        /* \"#utility.yul\":2955:3022   */\n      tag_189\n      jump\t// in\n    tag_252:\n        /* \"#utility.yul\":3032:3105   */\n      tag_253\n        /* \"#utility.yul\":3100:3103   */\n      0xe0\n        /* \"#utility.yul\":3089:3098   */\n      dup4\n        /* \"#utility.yul\":3085:3104   */\n      add\n        /* \"#utility.yul\":3076:3082   */\n      dup5\n        /* \"#utility.yul\":3032:3105   */\n      tag_184\n      jump\t// in\n    tag_253:\n        /* \"#utility.yul\":1854:3112   */\n      swap10\n      swap9\n      pop\n      pop\n      pop\n      pop\n      pop\n      pop\n      pop\n      pop\n      pop\n      jump\t// out\n        /* \"#utility.yul\":3118:3340   */\n    tag_23:\n        /* \"#utility.yul\":3211:3215   */\n      0x00\n        /* \"#utility.yul\":3249:3251   */\n      0x20\n        /* \"#utility.yul\":3238:3247   */\n      dup3\n        /* \"#utility.yul\":3234:3252   */\n      add\n        /* \"#utility.yul\":3226:3252   */\n      swap1\n      pop\n        /* \"#utility.yul\":3262:3333   */\n      tag_255\n        /* \"#utility.yul\":3330:3331   */\n      0x00\n        /* \"#utility.yul\":3319:3328   */\n      dup4\n        /* \"#utility.yul\":3315:3332   */\n      add\n        /* \"#utility.yul\":3306:3312   */\n      dup5\n        /* \"#utility.yul\":3262:3333   */\n      tag_184\n      jump\t// in\n    tag_255:\n        /* \"#utility.yul\":3118:3340   */\n      swap3\n      swap2\n      pop\n      pop\n      jump\t// out\n        /* \"#utility.yul\":3346:3421   */\n    tag_190:\n        /* \"#utility.yul\":3379:3385   */\n      0x00\n        /* \"#utility.yul\":3412:3414   */\n      0x40\n        /* \"#utility.yul\":3406:3415   */\n      mload\n        /* \"#utility.yul\":3396:3415   */\n      swap1\n      pop\n        /* \"#utility.yul\":3346:3421   */\n      swap1\n      jump\t// out\n        /* \"#utility.yul\":3427:3544   */\n    tag_191:\n        /* \"#utility.yul\":3536:3537   */\n      0x00\n        /* \"#utility.yul\":3533:3534   */\n      dup1\n        /* \"#utility.yul\":3526:3538   */\n      revert\n        /* \"#utility.yul\":3550:3667   */\n    tag_192:\n        /* \"#utility.yul\":3659:3660   */\n      0x00\n        /* \"#utility.yul\":3656:3657   */\n      dup1\n        /* \"#utility.yul\":3649:3661   */\n      revert\n        /* \"#utility.yul\":3673:3795   */\n    tag_193:\n        /* \"#utility.yul\":3746:3770   */\n      tag_260\n        /* \"#utility.yul\":3764:3769   */\n      dup2\n        /* \"#utility.yul\":3746:3770   */\n      tag_183\n      jump\t// in\n    tag_260:\n        /* \"#utility.yul\":3739:3744   */\n      dup2\n        /* \"#utility.yul\":3736:3771   */\n      eq\n        /* \"#utility.yul\":3726:3789   */\n      tag_261\n      jumpi\n        /* \"#utility.yul\":3785:3786   */\n      0x00\n        /* \"#utility.yul\":3782:3783   */\n      dup1\n        /* \"#utility.yul\":3775:3787   */\n      revert\n        /* \"#utility.yul\":3726:3789   */\n    tag_261:\n        /* \"#utility.yul\":3673:3795   */\n      pop\n      jump\t// out\n        /* \"#utility.yul\":3801:3940   */\n    tag_194:\n        /* \"#utility.yul\":3847:3852   */\n      0x00\n        /* \"#utility.yul\":3885:3891   */\n      dup2\n        /* \"#utility.yul\":3872:3892   */\n      calldataload\n        /* \"#utility.yul\":3863:3892   */\n      swap1\n      pop\n        /* \"#utility.yul\":3901:3934   */\n      tag_263\n        /* \"#utility.yul\":3928:3933   */\n      dup2\n        /* \"#utility.yul\":3901:3934   */\n      tag_193\n      jump\t// in\n    tag_263:\n        /* \"#utility.yul\":3801:3940   */\n      swap3\n      swap2\n      pop\n      pop\n      jump\t// out\n        /* \"#utility.yul\":3946:4275   */\n    tag_27:\n        /* \"#utility.yul\":4005:4011   */\n      0x00\n        /* \"#utility.yul\":4054:4056   */\n      0x20\n        /* \"#utility.yul\":4042:4051   */\n      dup3\n        /* \"#utility.yul\":4033:4040   */\n      dup5\n        /* \"#utility.yul\":4029:4052   */\n      sub\n        /* \"#utility.yul\":4025:4057   */\n      slt\n        /* \"#utility.yul\":4022:4141   */\n      iszero\n      tag_265\n      jumpi\n        /* \"#utility.yul\":4060:4139   */\n      tag_266\n      tag_191\n      jump\t// in\n    tag_266:\n        /* \"#utility.yul\":4022:4141   */\n    tag_265:\n        /* \"#utility.yul\":4180:4181   */\n      0x00\n        /* \"#utility.yul\":4205:4258   */\n      tag_267\n        /* \"#utility.yul\":4250:4257   */\n      dup5\n        /* \"#utility.yul\":4241:4247   */\n      dup3\n        /* \"#utility.yul\":4230:4239   */\n      dup6\n        /* \"#utility.yul\":4226:4248   */\n      add\n        /* \"#utility.yul\":4205:4258   */\n      tag_194\n      jump\t// in\n    tag_267:\n        /* \"#utility.yul\":4195:4258   */\n      swap2\n      pop\n        /* \"#utility.yul\":4151:4268   */\n      pop\n        /* \"#utility.yul\":3946:4275   */\n      swap3\n      swap2\n      pop\n      pop\n      jump\t// out\n        /* \"#utility.yul\":4281:4925   */\n    tag_30:\n        /* \"#utility.yul\":4478:4482   */\n      0x00\n        /* \"#utility.yul\":4516:4519   */\n      0x80\n        /* \"#utility.yul\":4505:4514   */\n      dup3\n        /* \"#utility.yul\":4501:4520   */\n      add\n        /* \"#utility.yul\":4493:4520   */\n      swap1\n      pop\n        /* \"#utility.yul\":4566:4575   */\n      dup2\n        /* \"#utility.yul\":4560:4564   */\n      dup2\n        /* \"#utility.yul\":4556:4576   */\n      sub\n        /* \"#utility.yul\":4552:4553   */\n      0x00\n        /* \"#utility.yul\":4541:4550   */\n      dup4\n        /* \"#utility.yul\":4537:4554   */\n      add\n        /* \"#utility.yul\":4530:4577   */\n      mstore\n        /* \"#utility.yul\":4594:4672   */\n      tag_269\n        /* \"#utility.yul\":4667:4671   */\n      dup2\n        /* \"#utility.yul\":4658:4664   */\n      dup8\n        /* \"#utility.yul\":4594:4672   */\n      tag_182\n      jump\t// in\n    tag_269:\n        /* \"#utility.yul\":4586:4672   */\n      swap1\n      pop\n        /* \"#utility.yul\":4682:4754   */\n      tag_270\n        /* \"#utility.yul\":4750:4752   */\n      0x20\n        /* \"#utility.yul\":4739:4748   */\n      dup4\n        /* \"#utility.yul\":4735:4753   */\n      add\n        /* \"#utility.yul\":4726:4732   */\n      dup7\n        /* \"#utility.yul\":4682:4754   */\n      tag_187\n      jump\t// in\n    tag_270:\n        /* \"#utility.yul\":4764:4836   */\n      tag_271\n        /* \"#utility.yul\":4832:4834   */\n      0x40\n        /* \"#utility.yul\":4821:4830   */\n      dup4\n        /* \"#utility.yul\":4817:4835   */\n      add\n        /* \"#utility.yul\":4808:4814   */\n      dup6\n        /* \"#utility.yul\":4764:4836   */\n      tag_184\n      jump\t// in\n    tag_271:\n        /* \"#utility.yul\":4846:4918   */\n      tag_272\n        /* \"#utility.yul\":4914:4916   */\n      0x60\n        /* \"#utility.yul\":4903:4912   */\n      dup4\n        /* \"#utility.yul\":4899:4917   */\n      add\n        /* \"#utility.yul\":4890:4896   */\n      dup5\n        /* \"#utility.yul\":4846:4918   */\n      tag_184\n      jump\t// in\n    tag_272:\n        /* \"#utility.yul\":4281:4925   */\n      swap6\n      swap5\n      pop\n      pop\n      pop\n      pop\n      pop\n      jump\t// out\n        /* \"#utility.yul\":4931:5048   */\n    tag_195:\n        /* \"#utility.yul\":5040:5041   */\n      0x00\n        /* \"#utility.yul\":5037:5038   */\n      dup1\n        /* \"#utility.yul\":5030:5042   */\n      revert\n        /* \"#utility.yul\":5054:5171   */\n    tag_196:\n        /* \"#utility.yul\":5163:5164   */\n      0x00\n        /* \"#utility.yul\":5160:5161   */\n      dup1\n        /* \"#utility.yul\":5153:5165   */\n      revert\n        /* \"#utility.yul\":5177:5357   */\n    tag_197:\n        /* \"#utility.yul\":5225:5302   */\n      0x4e487b7100000000000000000000000000000000000000000000000000000000\n        /* \"#utility.yul\":5222:5223   */\n      0x00\n        /* \"#utility.yul\":5215:5303   */\n      mstore\n        /* \"#utility.yul\":5322:5326   */\n      0x41\n        /* \"#utility.yul\":5319:5320   */\n      0x04\n        /* \"#utility.yul\":5312:5327   */\n      mstore\n        /* \"#utility.yul\":5346:5350   */\n      0x24\n        /* \"#utility.yul\":5343:5344   */\n      0x00\n        /* \"#utility.yul\":5336:5351   */\n      revert\n        /* \"#utility.yul\":5363:5644   */\n    tag_198:\n        /* \"#utility.yul\":5446:5473   */\n      tag_277\n        /* \"#utility.yul\":5468:5472   */\n      dup3\n        /* \"#utility.yul\":5446:5473   */\n      tag_181\n      jump\t// in\n    tag_277:\n        /* \"#utility.yul\":5438:5444   */\n      dup2\n        /* \"#utility.yul\":5434:5474   */\n      add\n        /* \"#utility.yul\":5576:5582   */\n      dup2\n        /* \"#utility.yul\":5564:5574   */\n      dup2\n        /* \"#utility.yul\":5561:5583   */\n      lt\n        /* \"#utility.yul\":5540:5558   */\n      0xffffffffffffffff\n        /* \"#utility.yul\":5528:5538   */\n      dup3\n        /* \"#utility.yul\":5525:5559   */\n      gt\n        /* \"#utility.yul\":5522:5584   */\n      or\n        /* \"#utility.yul\":5519:5607   */\n      iszero\n      tag_278\n      jumpi\n        /* \"#utility.yul\":5587:5605   */\n      tag_279\n      tag_197\n      jump\t// in\n    tag_279:\n        /* \"#utility.yul\":5519:5607   */\n    tag_278:\n        /* \"#utility.yul\":5627:5637   */\n      dup1\n        /* \"#utility.yul\":5623:5625   */\n      0x40\n        /* \"#utility.yul\":5616:5638   */\n      mstore\n        /* \"#utility.yul\":5406:5644   */\n      pop\n        /* \"#utility.yul\":5363:5644   */\n      pop\n      pop\n      jump\t// out\n        /* \"#utility.yul\":5650:5779   */\n    tag_199:\n        /* \"#utility.yul\":5684:5690   */\n      0x00\n        /* \"#utility.yul\":5711:5731   */\n      tag_281\n      tag_190\n      jump\t// in\n    tag_281:\n        /* \"#utility.yul\":5701:5731   */\n      swap1\n      pop\n        /* \"#utility.yul\":5740:5773   */\n      tag_282\n        /* \"#utility.yul\":5768:5772   */\n      dup3\n        /* \"#utility.yul\":5760:5766   */\n      dup3\n        /* \"#utility.yul\":5740:5773   */\n      tag_198\n      jump\t// in\n    tag_282:\n        /* \"#utility.yul\":5650:5779   */\n      swap2\n      swap1\n      pop\n      jump\t// out\n        /* \"#utility.yul\":5785:6093   */\n    tag_200:\n        /* \"#utility.yul\":5847:5851   */\n      0x00\n        /* \"#utility.yul\":5937:5955   */\n      0xffffffffffffffff\n        /* \"#utility.yul\":5929:5935   */\n      dup3\n        /* \"#utility.yul\":5926:5956   */\n      gt\n        /* \"#utility.yul\":5923:5979   */\n      iszero\n      tag_284\n      jumpi\n        /* \"#utility.yul\":5959:5977   */\n      tag_285\n      tag_197\n      jump\t// in\n    tag_285:\n        /* \"#utility.yul\":5923:5979   */\n    tag_284:\n        /* \"#utility.yul\":5997:6026   */\n      tag_286\n        /* \"#utility.yul\":6019:6025   */\n      dup3\n        /* \"#utility.yul\":5997:6026   */\n      tag_181\n      jump\t// in\n    tag_286:\n        /* \"#utility.yul\":5989:6026   */\n      swap1\n      pop\n        /* \"#utility.yul\":6081:6085   */\n      0x20\n        /* \"#utility.yul\":6075:6079   */\n      dup2\n        /* \"#utility.yul\":6071:6086   */\n      add\n        /* \"#utility.yul\":6063:6086   */\n      swap1\n      pop\n        /* \"#utility.yul\":5785:6093   */\n      swap2\n      swap1\n      pop\n      jump\t// out\n        /* \"#utility.yul\":6099:6253   */\n    tag_201:\n        /* \"#utility.yul\":6183:6189   */\n      dup3\n        /* \"#utility.yul\":6178:6181   */\n      dup2\n        /* \"#utility.yul\":6173:6176   */\n      dup4\n        /* \"#utility.yul\":6160:6190   */\n      calldatacopy\n        /* \"#utility.yul\":6245:6246   */\n      0x00\n        /* \"#utility.yul\":6236:6242   */\n      dup4\n        /* \"#utility.yul\":6231:6234   */\n      dup4\n        /* \"#utility.yul\":6227:6243   */\n      add\n        /* \"#utility.yul\":6220:6247   */\n      mstore\n        /* \"#utility.yul\":6099:6253   */\n      pop\n      pop\n      pop\n      jump\t// out\n        /* \"#utility.yul\":6259:6671   */\n    tag_202:\n        /* \"#utility.yul\":6337:6342   */\n      0x00\n        /* \"#utility.yul\":6362:6428   */\n      tag_289\n        /* \"#utility.yul\":6378:6427   */\n      tag_290\n        /* \"#utility.yul\":6420:6426   */\n      dup5\n        /* \"#utility.yul\":6378:6427   */\n      tag_200\n      jump\t// in\n    tag_290:\n        /* \"#utility.yul\":6362:6428   */\n      tag_199\n      jump\t// in\n    tag_289:\n        /* \"#utility.yul\":6353:6428   */\n      swap1\n      pop\n        /* \"#utility.yul\":6451:6457   */\n      dup3\n        /* \"#utility.yul\":6444:6449   */\n      dup2\n        /* \"#utility.yul\":6437:6458   */\n      mstore\n        /* \"#utility.yul\":6489:6493   */\n      0x20\n        /* \"#utility.yul\":6482:6487   */\n      dup2\n        /* \"#utility.yul\":6478:6494   */\n      add\n        /* \"#utility.yul\":6527:6530   */\n      dup5\n        /* \"#utility.yul\":6518:6524   */\n      dup5\n        /* \"#utility.yul\":6513:6516   */\n      dup5\n        /* \"#utility.yul\":6509:6525   */\n      add\n        /* \"#utility.yul\":6506:6531   */\n      gt\n        /* \"#utility.yul\":6503:6615   */\n      iszero\n      tag_291\n      jumpi\n        /* \"#utility.yul\":6534:6613   */\n      tag_292\n      tag_196\n      jump\t// in\n    tag_292:\n        /* \"#utility.yul\":6503:6615   */\n    tag_291:\n        /* \"#utility.yul\":6624:6665   */\n      tag_293\n        /* \"#utility.yul\":6658:6664   */\n      dup5\n        /* \"#utility.yul\":6653:6656   */\n      dup3\n        /* \"#utility.yul\":6648:6651   */\n      dup6\n        /* \"#utility.yul\":6624:6665   */\n      tag_201\n      jump\t// in\n    tag_293:\n        /* \"#utility.yul\":6343:6671   */\n      pop\n        /* \"#utility.yul\":6259:6671   */\n      swap4\n      swap3\n      pop\n      pop\n      pop\n      jump\t// out\n        /* \"#utility.yul\":6691:7031   */\n    tag_203:\n        /* \"#utility.yul\":6747:6752   */\n      0x00\n        /* \"#utility.yul\":6796:6799   */\n      dup3\n        /* \"#utility.yul\":6789:6793   */\n      0x1f\n        /* \"#utility.yul\":6781:6787   */\n      dup4\n        /* \"#utility.yul\":6777:6794   */\n      add\n        /* \"#utility.yul\":6773:6800   */\n      slt\n        /* \"#utility.yul\":6763:6885   */\n      tag_295\n      jumpi\n        /* \"#utility.yul\":6804:6883   */\n      tag_296\n      tag_195\n      jump\t// in\n    tag_296:\n        /* \"#utility.yul\":6763:6885   */\n    tag_295:\n        /* \"#utility.yul\":6921:6927   */\n      dup2\n        /* \"#utility.yul\":6908:6928   */\n      calldataload\n        /* \"#utility.yul\":6946:7025   */\n      tag_297\n        /* \"#utility.yul\":7021:7024   */\n      dup5\n        /* \"#utility.yul\":7013:7019   */\n      dup3\n        /* \"#utility.yul\":7006:7010   */\n      0x20\n        /* \"#utility.yul\":6998:7004   */\n      dup7\n        /* \"#utility.yul\":6994:7011   */\n      add\n        /* \"#utility.yul\":6946:7025   */\n      tag_202\n      jump\t// in\n    tag_297:\n        /* \"#utility.yul\":6937:7025   */\n      swap2\n      pop\n        /* \"#utility.yul\":6753:7031   */\n      pop\n        /* \"#utility.yul\":6691:7031   */\n      swap3\n      swap2\n      pop\n      pop\n      jump\t// out\n        /* \"#utility.yul\":7037:7836   */\n    tag_37:\n        /* \"#utility.yul\":7124:7130   */\n      0x00\n        /* \"#utility.yul\":7132:7138   */\n      dup1\n        /* \"#utility.yul\":7140:7146   */\n      0x00\n        /* \"#utility.yul\":7189:7191   */\n      0x60\n        /* \"#utility.yul\":7177:7186   */\n      dup5\n        /* \"#utility.yul\":7168:7175   */\n      dup7\n        /* \"#utility.yul\":7164:7187   */\n      sub\n        /* \"#utility.yul\":7160:7192   */\n      slt\n        /* \"#utility.yul\":7157:7276   */\n      iszero\n      tag_299\n      jumpi\n        /* \"#utility.yul\":7195:7274   */\n      tag_300\n      tag_191\n      jump\t// in\n    tag_300:\n        /* \"#utility.yul\":7157:7276   */\n    tag_299:\n        /* \"#utility.yul\":7343:7344   */\n      0x00\n        /* \"#utility.yul\":7332:7341   */\n      dup5\n        /* \"#utility.yul\":7328:7345   */\n      add\n        /* \"#utility.yul\":7315:7346   */\n      calldataload\n        /* \"#utility.yul\":7373:7391   */\n      0xffffffffffffffff\n        /* \"#utility.yul\":7365:7371   */\n      dup2\n        /* \"#utility.yul\":7362:7392   */\n      gt\n        /* \"#utility.yul\":7359:7476   */\n      iszero\n      tag_301\n      jumpi\n        /* \"#utility.yul\":7395:7474   */\n      tag_302\n      tag_192\n      jump\t// in\n    tag_302:\n        /* \"#utility.yul\":7359:7476   */\n    tag_301:\n        /* \"#utility.yul\":7500:7563   */\n      tag_303\n        /* \"#utility.yul\":7555:7562   */\n      dup7\n        /* \"#utility.yul\":7546:7552   */\n      dup3\n        /* \"#utility.yul\":7535:7544   */\n      dup8\n        /* \"#utility.yul\":7531:7553   */\n      add\n        /* \"#utility.yul\":7500:7563   */\n      tag_203\n      jump\t// in\n    tag_303:\n        /* \"#utility.yul\":7490:7563   */\n      swap4\n      pop\n        /* \"#utility.yul\":7286:7573   */\n      pop\n        /* \"#utility.yul\":7612:7614   */\n      0x20\n        /* \"#utility.yul\":7638:7691   */\n      tag_304\n        /* \"#utility.yul\":7683:7690   */\n      dup7\n        /* \"#utility.yul\":7674:7680   */\n      dup3\n        /* \"#utility.yul\":7663:7672   */\n      dup8\n        /* \"#utility.yul\":7659:7681   */\n      add\n        /* \"#utility.yul\":7638:7691   */\n      tag_194\n      jump\t// in\n    tag_304:\n        /* \"#utility.yul\":7628:7691   */\n      swap3\n      pop\n        /* \"#utility.yul\":7583:7701   */\n      pop\n        /* \"#utility.yul\":7740:7742   */\n      0x40\n        /* \"#utility.yul\":7766:7819   */\n      tag_305\n        /* \"#utility.yul\":7811:7818   */\n      dup7\n        /* \"#utility.yul\":7802:7808   */\n      dup3\n        /* \"#utility.yul\":7791:7800   */\n      dup8\n        /* \"#utility.yul\":7787:7809   */\n      add\n        /* \"#utility.yul\":7766:7819   */\n      tag_194\n      jump\t// in\n    tag_305:\n        /* \"#utility.yul\":7756:7819   */\n      swap2\n      pop\n        /* \"#utility.yul\":7711:7829   */\n      pop\n        /* \"#utility.yul\":7037:7836   */\n      swap3\n      pop\n      swap3\n      pop\n      swap3\n      jump\t// out\n        /* \"#utility.yul\":7842:8064   */\n    tag_47:\n        /* \"#utility.yul\":7935:7939   */\n      0x00\n        /* \"#utility.yul\":7973:7975   */\n      0x20\n        /* \"#utility.yul\":7962:7971   */\n      dup3\n        /* \"#utility.yul\":7958:7976   */\n      add\n        /* \"#utility.yul\":7950:7976   */\n      swap1\n      pop\n        /* \"#utility.yul\":7986:8057   */\n      tag_307\n        /* \"#utility.yul\":8054:8055   */\n      0x00\n        /* \"#utility.yul\":8043:8052   */\n      dup4\n        /* \"#utility.yul\":8039:8056   */\n      add\n        /* \"#utility.yul\":8030:8036   */\n      dup5\n        /* \"#utility.yul\":7986:8057   */\n      tag_187\n      jump\t// in\n    tag_307:\n        /* \"#utility.yul\":7842:8064   */\n      swap3\n      swap2\n      pop\n      pop\n      jump\t// out\n        /* \"#utility.yul\":8070:8214   */\n    tag_204:\n        /* \"#utility.yul\":8167:8173   */\n      0x00\n        /* \"#utility.yul\":8201:8206   */\n      dup2\n        /* \"#utility.yul\":8195:8207   */\n      mload\n        /* \"#utility.yul\":8185:8207   */\n      swap1\n      pop\n        /* \"#utility.yul\":8070:8214   */\n      swap2\n      swap1\n      pop\n      jump\t// out\n        /* \"#utility.yul\":8220:8434   */\n    tag_205:\n        /* \"#utility.yul\":8349:8360   */\n      0x00\n        /* \"#utility.yul\":8383:8389   */\n      dup3\n        /* \"#utility.yul\":8378:8381   */\n      dup3\n        /* \"#utility.yul\":8371:8390   */\n      mstore\n        /* \"#utility.yul\":8423:8427   */\n      0x20\n        /* \"#utility.yul\":8418:8421   */\n      dup3\n        /* \"#utility.yul\":8414:8428   */\n      add\n        /* \"#utility.yul\":8399:8428   */\n      swap1\n      pop\n        /* \"#utility.yul\":8220:8434   */\n      swap3\n      swap2\n      pop\n      pop\n      jump\t// out\n        /* \"#utility.yul\":8440:8602   */\n    tag_206:\n        /* \"#utility.yul\":8537:8541   */\n      0x00\n        /* \"#utility.yul\":8560:8563   */\n      dup2\n        /* \"#utility.yul\":8552:8563   */\n      swap1\n      pop\n        /* \"#utility.yul\":8590:8594   */\n      0x20\n        /* \"#utility.yul\":8585:8588   */\n      dup3\n        /* \"#utility.yul\":8581:8595   */\n      add\n        /* \"#utility.yul\":8573:8595   */\n      swap1\n      pop\n        /* \"#utility.yul\":8440:8602   */\n      swap2\n      swap1\n      pop\n      jump\t// out\n        /* \"#utility.yul\":8608:8767   */\n    tag_207:\n        /* \"#utility.yul\":8682:8693   */\n      0x00\n        /* \"#utility.yul\":8716:8722   */\n      dup3\n        /* \"#utility.yul\":8711:8714   */\n      dup3\n        /* \"#utility.yul\":8704:8723   */\n      mstore\n        /* \"#utility.yul\":8756:8760   */\n      0x20\n        /* \"#utility.yul\":8751:8754   */\n      dup3\n        /* \"#utility.yul\":8747:8761   */\n      add\n        /* \"#utility.yul\":8732:8761   */\n      swap1\n      pop\n        /* \"#utility.yul\":8608:8767   */\n      swap3\n      swap2\n      pop\n      pop\n      jump\t// out\n        /* \"#utility.yul\":8773:9117   */\n    tag_208:\n        /* \"#utility.yul\":8851:8854   */\n      0x00\n        /* \"#utility.yul\":8879:8918   */\n      tag_313\n        /* \"#utility.yul\":8912:8917   */\n      dup3\n        /* \"#utility.yul\":8879:8918   */\n      tag_178\n      jump\t// in\n    tag_313:\n        /* \"#utility.yul\":8934:8995   */\n      tag_314\n        /* \"#utility.yul\":8988:8994   */\n      dup2\n        /* \"#utility.yul\":8983:8986   */\n      dup6\n        /* \"#utility.yul\":8934:8995   */\n      tag_207\n      jump\t// in\n    tag_314:\n        /* \"#utility.yul\":8927:8995   */\n      swap4\n      pop\n        /* \"#utility.yul\":9004:9056   */\n      tag_315\n        /* \"#utility.yul\":9049:9055   */\n      dup2\n        /* \"#utility.yul\":9044:9047   */\n      dup6\n        /* \"#utility.yul\":9037:9041   */\n      0x20\n        /* \"#utility.yul\":9030:9035   */\n      dup7\n        /* \"#utility.yul\":9026:9042   */\n      add\n        /* \"#utility.yul\":9004:9056   */\n      tag_180\n      jump\t// in\n    tag_315:\n        /* \"#utility.yul\":9081:9110   */\n      tag_316\n        /* \"#utility.yul\":9103:9109   */\n      dup2\n        /* \"#utility.yul\":9081:9110   */\n      tag_181\n      jump\t// in\n    tag_316:\n        /* \"#utility.yul\":9076:9079   */\n      dup5\n        /* \"#utility.yul\":9072:9111   */\n      add\n        /* \"#utility.yul\":9065:9111   */\n      swap2\n      pop\n        /* \"#utility.yul\":8855:9117   */\n      pop\n        /* \"#utility.yul\":8773:9117   */\n      swap3\n      swap2\n      pop\n      pop\n      jump\t// out\n        /* \"#utility.yul\":9123:9231   */\n    tag_209:\n        /* \"#utility.yul\":9200:9224   */\n      tag_318\n        /* \"#utility.yul\":9218:9223   */\n      dup2\n        /* \"#utility.yul\":9200:9224   */\n      tag_186\n      jump\t// in\n    tag_318:\n        /* \"#utility.yul\":9195:9198   */\n      dup3\n        /* \"#utility.yul\":9188:9225   */\n      mstore\n        /* \"#utility.yul\":9123:9231   */\n      pop\n      pop\n      jump\t// out\n        /* \"#utility.yul\":9237:9345   */\n    tag_210:\n        /* \"#utility.yul\":9314:9338   */\n      tag_320\n        /* \"#utility.yul\":9332:9337   */\n      dup2\n        /* \"#utility.yul\":9314:9338   */\n      tag_183\n      jump\t// in\n    tag_320:\n        /* \"#utility.yul\":9309:9312   */\n      dup3\n        /* \"#utility.yul\":9302:9339   */\n      mstore\n        /* \"#utility.yul\":9237:9345   */\n      pop\n      pop\n      jump\t// out\n        /* \"#utility.yul\":9423:10391   */\n    tag_211:\n        /* \"#utility.yul\":9542:9545   */\n      0x00\n        /* \"#utility.yul\":9578:9582   */\n      0x80\n        /* \"#utility.yul\":9573:9576   */\n      dup4\n        /* \"#utility.yul\":9569:9583   */\n      add\n        /* \"#utility.yul\":9669:9673   */\n      0x00\n        /* \"#utility.yul\":9662:9667   */\n      dup4\n        /* \"#utility.yul\":9658:9674   */\n      add\n        /* \"#utility.yul\":9652:9675   */\n      mload\n        /* \"#utility.yul\":9722:9725   */\n      dup5\n        /* \"#utility.yul\":9716:9720   */\n      dup3\n        /* \"#utility.yul\":9712:9726   */\n      sub\n        /* \"#utility.yul\":9705:9709   */\n      0x00\n        /* \"#utility.yul\":9700:9703   */\n      dup7\n        /* \"#utility.yul\":9696:9710   */\n      add\n        /* \"#utility.yul\":9689:9727   */\n      mstore\n        /* \"#utility.yul\":9748:9821   */\n      tag_322\n        /* \"#utility.yul\":9816:9820   */\n      dup3\n        /* \"#utility.yul\":9802:9814   */\n      dup3\n        /* \"#utility.yul\":9748:9821   */\n      tag_208\n      jump\t// in\n    tag_322:\n        /* \"#utility.yul\":9740:9821   */\n      swap2\n      pop\n        /* \"#utility.yul\":9593:9832   */\n      pop\n        /* \"#utility.yul\":9915:9919   */\n      0x20\n        /* \"#utility.yul\":9908:9913   */\n      dup4\n        /* \"#utility.yul\":9904:9920   */\n      add\n        /* \"#utility.yul\":9898:9921   */\n      mload\n        /* \"#utility.yul\":9934:9997   */\n      tag_323\n        /* \"#utility.yul\":9991:9995   */\n      0x20\n        /* \"#utility.yul\":9986:9989   */\n      dup7\n        /* \"#utility.yul\":9982:9996   */\n      add\n        /* \"#utility.yul\":9968:9980   */\n      dup3\n        /* \"#utility.yul\":9934:9997   */\n      tag_209\n      jump\t// in\n    tag_323:\n        /* \"#utility.yul\":9842:10007   */\n      pop\n        /* \"#utility.yul\":10093:10097   */\n      0x40\n        /* \"#utility.yul\":10086:10091   */\n      dup4\n        /* \"#utility.yul\":10082:10098   */\n      add\n        /* \"#utility.yul\":10076:10099   */\n      mload\n        /* \"#utility.yul\":10112:10175   */\n      tag_324\n        /* \"#utility.yul\":10169:10173   */\n      0x40\n        /* \"#utility.yul\":10164:10167   */\n      dup7\n        /* \"#utility.yul\":10160:10174   */\n      add\n        /* \"#utility.yul\":10146:10158   */\n      dup3\n        /* \"#utility.yul\":10112:10175   */\n      tag_210\n      jump\t// in\n    tag_324:\n        /* \"#utility.yul\":10017:10185   */\n      pop\n        /* \"#utility.yul\":10272:10276   */\n      0x60\n        /* \"#utility.yul\":10265:10270   */\n      dup4\n        /* \"#utility.yul\":10261:10277   */\n      add\n        /* \"#utility.yul\":10255:10278   */\n      mload\n        /* \"#utility.yul\":10291:10354   */\n      tag_325\n        /* \"#utility.yul\":10348:10352   */\n      0x60\n        /* \"#utility.yul\":10343:10346   */\n      dup7\n        /* \"#utility.yul\":10339:10353   */\n      add\n        /* \"#utility.yul\":10325:10337   */\n      dup3\n        /* \"#utility.yul\":10291:10354   */\n      tag_210\n      jump\t// in\n    tag_325:\n        /* \"#utility.yul\":10195:10364   */\n      pop\n        /* \"#utility.yul\":10381:10385   */\n      dup1\n        /* \"#utility.yul\":10374:10385   */\n      swap2\n      pop\n        /* \"#utility.yul\":9547:10391   */\n      pop\n        /* \"#utility.yul\":9423:10391   */\n      swap3\n      swap2\n      pop\n      pop\n      jump\t// out\n        /* \"#utility.yul\":10397:10673   */\n    tag_212:\n        /* \"#utility.yul\":10526:10536   */\n      0x00\n        /* \"#utility.yul\":10561:10667   */\n      tag_327\n        /* \"#utility.yul\":10663:10666   */\n      dup4\n        /* \"#utility.yul\":10655:10661   */\n      dup4\n        /* \"#utility.yul\":10561:10667   */\n      tag_211\n      jump\t// in\n    tag_327:\n        /* \"#utility.yul\":10547:10667   */\n      swap1\n      pop\n        /* \"#utility.yul\":10397:10673   */\n      swap3\n      swap2\n      pop\n      pop\n      jump\t// out\n        /* \"#utility.yul\":10679:10822   */\n    tag_213:\n        /* \"#utility.yul\":10779:10783   */\n      0x00\n        /* \"#utility.yul\":10811:10815   */\n      0x20\n        /* \"#utility.yul\":10806:10809   */\n      dup3\n        /* \"#utility.yul\":10802:10816   */\n      add\n        /* \"#utility.yul\":10794:10816   */\n      swap1\n      pop\n        /* \"#utility.yul\":10679:10822   */\n      swap2\n      swap1\n      pop\n      jump\t// out\n        /* \"#utility.yul\":10904:12055   */\n    tag_214:\n        /* \"#utility.yul\":11083:11086   */\n      0x00\n        /* \"#utility.yul\":11112:11196   */\n      tag_330\n        /* \"#utility.yul\":11190:11195   */\n      dup3\n        /* \"#utility.yul\":11112:11196   */\n      tag_204\n      jump\t// in\n    tag_330:\n        /* \"#utility.yul\":11212:11328   */\n      tag_331\n        /* \"#utility.yul\":11321:11327   */\n      dup2\n        /* \"#utility.yul\":11316:11319   */\n      dup6\n        /* \"#utility.yul\":11212:11328   */\n      tag_205\n      jump\t// in\n    tag_331:\n        /* \"#utility.yul\":11205:11328   */\n      swap4\n      pop\n        /* \"#utility.yul\":11354:11357   */\n      dup4\n        /* \"#utility.yul\":11399:11403   */\n      0x20\n        /* \"#utility.yul\":11391:11397   */\n      dup3\n        /* \"#utility.yul\":11387:11404   */\n      mul\n        /* \"#utility.yul\":11382:11385   */\n      dup6\n        /* \"#utility.yul\":11378:11405   */\n      add\n        /* \"#utility.yul\":11429:11515   */\n      tag_332\n        /* \"#utility.yul\":11509:11514   */\n      dup6\n        /* \"#utility.yul\":11429:11515   */\n      tag_206\n      jump\t// in\n    tag_332:\n        /* \"#utility.yul\":11538:11545   */\n      dup1\n        /* \"#utility.yul\":11569:11570   */\n      0x00\n        /* \"#utility.yul\":11554:12010   */\n    tag_333:\n        /* \"#utility.yul\":11579:11585   */\n      dup6\n        /* \"#utility.yul\":11576:11577   */\n      dup2\n        /* \"#utility.yul\":11573:11586   */\n      lt\n        /* \"#utility.yul\":11554:12010   */\n      iszero\n      tag_335\n      jumpi\n        /* \"#utility.yul\":11650:11659   */\n      dup5\n        /* \"#utility.yul\":11644:11648   */\n      dup5\n        /* \"#utility.yul\":11640:11660   */\n      sub\n        /* \"#utility.yul\":11635:11638   */\n      dup10\n        /* \"#utility.yul\":11628:11661   */\n      mstore\n        /* \"#utility.yul\":11701:11707   */\n      dup2\n        /* \"#utility.yul\":11695:11708   */\n      mload\n        /* \"#utility.yul\":11729:11853   */\n      tag_336\n        /* \"#utility.yul\":11848:11852   */\n      dup6\n        /* \"#utility.yul\":11833:11846   */\n      dup3\n        /* \"#utility.yul\":11729:11853   */\n      tag_212\n      jump\t// in\n    tag_336:\n        /* \"#utility.yul\":11721:11853   */\n      swap5\n      pop\n        /* \"#utility.yul\":11876:11966   */\n      tag_337\n        /* \"#utility.yul\":11959:11965   */\n      dup4\n        /* \"#utility.yul\":11876:11966   */\n      tag_213\n      jump\t// in\n    tag_337:\n        /* \"#utility.yul\":11866:11966   */\n      swap3\n      pop\n        /* \"#utility.yul\":11995:11999   */\n      0x20\n        /* \"#utility.yul\":11990:11993   */\n      dup11\n        /* \"#utility.yul\":11986:12000   */\n      add\n        /* \"#utility.yul\":11979:12000   */\n      swap10\n      pop\n        /* \"#utility.yul\":11614:12010   */\n      pop\n        /* \"#utility.yul\":11601:11602   */\n      0x01\n        /* \"#utility.yul\":11598:11599   */\n      dup2\n        /* \"#utility.yul\":11594:11603   */\n      add\n        /* \"#utility.yul\":11589:11603   */\n      swap1\n      pop\n        /* \"#utility.yul\":11554:12010   */\n      jump(tag_333)\n    tag_335:\n        /* \"#utility.yul\":11558:11572   */\n      pop\n        /* \"#utility.yul\":12026:12030   */\n      dup3\n        /* \"#utility.yul\":12019:12030   */\n      swap8\n      pop\n        /* \"#utility.yul\":12046:12049   */\n      dup8\n        /* \"#utility.yul\":12039:12049   */\n      swap6\n      pop\n        /* \"#utility.yul\":11088:12055   */\n      pop\n      pop\n      pop\n      pop\n      pop\n        /* \"#utility.yul\":10904:12055   */\n      swap3\n      swap2\n      pop\n      pop\n      jump\t// out\n        /* \"#utility.yul\":12061:12554   */\n    tag_60:\n        /* \"#utility.yul\":12264:12268   */\n      0x00\n        /* \"#utility.yul\":12302:12304   */\n      0x20\n        /* \"#utility.yul\":12291:12300   */\n      dup3\n        /* \"#utility.yul\":12287:12305   */\n      add\n        /* \"#utility.yul\":12279:12305   */\n      swap1\n      pop\n        /* \"#utility.yul\":12351:12360   */\n      dup2\n        /* \"#utility.yul\":12345:12349   */\n      dup2\n        /* \"#utility.yul\":12341:12361   */\n      sub\n        /* \"#utility.yul\":12337:12338   */\n      0x00\n        /* \"#utility.yul\":12326:12335   */\n      dup4\n        /* \"#utility.yul\":12322:12339   */\n      add\n        /* \"#utility.yul\":12315:12362   */\n      mstore\n        /* \"#utility.yul\":12379:12547   */\n      tag_339\n        /* \"#utility.yul\":12542:12546   */\n      dup2\n        /* \"#utility.yul\":12533:12539   */\n      dup5\n        /* \"#utility.yul\":12379:12547   */\n      tag_214\n      jump\t// in\n    tag_339:\n        /* \"#utility.yul\":12371:12547   */\n      swap1\n      pop\n        /* \"#utility.yul\":12061:12554   */\n      swap3\n      swap2\n      pop\n      pop\n      jump\t// out\n        /* \"#utility.yul\":12560:12682   */\n    tag_215:\n        /* \"#utility.yul\":12633:12657   */\n      tag_341\n        /* \"#utility.yul\":12651:12656   */\n      dup2\n        /* \"#utility.yul\":12633:12657   */\n      tag_186\n      jump\t// in\n    tag_341:\n        /* \"#utility.yul\":12626:12631   */\n      dup2\n        /* \"#utility.yul\":12623:12658   */\n      eq\n        /* \"#utility.yul\":12613:12676   */\n      tag_342\n      jumpi\n        /* \"#utility.yul\":12672:12673   */\n      0x00\n        /* \"#utility.yul\":12669:12670   */\n      dup1\n        /* \"#utility.yul\":12662:12674   */\n      revert\n        /* \"#utility.yul\":12613:12676   */\n    tag_342:\n        /* \"#utility.yul\":12560:12682   */\n      pop\n      jump\t// out\n        /* \"#utility.yul\":12688:12827   */\n    tag_216:\n        /* \"#utility.yul\":12734:12739   */\n      0x00\n        /* \"#utility.yul\":12772:12778   */\n      dup2\n        /* \"#utility.yul\":12759:12779   */\n      calldataload\n        /* \"#utility.yul\":12750:12779   */\n      swap1\n      pop\n        /* \"#utility.yul\":12788:12821   */\n      tag_344\n        /* \"#utility.yul\":12815:12820   */\n      dup2\n        /* \"#utility.yul\":12788:12821   */\n      tag_215\n      jump\t// in\n    tag_344:\n        /* \"#utility.yul\":12688:12827   */\n      swap3\n      swap2\n      pop\n      pop\n      jump\t// out\n        /* \"#utility.yul\":12833:14284   */\n    tag_64:\n        /* \"#utility.yul\":12958:12964   */\n      0x00\n        /* \"#utility.yul\":12966:12972   */\n      dup1\n        /* \"#utility.yul\":12974:12980   */\n      0x00\n        /* \"#utility.yul\":12982:12988   */\n      dup1\n        /* \"#utility.yul\":12990:12996   */\n      0x00\n        /* \"#utility.yul\":13039:13042   */\n      0xa0\n        /* \"#utility.yul\":13027:13036   */\n      dup7\n        /* \"#utility.yul\":13018:13025   */\n      dup9\n        /* \"#utility.yul\":13014:13037   */\n      sub\n        /* \"#utility.yul\":13010:13043   */\n      slt\n        /* \"#utility.yul\":13007:13127   */\n      iszero\n      tag_346\n      jumpi\n        /* \"#utility.yul\":13046:13125   */\n      tag_347\n      tag_191\n      jump\t// in\n    tag_347:\n        /* \"#utility.yul\":13007:13127   */\n    tag_346:\n        /* \"#utility.yul\":13194:13195   */\n      0x00\n        /* \"#utility.yul\":13183:13192   */\n      dup7\n        /* \"#utility.yul\":13179:13196   */\n      add\n        /* \"#utility.yul\":13166:13197   */\n      calldataload\n        /* \"#utility.yul\":13224:13242   */\n      0xffffffffffffffff\n        /* \"#utility.yul\":13216:13222   */\n      dup2\n        /* \"#utility.yul\":13213:13243   */\n      gt\n        /* \"#utility.yul\":13210:13327   */\n      iszero\n      tag_348\n      jumpi\n        /* \"#utility.yul\":13246:13325   */\n      tag_349\n      tag_192\n      jump\t// in\n    tag_349:\n        /* \"#utility.yul\":13210:13327   */\n    tag_348:\n        /* \"#utility.yul\":13351:13414   */\n      tag_350\n        /* \"#utility.yul\":13406:13413   */\n      dup9\n        /* \"#utility.yul\":13397:13403   */\n      dup3\n        /* \"#utility.yul\":13386:13395   */\n      dup10\n        /* \"#utility.yul\":13382:13404   */\n      add\n        /* \"#utility.yul\":13351:13414   */\n      tag_203\n      jump\t// in\n    tag_350:\n        /* \"#utility.yul\":13341:13414   */\n      swap6\n      pop\n        /* \"#utility.yul\":13137:13424   */\n      pop\n        /* \"#utility.yul\":13491:13493   */\n      0x20\n        /* \"#utility.yul\":13480:13489   */\n      dup7\n        /* \"#utility.yul\":13476:13494   */\n      add\n        /* \"#utility.yul\":13463:13495   */\n      calldataload\n        /* \"#utility.yul\":13522:13540   */\n      0xffffffffffffffff\n        /* \"#utility.yul\":13514:13520   */\n      dup2\n        /* \"#utility.yul\":13511:13541   */\n      gt\n        /* \"#utility.yul\":13508:13625   */\n      iszero\n      tag_351\n      jumpi\n        /* \"#utility.yul\":13544:13623   */\n      tag_352\n      tag_192\n      jump\t// in\n    tag_352:\n        /* \"#utility.yul\":13508:13625   */\n    tag_351:\n        /* \"#utility.yul\":13649:13712   */\n      tag_353\n        /* \"#utility.yul\":13704:13711   */\n      dup9\n        /* \"#utility.yul\":13695:13701   */\n      dup3\n        /* \"#utility.yul\":13684:13693   */\n      dup10\n        /* \"#utility.yul\":13680:13702   */\n      add\n        /* \"#utility.yul\":13649:13712   */\n      tag_203\n      jump\t// in\n    tag_353:\n        /* \"#utility.yul\":13639:13712   */\n      swap5\n      pop\n        /* \"#utility.yul\":13434:13722   */\n      pop\n        /* \"#utility.yul\":13789:13791   */\n      0x40\n        /* \"#utility.yul\":13778:13787   */\n      dup7\n        /* \"#utility.yul\":13774:13792   */\n      add\n        /* \"#utility.yul\":13761:13793   */\n      calldataload\n        /* \"#utility.yul\":13820:13838   */\n      0xffffffffffffffff\n        /* \"#utility.yul\":13812:13818   */\n      dup2\n        /* \"#utility.yul\":13809:13839   */\n      gt\n        /* \"#utility.yul\":13806:13923   */\n      iszero\n      tag_354\n      jumpi\n        /* \"#utility.yul\":13842:13921   */\n      tag_355\n      tag_192\n      jump\t// in\n    tag_355:\n        /* \"#utility.yul\":13806:13923   */\n    tag_354:\n        /* \"#utility.yul\":13947:14010   */\n      tag_356\n        /* \"#utility.yul\":14002:14009   */\n      dup9\n        /* \"#utility.yul\":13993:13999   */\n      dup3\n        /* \"#utility.yul\":13982:13991   */\n      dup10\n        /* \"#utility.yul\":13978:14000   */\n      add\n        /* \"#utility.yul\":13947:14010   */\n      tag_203\n      jump\t// in\n    tag_356:\n        /* \"#utility.yul\":13937:14010   */\n      swap4\n      pop\n        /* \"#utility.yul\":13732:14020   */\n      pop\n        /* \"#utility.yul\":14059:14061   */\n      0x60\n        /* \"#utility.yul\":14085:14138   */\n      tag_357\n        /* \"#utility.yul\":14130:14137   */\n      dup9\n        /* \"#utility.yul\":14121:14127   */\n      dup3\n        /* \"#utility.yul\":14110:14119   */\n      dup10\n        /* \"#utility.yul\":14106:14128   */\n      add\n        /* \"#utility.yul\":14085:14138   */\n      tag_194\n      jump\t// in\n    tag_357:\n        /* \"#utility.yul\":14075:14138   */\n      swap3\n      pop\n        /* \"#utility.yul\":14030:14148   */\n      pop\n        /* \"#utility.yul\":14187:14190   */\n      0x80\n        /* \"#utility.yul\":14214:14267   */\n      tag_358\n        /* \"#utility.yul\":14259:14266   */\n      dup9\n        /* \"#utility.yul\":14250:14256   */\n      dup3\n        /* \"#utility.yul\":14239:14248   */\n      dup10\n        /* \"#utility.yul\":14235:14257   */\n      add\n        /* \"#utility.yul\":14214:14267   */\n      tag_216\n      jump\t// in\n    tag_358:\n        /* \"#utility.yul\":14204:14267   */\n      swap2\n      pop\n        /* \"#utility.yul\":14158:14277   */\n      pop\n        /* \"#utility.yul\":12833:14284   */\n      swap3\n      swap6\n      pop\n      swap3\n      swap6\n      swap1\n      swap4\n      pop\n      jump\t// out\n        /* \"#utility.yul\":14290:14470   */\n    tag_217:\n        /* \"#utility.yul\":14338:14415   */\n      0x4e487b7100000000000000000000000000000000000000000000000000000000\n        /* \"#utility.yul\":14335:14336   */\n      0x00\n        /* \"#utility.yul\":14328:14416   */\n      mstore\n        /* \"#utility.yul\":14435:14439   */\n      0x22\n        /* \"#utility.yul\":14432:14433   */\n      0x04\n        /* \"#utility.yul\":14425:14440   */\n      mstore\n        /* \"#utility.yul\":14459:14463   */\n      0x24\n        /* \"#utility.yul\":14456:14457   */\n      0x00\n        /* \"#utility.yul\":14449:14464   */\n      revert\n        /* \"#utility.yul\":14476:14796   */\n    tag_67:\n        /* \"#utility.yul\":14520:14526   */\n      0x00\n        /* \"#utility.yul\":14557:14558   */\n      0x02\n        /* \"#utility.yul\":14551:14555   */\n      dup3\n        /* \"#utility.yul\":14547:14559   */\n      div\n        /* \"#utility.yul\":14537:14559   */\n      swap1\n      pop\n        /* \"#utility.yul\":14604:14605   */\n      0x01\n        /* \"#utility.yul\":14598:14602   */\n      dup3\n        /* \"#utility.yul\":14594:14606   */\n      and\n        /* \"#utility.yul\":14625:14643   */\n      dup1\n        /* \"#utility.yul\":14615:14696   */\n      tag_361\n      jumpi\n        /* \"#utility.yul\":14681:14685   */\n      0x7f\n        /* \"#utility.yul\":14673:14679   */\n      dup3\n        /* \"#utility.yul\":14669:14686   */\n      and\n        /* \"#utility.yul\":14659:14686   */\n      swap2\n      pop\n        /* \"#utility.yul\":14615:14696   */\n    tag_361:\n        /* \"#utility.yul\":14743:14745   */\n      0x20\n        /* \"#utility.yul\":14735:14741   */\n      dup3\n        /* \"#utility.yul\":14732:14746   */\n      lt\n        /* \"#utility.yul\":14712:14730   */\n      dup2\n        /* \"#utility.yul\":14709:14747   */\n      eq\n        /* \"#utility.yul\":14706:14790   */\n      iszero\n      tag_362\n      jumpi\n        /* \"#utility.yul\":14762:14780   */\n      tag_363\n      tag_217\n      jump\t// in\n    tag_363:\n        /* \"#utility.yul\":14706:14790   */\n    tag_362:\n        /* \"#utility.yul\":14527:14796   */\n      pop\n        /* \"#utility.yul\":14476:14796   */\n      swap2\n      swap1\n      pop\n      jump\t// out\n        /* \"#utility.yul\":14802:14982   */\n    tag_93:\n        /* \"#utility.yul\":14850:14927   */\n      0x4e487b7100000000000000000000000000000000000000000000000000000000\n        /* \"#utility.yul\":14847:14848   */\n      0x00\n        /* \"#utility.yul\":14840:14928   */\n      mstore\n        /* \"#utility.yul\":14947:14951   */\n      0x32\n        /* \"#utility.yul\":14944:14945   */\n      0x04\n        /* \"#utility.yul\":14937:14952   */\n      mstore\n        /* \"#utility.yul\":14971:14975   */\n      0x24\n        /* \"#utility.yul\":14968:14969   */\n      0x00\n        /* \"#utility.yul\":14961:14976   */\n      revert\n        /* \"#utility.yul\":14988:15168   */\n    tag_218:\n        /* \"#utility.yul\":15036:15113   */\n      0x4e487b7100000000000000000000000000000000000000000000000000000000\n        /* \"#utility.yul\":15033:15034   */\n      0x00\n        /* \"#utility.yul\":15026:15114   */\n      mstore\n        /* \"#utility.yul\":15133:15137   */\n      0x11\n        /* \"#utility.yul\":15130:15131   */\n      0x04\n        /* \"#utility.yul\":15123:15138   */\n      mstore\n        /* \"#utility.yul\":15157:15161   */\n      0x24\n        /* \"#utility.yul\":15154:15155   */\n      0x00\n        /* \"#utility.yul\":15147:15162   */\n      revert\n        /* \"#utility.yul\":15174:15407   */\n    tag_103:\n        /* \"#utility.yul\":15213:15216   */\n      0x00\n        /* \"#utility.yul\":15236:15260   */\n      tag_367\n        /* \"#utility.yul\":15254:15259   */\n      dup3\n        /* \"#utility.yul\":15236:15260   */\n      tag_183\n      jump\t// in\n    tag_367:\n        /* \"#utility.yul\":15227:15260   */\n      swap2\n      pop\n        /* \"#utility.yul\":15282:15348   */\n      0xffffffffffffffffffffffffffffffffffffffffffffffffffffffffffffffff\n        /* \"#utility.yul\":15275:15280   */\n      dup3\n        /* \"#utility.yul\":15272:15349   */\n      eq\n        /* \"#utility.yul\":15269:15372   */\n      iszero\n      tag_368\n      jumpi\n        /* \"#utility.yul\":15352:15370   */\n      tag_369\n      tag_218\n      jump\t// in\n    tag_369:\n        /* \"#utility.yul\":15269:15372   */\n    tag_368:\n        /* \"#utility.yul\":15399:15400   */\n      0x01\n        /* \"#utility.yul\":15392:15397   */\n      dup3\n        /* \"#utility.yul\":15388:15401   */\n      add\n        /* \"#utility.yul\":15381:15401   */\n      swap1\n      pop\n        /* \"#utility.yul\":15174:15407   */\n      swap2\n      swap1\n      pop\n      jump\t// out\n        /* \"#utility.yul\":15413:15593   */\n    tag_219:\n        /* \"#utility.yul\":15461:15538   */\n      0x4e487b7100000000000000000000000000000000000000000000000000000000\n        /* \"#utility.yul\":15458:15459   */\n      0x00\n        /* \"#utility.yul\":15451:15539   */\n      mstore\n        /* \"#utility.yul\":15558:15562   */\n      0x12\n        /* \"#utility.yul\":15555:15556   */\n      0x04\n        /* \"#utility.yul\":15548:15563   */\n      mstore\n        /* \"#utility.yul\":15582:15586   */\n      0x24\n        /* \"#utility.yul\":15579:15580   */\n      0x00\n        /* \"#utility.yul\":15572:15587   */\n      revert\n        /* \"#utility.yul\":15599:15784   */\n    tag_116:\n        /* \"#utility.yul\":15639:15640   */\n      0x00\n        /* \"#utility.yul\":15656:15676   */\n      tag_372\n        /* \"#utility.yul\":15674:15675   */\n      dup3\n        /* \"#utility.yul\":15656:15676   */\n      tag_183\n      jump\t// in\n    tag_372:\n        /* \"#utility.yul\":15651:15676   */\n      swap2\n      pop\n        /* \"#utility.yul\":15690:15710   */\n      tag_373\n        /* \"#utility.yul\":15708:15709   */\n      dup4\n        /* \"#utility.yul\":15690:15710   */\n      tag_183\n      jump\t// in\n    tag_373:\n        /* \"#utility.yul\":15685:15710   */\n      swap3\n      pop\n        /* \"#utility.yul\":15729:15730   */\n      dup3\n        /* \"#utility.yul\":15719:15754   */\n      tag_374\n      jumpi\n        /* \"#utility.yul\":15734:15752   */\n      tag_375\n      tag_219\n      jump\t// in\n    tag_375:\n        /* \"#utility.yul\":15719:15754   */\n    tag_374:\n        /* \"#utility.yul\":15776:15777   */\n      dup3\n        /* \"#utility.yul\":15773:15774   */\n      dup3\n        /* \"#utility.yul\":15769:15778   */\n      div\n        /* \"#utility.yul\":15764:15778   */\n      swap1\n      pop\n        /* \"#utility.yul\":15599:15784   */\n      swap3\n      swap2\n      pop\n      pop\n      jump\t// out\n\n    auxdata: 0xa2646970667358221220b6b60ac96dc87a1c0fd07d0911cbc29e4e2fadd5a7ce5bbd09a711de9edefa6264736f6c63430008090033\n}\n","bytecode":{"linkReferences":{},"object":"608060405234801561001057600080fd5b5033600860006101000a81548173ffffffffffffffffffffffffffffffffffffffff021916908373ffffffffffffffffffffffffffffffffffffffff160217905550600a6000815480929190610065906100a8565b91905055506100f1565b7f4e487b7100000000000000000000000000000000000000000000000000000000600052601160045260246000fd5b6000819050919050565b60006100b38261009e565b91507fffffffffffffffffffffffffffffffffffffffffffffffffffffffffffffffff8214156100e6576100e561006f565b5b600182019050919050565b6117dd80620001016000396000f3fe60806040526004361061009c5760003560e01c806378880f4a1161006457806378880f4a146101835780638da5cb5b146101ae578063a5f7542a146101d9578063a888c2cd146101f5578063af157c1914610239578063ec729859146102645761009c565b80630defc08a146100a157806339e77905146100d35780633cb5d100146100fe57806346e301351461013e57806364f745a714610167575b600080fd5b3480156100ad57600080fd5b506100b661028d565b6040516100ca98979695949392919061106f565b60405180910390f35b3480156100df57600080fd5b506100e86104a8565b6040516100f59190611102565b60405180910390f35b34801561010a57600080fd5b506101256004803603810190610120919061115d565b6104b5565b604051610135949392919061118a565b60405180910390f35b34801561014a57600080fd5b506101656004803603810190610160919061115d565b61059d565b005b610181600480360381019061017c919061130b565b6106d0565b005b34801561018f57600080fd5b506101986107dd565b6040516101a59190611102565b60405180910390f35b3480156101ba57600080fd5b506101c36107e3565b6040516101d0919061137a565b60405180910390f35b6101f360048036038101906101ee919061115d565b610809565b005b34801561020157600080fd5b5061021c6004803603810190610217919061115d565b6109b6565b60405161023098979695949392919061106f565b60405180910390f35b34801561024557600080fd5b5061024e610bf3565b60405161025b9190611522565b60405180910390f35b34801561027057600080fd5b5061028b60048036038101906102869190611570565b610d4e565b005b600080600001805461029e9061166e565b80601f01602080910402602001604051908101604052809291908181526020018280546102ca9061166e565b80156103175780601f106102ec57610100808354040283529160200191610317565b820191906000526020600020905b8154815290600101906020018083116102fa57829003601f168201915b50505050509080600101805461032c9061166e565b80601f01602080910402602001604051908101604052809291908181526020018280546103589061166e565b80156103a55780601f1061037a576101008083540402835291602001916103a5565b820191906000526020600020905b81548152906001019060200180831161038857829003601f168201915b5050505050908060020180546103ba9061166e565b80601f01602080910402602001604051908101604052809291908181526020018280546103e69061166e565b80156104335780601f1061040857610100808354040283529160200191610433565b820191906000526020600020905b81548152906001019060200180831161041657829003601f168201915b5050505050908060030154908060040160009054906101000a900473ffffffffffffffffffffffffffffffffffffffff16908060050160009054906101000a900473ffffffffffffffffffffffffffffffffffffffff16908060050160149054906101000a900460ff16908060070154905088565b6000600980549050905090565b600981815481106104c557600080fd5b90600052602060002090600402016000915090508060000180546104e89061166e565b80601f01602080910402602001604051908101604052809291908181526020018280546105149061166e565b80156105615780601f1061053657610100808354040283529160200191610561565b820191906000526020600020905b81548152906001019060200180831161054457829003601f168201915b5050505050908060010160009054906101000a900473ffffffffffffffffffffffffffffffffffffffff16908060020154908060030154905084565b600b81815481106105b1576105b06116a0565b5b906000526020600020906008020160060160003373ffffffffffffffffffffffffffffffffffffffff1673ffffffffffffffffffffffffffffffffffffffff16815260200190815260200160002060009054906101000a900460ff161561061757600080fd5b6001600b828154811061062d5761062c6116a0565b5b906000526020600020906008020160060160003373ffffffffffffffffffffffffffffffffffffffff1673ffffffffffffffffffffffffffffffffffffffff16815260200190815260200160002060006101000a81548160ff021916908315150217905550600b81815481106106a6576106a56116a0565b5b906000526020600020906008020160070160008154809291906106c8906116fe565b919050555050565b60013410156106de57600080fd5b600060405180608001604052808581526020013373ffffffffffffffffffffffffffffffffffffffff16815260200184815260200183815250905060098190806001815401808255809150506001900390600052602060002090600402016000909190919091506000820151816000019080519060200190610761929190610ebe565b5060208201518160010160006101000a81548173ffffffffffffffffffffffffffffffffffffffff021916908373ffffffffffffffffffffffffffffffffffffffff16021790555060408201518160020155606082015181600301555050600a60008154809291906107d2906116fe565b919050555050505050565b600a5481565b600860009054906101000a900473ffffffffffffffffffffffffffffffffffffffff1681565b600b818154811061081d5761081c6116a0565b5b906000526020600020906008020160040160009054906101000a900473ffffffffffffffffffffffffffffffffffffffff1673ffffffffffffffffffffffffffffffffffffffff163373ffffffffffffffffffffffffffffffffffffffff161461088657600080fd5b6002600a546108959190611776565b600b82815481106108a9576108a86116a0565b5b906000526020600020906008020160070154116108c557600080fd5b600b81815481106108d9576108d86116a0565b5b906000526020600020906008020160050160149054906101000a900460ff161561090257600080fd5b600b8181548110610916576109156116a0565b5b906000526020600020906008020160050160009054906101000a900473ffffffffffffffffffffffffffffffffffffffff1673ffffffffffffffffffffffffffffffffffffffff166108fc600b8381548110610975576109746116a0565b5b9060005260206000209060080201600301549081150290604051600060405180830381858888f193505050501580156109b2573d6000803e3d6000fd5b5050565b600b81815481106109c657600080fd5b90600052602060002090600802016000915090508060000180546109e99061166e565b80601f0160208091040260200160405190810160405280929190818152602001828054610a159061166e565b8015610a625780601f10610a3757610100808354040283529160200191610a62565b820191906000526020600020905b815481529060010190602001808311610a4557829003601f168201915b505050505090806001018054610a779061166e565b80601f0160208091040260200160405190810160405280929190818152602001828054610aa39061166e565b8015610af05780601f10610ac557610100808354040283529160200191610af0565b820191906000526020600020905b815481529060010190602001808311610ad357829003601f168201915b505050505090806002018054610b059061166e565b80601f0160208091040260200160405190810160405280929190818152602001828054610b319061166e565b8015610b7e5780601f10610b5357610100808354040283529160200191610b7e565b820191906000526020600020905b815481529060010190602001808311610b6157829003601f168201915b5050505050908060030154908060040160009054906101000a900473ffffffffffffffffffffffffffffffffffffffff16908060050160009054906101000a900473ffffffffffffffffffffffffffffffffffffffff16908060050160149054906101000a900460ff16908060070154905088565b60606009805480602002602001604051908101604052809291908181526020016000905b82821015610d455783829060005260206000209060040201604051806080016040529081600082018054610c4a9061166e565b80601f0160208091040260200160405190810160405280929190818152602001828054610c769061166e565b8015610cc35780601f10610c9857610100808354040283529160200191610cc3565b820191906000526020600020905b815481529060010190602001808311610ca657829003601f168201915b505050505081526020016001820160009054906101000a900473ffffffffffffffffffffffffffffffffffffffff1673ffffffffffffffffffffffffffffffffffffffff1673ffffffffffffffffffffffffffffffffffffffff1681526020016002820154815260200160038201548152505081526020019060010190610c17565b50505050905090565b6000600b805490509050600b600181600181540180825580915050039060005260206000209050506000600b8281548110610d8c57610d8b6116a0565b5b9060005260206000209060080201905086816000019080519060200190610db4929190610ebe565b5085816001019080519060200190610dcd929190610ebe565b5084816002019080519060200190610de6929190610ebe565b50838160030181905550338160040160006101000a81548173ffffffffffffffffffffffffffffffffffffffff021916908373ffffffffffffffffffffffffffffffffffffffff160217905550828160050160006101000a81548173ffffffffffffffffffffffffffffffffffffffff021916908373ffffffffffffffffffffffffffffffffffffffff16021790555060008160050160146101000a81548160ff02191690831515021790555060008160070181905550600a6000815480929190610eb0906116fe565b919050555050505050505050565b828054610eca9061166e565b90600052602060002090601f016020900481019282610eec5760008555610f33565b82601f10610f0557805160ff1916838001178555610f33565b82800160010185558215610f33579182015b82811115610f32578251825591602001919060010190610f17565b5b509050610f409190610f44565b5090565b5b80821115610f5d576000816000905550600101610f45565b5090565b600081519050919050565b600082825260208201905092915050565b60005b83811015610f9b578082015181840152602081019050610f80565b83811115610faa576000848401525b50505050565b6000601f19601f8301169050919050565b6000610fcc82610f61565b610fd68185610f6c565b9350610fe6818560208601610f7d565b610fef81610fb0565b840191505092915050565b6000819050919050565b61100d81610ffa565b82525050565b600073ffffffffffffffffffffffffffffffffffffffff82169050919050565b600061103e82611013565b9050919050565b61104e81611033565b82525050565b60008115159050919050565b61106981611054565b82525050565b600061010082019050818103600083015261108a818b610fc1565b9050818103602083015261109e818a610fc1565b905081810360408301526110b28189610fc1565b90506110c16060830188611004565b6110ce6080830187611045565b6110db60a0830186611045565b6110e860c0830185611060565b6110f560e0830184611004565b9998505050505050505050565b60006020820190506111176000830184611004565b92915050565b6000604051905090565b600080fd5b600080fd5b61113a81610ffa565b811461114557600080fd5b50565b60008135905061115781611131565b92915050565b60006020828403121561117357611172611127565b5b600061118184828501611148565b91505092915050565b600060808201905081810360008301526111a48187610fc1565b90506111b36020830186611045565b6111c06040830185611004565b6111cd6060830184611004565b95945050505050565b600080fd5b600080fd5b7f4e487b7100000000000000000000000000000000000000000000000000000000600052604160045260246000fd5b61121882610fb0565b810181811067ffffffffffffffff82111715611237576112366111e0565b5b80604052505050565b600061124a61111d565b9050611256828261120f565b919050565b600067ffffffffffffffff821115611276576112756111e0565b5b61127f82610fb0565b9050602081019050919050565b82818337600083830152505050565b60006112ae6112a98461125b565b611240565b9050828152602081018484840111156112ca576112c96111db565b5b6112d584828561128c565b509392505050565b600082601f8301126112f2576112f16111d6565b5b813561130284826020860161129b565b91505092915050565b60008060006060848603121561132457611323611127565b5b600084013567ffffffffffffffff8111156113425761134161112c565b5b61134e868287016112dd565b935050602061135f86828701611148565b925050604061137086828701611148565b9150509250925092565b600060208201905061138f6000830184611045565b92915050565b600081519050919050565b600082825260208201905092915050565b6000819050602082019050919050565b600082825260208201905092915050565b60006113dd82610f61565b6113e781856113c1565b93506113f7818560208601610f7d565b61140081610fb0565b840191505092915050565b61141481611033565b82525050565b61142381610ffa565b82525050565b6000608083016000830151848203600086015261144682826113d2565b915050602083015161145b602086018261140b565b50604083015161146e604086018261141a565b506060830151611481606086018261141a565b508091505092915050565b60006114988383611429565b905092915050565b6000602082019050919050565b60006114b882611395565b6114c281856113a0565b9350836020820285016114d4856113b1565b8060005b8581101561151057848403895281516114f1858261148c565b94506114fc836114a0565b925060208a019950506001810190506114d8565b50829750879550505050505092915050565b6000602082019050818103600083015261153c81846114ad565b905092915050565b61154d81611033565b811461155857600080fd5b50565b60008135905061156a81611544565b92915050565b600080600080600060a0868803121561158c5761158b611127565b5b600086013567ffffffffffffffff8111156115aa576115a961112c565b5b6115b6888289016112dd565b955050602086013567ffffffffffffffff8111156115d7576115d661112c565b5b6115e3888289016112dd565b945050604086013567ffffffffffffffff8111156116045761160361112c565b5b611610888289016112dd565b935050606061162188828901611148565b92505060806116328882890161155b565b9150509295509295909350565b7f4e487b7100000000000000000000000000000000000000000000000000000000600052602260045260246000fd5b6000600282049050600182168061168657607f821691505b6020821081141561169a5761169961163f565b5b50919050565b7f4e487b7100000000000000000000000000000000000000000000000000000000600052603260045260246000fd5b7f4e487b7100000000000000000000000000000000000000000000000000000000600052601160045260246000fd5b600061170982610ffa565b91507fffffffffffffffffffffffffffffffffffffffffffffffffffffffffffffffff82141561173c5761173b6116cf565b5b600182019050919050565b7f4e487b7100000000000000000000000000000000000000000000000000000000600052601260045260246000fd5b600061178182610ffa565b915061178c83610ffa565b92508261179c5761179b611747565b5b82820490509291505056fea2646970667358221220b6b60ac96dc87a1c0fd07d0911cbc29e4e2fadd5a7ce5bbd09a711de9edefa6264736f6c63430008090033","opcodes":"PUSH1 0x80 PUSH1 0x40 MSTORE CALLVALUE DUP1 ISZERO PUSH2 0x10 JUMPI PUSH1 0x0 DUP1 REVERT JUMPDEST POP CALLER PUSH1 0x8 PUSH1 0x0 PUSH2 0x100 EXP DUP2 SLOAD DUP2 PUSH20 0xFFFFFFFFFFFFFFFFFFFFFFFFFFFFFFFFFFFFFFFF MUL NOT AND SWAP1 DUP4 PUSH20 0xFFFFFFFFFFFFFFFFFFFFFFFFFFFFFFFFFFFFFFFF AND MUL OR SWAP1 SSTORE POP PUSH1 0xA PUSH1 0x0 DUP2 SLOAD DUP1 SWAP3 SWAP2 SWAP1 PUSH2 0x65 SWAP1 PUSH2 0xA8 JUMP JUMPDEST SWAP2 SWAP1 POP SSTORE POP PUSH2 0xF1 JUMP JUMPDEST PUSH32 0x4E487B7100000000000000000000000000000000000000000000000000000000 PUSH1 0x0 MSTORE PUSH1 0x11 PUSH1 0x4 MSTORE PUSH1 0x24 PUSH1 0x0 REVERT JUMPDEST PUSH1 0x0 DUP2 SWAP1 POP SWAP2 SWAP1 POP JUMP JUMPDEST PUSH1 0x0 PUSH2 0xB3 DUP3 PUSH2 0x9E JUMP JUMPDEST SWAP2 POP PUSH32 0xFFFFFFFFFFFFFFFFFFFFFFFFFFFFFFFFFFFFFFFFFFFFFFFFFFFFFFFFFFFFFFFF DUP3 EQ ISZERO PUSH2 0xE6 JUMPI PUSH2 0xE5 PUSH2 0x6F JUMP JUMPDEST JUMPDEST PUSH1 0x1 DUP3 ADD SWAP1 POP SWAP2 SWAP1 POP JUMP JUMPDEST PUSH2 0x17DD DUP1 PUSH3 0x101 PUSH1 0x0 CODECOPY PUSH1 0x0 RETURN INVALID PUSH1 0x80 PUSH1 0x40 MSTORE PUSH1 0x4 CALLDATASIZE LT PUSH2 0x9C JUMPI PUSH1 0x0 CALLDATALOAD PUSH1 0xE0 SHR DUP1 PUSH4 0x78880F4A GT PUSH2 0x64 JUMPI DUP1 PUSH4 0x78880F4A EQ PUSH2 0x183 JUMPI DUP1 PUSH4 0x8DA5CB5B EQ PUSH2 0x1AE JUMPI DUP1 PUSH4 0xA5F7542A EQ PUSH2 0x1D9 JUMPI DUP1 PUSH4 0xA888C2CD EQ PUSH2 0x1F5 JUMPI DUP1 PUSH4 0xAF157C19 EQ PUSH2 0x239 JUMPI DUP1 PUSH4 0xEC729859 EQ PUSH2 0x264 JUMPI PUSH2 0x9C JUMP JUMPDEST DUP1 PUSH4 0xDEFC08A EQ PUSH2 0xA1 JUMPI DUP1 PUSH4 0x39E77905 EQ PUSH2 0xD3 JUMPI DUP1 PUSH4 0x3CB5D100 EQ PUSH2 0xFE JUMPI DUP1 PUSH4 0x46E30135 EQ PUSH2 0x13E JUMPI DUP1 PUSH4 0x64F745A7 EQ PUSH2 0x167 JUMPI JUMPDEST PUSH1 0x0 DUP1 REVERT JUMPDEST CALLVALUE DUP1 ISZERO PUSH2 0xAD JUMPI PUSH1 0x0 DUP1 REVERT JUMPDEST POP PUSH2 0xB6 PUSH2 0x28D JUMP JUMPDEST PUSH1 0x40 MLOAD PUSH2 0xCA SWAP9 SWAP8 SWAP7 SWAP6 SWAP5 SWAP4 SWAP3 SWAP2 SWAP1 PUSH2 0x106F JUMP JUMPDEST PUSH1 0x40 MLOAD DUP1 SWAP2 SUB SWAP1 RETURN JUMPDEST CALLVALUE DUP1 ISZERO PUSH2 0xDF JUMPI PUSH1 0x0 DUP1 REVERT JUMPDEST POP PUSH2 0xE8 PUSH2 0x4A8 JUMP JUMPDEST PUSH1 0x40 MLOAD PUSH2 0xF5 SWAP2 SWAP1 PUSH2 0x1102 JUMP JUMPDEST PUSH1 0x40 MLOAD DUP1 SWAP2 SUB SWAP1 RETURN JUMPDEST CALLVALUE DUP1 ISZERO PUSH2 0x10A JUMPI PUSH1 0x0 DUP1 REVERT JUMPDEST POP PUSH2 0x125 PUSH1 0x4 DUP1 CALLDATASIZE SUB DUP2 ADD SWAP1 PUSH2 0x120 SWAP2 SWAP1 PUSH2 0x115D JUMP JUMPDEST PUSH2 0x4B5 JUMP JUMPDEST PUSH1 0x40 MLOAD PUSH2 0x135 SWAP5 SWAP4 SWAP3 SWAP2 SWAP1 PUSH2 0x118A JUMP JUMPDEST PUSH1 0x40 MLOAD DUP1 SWAP2 SUB SWAP1 RETURN JUMPDEST CALLVALUE DUP1 ISZERO PUSH2 0x14A JUMPI PUSH1 0x0 DUP1 REVERT JUMPDEST POP PUSH2 0x165 PUSH1 0x4 DUP1 CALLDATASIZE SUB DUP2 ADD SWAP1 PUSH2 0x160 SWAP2 SWAP1 PUSH2 0x115D JUMP JUMPDEST PUSH2 0x59D JUMP JUMPDEST STOP JUMPDEST PUSH2 0x181 PUSH1 0x4 DUP1 CALLDATASIZE SUB DUP2 ADD SWAP1 PUSH2 0x17C SWAP2 SWAP1 PUSH2 0x130B JUMP JUMPDEST PUSH2 0x6D0 JUMP JUMPDEST STOP JUMPDEST CALLVALUE DUP1 ISZERO PUSH2 0x18F JUMPI PUSH1 0x0 DUP1 REVERT JUMPDEST POP PUSH2 0x198 PUSH2 0x7DD JUMP JUMPDEST PUSH1 0x40 MLOAD PUSH2 0x1A5 SWAP2 SWAP1 PUSH2 0x1102 JUMP JUMPDEST PUSH1 0x40 MLOAD DUP1 SWAP2 SUB SWAP1 RETURN JUMPDEST CALLVALUE DUP1 ISZERO PUSH2 0x1BA JUMPI PUSH1 0x0 DUP1 REVERT JUMPDEST POP PUSH2 0x1C3 PUSH2 0x7E3 JUMP JUMPDEST PUSH1 0x40 MLOAD PUSH2 0x1D0 SWAP2 SWAP1 PUSH2 0x137A JUMP JUMPDEST PUSH1 0x40 MLOAD DUP1 SWAP2 SUB SWAP1 RETURN JUMPDEST PUSH2 0x1F3 PUSH1 0x4 DUP1 CALLDATASIZE SUB DUP2 ADD SWAP1 PUSH2 0x1EE SWAP2 SWAP1 PUSH2 0x115D JUMP JUMPDEST PUSH2 0x809 JUMP JUMPDEST STOP JUMPDEST CALLVALUE DUP1 ISZERO PUSH2 0x201 JUMPI PUSH1 0x0 DUP1 REVERT JUMPDEST POP PUSH2 0x21C PUSH1 0x4 DUP1 CALLDATASIZE SUB DUP2 ADD SWAP1 PUSH2 0x217 SWAP2 SWAP1 PUSH2 0x115D JUMP JUMPDEST PUSH2 0x9B6 JUMP JUMPDEST PUSH1 0x40 MLOAD PUSH2 0x230 SWAP9 SWAP8 SWAP7 SWAP6 SWAP5 SWAP4 SWAP3 SWAP2 SWAP1 PUSH2 0x106F JUMP JUMPDEST PUSH1 0x40 MLOAD DUP1 SWAP2 SUB SWAP1 RETURN JUMPDEST CALLVALUE DUP1 ISZERO PUSH2 0x245 JUMPI PUSH1 0x0 DUP1 REVERT JUMPDEST POP PUSH2 0x24E PUSH2 0xBF3 JUMP JUMPDEST PUSH1 0x40 MLOAD PUSH2 0x25B SWAP2 SWAP1 PUSH2 0x1522 JUMP JUMPDEST PUSH1 0x40 MLOAD DUP1 SWAP2 SUB SWAP1 RETURN JUMPDEST CALLVALUE DUP1 ISZERO PUSH2 0x270 JUMPI PUSH1 0x0 DUP1 REVERT JUMPDEST POP PUSH2 0x28B PUSH1 0x4 DUP1 CALLDATASIZE SUB DUP2 ADD SWAP1 PUSH2 0x286 SWAP2 SWAP1 PUSH2 0x1570 JUMP JUMPDEST PUSH2 0xD4E JUMP JUMPDEST STOP JUMPDEST PUSH1 0x0 DUP1 PUSH1 0x0 ADD DUP1 SLOAD PUSH2 0x29E SWAP1 PUSH2 0x166E JUMP JUMPDEST DUP1 PUSH1 0x1F ADD PUSH1 0x20 DUP1 SWAP2 DIV MUL PUSH1 0x20 ADD PUSH1 0x40 MLOAD SWAP1 DUP2 ADD PUSH1 0x40 MSTORE DUP1 SWAP3 SWAP2 SWAP1 DUP2 DUP2 MSTORE PUSH1 0x20 ADD DUP3 DUP1 SLOAD PUSH2 0x2CA SWAP1 PUSH2 0x166E JUMP JUMPDEST DUP1 ISZERO PUSH2 0x317 JUMPI DUP1 PUSH1 0x1F LT PUSH2 0x2EC JUMPI PUSH2 0x100 DUP1 DUP4 SLOAD DIV MUL DUP4 MSTORE SWAP2 PUSH1 0x20 ADD SWAP2 PUSH2 0x317 JUMP JUMPDEST DUP3 ADD SWAP2 SWAP1 PUSH1 0x0 MSTORE PUSH1 0x20 PUSH1 0x0 KECCAK256 SWAP1 JUMPDEST DUP2 SLOAD DUP2 MSTORE SWAP1 PUSH1 0x1 ADD SWAP1 PUSH1 0x20 ADD DUP1 DUP4 GT PUSH2 0x2FA JUMPI DUP3 SWAP1 SUB PUSH1 0x1F AND DUP3 ADD SWAP2 JUMPDEST POP POP POP POP POP SWAP1 DUP1 PUSH1 0x1 ADD DUP1 SLOAD PUSH2 0x32C SWAP1 PUSH2 0x166E JUMP JUMPDEST DUP1 PUSH1 0x1F ADD PUSH1 0x20 DUP1 SWAP2 DIV MUL PUSH1 0x20 ADD PUSH1 0x40 MLOAD SWAP1 DUP2 ADD PUSH1 0x40 MSTORE DUP1 SWAP3 SWAP2 SWAP1 DUP2 DUP2 MSTORE PUSH1 0x20 ADD DUP3 DUP1 SLOAD PUSH2 0x358 SWAP1 PUSH2 0x166E JUMP JUMPDEST DUP1 ISZERO PUSH2 0x3A5 JUMPI DUP1 PUSH1 0x1F LT PUSH2 0x37A JUMPI PUSH2 0x100 DUP1 DUP4 SLOAD DIV MUL DUP4 MSTORE SWAP2 PUSH1 0x20 ADD SWAP2 PUSH2 0x3A5 JUMP JUMPDEST DUP3 ADD SWAP2 SWAP1 PUSH1 0x0 MSTORE PUSH1 0x20 PUSH1 0x0 KECCAK256 SWAP1 JUMPDEST DUP2 SLOAD DUP2 MSTORE SWAP1 PUSH1 0x1 ADD SWAP1 PUSH1 0x20 ADD DUP1 DUP4 GT PUSH2 0x388 JUMPI DUP3 SWAP1 SUB PUSH1 0x1F AND DUP3 ADD SWAP2 JUMPDEST POP POP POP POP POP SWAP1 DUP1 PUSH1 0x2 ADD DUP1 SLOAD PUSH2 0x3BA SWAP1 PUSH2 0x166E JUMP JUMPDEST DUP1 PUSH1 0x1F ADD PUSH1 0x20 DUP1 SWAP2 DIV MUL PUSH1 0x20 ADD PUSH1 0x40 MLOAD SWAP1 DUP2 ADD PUSH1 0x40 MSTORE DUP1 SWAP3 SWAP2 SWAP1 DUP2 DUP2 MSTORE PUSH1 0x20 ADD DUP3 DUP1 SLOAD PUSH2 0x3E6 SWAP1 PUSH2 0x166E JUMP JUMPDEST DUP1 ISZERO PUSH2 0x433 JUMPI DUP1 PUSH1 0x1F LT PUSH2 0x408 JUMPI PUSH2 0x100 DUP1 DUP4 SLOAD DIV MUL DUP4 MSTORE SWAP2 PUSH1 0x20 ADD SWAP2 PUSH2 0x433 JUMP JUMPDEST DUP3 ADD SWAP2 SWAP1 PUSH1 0x0 MSTORE PUSH1 0x20 PUSH1 0x0 KECCAK256 SWAP1 JUMPDEST DUP2 SLOAD DUP2 MSTORE SWAP1 PUSH1 0x1 ADD SWAP1 PUSH1 0x20 ADD DUP1 DUP4 GT PUSH2 0x416 JUMPI DUP3 SWAP1 SUB PUSH1 0x1F AND DUP3 ADD SWAP2 JUMPDEST POP POP POP POP POP SWAP1 DUP1 PUSH1 0x3 ADD SLOAD SWAP1 DUP1 PUSH1 0x4 ADD PUSH1 0x0 SWAP1 SLOAD SWAP1 PUSH2 0x100 EXP SWAP1 DIV PUSH20 0xFFFFFFFFFFFFFFFFFFFFFFFFFFFFFFFFFFFFFFFF AND SWAP1 DUP1 PUSH1 0x5 ADD PUSH1 0x0 SWAP1 SLOAD SWAP1 PUSH2 0x100 EXP SWAP1 DIV PUSH20 0xFFFFFFFFFFFFFFFFFFFFFFFFFFFFFFFFFFFFFFFF AND SWAP1 DUP1 PUSH1 0x5 ADD PUSH1 0x14 SWAP1 SLOAD SWAP1 PUSH2 0x100 EXP SWAP1 DIV PUSH1 0xFF AND SWAP1 DUP1 PUSH1 0x7 ADD SLOAD SWAP1 POP DUP9 JUMP JUMPDEST PUSH1 0x0 PUSH1 0x9 DUP1 SLOAD SWAP1 POP SWAP1 POP SWAP1 JUMP JUMPDEST PUSH1 0x9 DUP2 DUP2 SLOAD DUP2 LT PUSH2 0x4C5 JUMPI PUSH1 0x0 DUP1 REVERT JUMPDEST SWAP1 PUSH1 0x0 MSTORE PUSH1 0x20 PUSH1 0x0 KECCAK256 SWAP1 PUSH1 0x4 MUL ADD PUSH1 0x0 SWAP2 POP SWAP1 POP DUP1 PUSH1 0x0 ADD DUP1 SLOAD PUSH2 0x4E8 SWAP1 PUSH2 0x166E JUMP JUMPDEST DUP1 PUSH1 0x1F ADD PUSH1 0x20 DUP1 SWAP2 DIV MUL PUSH1 0x20 ADD PUSH1 0x40 MLOAD SWAP1 DUP2 ADD PUSH1 0x40 MSTORE DUP1 SWAP3 SWAP2 SWAP1 DUP2 DUP2 MSTORE PUSH1 0x20 ADD DUP3 DUP1 SLOAD PUSH2 0x514 SWAP1 PUSH2 0x166E JUMP JUMPDEST DUP1 ISZERO PUSH2 0x561 JUMPI DUP1 PUSH1 0x1F LT PUSH2 0x536 JUMPI PUSH2 0x100 DUP1 DUP4 SLOAD DIV MUL DUP4 MSTORE SWAP2 PUSH1 0x20 ADD SWAP2 PUSH2 0x561 JUMP JUMPDEST DUP3 ADD SWAP2 SWAP1 PUSH1 0x0 MSTORE PUSH1 0x20 PUSH1 0x0 KECCAK256 SWAP1 JUMPDEST DUP2 SLOAD DUP2 MSTORE SWAP1 PUSH1 0x1 ADD SWAP1 PUSH1 0x20 ADD DUP1 DUP4 GT PUSH2 0x544 JUMPI DUP3 SWAP1 SUB PUSH1 0x1F AND DUP3 ADD SWAP2 JUMPDEST POP POP POP POP POP SWAP1 DUP1 PUSH1 0x1 ADD PUSH1 0x0 SWAP1 SLOAD SWAP1 PUSH2 0x100 EXP SWAP1 DIV PUSH20 0xFFFFFFFFFFFFFFFFFFFFFFFFFFFFFFFFFFFFFFFF AND SWAP1 DUP1 PUSH1 0x2 ADD SLOAD SWAP1 DUP1 PUSH1 0x3 ADD SLOAD SWAP1 POP DUP5 JUMP JUMPDEST PUSH1 0xB DUP2 DUP2 SLOAD DUP2 LT PUSH2 0x5B1 JUMPI PUSH2 0x5B0 PUSH2 0x16A0 JUMP JUMPDEST JUMPDEST SWAP1 PUSH1 0x0 MSTORE PUSH1 0x20 PUSH1 0x0 KECCAK256 SWAP1 PUSH1 0x8 MUL ADD PUSH1 0x6 ADD PUSH1 0x0 CALLER PUSH20 0xFFFFFFFFFFFFFFFFFFFFFFFFFFFFFFFFFFFFFFFF AND PUSH20 0xFFFFFFFFFFFFFFFFFFFFFFFFFFFFFFFFFFFFFFFF AND DUP2 MSTORE PUSH1 0x20 ADD SWAP1 DUP2 MSTORE PUSH1 0x20 ADD PUSH1 0x0 KECCAK256 PUSH1 0x0 SWAP1 SLOAD SWAP1 PUSH2 0x100 EXP SWAP1 DIV PUSH1 0xFF AND ISZERO PUSH2 0x617 JUMPI PUSH1 0x0 DUP1 REVERT JUMPDEST PUSH1 0x1 PUSH1 0xB DUP3 DUP2 SLOAD DUP2 LT PUSH2 0x62D JUMPI PUSH2 0x62C PUSH2 0x16A0 JUMP JUMPDEST JUMPDEST SWAP1 PUSH1 0x0 MSTORE PUSH1 0x20 PUSH1 0x0 KECCAK256 SWAP1 PUSH1 0x8 MUL ADD PUSH1 0x6 ADD PUSH1 0x0 CALLER PUSH20 0xFFFFFFFFFFFFFFFFFFFFFFFFFFFFFFFFFFFFFFFF AND PUSH20 0xFFFFFFFFFFFFFFFFFFFFFFFFFFFFFFFFFFFFFFFF AND DUP2 MSTORE PUSH1 0x20 ADD SWAP1 DUP2 MSTORE PUSH1 0x20 ADD PUSH1 0x0 KECCAK256 PUSH1 0x0 PUSH2 0x100 EXP DUP2 SLOAD DUP2 PUSH1 0xFF MUL NOT AND SWAP1 DUP4 ISZERO ISZERO MUL OR SWAP1 SSTORE POP PUSH1 0xB DUP2 DUP2 SLOAD DUP2 LT PUSH2 0x6A6 JUMPI PUSH2 0x6A5 PUSH2 0x16A0 JUMP JUMPDEST JUMPDEST SWAP1 PUSH1 0x0 MSTORE PUSH1 0x20 PUSH1 0x0 KECCAK256 SWAP1 PUSH1 0x8 MUL ADD PUSH1 0x7 ADD PUSH1 0x0 DUP2 SLOAD DUP1 SWAP3 SWAP2 SWAP1 PUSH2 0x6C8 SWAP1 PUSH2 0x16FE JUMP JUMPDEST SWAP2 SWAP1 POP SSTORE POP POP JUMP JUMPDEST PUSH1 0x1 CALLVALUE LT ISZERO PUSH2 0x6DE JUMPI PUSH1 0x0 DUP1 REVERT JUMPDEST PUSH1 0x0 PUSH1 0x40 MLOAD DUP1 PUSH1 0x80 ADD PUSH1 0x40 MSTORE DUP1 DUP6 DUP2 MSTORE PUSH1 0x20 ADD CALLER PUSH20 0xFFFFFFFFFFFFFFFFFFFFFFFFFFFFFFFFFFFFFFFF AND DUP2 MSTORE PUSH1 0x20 ADD DUP5 DUP2 MSTORE PUSH1 0x20 ADD DUP4 DUP2 MSTORE POP SWAP1 POP PUSH1 0x9 DUP2 SWAP1 DUP1 PUSH1 0x1 DUP2 SLOAD ADD DUP1 DUP3 SSTORE DUP1 SWAP2 POP POP PUSH1 0x1 SWAP1 SUB SWAP1 PUSH1 0x0 MSTORE PUSH1 0x20 PUSH1 0x0 KECCAK256 SWAP1 PUSH1 0x4 MUL ADD PUSH1 0x0 SWAP1 SWAP2 SWAP1 SWAP2 SWAP1 SWAP2 POP PUSH1 0x0 DUP3 ADD MLOAD DUP2 PUSH1 0x0 ADD SWAP1 DUP1 MLOAD SWAP1 PUSH1 0x20 ADD SWAP1 PUSH2 0x761 SWAP3 SWAP2 SWAP1 PUSH2 0xEBE JUMP JUMPDEST POP PUSH1 0x20 DUP3 ADD MLOAD DUP2 PUSH1 0x1 ADD PUSH1 0x0 PUSH2 0x100 EXP DUP2 SLOAD DUP2 PUSH20 0xFFFFFFFFFFFFFFFFFFFFFFFFFFFFFFFFFFFFFFFF MUL NOT AND SWAP1 DUP4 PUSH20 0xFFFFFFFFFFFFFFFFFFFFFFFFFFFFFFFFFFFFFFFF AND MUL OR SWAP1 SSTORE POP PUSH1 0x40 DUP3 ADD MLOAD DUP2 PUSH1 0x2 ADD SSTORE PUSH1 0x60 DUP3 ADD MLOAD DUP2 PUSH1 0x3 ADD SSTORE POP POP PUSH1 0xA PUSH1 0x0 DUP2 SLOAD DUP1 SWAP3 SWAP2 SWAP1 PUSH2 0x7D2 SWAP1 PUSH2 0x16FE JUMP JUMPDEST SWAP2 SWAP1 POP SSTORE POP POP POP POP POP JUMP JUMPDEST PUSH1 0xA SLOAD DUP2 JUMP JUMPDEST PUSH1 0x8 PUSH1 0x0 SWAP1 SLOAD SWAP1 PUSH2 0x100 EXP SWAP1 DIV PUSH20 0xFFFFFFFFFFFFFFFFFFFFFFFFFFFFFFFFFFFFFFFF AND DUP2 JUMP JUMPDEST PUSH1 0xB DUP2 DUP2 SLOAD DUP2 LT PUSH2 0x81D JUMPI PUSH2 0x81C PUSH2 0x16A0 JUMP JUMPDEST JUMPDEST SWAP1 PUSH1 0x0 MSTORE PUSH1 0x20 PUSH1 0x0 KECCAK256 SWAP1 PUSH1 0x8 MUL ADD PUSH1 0x4 ADD PUSH1 0x0 SWAP1 SLOAD SWAP1 PUSH2 0x100 EXP SWAP1 DIV PUSH20 0xFFFFFFFFFFFFFFFFFFFFFFFFFFFFFFFFFFFFFFFF AND PUSH20 0xFFFFFFFFFFFFFFFFFFFFFFFFFFFFFFFFFFFFFFFF AND CALLER PUSH20 0xFFFFFFFFFFFFFFFFFFFFFFFFFFFFFFFFFFFFFFFF AND EQ PUSH2 0x886 JUMPI PUSH1 0x0 DUP1 REVERT JUMPDEST PUSH1 0x2 PUSH1 0xA SLOAD PUSH2 0x895 SWAP2 SWAP1 PUSH2 0x1776 JUMP JUMPDEST PUSH1 0xB DUP3 DUP2 SLOAD DUP2 LT PUSH2 0x8A9 JUMPI PUSH2 0x8A8 PUSH2 0x16A0 JUMP JUMPDEST JUMPDEST SWAP1 PUSH1 0x0 MSTORE PUSH1 0x20 PUSH1 0x0 KECCAK256 SWAP1 PUSH1 0x8 MUL ADD PUSH1 0x7 ADD SLOAD GT PUSH2 0x8C5 JUMPI PUSH1 0x0 DUP1 REVERT JUMPDEST PUSH1 0xB DUP2 DUP2 SLOAD DUP2 LT PUSH2 0x8D9 JUMPI PUSH2 0x8D8 PUSH2 0x16A0 JUMP JUMPDEST JUMPDEST SWAP1 PUSH1 0x0 MSTORE PUSH1 0x20 PUSH1 0x0 KECCAK256 SWAP1 PUSH1 0x8 MUL ADD PUSH1 0x5 ADD PUSH1 0x14 SWAP1 SLOAD SWAP1 PUSH2 0x100 EXP SWAP1 DIV PUSH1 0xFF AND ISZERO PUSH2 0x902 JUMPI PUSH1 0x0 DUP1 REVERT JUMPDEST PUSH1 0xB DUP2 DUP2 SLOAD DUP2 LT PUSH2 0x916 JUMPI PUSH2 0x915 PUSH2 0x16A0 JUMP JUMPDEST JUMPDEST SWAP1 PUSH1 0x0 MSTORE PUSH1 0x20 PUSH1 0x0 KECCAK256 SWAP1 PUSH1 0x8 MUL ADD PUSH1 0x5 ADD PUSH1 0x0 SWAP1 SLOAD SWAP1 PUSH2 0x100 EXP SWAP1 DIV PUSH20 0xFFFFFFFFFFFFFFFFFFFFFFFFFFFFFFFFFFFFFFFF AND PUSH20 0xFFFFFFFFFFFFFFFFFFFFFFFFFFFFFFFFFFFFFFFF AND PUSH2 0x8FC PUSH1 0xB DUP4 DUP2 SLOAD DUP2 LT PUSH2 0x975 JUMPI PUSH2 0x974 PUSH2 0x16A0 JUMP JUMPDEST JUMPDEST SWAP1 PUSH1 0x0 MSTORE PUSH1 0x20 PUSH1 0x0 KECCAK256 SWAP1 PUSH1 0x8 MUL ADD PUSH1 0x3 ADD SLOAD SWAP1 DUP2 ISZERO MUL SWAP1 PUSH1 0x40 MLOAD PUSH1 0x0 PUSH1 0x40 MLOAD DUP1 DUP4 SUB DUP2 DUP6 DUP9 DUP9 CALL SWAP4 POP POP POP POP ISZERO DUP1 ISZERO PUSH2 0x9B2 JUMPI RETURNDATASIZE PUSH1 0x0 DUP1 RETURNDATACOPY RETURNDATASIZE PUSH1 0x0 REVERT JUMPDEST POP POP JUMP JUMPDEST PUSH1 0xB DUP2 DUP2 SLOAD DUP2 LT PUSH2 0x9C6 JUMPI PUSH1 0x0 DUP1 REVERT JUMPDEST SWAP1 PUSH1 0x0 MSTORE PUSH1 0x20 PUSH1 0x0 KECCAK256 SWAP1 PUSH1 0x8 MUL ADD PUSH1 0x0 SWAP2 POP SWAP1 POP DUP1 PUSH1 0x0 ADD DUP1 SLOAD PUSH2 0x9E9 SWAP1 PUSH2 0x166E JUMP JUMPDEST DUP1 PUSH1 0x1F ADD PUSH1 0x20 DUP1 SWAP2 DIV MUL PUSH1 0x20 ADD PUSH1 0x40 MLOAD SWAP1 DUP2 ADD PUSH1 0x40 MSTORE DUP1 SWAP3 SWAP2 SWAP1 DUP2 DUP2 MSTORE PUSH1 0x20 ADD DUP3 DUP1 SLOAD PUSH2 0xA15 SWAP1 PUSH2 0x166E JUMP JUMPDEST DUP1 ISZERO PUSH2 0xA62 JUMPI DUP1 PUSH1 0x1F LT PUSH2 0xA37 JUMPI PUSH2 0x100 DUP1 DUP4 SLOAD DIV MUL DUP4 MSTORE SWAP2 PUSH1 0x20 ADD SWAP2 PUSH2 0xA62 JUMP JUMPDEST DUP3 ADD SWAP2 SWAP1 PUSH1 0x0 MSTORE PUSH1 0x20 PUSH1 0x0 KECCAK256 SWAP1 JUMPDEST DUP2 SLOAD DUP2 MSTORE SWAP1 PUSH1 0x1 ADD SWAP1 PUSH1 0x20 ADD DUP1 DUP4 GT PUSH2 0xA45 JUMPI DUP3 SWAP1 SUB PUSH1 0x1F AND DUP3 ADD SWAP2 JUMPDEST POP POP POP POP POP SWAP1 DUP1 PUSH1 0x1 ADD DUP1 SLOAD PUSH2 0xA77 SWAP1 PUSH2 0x166E JUMP JUMPDEST DUP1 PUSH1 0x1F ADD PUSH1 0x20 DUP1 SWAP2 DIV MUL PUSH1 0x20 ADD PUSH1 0x40 MLOAD SWAP1 DUP2 ADD PUSH1 0x40 MSTORE DUP1 SWAP3 SWAP2 SWAP1 DUP2 DUP2 MSTORE PUSH1 0x20 ADD DUP3 DUP1 SLOAD PUSH2 0xAA3 SWAP1 PUSH2 0x166E JUMP JUMPDEST DUP1 ISZERO PUSH2 0xAF0 JUMPI DUP1 PUSH1 0x1F LT PUSH2 0xAC5 JUMPI PUSH2 0x100 DUP1 DUP4 SLOAD DIV MUL DUP4 MSTORE SWAP2 PUSH1 0x20 ADD SWAP2 PUSH2 0xAF0 JUMP JUMPDEST DUP3 ADD SWAP2 SWAP1 PUSH1 0x0 MSTORE PUSH1 0x20 PUSH1 0x0 KECCAK256 SWAP1 JUMPDEST DUP2 SLOAD DUP2 MSTORE SWAP1 PUSH1 0x1 ADD SWAP1 PUSH1 0x20 ADD DUP1 DUP4 GT PUSH2 0xAD3 JUMPI DUP3 SWAP1 SUB PUSH1 0x1F AND DUP3 ADD SWAP2 JUMPDEST POP POP POP POP POP SWAP1 DUP1 PUSH1 0x2 ADD DUP1 SLOAD PUSH2 0xB05 SWAP1 PUSH2 0x166E JUMP JUMPDEST DUP1 PUSH1 0x1F ADD PUSH1 0x20 DUP1 SWAP2 DIV MUL PUSH1 0x20 ADD PUSH1 0x40 MLOAD SWAP1 DUP2 ADD PUSH1 0x40 MSTORE DUP1 SWAP3 SWAP2 SWAP1 DUP2 DUP2 MSTORE PUSH1 0x20 ADD DUP3 DUP1 SLOAD PUSH2 0xB31 SWAP1 PUSH2 0x166E JUMP JUMPDEST DUP1 ISZERO PUSH2 0xB7E JUMPI DUP1 PUSH1 0x1F LT PUSH2 0xB53 JUMPI PUSH2 0x100 DUP1 DUP4 SLOAD DIV MUL DUP4 MSTORE SWAP2 PUSH1 0x20 ADD SWAP2 PUSH2 0xB7E JUMP JUMPDEST DUP3 ADD SWAP2 SWAP1 PUSH1 0x0 MSTORE PUSH1 0x20 PUSH1 0x0 KECCAK256 SWAP1 JUMPDEST DUP2 SLOAD DUP2 MSTORE SWAP1 PUSH1 0x1 ADD SWAP1 PUSH1 0x20 ADD DUP1 DUP4 GT PUSH2 0xB61 JUMPI DUP3 SWAP1 SUB PUSH1 0x1F AND DUP3 ADD SWAP2 JUMPDEST POP POP POP POP POP SWAP1 DUP1 PUSH1 0x3 ADD SLOAD SWAP1 DUP1 PUSH1 0x4 ADD PUSH1 0x0 SWAP1 SLOAD SWAP1 PUSH2 0x100 EXP SWAP1 DIV PUSH20 0xFFFFFFFFFFFFFFFFFFFFFFFFFFFFFFFFFFFFFFFF AND SWAP1 DUP1 PUSH1 0x5 ADD PUSH1 0x0 SWAP1 SLOAD SWAP1 PUSH2 0x100 EXP SWAP1 DIV PUSH20 0xFFFFFFFFFFFFFFFFFFFFFFFFFFFFFFFFFFFFFFFF AND SWAP1 DUP1 PUSH1 0x5 ADD PUSH1 0x14 SWAP1 SLOAD SWAP1 PUSH2 0x100 EXP SWAP1 DIV PUSH1 0xFF AND SWAP1 DUP1 PUSH1 0x7 ADD SLOAD SWAP1 POP DUP9 JUMP JUMPDEST PUSH1 0x60 PUSH1 0x9 DUP1 SLOAD DUP1 PUSH1 0x20 MUL PUSH1 0x20 ADD PUSH1 0x40 MLOAD SWAP1 DUP2 ADD PUSH1 0x40 MSTORE DUP1 SWAP3 SWAP2 SWAP1 DUP2 DUP2 MSTORE PUSH1 0x20 ADD PUSH1 0x0 SWAP1 JUMPDEST DUP3 DUP3 LT ISZERO PUSH2 0xD45 JUMPI DUP4 DUP3 SWAP1 PUSH1 0x0 MSTORE PUSH1 0x20 PUSH1 0x0 KECCAK256 SWAP1 PUSH1 0x4 MUL ADD PUSH1 0x40 MLOAD DUP1 PUSH1 0x80 ADD PUSH1 0x40 MSTORE SWAP1 DUP2 PUSH1 0x0 DUP3 ADD DUP1 SLOAD PUSH2 0xC4A SWAP1 PUSH2 0x166E JUMP JUMPDEST DUP1 PUSH1 0x1F ADD PUSH1 0x20 DUP1 SWAP2 DIV MUL PUSH1 0x20 ADD PUSH1 0x40 MLOAD SWAP1 DUP2 ADD PUSH1 0x40 MSTORE DUP1 SWAP3 SWAP2 SWAP1 DUP2 DUP2 MSTORE PUSH1 0x20 ADD DUP3 DUP1 SLOAD PUSH2 0xC76 SWAP1 PUSH2 0x166E JUMP JUMPDEST DUP1 ISZERO PUSH2 0xCC3 JUMPI DUP1 PUSH1 0x1F LT PUSH2 0xC98 JUMPI PUSH2 0x100 DUP1 DUP4 SLOAD DIV MUL DUP4 MSTORE SWAP2 PUSH1 0x20 ADD SWAP2 PUSH2 0xCC3 JUMP JUMPDEST DUP3 ADD SWAP2 SWAP1 PUSH1 0x0 MSTORE PUSH1 0x20 PUSH1 0x0 KECCAK256 SWAP1 JUMPDEST DUP2 SLOAD DUP2 MSTORE SWAP1 PUSH1 0x1 ADD SWAP1 PUSH1 0x20 ADD DUP1 DUP4 GT PUSH2 0xCA6 JUMPI DUP3 SWAP1 SUB PUSH1 0x1F AND DUP3 ADD SWAP2 JUMPDEST POP POP POP POP POP DUP2 MSTORE PUSH1 0x20 ADD PUSH1 0x1 DUP3 ADD PUSH1 0x0 SWAP1 SLOAD SWAP1 PUSH2 0x100 EXP SWAP1 DIV PUSH20 0xFFFFFFFFFFFFFFFFFFFFFFFFFFFFFFFFFFFFFFFF AND PUSH20 0xFFFFFFFFFFFFFFFFFFFFFFFFFFFFFFFFFFFFFFFF AND PUSH20 0xFFFFFFFFFFFFFFFFFFFFFFFFFFFFFFFFFFFFFFFF AND DUP2 MSTORE PUSH1 0x20 ADD PUSH1 0x2 DUP3 ADD SLOAD DUP2 MSTORE PUSH1 0x20 ADD PUSH1 0x3 DUP3 ADD SLOAD DUP2 MSTORE POP POP DUP2 MSTORE PUSH1 0x20 ADD SWAP1 PUSH1 0x1 ADD SWAP1 PUSH2 0xC17 JUMP JUMPDEST POP POP POP POP SWAP1 POP SWAP1 JUMP JUMPDEST PUSH1 0x0 PUSH1 0xB DUP1 SLOAD SWAP1 POP SWAP1 POP PUSH1 0xB PUSH1 0x1 DUP2 PUSH1 0x1 DUP2 SLOAD ADD DUP1 DUP3 SSTORE DUP1 SWAP2 POP POP SUB SWAP1 PUSH1 0x0 MSTORE PUSH1 0x20 PUSH1 0x0 KECCAK256 SWAP1 POP POP PUSH1 0x0 PUSH1 0xB DUP3 DUP2 SLOAD DUP2 LT PUSH2 0xD8C JUMPI PUSH2 0xD8B PUSH2 0x16A0 JUMP JUMPDEST JUMPDEST SWAP1 PUSH1 0x0 MSTORE PUSH1 0x20 PUSH1 0x0 KECCAK256 SWAP1 PUSH1 0x8 MUL ADD SWAP1 POP DUP7 DUP2 PUSH1 0x0 ADD SWAP1 DUP1 MLOAD SWAP1 PUSH1 0x20 ADD SWAP1 PUSH2 0xDB4 SWAP3 SWAP2 SWAP1 PUSH2 0xEBE JUMP JUMPDEST POP DUP6 DUP2 PUSH1 0x1 ADD SWAP1 DUP1 MLOAD SWAP1 PUSH1 0x20 ADD SWAP1 PUSH2 0xDCD SWAP3 SWAP2 SWAP1 PUSH2 0xEBE JUMP JUMPDEST POP DUP5 DUP2 PUSH1 0x2 ADD SWAP1 DUP1 MLOAD SWAP1 PUSH1 0x20 ADD SWAP1 PUSH2 0xDE6 SWAP3 SWAP2 SWAP1 PUSH2 0xEBE JUMP JUMPDEST POP DUP4 DUP2 PUSH1 0x3 ADD DUP2 SWAP1 SSTORE POP CALLER DUP2 PUSH1 0x4 ADD PUSH1 0x0 PUSH2 0x100 EXP DUP2 SLOAD DUP2 PUSH20 0xFFFFFFFFFFFFFFFFFFFFFFFFFFFFFFFFFFFFFFFF MUL NOT AND SWAP1 DUP4 PUSH20 0xFFFFFFFFFFFFFFFFFFFFFFFFFFFFFFFFFFFFFFFF AND MUL OR SWAP1 SSTORE POP DUP3 DUP2 PUSH1 0x5 ADD PUSH1 0x0 PUSH2 0x100 EXP DUP2 SLOAD DUP2 PUSH20 0xFFFFFFFFFFFFFFFFFFFFFFFFFFFFFFFFFFFFFFFF MUL NOT AND SWAP1 DUP4 PUSH20 0xFFFFFFFFFFFFFFFFFFFFFFFFFFFFFFFFFFFFFFFF AND MUL OR SWAP1 SSTORE POP PUSH1 0x0 DUP2 PUSH1 0x5 ADD PUSH1 0x14 PUSH2 0x100 EXP DUP2 SLOAD DUP2 PUSH1 0xFF MUL NOT AND SWAP1 DUP4 ISZERO ISZERO MUL OR SWAP1 SSTORE POP PUSH1 0x0 DUP2 PUSH1 0x7 ADD DUP2 SWAP1 SSTORE POP PUSH1 0xA PUSH1 0x0 DUP2 SLOAD DUP1 SWAP3 SWAP2 SWAP1 PUSH2 0xEB0 SWAP1 PUSH2 0x16FE JUMP JUMPDEST SWAP2 SWAP1 POP SSTORE POP POP POP POP POP POP POP POP JUMP JUMPDEST DUP3 DUP1 SLOAD PUSH2 0xECA SWAP1 PUSH2 0x166E JUMP JUMPDEST SWAP1 PUSH1 0x0 MSTORE PUSH1 0x20 PUSH1 0x0 KECCAK256 SWAP1 PUSH1 0x1F ADD PUSH1 0x20 SWAP1 DIV DUP2 ADD SWAP3 DUP3 PUSH2 0xEEC JUMPI PUSH1 0x0 DUP6 SSTORE PUSH2 0xF33 JUMP JUMPDEST DUP3 PUSH1 0x1F LT PUSH2 0xF05 JUMPI DUP1 MLOAD PUSH1 0xFF NOT AND DUP4 DUP1 ADD OR DUP6 SSTORE PUSH2 0xF33 JUMP JUMPDEST DUP3 DUP1 ADD PUSH1 0x1 ADD DUP6 SSTORE DUP3 ISZERO PUSH2 0xF33 JUMPI SWAP2 DUP3 ADD JUMPDEST DUP3 DUP2 GT ISZERO PUSH2 0xF32 JUMPI DUP3 MLOAD DUP3 SSTORE SWAP2 PUSH1 0x20 ADD SWAP2 SWAP1 PUSH1 0x1 ADD SWAP1 PUSH2 0xF17 JUMP JUMPDEST JUMPDEST POP SWAP1 POP PUSH2 0xF40 SWAP2 SWAP1 PUSH2 0xF44 JUMP JUMPDEST POP SWAP1 JUMP JUMPDEST JUMPDEST DUP1 DUP3 GT ISZERO PUSH2 0xF5D JUMPI PUSH1 0x0 DUP2 PUSH1 0x0 SWAP1 SSTORE POP PUSH1 0x1 ADD PUSH2 0xF45 JUMP JUMPDEST POP SWAP1 JUMP JUMPDEST PUSH1 0x0 DUP2 MLOAD SWAP1 POP SWAP2 SWAP1 POP JUMP JUMPDEST PUSH1 0x0 DUP3 DUP3 MSTORE PUSH1 0x20 DUP3 ADD SWAP1 POP SWAP3 SWAP2 POP POP JUMP JUMPDEST PUSH1 0x0 JUMPDEST DUP4 DUP2 LT ISZERO PUSH2 0xF9B JUMPI DUP1 DUP3 ADD MLOAD DUP2 DUP5 ADD MSTORE PUSH1 0x20 DUP2 ADD SWAP1 POP PUSH2 0xF80 JUMP JUMPDEST DUP4 DUP2 GT ISZERO PUSH2 0xFAA JUMPI PUSH1 0x0 DUP5 DUP5 ADD MSTORE JUMPDEST POP POP POP POP JUMP JUMPDEST PUSH1 0x0 PUSH1 0x1F NOT PUSH1 0x1F DUP4 ADD AND SWAP1 POP SWAP2 SWAP1 POP JUMP JUMPDEST PUSH1 0x0 PUSH2 0xFCC DUP3 PUSH2 0xF61 JUMP JUMPDEST PUSH2 0xFD6 DUP2 DUP6 PUSH2 0xF6C JUMP JUMPDEST SWAP4 POP PUSH2 0xFE6 DUP2 DUP6 PUSH1 0x20 DUP7 ADD PUSH2 0xF7D JUMP JUMPDEST PUSH2 0xFEF DUP2 PUSH2 0xFB0 JUMP JUMPDEST DUP5 ADD SWAP2 POP POP SWAP3 SWAP2 POP POP JUMP JUMPDEST PUSH1 0x0 DUP2 SWAP1 POP SWAP2 SWAP1 POP JUMP JUMPDEST PUSH2 0x100D DUP2 PUSH2 0xFFA JUMP JUMPDEST DUP3 MSTORE POP POP JUMP JUMPDEST PUSH1 0x0 PUSH20 0xFFFFFFFFFFFFFFFFFFFFFFFFFFFFFFFFFFFFFFFF DUP3 AND SWAP1 POP SWAP2 SWAP1 POP JUMP JUMPDEST PUSH1 0x0 PUSH2 0x103E DUP3 PUSH2 0x1013 JUMP JUMPDEST SWAP1 POP SWAP2 SWAP1 POP JUMP JUMPDEST PUSH2 0x104E DUP2 PUSH2 0x1033 JUMP JUMPDEST DUP3 MSTORE POP POP JUMP JUMPDEST PUSH1 0x0 DUP2 ISZERO ISZERO SWAP1 POP SWAP2 SWAP1 POP JUMP JUMPDEST PUSH2 0x1069 DUP2 PUSH2 0x1054 JUMP JUMPDEST DUP3 MSTORE POP POP JUMP JUMPDEST PUSH1 0x0 PUSH2 0x100 DUP3 ADD SWAP1 POP DUP2 DUP2 SUB PUSH1 0x0 DUP4 ADD MSTORE PUSH2 0x108A DUP2 DUP12 PUSH2 0xFC1 JUMP JUMPDEST SWAP1 POP DUP2 DUP2 SUB PUSH1 0x20 DUP4 ADD MSTORE PUSH2 0x109E DUP2 DUP11 PUSH2 0xFC1 JUMP JUMPDEST SWAP1 POP DUP2 DUP2 SUB PUSH1 0x40 DUP4 ADD MSTORE PUSH2 0x10B2 DUP2 DUP10 PUSH2 0xFC1 JUMP JUMPDEST SWAP1 POP PUSH2 0x10C1 PUSH1 0x60 DUP4 ADD DUP9 PUSH2 0x1004 JUMP JUMPDEST PUSH2 0x10CE PUSH1 0x80 DUP4 ADD DUP8 PUSH2 0x1045 JUMP JUMPDEST PUSH2 0x10DB PUSH1 0xA0 DUP4 ADD DUP7 PUSH2 0x1045 JUMP JUMPDEST PUSH2 0x10E8 PUSH1 0xC0 DUP4 ADD DUP6 PUSH2 0x1060 JUMP JUMPDEST PUSH2 0x10F5 PUSH1 0xE0 DUP4 ADD DUP5 PUSH2 0x1004 JUMP JUMPDEST SWAP10 SWAP9 POP POP POP POP POP POP POP POP POP JUMP JUMPDEST PUSH1 0x0 PUSH1 0x20 DUP3 ADD SWAP1 POP PUSH2 0x1117 PUSH1 0x0 DUP4 ADD DUP5 PUSH2 0x1004 JUMP JUMPDEST SWAP3 SWAP2 POP POP JUMP JUMPDEST PUSH1 0x0 PUSH1 0x40 MLOAD SWAP1 POP SWAP1 JUMP JUMPDEST PUSH1 0x0 DUP1 REVERT JUMPDEST PUSH1 0x0 DUP1 REVERT JUMPDEST PUSH2 0x113A DUP2 PUSH2 0xFFA JUMP JUMPDEST DUP2 EQ PUSH2 0x1145 JUMPI PUSH1 0x0 DUP1 REVERT JUMPDEST POP JUMP JUMPDEST PUSH1 0x0 DUP2 CALLDATALOAD SWAP1 POP PUSH2 0x1157 DUP2 PUSH2 0x1131 JUMP JUMPDEST SWAP3 SWAP2 POP POP JUMP JUMPDEST PUSH1 0x0 PUSH1 0x20 DUP3 DUP5 SUB SLT ISZERO PUSH2 0x1173 JUMPI PUSH2 0x1172 PUSH2 0x1127 JUMP JUMPDEST JUMPDEST PUSH1 0x0 PUSH2 0x1181 DUP5 DUP3 DUP6 ADD PUSH2 0x1148 JUMP JUMPDEST SWAP2 POP POP SWAP3 SWAP2 POP POP JUMP JUMPDEST PUSH1 0x0 PUSH1 0x80 DUP3 ADD SWAP1 POP DUP2 DUP2 SUB PUSH1 0x0 DUP4 ADD MSTORE PUSH2 0x11A4 DUP2 DUP8 PUSH2 0xFC1 JUMP JUMPDEST SWAP1 POP PUSH2 0x11B3 PUSH1 0x20 DUP4 ADD DUP7 PUSH2 0x1045 JUMP JUMPDEST PUSH2 0x11C0 PUSH1 0x40 DUP4 ADD DUP6 PUSH2 0x1004 JUMP JUMPDEST PUSH2 0x11CD PUSH1 0x60 DUP4 ADD DUP5 PUSH2 0x1004 JUMP JUMPDEST SWAP6 SWAP5 POP POP POP POP POP JUMP JUMPDEST PUSH1 0x0 DUP1 REVERT JUMPDEST PUSH1 0x0 DUP1 REVERT JUMPDEST PUSH32 0x4E487B7100000000000000000000000000000000000000000000000000000000 PUSH1 0x0 MSTORE PUSH1 0x41 PUSH1 0x4 MSTORE PUSH1 0x24 PUSH1 0x0 REVERT JUMPDEST PUSH2 0x1218 DUP3 PUSH2 0xFB0 JUMP JUMPDEST DUP2 ADD DUP2 DUP2 LT PUSH8 0xFFFFFFFFFFFFFFFF DUP3 GT OR ISZERO PUSH2 0x1237 JUMPI PUSH2 0x1236 PUSH2 0x11E0 JUMP JUMPDEST JUMPDEST DUP1 PUSH1 0x40 MSTORE POP POP POP JUMP JUMPDEST PUSH1 0x0 PUSH2 0x124A PUSH2 0x111D JUMP JUMPDEST SWAP1 POP PUSH2 0x1256 DUP3 DUP3 PUSH2 0x120F JUMP JUMPDEST SWAP2 SWAP1 POP JUMP JUMPDEST PUSH1 0x0 PUSH8 0xFFFFFFFFFFFFFFFF DUP3 GT ISZERO PUSH2 0x1276 JUMPI PUSH2 0x1275 PUSH2 0x11E0 JUMP JUMPDEST JUMPDEST PUSH2 0x127F DUP3 PUSH2 0xFB0 JUMP JUMPDEST SWAP1 POP PUSH1 0x20 DUP2 ADD SWAP1 POP SWAP2 SWAP1 POP JUMP JUMPDEST DUP3 DUP2 DUP4 CALLDATACOPY PUSH1 0x0 DUP4 DUP4 ADD MSTORE POP POP POP JUMP JUMPDEST PUSH1 0x0 PUSH2 0x12AE PUSH2 0x12A9 DUP5 PUSH2 0x125B JUMP JUMPDEST PUSH2 0x1240 JUMP JUMPDEST SWAP1 POP DUP3 DUP2 MSTORE PUSH1 0x20 DUP2 ADD DUP5 DUP5 DUP5 ADD GT ISZERO PUSH2 0x12CA JUMPI PUSH2 0x12C9 PUSH2 0x11DB JUMP JUMPDEST JUMPDEST PUSH2 0x12D5 DUP5 DUP3 DUP6 PUSH2 0x128C JUMP JUMPDEST POP SWAP4 SWAP3 POP POP POP JUMP JUMPDEST PUSH1 0x0 DUP3 PUSH1 0x1F DUP4 ADD SLT PUSH2 0x12F2 JUMPI PUSH2 0x12F1 PUSH2 0x11D6 JUMP JUMPDEST JUMPDEST DUP2 CALLDATALOAD PUSH2 0x1302 DUP5 DUP3 PUSH1 0x20 DUP7 ADD PUSH2 0x129B JUMP JUMPDEST SWAP2 POP POP SWAP3 SWAP2 POP POP JUMP JUMPDEST PUSH1 0x0 DUP1 PUSH1 0x0 PUSH1 0x60 DUP5 DUP7 SUB SLT ISZERO PUSH2 0x1324 JUMPI PUSH2 0x1323 PUSH2 0x1127 JUMP JUMPDEST JUMPDEST PUSH1 0x0 DUP5 ADD CALLDATALOAD PUSH8 0xFFFFFFFFFFFFFFFF DUP2 GT ISZERO PUSH2 0x1342 JUMPI PUSH2 0x1341 PUSH2 0x112C JUMP JUMPDEST JUMPDEST PUSH2 0x134E DUP7 DUP3 DUP8 ADD PUSH2 0x12DD JUMP JUMPDEST SWAP4 POP POP PUSH1 0x20 PUSH2 0x135F DUP7 DUP3 DUP8 ADD PUSH2 0x1148 JUMP JUMPDEST SWAP3 POP POP PUSH1 0x40 PUSH2 0x1370 DUP7 DUP3 DUP8 ADD PUSH2 0x1148 JUMP JUMPDEST SWAP2 POP POP SWAP3 POP SWAP3 POP SWAP3 JUMP JUMPDEST PUSH1 0x0 PUSH1 0x20 DUP3 ADD SWAP1 POP PUSH2 0x138F PUSH1 0x0 DUP4 ADD DUP5 PUSH2 0x1045 JUMP JUMPDEST SWAP3 SWAP2 POP POP JUMP JUMPDEST PUSH1 0x0 DUP2 MLOAD SWAP1 POP SWAP2 SWAP1 POP JUMP JUMPDEST PUSH1 0x0 DUP3 DUP3 MSTORE PUSH1 0x20 DUP3 ADD SWAP1 POP SWAP3 SWAP2 POP POP JUMP JUMPDEST PUSH1 0x0 DUP2 SWAP1 POP PUSH1 0x20 DUP3 ADD SWAP1 POP SWAP2 SWAP1 POP JUMP JUMPDEST PUSH1 0x0 DUP3 DUP3 MSTORE PUSH1 0x20 DUP3 ADD SWAP1 POP SWAP3 SWAP2 POP POP JUMP JUMPDEST PUSH1 0x0 PUSH2 0x13DD DUP3 PUSH2 0xF61 JUMP JUMPDEST PUSH2 0x13E7 DUP2 DUP6 PUSH2 0x13C1 JUMP JUMPDEST SWAP4 POP PUSH2 0x13F7 DUP2 DUP6 PUSH1 0x20 DUP7 ADD PUSH2 0xF7D JUMP JUMPDEST PUSH2 0x1400 DUP2 PUSH2 0xFB0 JUMP JUMPDEST DUP5 ADD SWAP2 POP POP SWAP3 SWAP2 POP POP JUMP JUMPDEST PUSH2 0x1414 DUP2 PUSH2 0x1033 JUMP JUMPDEST DUP3 MSTORE POP POP JUMP JUMPDEST PUSH2 0x1423 DUP2 PUSH2 0xFFA JUMP JUMPDEST DUP3 MSTORE POP POP JUMP JUMPDEST PUSH1 0x0 PUSH1 0x80 DUP4 ADD PUSH1 0x0 DUP4 ADD MLOAD DUP5 DUP3 SUB PUSH1 0x0 DUP7 ADD MSTORE PUSH2 0x1446 DUP3 DUP3 PUSH2 0x13D2 JUMP JUMPDEST SWAP2 POP POP PUSH1 0x20 DUP4 ADD MLOAD PUSH2 0x145B PUSH1 0x20 DUP7 ADD DUP3 PUSH2 0x140B JUMP JUMPDEST POP PUSH1 0x40 DUP4 ADD MLOAD PUSH2 0x146E PUSH1 0x40 DUP7 ADD DUP3 PUSH2 0x141A JUMP JUMPDEST POP PUSH1 0x60 DUP4 ADD MLOAD PUSH2 0x1481 PUSH1 0x60 DUP7 ADD DUP3 PUSH2 0x141A JUMP JUMPDEST POP DUP1 SWAP2 POP POP SWAP3 SWAP2 POP POP JUMP JUMPDEST PUSH1 0x0 PUSH2 0x1498 DUP4 DUP4 PUSH2 0x1429 JUMP JUMPDEST SWAP1 POP SWAP3 SWAP2 POP POP JUMP JUMPDEST PUSH1 0x0 PUSH1 0x20 DUP3 ADD SWAP1 POP SWAP2 SWAP1 POP JUMP JUMPDEST PUSH1 0x0 PUSH2 0x14B8 DUP3 PUSH2 0x1395 JUMP JUMPDEST PUSH2 0x14C2 DUP2 DUP6 PUSH2 0x13A0 JUMP JUMPDEST SWAP4 POP DUP4 PUSH1 0x20 DUP3 MUL DUP6 ADD PUSH2 0x14D4 DUP6 PUSH2 0x13B1 JUMP JUMPDEST DUP1 PUSH1 0x0 JUMPDEST DUP6 DUP2 LT ISZERO PUSH2 0x1510 JUMPI DUP5 DUP5 SUB DUP10 MSTORE DUP2 MLOAD PUSH2 0x14F1 DUP6 DUP3 PUSH2 0x148C JUMP JUMPDEST SWAP5 POP PUSH2 0x14FC DUP4 PUSH2 0x14A0 JUMP JUMPDEST SWAP3 POP PUSH1 0x20 DUP11 ADD SWAP10 POP POP PUSH1 0x1 DUP2 ADD SWAP1 POP PUSH2 0x14D8 JUMP JUMPDEST POP DUP3 SWAP8 POP DUP8 SWAP6 POP POP POP POP POP POP SWAP3 SWAP2 POP POP JUMP JUMPDEST PUSH1 0x0 PUSH1 0x20 DUP3 ADD SWAP1 POP DUP2 DUP2 SUB PUSH1 0x0 DUP4 ADD MSTORE PUSH2 0x153C DUP2 DUP5 PUSH2 0x14AD JUMP JUMPDEST SWAP1 POP SWAP3 SWAP2 POP POP JUMP JUMPDEST PUSH2 0x154D DUP2 PUSH2 0x1033 JUMP JUMPDEST DUP2 EQ PUSH2 0x1558 JUMPI PUSH1 0x0 DUP1 REVERT JUMPDEST POP JUMP JUMPDEST PUSH1 0x0 DUP2 CALLDATALOAD SWAP1 POP PUSH2 0x156A DUP2 PUSH2 0x1544 JUMP JUMPDEST SWAP3 SWAP2 POP POP JUMP JUMPDEST PUSH1 0x0 DUP1 PUSH1 0x0 DUP1 PUSH1 0x0 PUSH1 0xA0 DUP7 DUP9 SUB SLT ISZERO PUSH2 0x158C JUMPI PUSH2 0x158B PUSH2 0x1127 JUMP JUMPDEST JUMPDEST PUSH1 0x0 DUP7 ADD CALLDATALOAD PUSH8 0xFFFFFFFFFFFFFFFF DUP2 GT ISZERO PUSH2 0x15AA JUMPI PUSH2 0x15A9 PUSH2 0x112C JUMP JUMPDEST JUMPDEST PUSH2 0x15B6 DUP9 DUP3 DUP10 ADD PUSH2 0x12DD JUMP JUMPDEST SWAP6 POP POP PUSH1 0x20 DUP7 ADD CALLDATALOAD PUSH8 0xFFFFFFFFFFFFFFFF DUP2 GT ISZERO PUSH2 0x15D7 JUMPI PUSH2 0x15D6 PUSH2 0x112C JUMP JUMPDEST JUMPDEST PUSH2 0x15E3 DUP9 DUP3 DUP10 ADD PUSH2 0x12DD JUMP JUMPDEST SWAP5 POP POP PUSH1 0x40 DUP7 ADD CALLDATALOAD PUSH8 0xFFFFFFFFFFFFFFFF DUP2 GT ISZERO PUSH2 0x1604 JUMPI PUSH2 0x1603 PUSH2 0x112C JUMP JUMPDEST JUMPDEST PUSH2 0x1610 DUP9 DUP3 DUP10 ADD PUSH2 0x12DD JUMP JUMPDEST SWAP4 POP POP PUSH1 0x60 PUSH2 0x1621 DUP9 DUP3 DUP10 ADD PUSH2 0x1148 JUMP JUMPDEST SWAP3 POP POP PUSH1 0x80 PUSH2 0x1632 DUP9 DUP3 DUP10 ADD PUSH2 0x155B JUMP JUMPDEST SWAP2 POP POP SWAP3 SWAP6 POP SWAP3 SWAP6 SWAP1 SWAP4 POP JUMP JUMPDEST PUSH32 0x4E487B7100000000000000000000000000000000000000000000000000000000 PUSH1 0x0 MSTORE PUSH1 0x22 PUSH1 0x4 MSTORE PUSH1 0x24 PUSH1 0x0 REVERT JUMPDEST PUSH1 0x0 PUSH1 0x2 DUP3 DIV SWAP1 POP PUSH1 0x1 DUP3 AND DUP1 PUSH2 0x1686 JUMPI PUSH1 0x7F DUP3 AND SWAP2 POP JUMPDEST PUSH1 0x20 DUP3 LT DUP2 EQ ISZERO PUSH2 0x169A JUMPI PUSH2 0x1699 PUSH2 0x163F JUMP JUMPDEST JUMPDEST POP SWAP2 SWAP1 POP JUMP JUMPDEST PUSH32 0x4E487B7100000000000000000000000000000000000000000000000000000000 PUSH1 0x0 MSTORE PUSH1 0x32 PUSH1 0x4 MSTORE PUSH1 0x24 PUSH1 0x0 REVERT JUMPDEST PUSH32 0x4E487B7100000000000000000000000000000000000000000000000000000000 PUSH1 0x0 MSTORE PUSH1 0x11 PUSH1 0x4 MSTORE PUSH1 0x24 PUSH1 0x0 REVERT JUMPDEST PUSH1 0x0 PUSH2 0x1709 DUP3 PUSH2 0xFFA JUMP JUMPDEST SWAP2 POP PUSH32 0xFFFFFFFFFFFFFFFFFFFFFFFFFFFFFFFFFFFFFFFFFFFFFFFFFFFFFFFFFFFFFFFF DUP3 EQ ISZERO PUSH2 0x173C JUMPI PUSH2 0x173B PUSH2 0x16CF JUMP JUMPDEST JUMPDEST PUSH1 0x1 DUP3 ADD SWAP1 POP SWAP2 SWAP1 POP JUMP JUMPDEST PUSH32 0x4E487B7100000000000000000000000000000000000000000000000000000000 PUSH1 0x0 MSTORE PUSH1 0x12 PUSH1 0x4 MSTORE PUSH1 0x24 PUSH1 0x0 REVERT JUMPDEST PUSH1 0x0 PUSH2 0x1781 DUP3 PUSH2 0xFFA JUMP JUMPDEST SWAP2 POP PUSH2 0x178C DUP4 PUSH2 0xFFA JUMP JUMPDEST SWAP3 POP DUP3 PUSH2 0x179C JUMPI PUSH2 0x179B PUSH2 0x1747 JUMP JUMPDEST JUMPDEST DUP3 DUP3 DIV SWAP1 POP SWAP3 SWAP2 POP POP JUMP INVALID LOG2 PUSH5 0x6970667358 0x22 SLT KECCAK256 0xB6 0xB6 EXP 0xC9 PUSH14 0xC87A1C0FD07D0911CBC29E4E2FAD 0xD5 0xA7 0xCE JUMPDEST 0xBD MULMOD 0xA7 GT 0xDE SWAP15 0xDE STATICCALL PUSH3 0x64736F PUSH13 0x63430008090033000000000000 "},"gasEstimates":{"creation":{"codeDepositCost":"1221800","executionCost":"49906","totalCost":"1271706"},"external":{"approveClaim(uint256)":"infinite","claim(string,string,string,uint256,address)":"infinite","claiming()":"infinite","claims(uint256)":"infinite","contribute(string,uint256,uint256)":"infinite","contributors(uint256)":"infinite","getContributors()":"infinite","getContributorsNum()":"2468","owner()":"2536","population()":"2429","startStudy(uint256)":"infinite"}},"methodIdentifiers":{"approveClaim(uint256)":"46e30135","claim(string,string,string,uint256,address)":"ec729859","claiming()":"0defc08a","claims(uint256)":"a888c2cd","contribute(string,uint256,uint256)":"64f745a7","contributors(uint256)":"3cb5d100","getContributors()":"af157c19","getContributorsNum()":"39e77905","owner()":"8da5cb5b","population()":"78880f4a","startStudy(uint256)":"a5f7542a"}},"storageLayout":{"storage":[{"astId":34,"contract":"Appetito.sol:Appetito","label":"claiming","offset":0,"slot":"0","type":"t_struct(ClaimType)22_storage"},{"astId":36,"contract":"Appetito.sol:Appetito","label":"owner","offset":0,"slot":"8","type":"t_address"},{"astId":40,"contract":"Appetito.sol:Appetito","label":"contributors","offset":0,"slot":"9","type":"t_array(t_struct(ContibutorType)31_storage)dyn_storage"},{"astId":42,"contract":"Appetito.sol:Appetito","label":"population","offset":0,"slot":"10","type":"t_uint256"},{"astId":46,"contract":"Appetito.sol:Appetito","label":"claims","offset":0,"slot":"11","type":"t_array(t_struct(ClaimType)22_storage)dyn_storage"}],"types":{"t_address":{"encoding":"inplace","label":"address","numberOfBytes":"20"},"t_array(t_struct(ClaimType)22_storage)dyn_storage":{"base":"t_struct(ClaimType)22_storage","encoding":"dynamic_array","label":"struct Appetito.ClaimType[]","numberOfBytes":"32"},"t_array(t_struct(ContibutorType)31_storage)dyn_storage":{"base":"t_struct(ContibutorType)31_storage","encoding":"dynamic_array","label":"struct Appetito.ContibutorType[]","numberOfBytes":"32"},"t_bool":{"encoding":"inplace","label":"bool","numberOfBytes":"1"},"t_mapping(t_address,t_bool)":{"encoding":"mapping","key":"t_address","label":"mapping(address => bool)","numberOfBytes":"32","value":"t_bool"},"t_string_storage":{"encoding":"bytes","label":"string","numberOfBytes":"32"},"t_struct(ClaimType)22_storage":{"encoding":"inplace","label":"struct Appetito.ClaimType","members":[{"astId":3,"contract":"Appetito.sol:Appetito","label":"dreamJob","offset":0,"slot":"0","type":"t_string_storage"},{"astId":5,"contract":"Appetito.sol:Appetito","label":"purpose","offset":0,"slot":"1","type":"t_string_storage"},{"astId":7,"contract":"Appetito.sol:Appetito","label":"description","offset":0,"slot":"2","type":"t_string_storage"},{"astId":9,"contract":"Appetito.sol:Appetito","label":"value","offset":0,"slot":"3","type":"t_uint256"},{"astId":11,"contract":"Appetito.sol:Appetito","label":"claimer","offset":0,"slot":"4","type":"t_address"},{"astId":13,"contract":"Appetito.sol:Appetito","label":"recipient","offset":0,"slot":"5","type":"t_address"},{"astId":15,"contract":"Appetito.sol:Appetito","label":"done","offset":20,"slot":"5","type":"t_bool"},{"astId":19,"contract":"Appetito.sol:Appetito","label":"approvers","offset":0,"slot":"6","type":"t_mapping(t_address,t_bool)"},{"astId":21,"contract":"Appetito.sol:Appetito","label":"approvedCounts","offset":0,"slot":"7","type":"t_uint256"}],"numberOfBytes":"256"},"t_struct(ContibutorType)31_storage":{"encoding":"inplace","label":"struct Appetito.ContibutorType","members":[{"astId":24,"contract":"Appetito.sol:Appetito","label":"nickName","offset":0,"slot":"0","type":"t_string_storage"},{"astId":26,"contract":"Appetito.sol:Appetito","label":"place","offset":0,"slot":"1","type":"t_address"},{"astId":28,"contract":"Appetito.sol:Appetito","label":"latitude","offset":0,"slot":"2","type":"t_uint256"},{"astId":30,"contract":"Appetito.sol:Appetito","label":"longitude","offset":0,"slot":"3","type":"t_uint256"}],"numberOfBytes":"128"},"t_uint256":{"encoding":"inplace","label":"uint256","numberOfBytes":"32"}}},"userdoc":{"kind":"user","methods":{},"version":1}}